{
  "contractName": "AccountInitializeV1",
  "abi": [
    {
      "anonymous": false,
      "inputs": [
        {
          "indexed": true,
          "internalType": "address",
          "name": "authKey",
          "type": "address"
        }
      ],
      "name": "AuthKeyAdded",
      "type": "event"
    },
    {
      "anonymous": false,
      "inputs": [
        {
          "indexed": true,
          "internalType": "address",
          "name": "authKey",
          "type": "address"
        }
      ],
      "name": "AuthKeyRemoved",
      "type": "event"
    },
    {
      "anonymous": false,
      "inputs": [
        {
          "indexed": false,
          "internalType": "string",
          "name": "reason",
          "type": "string"
        }
      ],
      "name": "CallFailed",
      "type": "event"
    },
    {
      "anonymous": false,
      "inputs": [
        {
          "indexed": true,
          "internalType": "address",
          "name": "implementation",
          "type": "address"
        }
      ],
      "name": "Upgraded",
      "type": "event"
    },
    {
      "constant": true,
      "inputs": [
        {
          "internalType": "address",
          "name": "",
          "type": "address"
        }
      ],
      "name": "authKeys",
      "outputs": [
        {
          "internalType": "bool",
          "name": "",
          "type": "bool"
        }
      ],
      "payable": false,
      "stateMutability": "view",
      "type": "function"
    },
    {
      "constant": true,
      "inputs": [],
      "name": "lastInitializedVersion",
      "outputs": [
        {
          "internalType": "uint256",
          "name": "",
          "type": "uint256"
        }
      ],
      "payable": false,
      "stateMutability": "view",
      "type": "function"
    },
    {
      "constant": true,
      "inputs": [],
      "name": "nonce",
      "outputs": [
        {
          "internalType": "uint256",
          "name": "",
          "type": "uint256"
        }
      ],
      "payable": false,
      "stateMutability": "view",
      "type": "function"
    },
    {
      "constant": true,
      "inputs": [],
      "name": "numAuthKeys",
      "outputs": [
        {
          "internalType": "uint256",
          "name": "",
          "type": "uint256"
        }
      ],
      "payable": false,
      "stateMutability": "view",
      "type": "function"
    },
    {
      "constant": false,
      "inputs": [
        {
          "internalType": "address",
          "name": "_authKey",
          "type": "address"
        }
      ],
      "name": "initializeV1",
      "outputs": [],
      "payable": false,
      "stateMutability": "nonpayable",
      "type": "function"
    }
  ],
  "bytecode": "0x608060405234801561001057600080fd5b506102ee806100206000396000f3fe608060405234801561001057600080fd5b50600436106100575760003560e01c80631b9a9f9e1461005c5780635175ca5e146100a05780637e7fd66c146100fc578063affed0e01461011a578063ec5e319e14610138575b600080fd5b61009e6004803603602081101561007257600080fd5b81019080803573ffffffffffffffffffffffffffffffffffffffff169060200190929190505050610156565b005b6100e2600480360360208110156100b657600080fd5b81019080803573ffffffffffffffffffffffffffffffffffffffff169060200190929190505050610266565b604051808215151515815260200191505060405180910390f35b610104610286565b6040518082815260200191505060405180910390f35b61012261028c565b6040518082815260200191505060405180910390f35b610140610292565b6040518082815260200191505060405180910390f35b60008054146101b0576040517f08c379a00000000000000000000000000000000000000000000000000000000081526004018080602001828103825260218152602001806102996021913960400191505060405180910390fd5b600160008190555060018060008373ffffffffffffffffffffffffffffffffffffffff1673ffffffffffffffffffffffffffffffffffffffff16815260200190815260200160002060006101000a81548160ff02191690831515021790555060016003600082825401925050819055508073ffffffffffffffffffffffffffffffffffffffff167fb020719d16d3c4de45a91f9c329aa61d5bad3f44f760840c8d5d82d4cd3bcc3360405160405180910390a250565b60016020528060005260406000206000915054906101000a900460ff1681565b60005481565b60025481565b6003548156fe41493a20496d70726f70657220696e697469616c697a6174696f6e206f72646572a265627a7a723158206885bdc92f8470db3d1aa88790f29967b9521b3b7ccdd905e27431f0fac8145564736f6c63430005100032",
  "source": "pragma solidity 0.5.16;\n\nimport \"../state/AccountState.sol\";\nimport \"../event/AccountEvents.sol\";\n\n/**\n * @title AccountInitializeV1\n * @author Authereum Labs, Inc.\n * @dev This contract holds the initialize function used by the account contracts.\n * @dev This abstraction exists in order to retain the order of the initialization functions.\n */\n\ncontract AccountInitializeV1 is AccountState, AccountEvents {\n\n    /// @dev Initialize the Authereum Account\n    /// @param _authKey authKey that will own this account\n    function initializeV1(\n        address _authKey\n    )\n        public\n    {\n        require(lastInitializedVersion == 0, \"AI: Improper initialization order\");\n        lastInitializedVersion = 1;\n\n        // Add first authKey\n        authKeys[_authKey] = true;\n        numAuthKeys += 1;\n        emit AuthKeyAdded(_authKey);\n    }\n}",
  "sourcePath": "/Users/smitrajput/Projects/batchoo/contracts/account/initializer/AccountInitializeV1.sol",
  "compiler": {
    "name": "solc",
    "version": "0.5.16+commit.9c3226ce.Emscripten.clang"
  },
  "schemaVersion": "3.1.0",
  "updatedAt": "2020-05-20T12:48:22.912Z",
  "devdoc": {
    "author": "Authereum Labs, Inc.",
    "details": "This contract holds the initialize function used by the account contracts.This abstraction exists in order to retain the order of the initialization functions.",
    "methods": {
      "initializeV1(address)": {
        "details": "Initialize the Authereum Account",
        "params": {
          "_authKey": "authKey that will own this account"
        }
      }
    },
    "title": "AccountInitializeV1"
  },
  "userdoc": {
    "methods": {}
  }
}