{
  "contractName": "AccountStateV1",
  "abi": [
    {
      "constant": true,
      "inputs": [
        {
          "internalType": "address",
          "name": "",
          "type": "address"
        }
      ],
      "name": "authKeys",
      "outputs": [
        {
          "internalType": "bool",
          "name": "",
          "type": "bool"
        }
      ],
      "payable": false,
      "stateMutability": "view",
      "type": "function"
    },
    {
      "constant": true,
      "inputs": [],
      "name": "lastInitializedVersion",
      "outputs": [
        {
          "internalType": "uint256",
          "name": "",
          "type": "uint256"
        }
      ],
      "payable": false,
      "stateMutability": "view",
      "type": "function"
    },
    {
      "constant": true,
      "inputs": [],
      "name": "nonce",
      "outputs": [
        {
          "internalType": "uint256",
          "name": "",
          "type": "uint256"
        }
      ],
      "payable": false,
      "stateMutability": "view",
      "type": "function"
    },
    {
      "constant": true,
      "inputs": [],
      "name": "numAuthKeys",
      "outputs": [
        {
          "internalType": "uint256",
          "name": "",
          "type": "uint256"
        }
      ],
      "payable": false,
      "stateMutability": "view",
      "type": "function"
    }
  ],
  "bytecode": "0x608060405234801561001057600080fd5b5061016e806100206000396000f3fe608060405234801561001057600080fd5b506004361061004c5760003560e01c80635175ca5e146100515780637e7fd66c146100ad578063affed0e0146100cb578063ec5e319e146100e9575b600080fd5b6100936004803603602081101561006757600080fd5b81019080803573ffffffffffffffffffffffffffffffffffffffff169060200190929190505050610107565b604051808215151515815260200191505060405180910390f35b6100b5610127565b6040518082815260200191505060405180910390f35b6100d361012d565b6040518082815260200191505060405180910390f35b6100f1610133565b6040518082815260200191505060405180910390f35b60016020528060005260406000206000915054906101000a900460ff1681565b60005481565b60025481565b6003548156fea265627a7a723158208b49d6ab026f48a34a2b51b52730ad072f36b1eed1b5503e14a6695efb27e81864736f6c63430005100032",
  "source": "pragma solidity 0.5.16;\n\n/**\n * @title AccountStateV1\n * @author Authereum Labs, Inc.\n * @dev This contract holds the state variables used by the account contracts.\n * @dev This abstraction exists in order to retain the order of the state variables.\n */\n\ncontract AccountStateV1 {\n    uint256 public lastInitializedVersion;\n    mapping(address => bool) public authKeys;\n    uint256 public nonce;\n    uint256 public numAuthKeys;\n}",
  "sourcePath": "/Users/smitrajput/Projects/batchoo/contracts/account/state/AccountStateV1.sol",
  "compiler": {
    "name": "solc",
    "version": "0.5.16+commit.9c3226ce.Emscripten.clang"
  },
  "schemaVersion": "3.1.0",
  "updatedAt": "2020-05-20T12:48:22.915Z",
  "devdoc": {
    "author": "Authereum Labs, Inc.",
    "details": "This contract holds the state variables used by the account contracts.This abstraction exists in order to retain the order of the state variables.",
    "methods": {},
    "title": "AccountStateV1"
  },
  "userdoc": {
    "methods": {}
  }
}