{
  "contractName": "AuthereumEnsManager",
  "abi": [
    {
      "inputs": [
        {
          "internalType": "string",
          "name": "_rootName",
          "type": "string"
        },
        {
          "internalType": "bytes32",
          "name": "_rootNode",
          "type": "bytes32"
        },
        {
          "internalType": "address",
          "name": "_ensRegistry",
          "type": "address"
        },
        {
          "internalType": "address",
          "name": "_authereumEnsResolver",
          "type": "address"
        }
      ],
      "payable": false,
      "stateMutability": "nonpayable",
      "type": "constructor"
    },
    {
      "anonymous": false,
      "inputs": [
        {
          "indexed": true,
          "internalType": "address",
          "name": "authereumEnsResolver",
          "type": "address"
        }
      ],
      "name": "AuthereumEnsResolverChanged",
      "type": "event"
    },
    {
      "anonymous": false,
      "inputs": [
        {
          "indexed": true,
          "internalType": "address",
          "name": "authereumFactoryAddress",
          "type": "address"
        }
      ],
      "name": "AuthereumFactoryAddressChanged",
      "type": "event"
    },
    {
      "anonymous": false,
      "inputs": [
        {
          "indexed": true,
          "internalType": "bytes32",
          "name": "authereumProxyRuntimeCodeHash",
          "type": "bytes32"
        },
        {
          "indexed": true,
          "internalType": "bytes32",
          "name": "authereumProxyCreationCodeHash",
          "type": "bytes32"
        }
      ],
      "name": "AuthereumProxyBytecodeHashChanged",
      "type": "event"
    },
    {
      "anonymous": false,
      "inputs": [
        {
          "indexed": true,
          "internalType": "address",
          "name": "_newOwner",
          "type": "address"
        }
      ],
      "name": "OwnerChanged",
      "type": "event"
    },
    {
      "anonymous": false,
      "inputs": [
        {
          "indexed": true,
          "internalType": "address",
          "name": "owner",
          "type": "address"
        },
        {
          "indexed": false,
          "internalType": "string",
          "name": "ens",
          "type": "string"
        }
      ],
      "name": "Registered",
      "type": "event"
    },
    {
      "anonymous": false,
      "inputs": [
        {
          "indexed": true,
          "internalType": "bytes32",
          "name": "node",
          "type": "bytes32"
        },
        {
          "indexed": false,
          "internalType": "bytes",
          "name": "hash",
          "type": "bytes"
        }
      ],
      "name": "RootnodeContenthashChanged",
      "type": "event"
    },
    {
      "anonymous": false,
      "inputs": [
        {
          "indexed": true,
          "internalType": "bytes32",
          "name": "rootnode",
          "type": "bytes32"
        },
        {
          "indexed": true,
          "internalType": "address",
          "name": "newOwner",
          "type": "address"
        }
      ],
      "name": "RootnodeOwnerChanged",
      "type": "event"
    },
    {
      "anonymous": false,
      "inputs": [
        {
          "indexed": true,
          "internalType": "bytes32",
          "name": "rootnode",
          "type": "bytes32"
        },
        {
          "indexed": true,
          "internalType": "address",
          "name": "newResolver",
          "type": "address"
        }
      ],
      "name": "RootnodeResolverChanged",
      "type": "event"
    },
    {
      "anonymous": false,
      "inputs": [
        {
          "indexed": true,
          "internalType": "bytes32",
          "name": "rootnode",
          "type": "bytes32"
        },
        {
          "indexed": true,
          "internalType": "uint64",
          "name": "newTtl",
          "type": "uint64"
        }
      ],
      "name": "RootnodeTTLChanged",
      "type": "event"
    },
    {
      "anonymous": false,
      "inputs": [
        {
          "indexed": true,
          "internalType": "bytes32",
          "name": "node",
          "type": "bytes32"
        },
        {
          "indexed": true,
          "internalType": "string",
          "name": "indexedKey",
          "type": "string"
        },
        {
          "indexed": false,
          "internalType": "string",
          "name": "key",
          "type": "string"
        },
        {
          "indexed": false,
          "internalType": "string",
          "name": "value",
          "type": "string"
        }
      ],
      "name": "RootnodeTextChanged",
      "type": "event"
    },
    {
      "constant": true,
      "inputs": [],
      "name": "ADDR_REVERSE_NODE",
      "outputs": [
        {
          "internalType": "bytes32",
          "name": "",
          "type": "bytes32"
        }
      ],
      "payable": false,
      "stateMutability": "view",
      "type": "function"
    },
    {
      "constant": true,
      "inputs": [],
      "name": "authereumEnsManagerVersion",
      "outputs": [
        {
          "internalType": "string",
          "name": "",
          "type": "string"
        }
      ],
      "payable": false,
      "stateMutability": "view",
      "type": "function"
    },
    {
      "constant": true,
      "inputs": [],
      "name": "authereumEnsResolver",
      "outputs": [
        {
          "internalType": "address",
          "name": "",
          "type": "address"
        }
      ],
      "payable": false,
      "stateMutability": "view",
      "type": "function"
    },
    {
      "constant": true,
      "inputs": [],
      "name": "authereumFactoryAddress",
      "outputs": [
        {
          "internalType": "address",
          "name": "",
          "type": "address"
        }
      ],
      "payable": false,
      "stateMutability": "view",
      "type": "function"
    },
    {
      "constant": true,
      "inputs": [
        {
          "internalType": "bytes32",
          "name": "",
          "type": "bytes32"
        }
      ],
      "name": "authereumProxyBytecodeHashMapping",
      "outputs": [
        {
          "internalType": "bytes32",
          "name": "",
          "type": "bytes32"
        }
      ],
      "payable": false,
      "stateMutability": "view",
      "type": "function"
    },
    {
      "constant": false,
      "inputs": [
        {
          "internalType": "address",
          "name": "_newOwner",
          "type": "address"
        }
      ],
      "name": "changeOwner",
      "outputs": [],
      "payable": false,
      "stateMutability": "nonpayable",
      "type": "function"
    },
    {
      "constant": true,
      "inputs": [
        {
          "internalType": "address",
          "name": "_potentialOwner",
          "type": "address"
        }
      ],
      "name": "isOwner",
      "outputs": [
        {
          "internalType": "bool",
          "name": "",
          "type": "bool"
        }
      ],
      "payable": false,
      "stateMutability": "view",
      "type": "function"
    },
    {
      "constant": true,
      "inputs": [],
      "name": "owner",
      "outputs": [
        {
          "internalType": "address",
          "name": "",
          "type": "address"
        }
      ],
      "payable": false,
      "stateMutability": "view",
      "type": "function"
    },
    {
      "constant": true,
      "inputs": [],
      "name": "rootName",
      "outputs": [
        {
          "internalType": "string",
          "name": "",
          "type": "string"
        }
      ],
      "payable": false,
      "stateMutability": "view",
      "type": "function"
    },
    {
      "constant": true,
      "inputs": [],
      "name": "rootNode",
      "outputs": [
        {
          "internalType": "bytes32",
          "name": "",
          "type": "bytes32"
        }
      ],
      "payable": false,
      "stateMutability": "view",
      "type": "function"
    },
    {
      "constant": true,
      "inputs": [],
      "name": "getEnsRegistry",
      "outputs": [
        {
          "internalType": "contract EnsRegistry",
          "name": "",
          "type": "address"
        }
      ],
      "payable": false,
      "stateMutability": "view",
      "type": "function"
    },
    {
      "constant": true,
      "inputs": [],
      "name": "getEnsReverseRegistrar",
      "outputs": [
        {
          "internalType": "contract EnsReverseRegistrar",
          "name": "",
          "type": "address"
        }
      ],
      "payable": false,
      "stateMutability": "view",
      "type": "function"
    },
    {
      "constant": false,
      "inputs": [
        {
          "internalType": "address",
          "name": "_newOwner",
          "type": "address"
        }
      ],
      "name": "changeRootnodeOwner",
      "outputs": [],
      "payable": false,
      "stateMutability": "nonpayable",
      "type": "function"
    },
    {
      "constant": false,
      "inputs": [
        {
          "internalType": "address",
          "name": "_newResolver",
          "type": "address"
        }
      ],
      "name": "changeRootnodeResolver",
      "outputs": [],
      "payable": false,
      "stateMutability": "nonpayable",
      "type": "function"
    },
    {
      "constant": false,
      "inputs": [
        {
          "internalType": "uint64",
          "name": "_newTtl",
          "type": "uint64"
        }
      ],
      "name": "changeRootnodeTTL",
      "outputs": [],
      "payable": false,
      "stateMutability": "nonpayable",
      "type": "function"
    },
    {
      "constant": false,
      "inputs": [
        {
          "internalType": "string",
          "name": "_newKey",
          "type": "string"
        },
        {
          "internalType": "string",
          "name": "_newValue",
          "type": "string"
        }
      ],
      "name": "changeRootnodeText",
      "outputs": [],
      "payable": false,
      "stateMutability": "nonpayable",
      "type": "function"
    },
    {
      "constant": false,
      "inputs": [
        {
          "internalType": "bytes",
          "name": "_newHash",
          "type": "bytes"
        }
      ],
      "name": "changeRootnodeContenthash",
      "outputs": [],
      "payable": false,
      "stateMutability": "nonpayable",
      "type": "function"
    },
    {
      "constant": false,
      "inputs": [
        {
          "internalType": "address",
          "name": "_authereumEnsResolver",
          "type": "address"
        }
      ],
      "name": "changeAuthereumEnsResolver",
      "outputs": [],
      "payable": false,
      "stateMutability": "nonpayable",
      "type": "function"
    },
    {
      "constant": false,
      "inputs": [
        {
          "internalType": "address",
          "name": "_authereumFactoryAddress",
          "type": "address"
        }
      ],
      "name": "changeAuthereumFactoryAddress",
      "outputs": [],
      "payable": false,
      "stateMutability": "nonpayable",
      "type": "function"
    },
    {
      "constant": false,
      "inputs": [
        {
          "internalType": "string",
          "name": "_label",
          "type": "string"
        },
        {
          "internalType": "address",
          "name": "_owner",
          "type": "address"
        }
      ],
      "name": "register",
      "outputs": [],
      "payable": false,
      "stateMutability": "nonpayable",
      "type": "function"
    },
    {
      "constant": true,
      "inputs": [
        {
          "internalType": "bytes32",
          "name": "_subnode",
          "type": "bytes32"
        }
      ],
      "name": "isAvailable",
      "outputs": [
        {
          "internalType": "bool",
          "name": "",
          "type": "bool"
        }
      ],
      "payable": false,
      "stateMutability": "view",
      "type": "function"
    }
  ],
  "bytecode": "0x60806040523480156200001157600080fd5b5060405162002b2e38038062002b2e833981810160405260808110156200003757600080fd5b81019080805160405193929190846401000000008211156200005857600080fd5b838201915060208201858111156200006f57600080fd5b82518660018202830111640100000000821117156200008d57600080fd5b8083526020830192505050908051906020019080838360005b83811015620000c3578082015181840152602081019050620000a6565b50505050905090810190601f168015620000f15780820380516001836020036101000a031916815260200191505b50604052602001805190602001909291908051906020019092919080519060200190929190505050336000806101000a81548173ffffffffffffffffffffffffffffffffffffffff021916908373ffffffffffffffffffffffffffffffffffffffff16021790555083600290805190602001906200017192919062000205565b508260038190555081600160006101000a81548173ffffffffffffffffffffffffffffffffffffffff021916908373ffffffffffffffffffffffffffffffffffffffff16021790555080600460006101000a81548173ffffffffffffffffffffffffffffffffffffffff021916908373ffffffffffffffffffffffffffffffffffffffff16021790555050505050620002b4565b828054600181600116156101000203166002900490600052602060002090601f016020900481019282601f106200024857805160ff191683800117855562000279565b8280016001018555821562000279579182015b82811115620002785782518255916020019190600101906200025b565b5b5090506200028891906200028c565b5090565b620002b191905b80821115620002ad57600081600090555060010162000293565b5090565b90565b61286a80620002c46000396000f3fe608060405234801561001057600080fd5b50600436106101375760003560e01c80638da5cb5b116100b8578063d9cf95db1161007c578063d9cf95db1461068b578063da5c4242146106cd578063e180272314610717578063e650396c1461075b578063f20387df1461079f578063faff50a81461082257610137565b80638da5cb5b1461046c5780638db7d003146104b6578063a6f9dae114610584578063b179fe6d146105c8578063ba11b9851461061257610137565b80637c6f945d116100ff5780637c6f945d146103365780637cf8a2eb1461038057806384fc3fa01461039e57806386605d96146103e257806389b6f0271461042657610137565b8063025485b31461013c5780631e59c529146101745780632f54bf6e1461020d5780633f56ad9d1461026957806379b64713146102ec575b600080fd5b6101726004803603602081101561015257600080fd5b81019080803567ffffffffffffffff169060200190929190505050610840565b005b61020b6004803603604081101561018a57600080fd5b81019080803590602001906401000000008111156101a757600080fd5b8201836020820111156101b957600080fd5b803590602001918460018302840111640100000000831117156101db57600080fd5b9091929391929390803573ffffffffffffffffffffffffffffffffffffffff1690602001909291905050506109cf565b005b61024f6004803603602081101561022357600080fd5b81019080803573ffffffffffffffffffffffffffffffffffffffff169060200190929190505050611327565b604051808215151515815260200191505060405180910390f35b610271611380565b6040518080602001828103825283818151815260200191508051906020019080838360005b838110156102b1578082015181840152602081019050610296565b50505050905090810190601f1680156102de5780820380516001836020036101000a031916815260200191505b509250505060405180910390f35b6102f46113b9565b604051808273ffffffffffffffffffffffffffffffffffffffff1673ffffffffffffffffffffffffffffffffffffffff16815260200191505060405180910390f35b61033e611476565b604051808273ffffffffffffffffffffffffffffffffffffffff1673ffffffffffffffffffffffffffffffffffffffff16815260200191505060405180910390f35b6103886114a0565b6040518082815260200191505060405180910390f35b6103e0600480360360208110156103b457600080fd5b81019080803573ffffffffffffffffffffffffffffffffffffffff1690602001909291905050506114c7565b005b610424600480360360208110156103f857600080fd5b81019080803573ffffffffffffffffffffffffffffffffffffffff16906020019092919050505061171d565b005b6104526004803603602081101561043c57600080fd5b8101908080359060200190929190505050611973565b604051808215151515815260200191505060405180910390f35b610474611a8c565b604051808273ffffffffffffffffffffffffffffffffffffffff1673ffffffffffffffffffffffffffffffffffffffff16815260200191505060405180910390f35b610582600480360360408110156104cc57600080fd5b81019080803590602001906401000000008111156104e957600080fd5b8201836020820111156104fb57600080fd5b8035906020019184600183028401116401000000008311171561051d57600080fd5b90919293919293908035906020019064010000000081111561053e57600080fd5b82018360208201111561055057600080fd5b8035906020019184600183028401116401000000008311171561057257600080fd5b9091929391929390505050611ab1565b005b6105c66004803603602081101561059a57600080fd5b81019080803573ffffffffffffffffffffffffffffffffffffffff169060200190929190505050611d29565b005b6105d0611f14565b604051808273ffffffffffffffffffffffffffffffffffffffff1673ffffffffffffffffffffffffffffffffffffffff16815260200191505060405180910390f35b6106896004803603602081101561062857600080fd5b810190808035906020019064010000000081111561064557600080fd5b82018360208201111561065757600080fd5b8035906020019184600183028401116401000000008311171561067957600080fd5b9091929391929390505050611f3a565b005b6106b7600480360360208110156106a157600080fd5b8101908080359060200190929190505050612129565b6040518082815260200191505060405180910390f35b6106d5612141565b604051808273ffffffffffffffffffffffffffffffffffffffff1673ffffffffffffffffffffffffffffffffffffffff16815260200191505060405180910390f35b6107596004803603602081101561072d57600080fd5b81019080803573ffffffffffffffffffffffffffffffffffffffff169060200190929190505050612167565b005b61079d6004803603602081101561077157600080fd5b81019080803573ffffffffffffffffffffffffffffffffffffffff169060200190929190505050612375565b005b6107a7612561565b6040518080602001828103825283818151815260200191508051906020019080838360005b838110156107e75780820151818401526020810190506107cc565b50505050905090810190601f1680156108145780820380516001836020036101000a031916815260200191505b509250505060405180910390f35b61082a6125ff565b6040518082815260200191505060405180910390f35b6000809054906101000a900473ffffffffffffffffffffffffffffffffffffffff1673ffffffffffffffffffffffffffffffffffffffff163373ffffffffffffffffffffffffffffffffffffffff1614610902576040517f08c379a00000000000000000000000000000000000000000000000000000000081526004018080602001828103825260108152602001807f4f3a204d757374206265206f776e65720000000000000000000000000000000081525060200191505060405180910390fd5b61090a611476565b73ffffffffffffffffffffffffffffffffffffffff166314ab9038600354836040518363ffffffff1660e01b8152600401808381526020018267ffffffffffffffff1667ffffffffffffffff16815260200192505050600060405180830381600087803b15801561097a57600080fd5b505af115801561098e573d6000803e3d6000fd5b505050508067ffffffffffffffff166003547f847699899f587963de290fda4ce7e3898e4993a7026f0ddb9aab12d483f6b82a60405160405180910390a350565b600560009054906101000a900473ffffffffffffffffffffffffffffffffffffffff1673ffffffffffffffffffffffffffffffffffffffff163373ffffffffffffffffffffffffffffffffffffffff1614610a75576040517f08c379a00000000000000000000000000000000000000000000000000000000081526004018080602001828103825260328152602001806128046032913960400191505060405180910390fd5b6000838360405160200180838380828437808301925050509250505060405160208183030381529060405280519060200120905060006003548260405160200180838152602001828152602001925050506040516020818303038152906040528051906020012090506000610ae8611476565b73ffffffffffffffffffffffffffffffffffffffff166302571be3836040518263ffffffff1660e01b81526004018082815260200191505060206040518083038186803b158015610b3857600080fd5b505afa158015610b4c573d6000803e3d6000fd5b505050506040513d6020811015610b6257600080fd5b81019080805190602001909291905050509050600073ffffffffffffffffffffffffffffffffffffffff168173ffffffffffffffffffffffffffffffffffffffff1614610c17576040517f08c379a000000000000000000000000000000000000000000000000000000000815260040180806020018281038252601b8152602001807f41454d3a204c6162656c20697320616c7265616479206f776e6564000000000081525060200191505060405180910390fd5b610c1f611476565b73ffffffffffffffffffffffffffffffffffffffff166306ab592360035485306040518463ffffffff1660e01b8152600401808481526020018381526020018273ffffffffffffffffffffffffffffffffffffffff1673ffffffffffffffffffffffffffffffffffffffff1681526020019350505050600060405180830381600087803b158015610caf57600080fd5b505af1158015610cc3573d6000803e3d6000fd5b50505050610ccf611476565b73ffffffffffffffffffffffffffffffffffffffff16631896f70a83600460009054906101000a900473ffffffffffffffffffffffffffffffffffffffff166040518363ffffffff1660e01b8152600401808381526020018273ffffffffffffffffffffffffffffffffffffffff1673ffffffffffffffffffffffffffffffffffffffff16815260200192505050600060405180830381600087803b158015610d7757600080fd5b505af1158015610d8b573d6000803e3d6000fd5b50505050610d97611476565b73ffffffffffffffffffffffffffffffffffffffff16635b0fc9c383866040518363ffffffff1660e01b8152600401808381526020018273ffffffffffffffffffffffffffffffffffffffff1673ffffffffffffffffffffffffffffffffffffffff16815260200192505050600060405180830381600087803b158015610e1d57600080fd5b505af1158015610e31573d6000803e3d6000fd5b50505050600460009054906101000a900473ffffffffffffffffffffffffffffffffffffffff1673ffffffffffffffffffffffffffffffffffffffff1663d5fa2b0083866040518363ffffffff1660e01b8152600401808381526020018273ffffffffffffffffffffffffffffffffffffffff1673ffffffffffffffffffffffffffffffffffffffff16815260200192505050600060405180830381600087803b158015610ede57600080fd5b505af1158015610ef2573d6000803e3d6000fd5b5050505060606002604051908082528060200260200182016040528015610f3357816020015b610f206127cf565b815260200190600190039081610f185790505b509050610f8387878080601f016020809104026020016040519081016040528093929190818152602001838380828437600081840152601f19601f82011690508083019250505050505050612605565b81600081518110610f9057fe5b602002602001018190525061103e60028054600181600116156101000203166002900480601f0160208091040260200160405190810160405280929190818152602001828054600181600116156101000203166002900480156110345780601f1061100957610100808354040283529160200191611034565b820191906000526020600020905b81548152906001019060200180831161101757829003601f168201915b5050505050612605565b8160018151811061104b57fe5b602002602001018190525060606110a88261109a6040518060400160405280600181526020017f2e00000000000000000000000000000000000000000000000000000000000000815250612605565b61263390919063ffffffff16565b905060006110b46113b9565b73ffffffffffffffffffffffffffffffffffffffff1663bffbe61c886040518263ffffffff1660e01b8152600401808273ffffffffffffffffffffffffffffffffffffffff1673ffffffffffffffffffffffffffffffffffffffff168152602001915050602060405180830381600087803b15801561113257600080fd5b505af1158015611146573d6000803e3d6000fd5b505050506040513d602081101561115c57600080fd5b81019080805190602001909291905050509050600460009054906101000a900473ffffffffffffffffffffffffffffffffffffffff1673ffffffffffffffffffffffffffffffffffffffff16637737221382846040518363ffffffff1660e01b81526004018083815260200180602001828103825283818151815260200191508051906020019080838360005b838110156112045780820151818401526020810190506111e9565b50505050905090810190601f1680156112315780820380516001836020036101000a031916815260200191505b509350505050600060405180830381600087803b15801561125157600080fd5b505af1158015611265573d6000803e3d6000fd5b505050508673ffffffffffffffffffffffffffffffffffffffff167fb3eccf73f39b1c07947c780b2b39df2a1bb058b4037b0a42d0881ca1a028a132836040518080602001828103825283818151815260200191508051906020019080838360005b838110156112e25780820151818401526020810190506112c7565b50505050905090810190601f16801561130f5780820380516001836020036101000a031916815260200191505b509250505060405180910390a2505050505050505050565b60008173ffffffffffffffffffffffffffffffffffffffff166000809054906101000a900473ffffffffffffffffffffffffffffffffffffffff1673ffffffffffffffffffffffffffffffffffffffff16149050919050565b6040518060400160405280600a81526020017f323032303032303230300000000000000000000000000000000000000000000081525081565b60006113c3611476565b73ffffffffffffffffffffffffffffffffffffffff166302571be37f91d1777781884d03a6757a803996e38de2a42967fb37eeaca72729271025a9e260001b6040518263ffffffff1660e01b81526004018082815260200191505060206040518083038186803b15801561143657600080fd5b505afa15801561144a573d6000803e3d6000fd5b505050506040513d602081101561146057600080fd5b8101908080519060200190929190505050905090565b6000600160009054906101000a900473ffffffffffffffffffffffffffffffffffffffff16905090565b7f91d1777781884d03a6757a803996e38de2a42967fb37eeaca72729271025a9e260001b81565b6000809054906101000a900473ffffffffffffffffffffffffffffffffffffffff1673ffffffffffffffffffffffffffffffffffffffff163373ffffffffffffffffffffffffffffffffffffffff1614611589576040517f08c379a00000000000000000000000000000000000000000000000000000000081526004018080602001828103825260108152602001807f4f3a204d757374206265206f776e65720000000000000000000000000000000081525060200191505060405180910390fd5b600073ffffffffffffffffffffffffffffffffffffffff168173ffffffffffffffffffffffffffffffffffffffff16141561162c576040517f08c379a000000000000000000000000000000000000000000000000000000000815260040180806020018281038252601d8152602001807f41454d3a2041646472657373206d757374206e6f74206265206e756c6c00000081525060200191505060405180910390fd5b611634611476565b73ffffffffffffffffffffffffffffffffffffffff16631896f70a600354836040518363ffffffff1660e01b8152600401808381526020018273ffffffffffffffffffffffffffffffffffffffff1673ffffffffffffffffffffffffffffffffffffffff16815260200192505050600060405180830381600087803b1580156116bc57600080fd5b505af11580156116d0573d6000803e3d6000fd5b505050508073ffffffffffffffffffffffffffffffffffffffff166003547ff42bfe600d256550349c92e1fd55144c4027bef017f0eb184303a777eb3a7ae660405160405180910390a350565b6000809054906101000a900473ffffffffffffffffffffffffffffffffffffffff1673ffffffffffffffffffffffffffffffffffffffff163373ffffffffffffffffffffffffffffffffffffffff16146117df576040517f08c379a00000000000000000000000000000000000000000000000000000000081526004018080602001828103825260108152602001807f4f3a204d757374206265206f776e65720000000000000000000000000000000081525060200191505060405180910390fd5b600073ffffffffffffffffffffffffffffffffffffffff168173ffffffffffffffffffffffffffffffffffffffff161415611882576040517f08c379a000000000000000000000000000000000000000000000000000000000815260040180806020018281038252601d8152602001807f41454d3a2041646472657373206d757374206e6f74206265206e756c6c00000081525060200191505060405180910390fd5b61188a611476565b73ffffffffffffffffffffffffffffffffffffffff16635b0fc9c3600354836040518363ffffffff1660e01b8152600401808381526020018273ffffffffffffffffffffffffffffffffffffffff1673ffffffffffffffffffffffffffffffffffffffff16815260200192505050600060405180830381600087803b15801561191257600080fd5b505af1158015611926573d6000803e3d6000fd5b505050508073ffffffffffffffffffffffffffffffffffffffff166003547f516d0db138244386233318abd545c7f39d1be56e4da256f941042d7e7114a97560405160405180910390a350565b60008060035483604051602001808381526020018281526020019250505060405160208183030381529060405280519060200120905060006119b3611476565b73ffffffffffffffffffffffffffffffffffffffff166302571be3836040518263ffffffff1660e01b81526004018082815260200191505060206040518083038186803b158015611a0357600080fd5b505afa158015611a17573d6000803e3d6000fd5b505050506040513d6020811015611a2d57600080fd5b81019080805190602001909291905050509050600073ffffffffffffffffffffffffffffffffffffffff168173ffffffffffffffffffffffffffffffffffffffff161415611a8057600192505050611a87565b6000925050505b919050565b6000809054906101000a900473ffffffffffffffffffffffffffffffffffffffff1681565b6000809054906101000a900473ffffffffffffffffffffffffffffffffffffffff1673ffffffffffffffffffffffffffffffffffffffff163373ffffffffffffffffffffffffffffffffffffffff1614611b73576040517f08c379a00000000000000000000000000000000000000000000000000000000081526004018080602001828103825260108152602001807f4f3a204d757374206265206f776e65720000000000000000000000000000000081525060200191505060405180910390fd5b600460009054906101000a900473ffffffffffffffffffffffffffffffffffffffff1673ffffffffffffffffffffffffffffffffffffffff166310f13a8c600354868686866040518663ffffffff1660e01b81526004018086815260200180602001806020018381038352878782818152602001925080828437600081840152601f19601f8201169050808301925050508381038252858582818152602001925080828437600081840152601f19601f820116905080830192505050975050505050505050600060405180830381600087803b158015611c5257600080fd5b505af1158015611c66573d6000803e3d6000fd5b50505050838360405180838380828437808301925050509250505060405180910390206003547f1525ee4016e183c7f301d91705e53dc45a4078d23edbaf63920fb5fd9736d0f1868686866040518080602001806020018381038352878782818152602001925080828437600081840152601f19601f8201169050808301925050508381038252858582818152602001925080828437600081840152601f19601f820116905080830192505050965050505050505060405180910390a350505050565b6000809054906101000a900473ffffffffffffffffffffffffffffffffffffffff1673ffffffffffffffffffffffffffffffffffffffff163373ffffffffffffffffffffffffffffffffffffffff1614611deb576040517f08c379a00000000000000000000000000000000000000000000000000000000081526004018080602001828103825260108152602001807f4f3a204d757374206265206f776e65720000000000000000000000000000000081525060200191505060405180910390fd5b600073ffffffffffffffffffffffffffffffffffffffff168173ffffffffffffffffffffffffffffffffffffffff161415611e8e576040517f08c379a000000000000000000000000000000000000000000000000000000000815260040180806020018281038252601b8152602001807f4f3a2041646472657373206d757374206e6f74206265206e756c6c000000000081525060200191505060405180910390fd5b806000806101000a81548173ffffffffffffffffffffffffffffffffffffffff021916908373ffffffffffffffffffffffffffffffffffffffff1602179055508073ffffffffffffffffffffffffffffffffffffffff167fa2ea9883a321a3e97b8266c2b078bfeec6d50c711ed71f874a90d500ae2eaf3660405160405180910390a250565b600460009054906101000a900473ffffffffffffffffffffffffffffffffffffffff1681565b6000809054906101000a900473ffffffffffffffffffffffffffffffffffffffff1673ffffffffffffffffffffffffffffffffffffffff163373ffffffffffffffffffffffffffffffffffffffff1614611ffc576040517f08c379a00000000000000000000000000000000000000000000000000000000081526004018080602001828103825260108152602001807f4f3a204d757374206265206f776e65720000000000000000000000000000000081525060200191505060405180910390fd5b600460009054906101000a900473ffffffffffffffffffffffffffffffffffffffff1673ffffffffffffffffffffffffffffffffffffffff1663304e6ade60035484846040518463ffffffff1660e01b815260040180848152602001806020018281038252848482818152602001925080828437600081840152601f19601f820116905080830192505050945050505050600060405180830381600087803b1580156120a757600080fd5b505af11580156120bb573d6000803e3d6000fd5b505050506003547f6ef03997c7903055cbb729b5283d81daa1735b5355d9bf6960c8991fbd2bf2cc838360405180806020018281038252848482818152602001925080828437600081840152601f19601f820116905080830192505050935050505060405180910390a25050565b60066020528060005260406000206000915090505481565b600560009054906101000a900473ffffffffffffffffffffffffffffffffffffffff1681565b6000809054906101000a900473ffffffffffffffffffffffffffffffffffffffff1673ffffffffffffffffffffffffffffffffffffffff163373ffffffffffffffffffffffffffffffffffffffff1614612229576040517f08c379a00000000000000000000000000000000000000000000000000000000081526004018080602001828103825260108152602001807f4f3a204d757374206265206f776e65720000000000000000000000000000000081525060200191505060405180910390fd5b600073ffffffffffffffffffffffffffffffffffffffff168173ffffffffffffffffffffffffffffffffffffffff1614156122cc576040517f08c379a000000000000000000000000000000000000000000000000000000000815260040180806020018281038252601d8152602001807f41454d3a2041646472657373206d757374206e6f74206265206e756c6c00000081525060200191505060405180910390fd5b80600560006101000a81548173ffffffffffffffffffffffffffffffffffffffff021916908373ffffffffffffffffffffffffffffffffffffffff160217905550600560009054906101000a900473ffffffffffffffffffffffffffffffffffffffff1673ffffffffffffffffffffffffffffffffffffffff167ff21a80cea7aeecaa45fd04fa42f893beb3e5b1800d1397f516ba8172a9844b5e60405160405180910390a250565b6000809054906101000a900473ffffffffffffffffffffffffffffffffffffffff1673ffffffffffffffffffffffffffffffffffffffff163373ffffffffffffffffffffffffffffffffffffffff1614612437576040517f08c379a00000000000000000000000000000000000000000000000000000000081526004018080602001828103825260108152602001807f4f3a204d757374206265206f776e65720000000000000000000000000000000081525060200191505060405180910390fd5b600073ffffffffffffffffffffffffffffffffffffffff168173ffffffffffffffffffffffffffffffffffffffff1614156124da576040517f08c379a000000000000000000000000000000000000000000000000000000000815260040180806020018281038252601d8152602001807f41454d3a2041646472657373206d757374206e6f74206265206e756c6c00000081525060200191505060405180910390fd5b80600460006101000a81548173ffffffffffffffffffffffffffffffffffffffff021916908373ffffffffffffffffffffffffffffffffffffffff1602179055508073ffffffffffffffffffffffffffffffffffffffff167fd88c10387565baf6122146fe04aea5611f4e9598ec7f4fc2c0ae7f09b18823b860405160405180910390a250565b60028054600181600116156101000203166002900480601f0160208091040260200160405190810160405280929190818152602001828054600181600116156101000203166002900480156125f75780601f106125cc576101008083540402835291602001916125f7565b820191906000526020600020905b8154815290600101906020018083116125da57829003601f168201915b505050505081565b60035481565b61260d6127e9565b600060208301905060405180604001604052808451815260200182815250915050919050565b606060008251141561265657604051806020016040528060008152509050612780565b60006001835103846000015102905060008090505b835181101561269d5783818151811061268057fe5b60200260200101516000015182019150808060010191505061266b565b506060816040519080825280601f01601f1916602001820160405280156126d35781602001600182028038833980820191505090505b509050600060208201905060008090505b855181101561277857612726828783815181106126fd57fe5b60200260200101516020015188848151811061271557fe5b602002602001015160000151612786565b85818151811061273257fe5b60200260200101516000015182019150600186510381101561276b576127618288602001518960000151612786565b8660000151820191505b80806001019150506126e4565b508193505050505b92915050565b5b602081106127aa5781518352602083019250602082019150602081039050612787565b60006001826020036101000a0390508019835116818551168181178652505050505050565b604051806040016040528060008152602001600081525090565b60405180604001604052806000815260200160008152509056fe41454d3a204d7573742062652073656e742066726f6d207468652061757468657265756d466163746f727941646472657373a265627a7a7231582047b618c75dc293d3f103f7ae675e389d14ca3d9a74531cf9a90913bef29e388e64736f6c63430005100032",
  "source": "pragma solidity 0.5.16;\n\nimport \"./AuthereumEnsResolver.sol\";\nimport \"../base/Owned.sol\";\nimport \"../utils/strings.sol\";\n\n/**\n * @title AuthereumEnsManager\n * @author Authereum Labs, Inc.\n * @dev Used to manage all subdomains.\n * @dev This is also known as the Authereum registrar.\n * @dev The public ENS registry is used. The resolver is custom.\n */\n\ncontract AuthereumEnsManager is Owned {\n    using strings for *;\n\n    string constant public authereumEnsManagerVersion = \"2020020200\";\n\n    // namehash('addr.reverse')\n    bytes32 constant public ADDR_REVERSE_NODE = 0x91d1777781884d03a6757a803996e38de2a42967fb37eeaca72729271025a9e2;\n    address ensRegistry;\n\n    // The managed root name\n    string public rootName;\n    // The managed root node\n    bytes32 public rootNode;\n    // The address of the authereumEnsResolver\n    address public authereumEnsResolver;\n    // The address of the Authereum factory\n    address public authereumFactoryAddress;\n    // A mapping of the runtimeCodeHash to creationCodeHash\n    mapping(bytes32 => bytes32) public authereumProxyBytecodeHashMapping;\n\n    event RootnodeOwnerChanged(bytes32 indexed rootnode, address indexed newOwner);\n    event RootnodeResolverChanged(bytes32 indexed rootnode, address indexed newResolver);\n    event RootnodeTTLChanged(bytes32 indexed rootnode, uint64 indexed newTtl);\n    event RootnodeTextChanged(bytes32 indexed node, string indexed indexedKey, string key, string value);\n    event RootnodeContenthashChanged(bytes32 indexed node, bytes hash);\n    event AuthereumEnsResolverChanged(address indexed authereumEnsResolver);\n    event AuthereumFactoryAddressChanged(address indexed authereumFactoryAddress);\n    event AuthereumProxyBytecodeHashChanged(bytes32 indexed authereumProxyRuntimeCodeHash, bytes32 indexed authereumProxyCreationCodeHash);\n    event Registered(address indexed owner, string ens);\n\n    /// @dev Throws if the sender is not the Authereum factory\n    modifier onlyAuthereumFactory() {\n        require(msg.sender == authereumFactoryAddress, \"AEM: Must be sent from the authereumFactoryAddress\");\n        _;\n    }\n\n    /// @dev Constructor that sets the ENS root name and root node to manage\n    /// @param _rootName The root name (e.g. authereum.eth)\n    /// @param _rootNode The node of the root name (e.g. namehash(authereum.eth))\n    /// @param _ensRegistry Public ENS Registry address\n    /// @param _authereumEnsResolver Custom Autheruem ENS Resolver address\n    constructor(\n        string memory _rootName,\n        bytes32 _rootNode,\n        address _ensRegistry,\n        address _authereumEnsResolver\n    )\n        public\n    {\n        rootName = _rootName;\n        rootNode = _rootNode;\n        ensRegistry = _ensRegistry;\n        authereumEnsResolver = _authereumEnsResolver;\n    }\n\n    /**\n     * Canonical ENS\n     */\n\n    /// @dev Gets the official ENS registry\n    /// @return The official ENS registry address\n    function getEnsRegistry() public view returns (EnsRegistry) {\n        return EnsRegistry(ensRegistry);\n    }\n\n    /// @dev Gets the official ENS reverse registrar\n    /// @return The official ENS reverse registrar address\n    function getEnsReverseRegistrar() public view returns (EnsReverseRegistrar) {\n        return EnsReverseRegistrar(getEnsRegistry().owner(ADDR_REVERSE_NODE));\n    }\n\n    /**\n     *  Rootnode - Registry\n     */\n\n    /// @dev This function is used when the rootnode owner is updated\n    /// @param _newOwner The address of the new ENS manager that will manage the root node\n    function changeRootnodeOwner(address _newOwner) external onlyOwner {\n        require(_newOwner != address(0), \"AEM: Address must not be null\");\n        getEnsRegistry().setOwner(rootNode, _newOwner);\n        emit RootnodeOwnerChanged(rootNode, _newOwner);\n    }\n\n    /// @dev This function is used when the rootnode resolver is updated\n    /// @param _newResolver The address of the new ENS Resolver that will manage the root node\n    function changeRootnodeResolver(address _newResolver) external onlyOwner {\n        require(_newResolver != address(0), \"AEM: Address must not be null\");\n        getEnsRegistry().setResolver(rootNode, _newResolver);\n        emit RootnodeResolverChanged(rootNode, _newResolver);\n    }\n\n    /// @dev This function is used when the rootnode TTL is updated\n    /// @param _newTtl The address of the new TTL that will manage the root node\n    function changeRootnodeTTL(uint64 _newTtl) external onlyOwner {\n        getEnsRegistry().setTTL(rootNode, _newTtl);\n        emit RootnodeTTLChanged(rootNode, _newTtl);\n    }\n\n    /**\n     *  Rootnode - Resolver\n     */\n\n    /// @dev This function is used when the rootnode text record is updated\n    /// @param _newKey The key of the new text record for the root node\n    /// @param _newValue The value of the new text record for the root node\n    function changeRootnodeText(string calldata _newKey, string calldata _newValue) external onlyOwner {\n        AuthereumEnsResolver(authereumEnsResolver).setText(rootNode, _newKey, _newValue);\n        emit RootnodeTextChanged(rootNode, _newKey, _newKey, _newValue);\n    }\n\n    /// @dev This function is used when the rootnode contenthash is updated\n    /// @param _newHash The new contenthash of the root node\n    function changeRootnodeContenthash(bytes calldata _newHash) external onlyOwner {\n        AuthereumEnsResolver(authereumEnsResolver).setContenthash(rootNode, _newHash);\n        emit RootnodeContenthashChanged(rootNode, _newHash);\n    }\n\n    /**\n     * State\n     */\n\n    /// @dev Lets the owner change the address of the Authereum ENS resolver contract\n    /// @param _authereumEnsResolver The address of the Authereun ENS resolver contract\n    function changeAuthereumEnsResolver(address _authereumEnsResolver) external onlyOwner {\n        require(_authereumEnsResolver != address(0), \"AEM: Address must not be null\");\n        authereumEnsResolver = _authereumEnsResolver;\n        emit AuthereumEnsResolverChanged(_authereumEnsResolver);\n    }\n\n    /// @dev Lets the owner change the address of the Authereum factory\n    /// @param _authereumFactoryAddress The address of the Authereum factory\n    function changeAuthereumFactoryAddress(address _authereumFactoryAddress) external onlyOwner {\n        require(_authereumFactoryAddress != address(0), \"AEM: Address must not be null\");\n        authereumFactoryAddress = _authereumFactoryAddress;\n        emit AuthereumFactoryAddressChanged(authereumFactoryAddress);\n    }\n\n    /**\n     * Register\n     */\n\n    /// @dev Lets the manager assign an ENS subdomain of the root node to a target address\n    /// @notice Registers both the forward and reverse ENS\n    /// @param _label The subdomain label\n    /// @param _owner The owner of the subdomain\n    function register(\n        string calldata _label,\n        address _owner\n    )\n        external\n        onlyAuthereumFactory\n    {\n        bytes32 labelNode = keccak256(abi.encodePacked(_label));\n        bytes32 node = keccak256(abi.encodePacked(rootNode, labelNode));\n        address currentOwner = getEnsRegistry().owner(node);\n        require(currentOwner == address(0), \"AEM: Label is already owned\");\n\n        // Forward ENS\n        getEnsRegistry().setSubnodeOwner(rootNode, labelNode, address(this));\n        getEnsRegistry().setResolver(node, authereumEnsResolver);\n        getEnsRegistry().setOwner(node, _owner);\n        AuthereumEnsResolver(authereumEnsResolver).setAddr(node, _owner);\n\n        // Reverse ENS\n        strings.slice[] memory parts = new strings.slice[](2);\n        parts[0] = _label.toSlice();\n        parts[1] = rootName.toSlice();\n        string memory name = \".\".toSlice().join(parts);\n        bytes32 reverseNode = EnsReverseRegistrar(getEnsReverseRegistrar()).node(_owner);\n        AuthereumEnsResolver(authereumEnsResolver).setName(reverseNode, name);\n\n        emit Registered(_owner, name);\n    }\n\n    /**\n     *  Public functions\n     */\n\n    /// @dev Returns true is a given subnode is available\n    /// @param _subnode The target subnode\n    /// @return True if the subnode is available\n    function isAvailable(bytes32 _subnode) public view returns (bool) {\n        bytes32 node = keccak256(abi.encodePacked(rootNode, _subnode));\n        address currentOwner = getEnsRegistry().owner(node);\n        if(currentOwner == address(0)) {\n            return true;\n        }\n        return false;\n    }\n}",
  "sourcePath": "/Users/smitrajput/Projects/batchoo/contracts/ens/AuthereumENSManager.sol",
  "compiler": {
    "name": "solc",
    "version": "0.5.16+commit.9c3226ce.Emscripten.clang"
  },
  "schemaVersion": "3.1.0",
  "updatedAt": "2020-05-20T12:48:46.064Z",
  "devdoc": {
    "author": "Authereum Labs, Inc.",
    "details": "Used to manage all subdomains.This is also known as the Authereum registrar.The public ENS registry is used. The resolver is custom.",
    "methods": {
      "changeAuthereumEnsResolver(address)": {
        "details": "Lets the owner change the address of the Authereum ENS resolver contract",
        "params": {
          "_authereumEnsResolver": "The address of the Authereun ENS resolver contract"
        }
      },
      "changeAuthereumFactoryAddress(address)": {
        "details": "Lets the owner change the address of the Authereum factory",
        "params": {
          "_authereumFactoryAddress": "The address of the Authereum factory"
        }
      },
      "changeOwner(address)": {
        "details": "Lets the owner transfer ownership of the contract to a new owner",
        "params": {
          "_newOwner": "The new owner"
        }
      },
      "changeRootnodeContenthash(bytes)": {
        "details": "This function is used when the rootnode contenthash is updated",
        "params": {
          "_newHash": "The new contenthash of the root node"
        }
      },
      "changeRootnodeOwner(address)": {
        "details": "This function is used when the rootnode owner is updated",
        "params": {
          "_newOwner": "The address of the new ENS manager that will manage the root node"
        }
      },
      "changeRootnodeResolver(address)": {
        "details": "This function is used when the rootnode resolver is updated",
        "params": {
          "_newResolver": "The address of the new ENS Resolver that will manage the root node"
        }
      },
      "changeRootnodeTTL(uint64)": {
        "details": "This function is used when the rootnode TTL is updated",
        "params": {
          "_newTtl": "The address of the new TTL that will manage the root node"
        }
      },
      "changeRootnodeText(string,string)": {
        "details": "This function is used when the rootnode text record is updated",
        "params": {
          "_newKey": "The key of the new text record for the root node",
          "_newValue": "The value of the new text record for the root node"
        }
      },
      "constructor": {
        "details": "Constructor that sets the ENS root name and root node to manage",
        "params": {
          "_authereumEnsResolver": "Custom Autheruem ENS Resolver address",
          "_ensRegistry": "Public ENS Registry address",
          "_rootName": "The root name (e.g. authereum.eth)",
          "_rootNode": "The node of the root name (e.g. namehash(authereum.eth))"
        }
      },
      "getEnsRegistry()": {
        "details": "Gets the official ENS registry",
        "return": "The official ENS registry address"
      },
      "getEnsReverseRegistrar()": {
        "details": "Gets the official ENS reverse registrar",
        "return": "The official ENS reverse registrar address"
      },
      "isAvailable(bytes32)": {
        "details": "Returns true is a given subnode is available",
        "params": {
          "_subnode": "The target subnode"
        },
        "return": "True if the subnode is available"
      },
      "isOwner(address)": {
        "details": "Return the ownership status of an address",
        "params": {
          "_potentialOwner": "Address being checked"
        },
        "return": "True if the _potentialOwner is the owner"
      },
      "register(string,address)": {
        "details": "Lets the manager assign an ENS subdomain of the root node to a target address",
        "params": {
          "_label": "The subdomain label",
          "_owner": "The owner of the subdomain"
        }
      }
    },
    "title": "AuthereumEnsManager"
  },
  "userdoc": {
    "methods": {
      "register(string,address)": {
        "notice": "Registers both the forward and reverse ENS"
      }
    }
  }
}