{
  "contractName": "AuthereumAccount",
  "abi": [
    {
      "anonymous": false,
      "inputs": [
        {
          "indexed": true,
          "internalType": "address",
          "name": "authKey",
          "type": "address"
        }
      ],
      "name": "AuthKeyAdded",
      "type": "event"
    },
    {
      "anonymous": false,
      "inputs": [
        {
          "indexed": true,
          "internalType": "address",
          "name": "authKey",
          "type": "address"
        }
      ],
      "name": "AuthKeyRemoved",
      "type": "event"
    },
    {
      "anonymous": false,
      "inputs": [
        {
          "indexed": false,
          "internalType": "string",
          "name": "reason",
          "type": "string"
        }
      ],
      "name": "CallFailed",
      "type": "event"
    },
    {
      "anonymous": false,
      "inputs": [
        {
          "indexed": true,
          "internalType": "address",
          "name": "implementation",
          "type": "address"
        }
      ],
      "name": "Upgraded",
      "type": "event"
    },
    {
      "payable": true,
      "stateMutability": "payable",
      "type": "fallback"
    },
    {
      "constant": false,
      "inputs": [
        {
          "internalType": "address",
          "name": "_authKey",
          "type": "address"
        }
      ],
      "name": "addAuthKey",
      "outputs": [],
      "payable": false,
      "stateMutability": "nonpayable",
      "type": "function"
    },
    {
      "constant": true,
      "inputs": [
        {
          "internalType": "address",
          "name": "",
          "type": "address"
        }
      ],
      "name": "authKeys",
      "outputs": [
        {
          "internalType": "bool",
          "name": "",
          "type": "bool"
        }
      ],
      "payable": false,
      "stateMutability": "view",
      "type": "function"
    },
    {
      "constant": true,
      "inputs": [],
      "name": "authereumVersion",
      "outputs": [
        {
          "internalType": "string",
          "name": "",
          "type": "string"
        }
      ],
      "payable": false,
      "stateMutability": "view",
      "type": "function"
    },
    {
      "constant": false,
      "inputs": [
        {
          "internalType": "bytes[]",
          "name": "_transactions",
          "type": "bytes[]"
        },
        {
          "internalType": "uint256",
          "name": "_gasPrice",
          "type": "uint256"
        },
        {
          "internalType": "uint256",
          "name": "_gasOverhead",
          "type": "uint256"
        },
        {
          "internalType": "address",
          "name": "_feeTokenAddress",
          "type": "address"
        },
        {
          "internalType": "uint256",
          "name": "_feeTokenRate",
          "type": "uint256"
        },
        {
          "internalType": "bytes",
          "name": "_transactionMessageHashSignature",
          "type": "bytes"
        }
      ],
      "name": "executeMultipleAuthKeyMetaTransactions",
      "outputs": [
        {
          "internalType": "bytes[]",
          "name": "",
          "type": "bytes[]"
        }
      ],
      "payable": false,
      "stateMutability": "nonpayable",
      "type": "function"
    },
    {
      "constant": false,
      "inputs": [
        {
          "internalType": "bytes[]",
          "name": "_transactions",
          "type": "bytes[]"
        },
        {
          "internalType": "uint256",
          "name": "_gasPrice",
          "type": "uint256"
        },
        {
          "internalType": "uint256",
          "name": "_gasOverhead",
          "type": "uint256"
        },
        {
          "internalType": "bytes",
          "name": "_loginKeyRestrictionsData",
          "type": "bytes"
        },
        {
          "internalType": "address",
          "name": "_feeTokenAddress",
          "type": "address"
        },
        {
          "internalType": "uint256",
          "name": "_feeTokenRate",
          "type": "uint256"
        },
        {
          "internalType": "bytes",
          "name": "_transactionMessageHashSignature",
          "type": "bytes"
        },
        {
          "internalType": "bytes",
          "name": "_loginKeyAttestationSignature",
          "type": "bytes"
        }
      ],
      "name": "executeMultipleLoginKeyMetaTransactions",
      "outputs": [
        {
          "internalType": "bytes[]",
          "name": "",
          "type": "bytes[]"
        }
      ],
      "payable": false,
      "stateMutability": "nonpayable",
      "type": "function"
    },
    {
      "constant": false,
      "inputs": [
        {
          "internalType": "bytes[]",
          "name": "_transactions",
          "type": "bytes[]"
        }
      ],
      "name": "executeMultipleMetaTransactions",
      "outputs": [
        {
          "internalType": "bytes[]",
          "name": "",
          "type": "bytes[]"
        }
      ],
      "payable": false,
      "stateMutability": "nonpayable",
      "type": "function"
    },
    {
      "constant": true,
      "inputs": [],
      "name": "getChainId",
      "outputs": [
        {
          "internalType": "uint256",
          "name": "",
          "type": "uint256"
        }
      ],
      "payable": false,
      "stateMutability": "pure",
      "type": "function"
    },
    {
      "constant": false,
      "inputs": [
        {
          "internalType": "address",
          "name": "_authKey",
          "type": "address"
        }
      ],
      "name": "initializeV1",
      "outputs": [],
      "payable": false,
      "stateMutability": "nonpayable",
      "type": "function"
    },
    {
      "constant": true,
      "inputs": [
        {
          "internalType": "bytes",
          "name": "_data",
          "type": "bytes"
        },
        {
          "internalType": "bytes",
          "name": "_signature",
          "type": "bytes"
        }
      ],
      "name": "isValidAuthKeySignature",
      "outputs": [
        {
          "internalType": "bytes4",
          "name": "",
          "type": "bytes4"
        }
      ],
      "payable": false,
      "stateMutability": "view",
      "type": "function"
    },
    {
      "constant": true,
      "inputs": [
        {
          "internalType": "bytes",
          "name": "_data",
          "type": "bytes"
        },
        {
          "internalType": "bytes",
          "name": "_signature",
          "type": "bytes"
        }
      ],
      "name": "isValidLoginKeySignature",
      "outputs": [
        {
          "internalType": "bytes4",
          "name": "",
          "type": "bytes4"
        }
      ],
      "payable": false,
      "stateMutability": "view",
      "type": "function"
    },
    {
      "constant": true,
      "inputs": [
        {
          "internalType": "bytes",
          "name": "_data",
          "type": "bytes"
        },
        {
          "internalType": "bytes",
          "name": "_signature",
          "type": "bytes"
        }
      ],
      "name": "isValidSignature",
      "outputs": [
        {
          "internalType": "bytes4",
          "name": "",
          "type": "bytes4"
        }
      ],
      "payable": false,
      "stateMutability": "view",
      "type": "function"
    },
    {
      "constant": true,
      "inputs": [],
      "name": "lastInitializedVersion",
      "outputs": [
        {
          "internalType": "uint256",
          "name": "",
          "type": "uint256"
        }
      ],
      "payable": false,
      "stateMutability": "view",
      "type": "function"
    },
    {
      "constant": true,
      "inputs": [],
      "name": "nonce",
      "outputs": [
        {
          "internalType": "uint256",
          "name": "",
          "type": "uint256"
        }
      ],
      "payable": false,
      "stateMutability": "view",
      "type": "function"
    },
    {
      "constant": true,
      "inputs": [],
      "name": "numAuthKeys",
      "outputs": [
        {
          "internalType": "uint256",
          "name": "",
          "type": "uint256"
        }
      ],
      "payable": false,
      "stateMutability": "view",
      "type": "function"
    },
    {
      "constant": false,
      "inputs": [
        {
          "internalType": "address",
          "name": "",
          "type": "address"
        },
        {
          "internalType": "address",
          "name": "",
          "type": "address"
        },
        {
          "internalType": "uint256[]",
          "name": "",
          "type": "uint256[]"
        },
        {
          "internalType": "uint256[]",
          "name": "",
          "type": "uint256[]"
        },
        {
          "internalType": "bytes",
          "name": "",
          "type": "bytes"
        }
      ],
      "name": "onERC1155BatchReceived",
      "outputs": [
        {
          "internalType": "bytes4",
          "name": "",
          "type": "bytes4"
        }
      ],
      "payable": false,
      "stateMutability": "nonpayable",
      "type": "function"
    },
    {
      "constant": false,
      "inputs": [
        {
          "internalType": "address",
          "name": "",
          "type": "address"
        },
        {
          "internalType": "address",
          "name": "",
          "type": "address"
        },
        {
          "internalType": "uint256",
          "name": "",
          "type": "uint256"
        },
        {
          "internalType": "uint256",
          "name": "",
          "type": "uint256"
        },
        {
          "internalType": "bytes",
          "name": "",
          "type": "bytes"
        }
      ],
      "name": "onERC1155Received",
      "outputs": [
        {
          "internalType": "bytes4",
          "name": "",
          "type": "bytes4"
        }
      ],
      "payable": false,
      "stateMutability": "nonpayable",
      "type": "function"
    },
    {
      "constant": false,
      "inputs": [
        {
          "internalType": "address",
          "name": "",
          "type": "address"
        },
        {
          "internalType": "address",
          "name": "",
          "type": "address"
        },
        {
          "internalType": "uint256",
          "name": "",
          "type": "uint256"
        },
        {
          "internalType": "bytes",
          "name": "",
          "type": "bytes"
        }
      ],
      "name": "onERC721Received",
      "outputs": [
        {
          "internalType": "bytes4",
          "name": "",
          "type": "bytes4"
        }
      ],
      "payable": false,
      "stateMutability": "nonpayable",
      "type": "function"
    },
    {
      "constant": false,
      "inputs": [
        {
          "internalType": "address",
          "name": "_authKey",
          "type": "address"
        }
      ],
      "name": "removeAuthKey",
      "outputs": [],
      "payable": false,
      "stateMutability": "nonpayable",
      "type": "function"
    },
    {
      "constant": false,
      "inputs": [
        {
          "internalType": "address",
          "name": "_newImplementation",
          "type": "address"
        },
        {
          "internalType": "bytes",
          "name": "_data",
          "type": "bytes"
        }
      ],
      "name": "upgradeToAndCall",
      "outputs": [],
      "payable": false,
      "stateMutability": "nonpayable",
      "type": "function"
    }
  ],
  "bytecode": "0x608060405234801561001057600080fd5b50613a8a806100206000396000f3fe6080604052600436106101145760003560e01c80635175ca5e116100a0578063bc197c8111610064578063bc197c81146103d4578063d5553b8814610411578063d59e3e981461044e578063ec5e319e1461048b578063f23a6e61146104b657610114565b80635175ca5e146102db578063792c891f146103185780637e7fd66c146103555780639565389e14610380578063affed0e0146103a957610114565b806320c13b0b116100e757806320c13b0b146101d057806326aa46551461020d5780633408e4701461024a57806340914b06146102755780634f1ef286146102b257610114565b806313f8c57814610116578063150b7a021461013f5780631b9a9f9e1461017c5780631f602092146101a5575b005b34801561012257600080fd5b5061013d600480360361013891908101906122b5565b6104f3565b005b34801561014b57600080fd5b5061016660048036036101619190810190612425565b6106b2565b6040516101739190613411565b60405180910390f35b34801561018857600080fd5b506101a3600480360361019e91908101906122b5565b6106c6565b005b3480156101b157600080fd5b506101ba6107c0565b6040516101c7919061342c565b60405180910390f35b3480156101dc57600080fd5b506101f760048036036101f291908101906127fc565b6107f9565b6040516102049190613411565b60405180910390f35b34801561021957600080fd5b50610234600480360361022f9190810190612608565b610871565b604051610241919061338f565b60405180910390f35b34801561025657600080fd5b5061025f610930565b60405161026c91906136d0565b60405180910390f35b34801561028157600080fd5b5061029c600480360361029791908101906127fc565b610939565b6040516102a99190613411565b60405180910390f35b3480156102be57600080fd5b506102d960048036036102d49190810190612532565b6109d0565b005b3480156102e757600080fd5b5061030260048036036102fd91908101906122b5565b610b50565b60405161030f91906133b1565b60405180910390f35b34801561032457600080fd5b5061033f600480360361033a91908101906125c7565b610b70565b60405161034c919061338f565b60405180910390f35b34801561036157600080fd5b5061036a610c00565b60405161037791906136d0565b60405180910390f35b34801561038c57600080fd5b506103a760048036036103a291908101906122b5565b610c06565b005b3480156103b557600080fd5b506103be610e0b565b6040516103cb91906136d0565b60405180910390f35b3480156103e057600080fd5b506103fb60048036036103f69190810190612359565b610e11565b6040516104089190613411565b60405180910390f35b34801561041d57600080fd5b50610438600480360361043391908101906126c1565b610e29565b604051610445919061338f565b60405180910390f35b34801561045a57600080fd5b50610475600480360361047091908101906127fc565b610ee7565b6040516104829190613411565b60405180910390f35b34801561049757600080fd5b506104a0611039565b6040516104ad91906136d0565b60405180910390f35b3480156104c257600080fd5b506104dd60048036036104d891908101906124a0565b61103f565b6040516104ea9190613411565b60405180910390f35b6104fc33611055565b8061053257503073ffffffffffffffffffffffffffffffffffffffff163373ffffffffffffffffffffffffffffffffffffffff16145b610571576040517f08c379a000000000000000000000000000000000000000000000000000000000815260040161056890613630565b60405180910390fd5b60001515600160008373ffffffffffffffffffffffffffffffffffffffff1673ffffffffffffffffffffffffffffffffffffffff16815260200190815260200160002060009054906101000a900460ff16151514610604576040517f08c379a00000000000000000000000000000000000000000000000000000000081526004016105fb90613650565b60405180910390fd5b60018060008373ffffffffffffffffffffffffffffffffffffffff1673ffffffffffffffffffffffffffffffffffffffff16815260200190815260200160002060006101000a81548160ff02191690831515021790555060016003600082825401925050819055508073ffffffffffffffffffffffffffffffffffffffff167fb020719d16d3c4de45a91f9c329aa61d5bad3f44f760840c8d5d82d4cd3bcc3360405160405180910390a250565b600063150b7a0260e01b9050949350505050565b600080541461070a576040517f08c379a0000000000000000000000000000000000000000000000000000000008152600401610701906135b0565b60405180910390fd5b600160008190555060018060008373ffffffffffffffffffffffffffffffffffffffff1673ffffffffffffffffffffffffffffffffffffffff16815260200190815260200160002060006101000a81548160ff02191690831515021790555060016003600082825401925050819055508073ffffffffffffffffffffffffffffffffffffffff167fb020719d16d3c4de45a91f9c329aa61d5bad3f44f760840c8d5d82d4cd3bcc3360405160405180910390a250565b6040518060400160405280600a81526020017f323032303032313730300000000000000000000000000000000000000000000081525081565b60006041825114156108165761080f8383610939565b905061086b565b6082825110610830576108298383610ee7565b905061086b565b6040517f08c379a0000000000000000000000000000000000000000000000000000000008152600401610862906135d0565b60405180910390fd5b92915050565b606060005a905060006108e6306000357fffffffff00000000000000000000000000000000000000000000000000000000166108ab610930565b6002548d8d8d8d8d6040516020016108cb999897969594939291906132a2565b604051602081830303815290604052805190602001206110ab565b90506108f281856110db565b60606109018a8a8a8a8a61113f565b91505061090d8a61136e565b156109205761091f838a8a8a8a6113fd565b5b8093505050509695505050505050565b60006001905090565b6000604182511461097f576040517f08c379a000000000000000000000000000000000000000000000000000000000815260040161097690613510565b60405180910390fd5b600061099c8361098e866116b2565b6116ed90919063ffffffff16565b905060006109a982611055565b6109ba5763ffffffff60e01b6109c3565b6320c13b0b60e01b5b9050809250505092915050565b3073ffffffffffffffffffffffffffffffffffffffff163373ffffffffffffffffffffffffffffffffffffffff1614610a3e576040517f08c379a0000000000000000000000000000000000000000000000000000000008152600401610a35906134d0565b60405180910390fd5b610a47826117d9565b600060608373ffffffffffffffffffffffffffffffffffffffff1683604051610a709190613206565b600060405180830381855af49150503d8060008114610aab576040519150601f19603f3d011682016040523d82523d6000602084013e610ab0565b606091505b50915091506060610ac082611850565b9050828190610b05576040517f08c379a0000000000000000000000000000000000000000000000000000000008152600401610afc919061344e565b60405180910390fd5b508473ffffffffffffffffffffffffffffffffffffffff167fbc7cd75a20ee27fd9adebab32041f755214dbc6bffa90cc0225b39da2e5c2d3b60405160405180910390a25050505050565b60016020528060005260406000206000915054906101000a900460ff1681565b6060610b7b33611055565b80610bb157503073ffffffffffffffffffffffffffffffffffffffff163373ffffffffffffffffffffffffffffffffffffffff16145b610bf0576040517f08c379a0000000000000000000000000000000000000000000000000000000008152600401610be790613630565b60405180910390fd5b610bf9826118b6565b9050919050565b60005481565b610c0f33611055565b80610c4557503073ffffffffffffffffffffffffffffffffffffffff163373ffffffffffffffffffffffffffffffffffffffff16145b610c84576040517f08c379a0000000000000000000000000000000000000000000000000000000008152600401610c7b90613630565b60405180910390fd5b60011515600160008373ffffffffffffffffffffffffffffffffffffffff1673ffffffffffffffffffffffffffffffffffffffff16815260200190815260200160002060009054906101000a900460ff16151514610d17576040517f08c379a0000000000000000000000000000000000000000000000000000000008152600401610d0e90613670565b60405180910390fd5b600160035411610d5c576040517f08c379a0000000000000000000000000000000000000000000000000000000008152600401610d5390613570565b60405180910390fd5b6000600160008373ffffffffffffffffffffffffffffffffffffffff1673ffffffffffffffffffffffffffffffffffffffff16815260200190815260200160002060006101000a81548160ff02191690831515021790555060016003600082825403925050819055508073ffffffffffffffffffffffffffffffffffffffff167fbe55f9add9abe657e689a4a84a31854310f260c7e2610bcd22440e3ec3a836a460405160405180910390a250565b60025481565b600063bc197c8160e01b905098975050505050505050565b606060005a9050610e3a8a8861194a565b6000610ea8306000357fffffffff0000000000000000000000000000000000000000000000000000000016610e6d610930565b6002548f8f8f8e8e604051602001610e8d999897969594939291906132a2565b604051602081830303815290604052805190602001206110ab565b9050610eb681868a87611a5e565b6060610ec58c8c8c8b8b61113f565b915050610ed5838c8c8b8b6113fd565b80935050505098975050505050505050565b6000608282511015610f2e576040517f08c379a0000000000000000000000000000000000000000000000000000000008152600401610f25906136b0565b60405180910390fd5b6060610f476000604185611b129092919063ffffffff16565b90506060610f6160418086611b129092919063ffffffff16565b90506000610f7a60828651611b9e90919063ffffffff16565b90506060610f9460828388611b129092919063ffffffff16565b90506000610fb385610fa58a6116b2565b6116ed90919063ffffffff16565b90506000610fe88284604051602001610fcd92919061335f565b604051602081830303815290604052805190602001206110ab565b90506000610fff86836116ed90919063ffffffff16565b9050600061100c82611055565b61101d5763ffffffff60e01b611026565b6320c13b0b60e01b5b9050809850505050505050505092915050565b60035481565b600063f23a6e6160e01b90509695505050505050565b6000600160008373ffffffffffffffffffffffffffffffffffffffff1673ffffffffffffffffffffffffffffffffffffffff16815260200190815260200160002060009054906101000a900460ff169050919050565b6000816040516020016110be919061321d565b604051602081830303815290604052805190602001209050919050565b60006110f082846116ed90919063ffffffff16565b90506110fb81611055565b61113a576040517f08c379a000000000000000000000000000000000000000000000000000000000815260040161113190613550565b60405180910390fd5b505050565b600060603a861115611186576040517f08c379a000000000000000000000000000000000000000000000000000000000815260040161117d90613470565b60405180910390fd5b60006111f4306000357fffffffff00000000000000000000000000000000000000000000000000000000166111b9610930565b6002548c8c8c8c8c6040516020016111d9999897969594939291906132a2565b604051602081830303815290604052805190602001206110ab565b90508751600260008282540192505081905550606063792c891f60e01b89604051602401611222919061338f565b604051602081830303815290604052907bffffffffffffffffffffffffffffffffffffffffffffffffffffffff19166020820180517bffffffffffffffffffffffffffffffffffffffffffffffffffffffff83818316178352505050509050600060603073ffffffffffffffffffffffffffffffffffffffff16836040516112aa9190613206565b6000604051808303816000865af19150503d80600081146112e7576040519150601f19603f3d011682016040523d82523d6000602084013e6112ec565b606091505b509150915060608261134257606061130383611850565b90507fb5e1dc2ddc0e1a0221e00b3c0446f36b707001d3ac7cfb494259863fdef7ccd781604051611334919061344e565b60405180910390a150611359565b818060200190516113569190810190612586565b90505b84819650965050505050509550959350505050565b60008060008090505b83518110156113f15761139c84828151811061138f57fe5b6020026020010151611be8565b909150905050809250503073ffffffffffffffffffffffffffffffffffffffff168273ffffffffffffffffffffffffffffffffffffffff16146113e4576001925050506113f8565b8080600101915050611377565b5060009150505b919050565b6000611424846114165a89611b9e90919063ffffffff16565b611c1890919063ffffffff16565b9050600073ffffffffffffffffffffffffffffffffffffffff168373ffffffffffffffffffffffffffffffffffffffff161415611530574761146f8683611c6d90919063ffffffff16565b11156114b0576040517f08c379a00000000000000000000000000000000000000000000000000000000081526004016114a7906134b0565b60405180910390fd5b3373ffffffffffffffffffffffffffffffffffffffff166114da8683611c6d90919063ffffffff16565b6040516114e690613272565b60006040518083038185875af1925050503d8060008114611523576040519150601f19603f3d011682016040523d82523d6000602084013e611528565b606091505b5050506116aa565b6000839050600061154a8484611c6d90919063ffffffff16565b90508173ffffffffffffffffffffffffffffffffffffffff166370a08231306040518263ffffffff1660e01b81526004016115859190613287565b602060405180830381600087803b15801561159f57600080fd5b505af11580156115b3573d6000803e3d6000fd5b505050506040513d601f19601f820116820180604052506115d791908101906128a9565b811115611619576040517f08c379a000000000000000000000000000000000000000000000000000000000815260040161161090613690565b60405180910390fd5b8173ffffffffffffffffffffffffffffffffffffffff1663a9059cbb33836040518363ffffffff1660e01b8152600401611654929190613336565b602060405180830381600087803b15801561166e57600080fd5b505af1158015611682573d6000803e3d6000fd5b505050506040513d601f19601f820116820180604052506116a691908101906127d3565b5050505b505050505050565b60006116be8251611cdd565b826040516020016116d0929190613243565b604051602081830303815290604052805190602001209050919050565b6000604182511461170157600090506117d3565b60008060006020850151925060408501519150606085015160001a90507f7fffffffffffffffffffffffffffffff5d576e7357a4501ddfe92f46681b20a08260001c111561175557600093505050506117d3565b601b8160ff161415801561176d5750601c8160ff1614155b1561177e57600093505050506117d3565b600186828585604051600081526020016040526040516117a194939291906133cc565b6020604051602081039080840390855afa1580156117c3573d6000803e3d6000fd5b5050506020604051035193505050505b92915050565b6117e281611e10565b611821576040517f08c379a000000000000000000000000000000000000000000000000000000000815260040161181890613590565b60405180910390fd5b60007f360894a13ba1a3210667c828492db98dca3e2076cc3735a920a3ca505d382bbc60001b90508181555050565b606060448251101561187c57604051806060016040528060218152602001613a276021913990506118b1565b606061189760048085510385611b129092919063ffffffff16565b9050808060200190516118ad9190810190612868565b9150505b919050565b60608082516040519080825280602002602001820160405280156118ee57816020015b60608152602001906001900390816118d95790505b50905060008090505b83518110156119405761191c84828151811061190f57fe5b6020026020010151611e23565b82828151811061192857fe5b602002602001018190525080806001019150506118f7565b5080915050919050565b600080600090505b83518110156119fd5761197784828151811061196a57fe5b6020026020010151611be8565b909150905050809250503073ffffffffffffffffffffffffffffffffffffffff168273ffffffffffffffffffffffffffffffffffffffff1614156119f0576040517f08c379a00000000000000000000000000000000000000000000000000000000081526004016119e7906135f0565b60405180910390fd5b8080600101915050611952565b50600082806020019051611a1491908101906128a9565b9050428111611a58576040517f08c379a0000000000000000000000000000000000000000000000000000000008152600401611a4f90613530565b60405180910390fd5b50505050565b6000611a7384866116ed90919063ffffffff16565b90506000611aa88285604051602001611a8d92919061335f565b604051602081830303815290604052805190602001206110ab565b90506000611abf84836116ed90919063ffffffff16565b9050611aca81611055565b611b09576040517f08c379a0000000000000000000000000000000000000000000000000000000008152600401611b0090613490565b60405180910390fd5b50505050505050565b606081830184511015611b2457600080fd5b6060821560008114611b4157604051915060208201604052611b92565b6040519150601f8416801560200281840101858101878315602002848b0101015b81831015611b7f5780518352602083019250602081019050611b62565b50868552601f19601f8301166040525050505b50809150509392505050565b6000611be083836040518060400160405280601e81526020017f536166654d6174683a207375627472616374696f6e206f766572666c6f770000815250611e54565b905092915050565b6000806000606084806020019051611c0391908101906122de565b83935080905093509350935093509193509193565b600080828401905083811015611c63576040517f08c379a0000000000000000000000000000000000000000000000000000000008152600401611c5a906134f0565b60405180910390fd5b8091505092915050565b600080831415611c805760009050611cd7565b6000828402905082848281611c9157fe5b0414611cd2576040517f08c379a0000000000000000000000000000000000000000000000000000000008152600401611cc990613610565b60405180910390fd5b809150505b92915050565b60606000821415611d25576040518060400160405280600181526020017f30000000000000000000000000000000000000000000000000000000000000008152509050611e0b565b6000829050600083905060005b60008214611d54578080600101915050600a8281611d4c57fe5b049150611d32565b6060816040519080825280601f01601f191660200182016040528015611d895781602001600182028038833980820191505090505b50905060006001830390505b60008514611e0257600a8581611da757fe5b0660300160f81b82828060019003935081518110611dc157fe5b60200101907effffffffffffffffffffffffffffffffffffffffffffffffffffffffffffff1916908160001a905350600a8581611dfa57fe5b049450611d95565b81955050505050505b919050565b600080823b905060008111915050919050565b606060008060006060611e3586611be8565b9350935093509350611e4984848484611eaf565b945050505050919050565b6000838311158290611e9c576040517f08c379a0000000000000000000000000000000000000000000000000000000008152600401611e93919061344e565b60405180910390fd5b5060008385039050809150509392505050565b6060600060608673ffffffffffffffffffffffffffffffffffffffff16858786604051611edc9190613206565b600060405180830381858888f193505050503d8060008114611f1a576040519150601f19603f3d011682016040523d82523d6000602084013e611f1f565b606091505b509150915081611f73576060611f3482611850565b9050806040517f08c379a0000000000000000000000000000000000000000000000000000000008152600401611f6a919061344e565b60405180910390fd5b8092505050949350505050565b600081359050611f8f816139ca565b92915050565b600081519050611fa4816139e1565b92915050565b600082601f830112611fbb57600080fd5b8151611fce611fc982613718565b6136eb565b9150818183526020840193506020810190508360005b838110156120145781518601611ffa888261218f565b845260208401935060208301925050600181019050611fe4565b5050505092915050565b600082601f83011261202f57600080fd5b813561204261203d82613740565b6136eb565b9150818183526020840193506020810190508360005b83811015612088578135860161206e888261213b565b845260208401935060208301925050600181019050612058565b5050505092915050565b60008083601f8401126120a457600080fd5b8235905067ffffffffffffffff8111156120bd57600080fd5b6020830191508360208202830111156120d557600080fd5b9250929050565b6000815190506120eb816139f8565b92915050565b60008083601f84011261210357600080fd5b8235905067ffffffffffffffff81111561211c57600080fd5b60208301915083600182028301111561213457600080fd5b9250929050565b600082601f83011261214c57600080fd5b813561215f61215a82613768565b6136eb565b9150808252602083016020830185838301111561217b57600080fd5b61218683828461396d565b50505092915050565b600082601f8301126121a057600080fd5b81516121b36121ae82613768565b6136eb565b915080825260208301602083018583830111156121cf57600080fd5b6121da83828461397c565b50505092915050565b600082601f8301126121f457600080fd5b813561220761220282613794565b6136eb565b9150808252602083016020830185838301111561222357600080fd5b61222e83828461396d565b50505092915050565b600082601f83011261224857600080fd5b815161225b612256826137c0565b6136eb565b9150808252602083016020830185838301111561227757600080fd5b61228283828461397c565b50505092915050565b60008135905061229a81613a0f565b92915050565b6000815190506122af81613a0f565b92915050565b6000602082840312156122c757600080fd5b60006122d584828501611f80565b91505092915050565b600080600080608085870312156122f457600080fd5b600061230287828801611f95565b9450506020612313878288016122a0565b9350506040612324878288016122a0565b925050606085015167ffffffffffffffff81111561234157600080fd5b61234d8782880161218f565b91505092959194509250565b60008060008060008060008060a0898b03121561237557600080fd5b60006123838b828c01611f80565b98505060206123948b828c01611f80565b975050604089013567ffffffffffffffff8111156123b157600080fd5b6123bd8b828c01612092565b9650965050606089013567ffffffffffffffff8111156123dc57600080fd5b6123e88b828c01612092565b9450945050608089013567ffffffffffffffff81111561240757600080fd5b6124138b828c016120f1565b92509250509295985092959890939650565b6000806000806080858703121561243b57600080fd5b600061244987828801611f80565b945050602061245a87828801611f80565b935050604061246b8782880161228b565b925050606085013567ffffffffffffffff81111561248857600080fd5b612494878288016121e3565b91505092959194509250565b60008060008060008060a087890312156124b957600080fd5b60006124c789828a01611f80565b96505060206124d889828a01611f80565b95505060406124e989828a0161228b565b94505060606124fa89828a0161228b565b935050608087013567ffffffffffffffff81111561251757600080fd5b61252389828a016120f1565b92509250509295509295509295565b6000806040838503121561254557600080fd5b600061255385828601611f80565b925050602083013567ffffffffffffffff81111561257057600080fd5b61257c858286016121e3565b9150509250929050565b60006020828403121561259857600080fd5b600082015167ffffffffffffffff8111156125b257600080fd5b6125be84828501611faa565b91505092915050565b6000602082840312156125d957600080fd5b600082013567ffffffffffffffff8111156125f357600080fd5b6125ff8482850161201e565b91505092915050565b60008060008060008060c0878903121561262157600080fd5b600087013567ffffffffffffffff81111561263b57600080fd5b61264789828a0161201e565b965050602061265889828a0161228b565b955050604061266989828a0161228b565b945050606061267a89828a01611f80565b935050608061268b89828a0161228b565b92505060a087013567ffffffffffffffff8111156126a857600080fd5b6126b489828a016121e3565b9150509295509295509295565b600080600080600080600080610100898b0312156126de57600080fd5b600089013567ffffffffffffffff8111156126f857600080fd5b6127048b828c0161201e565b98505060206127158b828c0161228b565b97505060406127268b828c0161228b565b965050606089013567ffffffffffffffff81111561274357600080fd5b61274f8b828c016121e3565b95505060806127608b828c01611f80565b94505060a06127718b828c0161228b565b93505060c089013567ffffffffffffffff81111561278e57600080fd5b61279a8b828c016121e3565b92505060e089013567ffffffffffffffff8111156127b757600080fd5b6127c38b828c016121e3565b9150509295985092959890939650565b6000602082840312156127e557600080fd5b60006127f3848285016120dc565b91505092915050565b6000806040838503121561280f57600080fd5b600083013567ffffffffffffffff81111561282957600080fd5b612835858286016121e3565b925050602083013567ffffffffffffffff81111561285257600080fd5b61285e858286016121e3565b9150509250929050565b60006020828403121561287a57600080fd5b600082015167ffffffffffffffff81111561289457600080fd5b6128a084828501612237565b91505092915050565b6000602082840312156128bb57600080fd5b60006128c9848285016122a0565b91505092915050565b60006128de8383612a36565b905092915050565b6128ef81613937565b82525050565b6128fe816138ac565b82525050565b61290d8161389a565b82525050565b600061291e826137fc565b6129288185613840565b93508360208202850161293a856137ec565b8060005b85811015612976578484038952815161295785826128d2565b945061296283613833565b925060208a0199505060018101905061293e565b50829750879550505050505092915050565b612991816138be565b82525050565b6129a0816138ca565b82525050565b6129b76129b2826138ca565b6139af565b82525050565b6129c6816138d4565b82525050565b60006129d782613812565b6129e18185613862565b93506129f181856020860161397c565b6129fa816139b9565b840191505092915050565b6000612a1082613812565b612a1a8185613873565b9350612a2a81856020860161397c565b80840191505092915050565b6000612a4182613807565b612a4b8185613851565b9350612a5b81856020860161397c565b612a64816139b9565b840191505092915050565b6000612a7a82613828565b612a84818561387e565b9350612a9481856020860161397c565b612a9d816139b9565b840191505092915050565b6000612ab382613828565b612abd818561388f565b9350612acd81856020860161397c565b80840191505092915050565b6000612ae48261381d565b612aee818561387e565b9350612afe81856020860161397c565b612b07816139b9565b840191505092915050565b6000612b1f60248361387e565b91507f424d54413a204e6f742061206c6172676520656e6f7567682074782e6761737060008301527f72696365000000000000000000000000000000000000000000000000000000006020830152604082019050919050565b6000612b85601a8361387e565b91507f4c4b4d54413a2041757468206b657920697320696e76616c69640000000000006000830152602082019050919050565b6000612bc5601c8361388f565b91507f19457468657265756d205369676e6564204d6573736167653a0a3332000000006000830152601c82019050919050565b6000612c0560258361387e565b91507f42413a20496e73756666696369656e742067617320284554482920666f72207260008301527f6566756e640000000000000000000000000000000000000000000000000000006020830152604082019050919050565b6000612c6b60158361387e565b91507f42413a204f6e6c792073656c6620616c6c6f77656400000000000000000000006000830152602082019050919050565b6000612cab601b8361387e565b91507f536166654d6174683a206164646974696f6e206f766572666c6f7700000000006000830152602082019050919050565b6000612ceb603a8361387e565b91507f455243313237313a20496e76616c696420697356616c6964417574684b65795360008301527f69676e6174757265205f7369676e6174757265206c656e6774680000000000006020830152604082019050919050565b6000612d51601b8361387e565b91507f4c4b4d54413a204c6f67696e206b6579206973206578706972656400000000006000830152602082019050919050565b6000612d91601a8361387e565b91507f414b4d54413a2041757468206b657920697320696e76616c69640000000000006000830152602082019050919050565b6000612dd1601f8361387e565b91507f42413a2043616e6e6f742072656d6f7665206c6173742061757468206b6579006000830152602082019050919050565b6000612e11603f8361387e565b91507f41553a2043616e6e6f742073657420612070726f787920696d706c656d656e7460008301527f6174696f6e20746f2061206e6f6e2d636f6e74726163742061646472657373006020830152604082019050919050565b6000612e7760218361387e565b91507f41493a20496d70726f70657220696e697469616c697a6174696f6e206f72646560008301527f72000000000000000000000000000000000000000000000000000000000000006020830152604082019050919050565b6000612edd60338361387e565b91507f455243313237313a20496e76616c696420697356616c69645369676e6174757260008301527f65205f7369676e6174757265206c656e677468000000000000000000000000006020830152604082019050919050565b6000612f4360298361387e565b91507f4c4b4d54413a204c6f67696e206b6579206973206e6f742061626c6520746f2060008301527f63616c6c2073656c6600000000000000000000000000000000000000000000006020830152604082019050919050565b6000612fa960218361387e565b91507f536166654d6174683a206d756c7469706c69636174696f6e206f766572666c6f60008301527f77000000000000000000000000000000000000000000000000000000000000006020830152604082019050919050565b600061300f601a8361388f565b91507f19457468657265756d205369676e6564204d6573736167653a0a0000000000006000830152601a82019050919050565b600061304f601f8361387e565b91507f42413a2041757468206b6579206f722073656c6620697320696e76616c6964006000830152602082019050919050565b600061308f600083613873565b9150600082019050919050565b60006130a9601a8361387e565b91507f42413a2041757468206b657920616c72656164792061646465640000000000006000830152602082019050919050565b60006130e9601a8361387e565b91507f42413a2041757468206b6579206e6f74207965742061646465640000000000006000830152602082019050919050565b600061312960278361387e565b91507f42413a20496e73756666696369656e74206761732028746f6b656e2920666f7260008301527f20726566756e64000000000000000000000000000000000000000000000000006020830152604082019050919050565b600061318f603b8361387e565b91507f455243313237313a20496e76616c696420697356616c69644c6f67696e4b657960008301527f5369676e6174757265205f7369676e6174757265206c656e67746800000000006020830152604082019050919050565b6131f181613920565b82525050565b6132008161392a565b82525050565b60006132128284612a05565b915081905092915050565b600061322882612bb8565b915061323482846129a6565b60208201915081905092915050565b600061324e82613002565b915061325a8285612aa8565b91506132668284612a05565b91508190509392505050565b600061327d82613082565b9150819050919050565b600060208201905061329c60008301846128e6565b92915050565b6000610120820190506132b8600083018c6128f5565b6132c5602083018b6129bd565b6132d2604083018a6131e8565b6132df60608301896131e8565b81810360808301526132f18188612913565b905061330060a08301876131e8565b61330d60c08301866131e8565b61331a60e0830185612904565b6133286101008301846131e8565b9a9950505050505050505050565b600060408201905061334b60008301856128e6565b61335860208301846131e8565b9392505050565b60006040820190506133746000830185612904565b818103602083015261338681846129cc565b90509392505050565b600060208201905081810360008301526133a98184612913565b905092915050565b60006020820190506133c66000830184612988565b92915050565b60006080820190506133e16000830187612997565b6133ee60208301866131f7565b6133fb6040830185612997565b6134086060830184612997565b95945050505050565b600060208201905061342660008301846129bd565b92915050565b600060208201905081810360008301526134468184612ad9565b905092915050565b600060208201905081810360008301526134688184612a6f565b905092915050565b6000602082019050818103600083015261348981612b12565b9050919050565b600060208201905081810360008301526134a981612b78565b9050919050565b600060208201905081810360008301526134c981612bf8565b9050919050565b600060208201905081810360008301526134e981612c5e565b9050919050565b6000602082019050818103600083015261350981612c9e565b9050919050565b6000602082019050818103600083015261352981612cde565b9050919050565b6000602082019050818103600083015261354981612d44565b9050919050565b6000602082019050818103600083015261356981612d84565b9050919050565b6000602082019050818103600083015261358981612dc4565b9050919050565b600060208201905081810360008301526135a981612e04565b9050919050565b600060208201905081810360008301526135c981612e6a565b9050919050565b600060208201905081810360008301526135e981612ed0565b9050919050565b6000602082019050818103600083015261360981612f36565b9050919050565b6000602082019050818103600083015261362981612f9c565b9050919050565b6000602082019050818103600083015261364981613042565b9050919050565b600060208201905081810360008301526136698161309c565b9050919050565b60006020820190508181036000830152613689816130dc565b9050919050565b600060208201905081810360008301526136a98161311c565b9050919050565b600060208201905081810360008301526136c981613182565b9050919050565b60006020820190506136e560008301846131e8565b92915050565b6000604051905081810181811067ffffffffffffffff8211171561370e57600080fd5b8060405250919050565b600067ffffffffffffffff82111561372f57600080fd5b602082029050602081019050919050565b600067ffffffffffffffff82111561375757600080fd5b602082029050602081019050919050565b600067ffffffffffffffff82111561377f57600080fd5b601f19601f8301169050602081019050919050565b600067ffffffffffffffff8211156137ab57600080fd5b601f19601f8301169050602081019050919050565b600067ffffffffffffffff8211156137d757600080fd5b601f19601f8301169050602081019050919050565b6000819050602082019050919050565b600081519050919050565b600081519050919050565b600081519050919050565b600081519050919050565b600081519050919050565b6000602082019050919050565b600082825260208201905092915050565b600082825260208201905092915050565b600082825260208201905092915050565b600081905092915050565b600082825260208201905092915050565b600081905092915050565b60006138a582613900565b9050919050565b60006138b782613900565b9050919050565b60008115159050919050565b6000819050919050565b60007fffffffff0000000000000000000000000000000000000000000000000000000082169050919050565b600073ffffffffffffffffffffffffffffffffffffffff82169050919050565b6000819050919050565b600060ff82169050919050565b600061394282613949565b9050919050565b60006139548261395b565b9050919050565b600061396682613900565b9050919050565b82818337600083830152505050565b60005b8381101561399a57808201518184015260208101905061397f565b838111156139a9576000848401525b50505050565b6000819050919050565b6000601f19601f8301169050919050565b6139d38161389a565b81146139de57600080fd5b50565b6139ea816138ac565b81146139f557600080fd5b50565b613a01816138be565b8114613a0c57600080fd5b50565b613a1881613920565b8114613a2357600080fd5b5056fe42413a205472616e73616374696f6e2072657665727465642073696c656e746c79a365627a7a72315820c712c7a778cfc7beb313d29f80ed64c57d3c29901a68895de2537a65371b85366c6578706572696d656e74616cf564736f6c63430005100040",
  "source": "pragma solidity 0.5.16;\npragma experimental ABIEncoderV2;\n\nimport \"./BaseAccount.sol\";\nimport \"./ERC1271Account.sol\";\nimport \"./LoginKeyMetaTxAccount.sol\";\nimport \"./AuthKeyMetaTxAccount.sol\";\nimport \"./AccountUpgradeability.sol\";\nimport \"../interfaces/IAuthereumAccount.sol\";\n\n/**\n * @title AuthereumAccount\n * @author Authereum Labs, Inc.\n * @dev Top-level contract used when creating an Authereum account.\n * @dev This contract is meant to only hold the version. All other logic is inherited.\n */\n\ncontract AuthereumAccount is\n    IAuthereumAccount,\n    BaseAccount,\n    ERC1271Account,\n    LoginKeyMetaTxAccount,\n    AuthKeyMetaTxAccount,\n    AccountUpgradeability\n{\n    string constant public authereumVersion = \"2020021700\";\n}\n",
  "sourcePath": "/Users/smitrajput/Projects/batchoo/contracts/account/AuthereumAccount.sol",
  "compiler": {
    "name": "solc",
    "version": "0.5.16+commit.9c3226ce.Emscripten.clang"
  },
  "schemaVersion": "3.1.0",
  "updatedAt": "2020-05-20T12:48:46.016Z",
  "devdoc": {
    "author": "Authereum Labs, Inc.",
    "details": "Top-level contract used when creating an Authereum account.This contract is meant to only hold the version. All other logic is inherited.",
    "methods": {
      "addAuthKey(address)": {
        "details": "Add an auth key to the list of auth keys",
        "params": {
          "_authKey": "Address of the auth key to add"
        }
      },
      "executeMultipleAuthKeyMetaTransactions(bytes[],uint256,uint256,address,uint256,bytes)": {
        "details": "Execute multiple authKey meta transactions",
        "params": {
          "_feeTokenAddress": "Address of the token used to pay a fee",
          "_feeTokenRate": "Rate of the token (in tokenGasPrice/ethGasPrice) used to pay a fee",
          "_gasOverhead": "Gas overhead of the transaction calculated offchain",
          "_gasPrice": "Gas price set by the user",
          "_transactionMessageHashSignature": "Signed transaction data",
          "_transactions": "Arrays of transaction data ([destination, value, gasLimit, data][...]...)"
        }
      },
      "executeMultipleLoginKeyMetaTransactions(bytes[],uint256,uint256,bytes,address,uint256,bytes,bytes)": {
        "details": "Execute an loginKey meta transaction",
        "params": {
          "_feeTokenAddress": "Address of the token used to pay a fee",
          "_feeTokenRate": "Rate of the token (in tokenGasPrice/ethGasPrice) used to pay a fee",
          "_gasOverhead": "Gas overhead of the transaction calculated offchain",
          "_gasPrice": "Gas price set by the user",
          "_loginKeyAttestationSignature": "Signed loginKey",
          "_loginKeyRestrictionsData": "Contains restrictions to the loginKey's functionality",
          "_transactionMessageHashSignature": "Signed transaction data",
          "_transactions": "Arrays of transaction data ([destination, value, gasLimit, data][...]...)"
        },
        "return": "Response of the call"
      },
      "executeMultipleMetaTransactions(bytes[])": {
        "details": "Execute multiple meta transactions",
        "params": {
          "_transactions": "Arrays of transaction data ([destination, value, gasLimit, data][...]...)"
        },
        "return": "The responses of the calls"
      },
      "getChainId()": {
        "details": "Get the chain ID constant",
        "return": "The chain id"
      },
      "initializeV1(address)": {
        "details": "Initialize the Authereum Account",
        "params": {
          "_authKey": "authKey that will own this account"
        }
      },
      "isValidAuthKeySignature(bytes,bytes)": {
        "details": "Check if a message and auth key signature pair is valid",
        "params": {
          "_data": "Data that was signed",
          "_signature": "Signature of the data signed by the authkey"
        },
        "return": "VALID_SIG or INVALID_SIG hex data"
      },
      "isValidLoginKeySignature(bytes,bytes)": {
        "details": "Check if a message and login key signature pair is valid, as well as a signed login key by an auth key",
        "params": {
          "_data": "Message that was signed",
          "_signature": "Signature of the data. Signed msg data by the login key and signed login key by auth key"
        },
        "return": "VALID_SIG or INVALID_SIG hex data"
      },
      "isValidSignature(bytes,bytes)": {
        "details": "Check if a message and signature pair is valid",
        "params": {
          "_data": "Data that was signed",
          "_signature": "Signature(s) of the data. Either a single signature (login) or two (login and auth)"
        },
        "return": "VALID_SIG or INVALID_SIG hex data"
      },
      "onERC1155BatchReceived(address,address,uint256[],uint256[],bytes)": {
        "details": "An ERC1155-compliant smart contract MUST call this function on the token recipient contract, at the end of a `safeBatchTransferFrom` after the balances have been updated. This function MUST return `bytes4(keccak256(\"onERC1155BatchReceived(address,address,uint256[],uint256[],bytes)\"))` (i.e. 0xbc197c81) if it accepts the transfer(s). This function MUST revert if it rejects the transfer(s). Return of any other value than the prescribed keccak256 generated value MUST result in the transaction being reverted by the caller. param _operator  The address which initiated the batch transfer (i.e. msg.sender) param _from      The address which previously owned the token param _ids       An array containing ids of each token being transferred (order and length must match _values array) param _values    An array containing amounts of each token being transferred (order and length must match _ids array) param _data      Additional data with no specified format",
        "return": "`bytes4(keccak256(\"onERC1155BatchReceived(address,address,uint256[],uint256[],bytes)\"))`"
      },
      "onERC721Received(address,address,uint256,bytes)": {
        "details": "The ERC721 smart contract calls this function on the recipient after a {IERC721-safeTransferFrom}. This function MUST return the function selector, otherwise the caller will revert the transaction. The selector to be returned can be obtained as `this.onERC721Received.selector`. This function MAY throw to revert and reject the transfer. Note: the ERC721 contract address is always the message sender. param operator The address which called `safeTransferFrom` function param from The address which previously owned the token param tokenId The NFT identifier which is being transferred param data Additional data with no specified format",
        "return": "bytes4 `bytes4(keccak256(\"onERC721Received(address,address,uint256,bytes)\"))`"
      },
      "removeAuthKey(address)": {
        "details": "Remove an auth key from the list of auth keys",
        "params": {
          "_authKey": "Address of the auth key to remove"
        }
      },
      "upgradeToAndCall(address,bytes)": {
        "details": "Upgrades the proxy to the newest implementation of a contract and forwards a function call to it",
        "params": {
          "_data": "Array of initialize data",
          "_newImplementation": "Address of the new implementation"
        }
      }
    },
    "title": "AuthereumAccount"
  },
  "userdoc": {
    "methods": {
      "executeMultipleMetaTransactions(bytes[])": {
        "notice": "This can only be called by self as a part of the atomic meta transaction"
      },
      "isValidSignature(bytes,bytes)": {
        "notice": "The _signature parameter can either be one auth key signature or it canbe a login key signature and an auth key signature (signed login key)"
      },
      "onERC1155BatchReceived(address,address,uint256[],uint256[],bytes)": {
        "notice": "Handle the receipt of multiple ERC1155 token types."
      },
      "onERC1155Received(address,address,uint256,uint256,bytes)": {
        "notice": "ERC1155"
      },
      "onERC721Received(address,address,uint256,bytes)": {
        "notice": "Handle the receipt of an NFT"
      },
      "upgradeToAndCall(address,bytes)": {
        "notice": "This is useful to initialize the proxied contract"
      }
    }
  }
}