{
  "contractName": "AuthereumEnsResolverState",
  "abi": [
    {
      "constant": true,
      "inputs": [
        {
          "internalType": "bytes32",
          "name": "",
          "type": "bytes32"
        }
      ],
      "name": "addrs",
      "outputs": [
        {
          "internalType": "address",
          "name": "",
          "type": "address"
        }
      ],
      "payable": false,
      "stateMutability": "view",
      "type": "function"
    },
    {
      "constant": true,
      "inputs": [
        {
          "internalType": "bytes32",
          "name": "",
          "type": "bytes32"
        }
      ],
      "name": "hashes",
      "outputs": [
        {
          "internalType": "bytes",
          "name": "",
          "type": "bytes"
        }
      ],
      "payable": false,
      "stateMutability": "view",
      "type": "function"
    },
    {
      "constant": true,
      "inputs": [
        {
          "internalType": "bytes32",
          "name": "",
          "type": "bytes32"
        }
      ],
      "name": "names",
      "outputs": [
        {
          "internalType": "string",
          "name": "",
          "type": "string"
        }
      ],
      "payable": false,
      "stateMutability": "view",
      "type": "function"
    },
    {
      "constant": true,
      "inputs": [
        {
          "internalType": "bytes32",
          "name": "",
          "type": "bytes32"
        },
        {
          "internalType": "string",
          "name": "",
          "type": "string"
        }
      ],
      "name": "texts",
      "outputs": [
        {
          "internalType": "string",
          "name": "",
          "type": "string"
        }
      ],
      "payable": false,
      "stateMutability": "view",
      "type": "function"
    },
    {
      "constant": true,
      "inputs": [],
      "name": "timelockContract",
      "outputs": [
        {
          "internalType": "address",
          "name": "",
          "type": "address"
        }
      ],
      "payable": false,
      "stateMutability": "view",
      "type": "function"
    }
  ],
  "bytecode": "0x608060405234801561001057600080fd5b50610661806100206000396000f3fe608060405234801561001057600080fd5b50600436106100575760003560e01c806320c38e2b1461005c57806372dead8a14610103578063a9181cc414610171578063d658d2e9146101bb578063ea5822c614610262575b600080fd5b6100886004803603602081101561007257600080fd5b81019080803590602001909291905050506103a0565b6040518080602001828103825283818151815260200191508051906020019080838360005b838110156100c85780820151818401526020810190506100ad565b50505050905090810190601f1680156100f55780820380516001836020036101000a031916815260200191505b509250505060405180910390f35b61012f6004803603602081101561011957600080fd5b8101908080359060200190929190505050610450565b604051808273ffffffffffffffffffffffffffffffffffffffff1673ffffffffffffffffffffffffffffffffffffffff16815260200191505060405180910390f35b610179610483565b604051808273ffffffffffffffffffffffffffffffffffffffff1673ffffffffffffffffffffffffffffffffffffffff16815260200191505060405180910390f35b6101e7600480360360208110156101d157600080fd5b81019080803590602001909291905050506104a9565b6040518080602001828103825283818151815260200191508051906020019080838360005b8381101561022757808201518184015260208101905061020c565b50505050905090810190601f1680156102545780820380516001836020036101000a031916815260200191505b509250505060405180910390f35b6103256004803603604081101561027857600080fd5b81019080803590602001909291908035906020019064010000000081111561029f57600080fd5b8201836020820111156102b157600080fd5b803590602001918460018302840111640100000000831117156102d357600080fd5b91908080601f016020809104026020016040519081016040528093929190818152602001838380828437600081840152601f19601f820116905080830192505050505050509192919290505050610559565b6040518080602001828103825283818151815260200191508051906020019080838360005b8381101561036557808201518184015260208101905061034a565b50505050905090810190601f1680156103925780820380516001836020036101000a031916815260200191505b509250505060405180910390f35b60036020528060005260406000206000915090508054600181600116156101000203166002900480601f0160208091040260200160405190810160405280929190818152602001828054600181600116156101000203166002900480156104485780601f1061041d57610100808354040283529160200191610448565b820191906000526020600020905b81548152906001019060200180831161042b57829003601f168201915b505050505081565b60026020528060005260406000206000915054906101000a900473ffffffffffffffffffffffffffffffffffffffff1681565b600160009054906101000a900473ffffffffffffffffffffffffffffffffffffffff1681565b60056020528060005260406000206000915090508054600181600116156101000203166002900480601f0160208091040260200160405190810160405280929190818152602001828054600181600116156101000203166002900480156105515780601f1061052657610100808354040283529160200191610551565b820191906000526020600020905b81548152906001019060200180831161053457829003601f168201915b505050505081565b600460205281600052604060002081805160208101820180518482526020830160208501208183528095505050505050600091509150508054600181600116156101000203166002900480601f0160208091040260200160405190810160405280929190818152602001828054600181600116156101000203166002900480156106245780601f106105f957610100808354040283529160200191610624565b820191906000526020600020905b81548152906001019060200180831161060757829003601f168201915b50505050508156fea265627a7a72315820451e64c5519885dd191099c26e8eaac7ea096f50a2657eeda355ad8c10ba5fc364736f6c63430005100032",
  "source": "pragma solidity 0.5.16;\n\nimport \"./AuthereumEnsResolverStateV1.sol\";\n\n/**\n * @title AuthereumEnsResolverState\n * @author Authereum Labs, Inc.\n * @dev This contract holds the state variables used by the Authereum ENS Resolver.\n * @dev This exists as the main contract to hold state. This contract is inherited\n * @dev by AuthereumEnsResolver.sol, which will not care about state as long as it inherits\n * @dev AuthereumEnsResolverState.sol. Any state variable additions will be made to the various\n * @dev versions of AuthereumEnsResolverStateVX that this contract will inherit.\n */\n\ncontract AuthereumEnsResolverState is AuthereumEnsResolverStateV1 {}",
  "sourcePath": "/Users/smitrajput/Projects/batchoo/contracts/ens/state/AuthereumEnsResolverState.sol",
  "compiler": {
    "name": "solc",
    "version": "0.5.16+commit.9c3226ce.Emscripten.clang"
  },
  "schemaVersion": "3.1.0",
  "updatedAt": "2020-05-20T12:48:22.937Z",
  "devdoc": {
    "author": "Authereum Labs, Inc.",
    "details": "This contract holds the state variables used by the Authereum ENS Resolver.This exists as the main contract to hold state. This contract is inheritedby AuthereumEnsResolver.sol, which will not care about state as long as it inheritsAuthereumEnsResolverState.sol. Any state variable additions will be made to the variousversions of AuthereumEnsResolverStateVX that this contract will inherit.",
    "methods": {},
    "title": "AuthereumEnsResolverState"
  },
  "userdoc": {
    "methods": {}
  }
}