{
  "contractName": "AuthKeyMetaTxAccount",
  "abi": [
    {
      "anonymous": false,
      "inputs": [
        {
          "indexed": true,
          "internalType": "address",
          "name": "authKey",
          "type": "address"
        }
      ],
      "name": "AuthKeyAdded",
      "type": "event"
    },
    {
      "anonymous": false,
      "inputs": [
        {
          "indexed": true,
          "internalType": "address",
          "name": "authKey",
          "type": "address"
        }
      ],
      "name": "AuthKeyRemoved",
      "type": "event"
    },
    {
      "anonymous": false,
      "inputs": [
        {
          "indexed": false,
          "internalType": "string",
          "name": "reason",
          "type": "string"
        }
      ],
      "name": "CallFailed",
      "type": "event"
    },
    {
      "anonymous": false,
      "inputs": [
        {
          "indexed": true,
          "internalType": "address",
          "name": "implementation",
          "type": "address"
        }
      ],
      "name": "Upgraded",
      "type": "event"
    },
    {
      "payable": true,
      "stateMutability": "payable",
      "type": "fallback"
    },
    {
      "constant": false,
      "inputs": [
        {
          "internalType": "address",
          "name": "_authKey",
          "type": "address"
        }
      ],
      "name": "addAuthKey",
      "outputs": [],
      "payable": false,
      "stateMutability": "nonpayable",
      "type": "function"
    },
    {
      "constant": true,
      "inputs": [
        {
          "internalType": "address",
          "name": "",
          "type": "address"
        }
      ],
      "name": "authKeys",
      "outputs": [
        {
          "internalType": "bool",
          "name": "",
          "type": "bool"
        }
      ],
      "payable": false,
      "stateMutability": "view",
      "type": "function"
    },
    {
      "constant": false,
      "inputs": [
        {
          "internalType": "bytes[]",
          "name": "_transactions",
          "type": "bytes[]"
        }
      ],
      "name": "executeMultipleMetaTransactions",
      "outputs": [
        {
          "internalType": "bytes[]",
          "name": "",
          "type": "bytes[]"
        }
      ],
      "payable": false,
      "stateMutability": "nonpayable",
      "type": "function"
    },
    {
      "constant": true,
      "inputs": [],
      "name": "getChainId",
      "outputs": [
        {
          "internalType": "uint256",
          "name": "",
          "type": "uint256"
        }
      ],
      "payable": false,
      "stateMutability": "pure",
      "type": "function"
    },
    {
      "constant": false,
      "inputs": [
        {
          "internalType": "address",
          "name": "_authKey",
          "type": "address"
        }
      ],
      "name": "initializeV1",
      "outputs": [],
      "payable": false,
      "stateMutability": "nonpayable",
      "type": "function"
    },
    {
      "constant": true,
      "inputs": [],
      "name": "lastInitializedVersion",
      "outputs": [
        {
          "internalType": "uint256",
          "name": "",
          "type": "uint256"
        }
      ],
      "payable": false,
      "stateMutability": "view",
      "type": "function"
    },
    {
      "constant": true,
      "inputs": [],
      "name": "nonce",
      "outputs": [
        {
          "internalType": "uint256",
          "name": "",
          "type": "uint256"
        }
      ],
      "payable": false,
      "stateMutability": "view",
      "type": "function"
    },
    {
      "constant": true,
      "inputs": [],
      "name": "numAuthKeys",
      "outputs": [
        {
          "internalType": "uint256",
          "name": "",
          "type": "uint256"
        }
      ],
      "payable": false,
      "stateMutability": "view",
      "type": "function"
    },
    {
      "constant": false,
      "inputs": [
        {
          "internalType": "address",
          "name": "",
          "type": "address"
        },
        {
          "internalType": "address",
          "name": "",
          "type": "address"
        },
        {
          "internalType": "uint256[]",
          "name": "",
          "type": "uint256[]"
        },
        {
          "internalType": "uint256[]",
          "name": "",
          "type": "uint256[]"
        },
        {
          "internalType": "bytes",
          "name": "",
          "type": "bytes"
        }
      ],
      "name": "onERC1155BatchReceived",
      "outputs": [
        {
          "internalType": "bytes4",
          "name": "",
          "type": "bytes4"
        }
      ],
      "payable": false,
      "stateMutability": "nonpayable",
      "type": "function"
    },
    {
      "constant": false,
      "inputs": [
        {
          "internalType": "address",
          "name": "",
          "type": "address"
        },
        {
          "internalType": "address",
          "name": "",
          "type": "address"
        },
        {
          "internalType": "uint256",
          "name": "",
          "type": "uint256"
        },
        {
          "internalType": "uint256",
          "name": "",
          "type": "uint256"
        },
        {
          "internalType": "bytes",
          "name": "",
          "type": "bytes"
        }
      ],
      "name": "onERC1155Received",
      "outputs": [
        {
          "internalType": "bytes4",
          "name": "",
          "type": "bytes4"
        }
      ],
      "payable": false,
      "stateMutability": "nonpayable",
      "type": "function"
    },
    {
      "constant": false,
      "inputs": [
        {
          "internalType": "address",
          "name": "",
          "type": "address"
        },
        {
          "internalType": "address",
          "name": "",
          "type": "address"
        },
        {
          "internalType": "uint256",
          "name": "",
          "type": "uint256"
        },
        {
          "internalType": "bytes",
          "name": "",
          "type": "bytes"
        }
      ],
      "name": "onERC721Received",
      "outputs": [
        {
          "internalType": "bytes4",
          "name": "",
          "type": "bytes4"
        }
      ],
      "payable": false,
      "stateMutability": "nonpayable",
      "type": "function"
    },
    {
      "constant": false,
      "inputs": [
        {
          "internalType": "address",
          "name": "_authKey",
          "type": "address"
        }
      ],
      "name": "removeAuthKey",
      "outputs": [],
      "payable": false,
      "stateMutability": "nonpayable",
      "type": "function"
    },
    {
      "constant": false,
      "inputs": [
        {
          "internalType": "bytes[]",
          "name": "_transactions",
          "type": "bytes[]"
        },
        {
          "internalType": "uint256",
          "name": "_gasPrice",
          "type": "uint256"
        },
        {
          "internalType": "uint256",
          "name": "_gasOverhead",
          "type": "uint256"
        },
        {
          "internalType": "address",
          "name": "_feeTokenAddress",
          "type": "address"
        },
        {
          "internalType": "uint256",
          "name": "_feeTokenRate",
          "type": "uint256"
        },
        {
          "internalType": "bytes",
          "name": "_transactionMessageHashSignature",
          "type": "bytes"
        }
      ],
      "name": "executeMultipleAuthKeyMetaTransactions",
      "outputs": [
        {
          "internalType": "bytes[]",
          "name": "",
          "type": "bytes[]"
        }
      ],
      "payable": false,
      "stateMutability": "nonpayable",
      "type": "function"
    }
  ],
  "bytecode": "0x608060405234801561001057600080fd5b50612948806100206000396000f3fe6080604052600436106100c25760003560e01c8063792c891f1161007f578063affed0e011610059578063affed0e014610289578063bc197c81146102b4578063ec5e319e146102f1578063f23a6e611461031c576100c2565b8063792c891f146101f85780637e7fd66c146102355780639565389e14610260576100c2565b806313f8c578146100c4578063150b7a02146100ed5780631b9a9f9e1461012a57806326aa4655146101535780633408e470146101905780635175ca5e146101bb575b005b3480156100d057600080fd5b506100eb60048036036100e69190810190611883565b610359565b005b3480156100f957600080fd5b50610114600480360361010f91908101906119f3565b610518565b604051610121919061240d565b60405180910390f35b34801561013657600080fd5b50610151600480360361014c9190810190611883565b61052c565b005b34801561015f57600080fd5b5061017a60048036036101759190810190611b82565b610626565b604051610187919061238b565b60405180910390f35b34801561019c57600080fd5b506101a56106e5565b6040516101b291906125aa565b60405180910390f35b3480156101c757600080fd5b506101e260048036036101dd9190810190611883565b6106ee565b6040516101ef91906123ad565b60405180910390f35b34801561020457600080fd5b5061021f600480360361021a9190810190611b41565b61070e565b60405161022c919061238b565b60405180910390f35b34801561024157600080fd5b5061024a61079e565b60405161025791906125aa565b60405180910390f35b34801561026c57600080fd5b5061028760048036036102829190810190611883565b6107a4565b005b34801561029557600080fd5b5061029e6109a9565b6040516102ab91906125aa565b60405180910390f35b3480156102c057600080fd5b506102db60048036036102d69190810190611927565b6109af565b6040516102e8919061240d565b60405180910390f35b3480156102fd57600080fd5b506103066109c7565b60405161031391906125aa565b60405180910390f35b34801561032857600080fd5b50610343600480360361033e9190810190611a6e565b6109cd565b604051610350919061240d565b60405180910390f35b610362336109e3565b8061039857503073ffffffffffffffffffffffffffffffffffffffff163373ffffffffffffffffffffffffffffffffffffffff16145b6103d7576040517f08c379a00000000000000000000000000000000000000000000000000000000081526004016103ce9061252a565b60405180910390fd5b60001515600160008373ffffffffffffffffffffffffffffffffffffffff1673ffffffffffffffffffffffffffffffffffffffff16815260200190815260200160002060009054906101000a900460ff1615151461046a576040517f08c379a00000000000000000000000000000000000000000000000000000000081526004016104619061254a565b60405180910390fd5b60018060008373ffffffffffffffffffffffffffffffffffffffff1673ffffffffffffffffffffffffffffffffffffffff16815260200190815260200160002060006101000a81548160ff02191690831515021790555060016003600082825401925050819055508073ffffffffffffffffffffffffffffffffffffffff167fb020719d16d3c4de45a91f9c329aa61d5bad3f44f760840c8d5d82d4cd3bcc3360405160405180910390a250565b600063150b7a0260e01b9050949350505050565b6000805414610570576040517f08c379a0000000000000000000000000000000000000000000000000000000008152600401610567906124ea565b60405180910390fd5b600160008190555060018060008373ffffffffffffffffffffffffffffffffffffffff1673ffffffffffffffffffffffffffffffffffffffff16815260200190815260200160002060006101000a81548160ff02191690831515021790555060016003600082825401925050819055508073ffffffffffffffffffffffffffffffffffffffff167fb020719d16d3c4de45a91f9c329aa61d5bad3f44f760840c8d5d82d4cd3bcc3360405160405180910390a250565b606060005a9050600061069b306000357fffffffff00000000000000000000000000000000000000000000000000000000166106606106e5565b6002548d8d8d8d8d604051602001610680999897969594939291906122ce565b60405160208183030381529060405280519060200120610a39565b90506106a78185610a69565b60606106b68a8a8a8a8a610acd565b9150506106c28a610cfc565b156106d5576106d4838a8a8a8a610d8b565b5b8093505050509695505050505050565b60006001905090565b60016020528060005260406000206000915054906101000a900460ff1681565b6060610719336109e3565b8061074f57503073ffffffffffffffffffffffffffffffffffffffff163373ffffffffffffffffffffffffffffffffffffffff16145b61078e576040517f08c379a00000000000000000000000000000000000000000000000000000000081526004016107859061252a565b60405180910390fd5b61079782611040565b9050919050565b60005481565b6107ad336109e3565b806107e357503073ffffffffffffffffffffffffffffffffffffffff163373ffffffffffffffffffffffffffffffffffffffff16145b610822576040517f08c379a00000000000000000000000000000000000000000000000000000000081526004016108199061252a565b60405180910390fd5b60011515600160008373ffffffffffffffffffffffffffffffffffffffff1673ffffffffffffffffffffffffffffffffffffffff16815260200190815260200160002060009054906101000a900460ff161515146108b5576040517f08c379a00000000000000000000000000000000000000000000000000000000081526004016108ac9061256a565b60405180910390fd5b6001600354116108fa576040517f08c379a00000000000000000000000000000000000000000000000000000000081526004016108f1906124ca565b60405180910390fd5b6000600160008373ffffffffffffffffffffffffffffffffffffffff1673ffffffffffffffffffffffffffffffffffffffff16815260200190815260200160002060006101000a81548160ff02191690831515021790555060016003600082825403925050819055508073ffffffffffffffffffffffffffffffffffffffff167fbe55f9add9abe657e689a4a84a31854310f260c7e2610bcd22440e3ec3a836a460405160405180910390a250565b60025481565b600063bc197c8160e01b905098975050505050505050565b60035481565b600063f23a6e6160e01b90509695505050505050565b6000600160008373ffffffffffffffffffffffffffffffffffffffff1673ffffffffffffffffffffffffffffffffffffffff16815260200190815260200160002060009054906101000a900460ff169050919050565b600081604051602001610a4c9190612278565b604051602081830303815290604052805190602001209050919050565b6000610a7e82846110d490919063ffffffff16565b9050610a89816109e3565b610ac8576040517f08c379a0000000000000000000000000000000000000000000000000000000008152600401610abf906124aa565b60405180910390fd5b505050565b600060603a861115610b14576040517f08c379a0000000000000000000000000000000000000000000000000000000008152600401610b0b9061244a565b60405180910390fd5b6000610b82306000357fffffffff0000000000000000000000000000000000000000000000000000000016610b476106e5565b6002548c8c8c8c8c604051602001610b67999897969594939291906122ce565b60405160208183030381529060405280519060200120610a39565b90508751600260008282540192505081905550606063792c891f60e01b89604051602401610bb0919061238b565b604051602081830303815290604052907bffffffffffffffffffffffffffffffffffffffffffffffffffffffff19166020820180517bffffffffffffffffffffffffffffffffffffffffffffffffffffffff83818316178352505050509050600060603073ffffffffffffffffffffffffffffffffffffffff1683604051610c389190612261565b6000604051808303816000865af19150503d8060008114610c75576040519150601f19603f3d011682016040523d82523d6000602084013e610c7a565b606091505b5091509150606082610cd0576060610c91836111c0565b90507fb5e1dc2ddc0e1a0221e00b3c0446f36b707001d3ac7cfb494259863fdef7ccd781604051610cc29190612428565b60405180910390a150610ce7565b81806020019051610ce49190810190611b00565b90505b84819650965050505050509550959350505050565b60008060008090505b8351811015610d7f57610d2a848281518110610d1d57fe5b6020026020010151611226565b909150905050809250503073ffffffffffffffffffffffffffffffffffffffff168273ffffffffffffffffffffffffffffffffffffffff1614610d7257600192505050610d86565b8080600101915050610d05565b5060009150505b919050565b6000610db284610da45a8961125690919063ffffffff16565b6112a090919063ffffffff16565b9050600073ffffffffffffffffffffffffffffffffffffffff168373ffffffffffffffffffffffffffffffffffffffff161415610ebe5747610dfd86836112f590919063ffffffff16565b1115610e3e576040517f08c379a0000000000000000000000000000000000000000000000000000000008152600401610e359061246a565b60405180910390fd5b3373ffffffffffffffffffffffffffffffffffffffff16610e6886836112f590919063ffffffff16565b604051610e749061229e565b60006040518083038185875af1925050503d8060008114610eb1576040519150601f19603f3d011682016040523d82523d6000602084013e610eb6565b606091505b505050611038565b60008390506000610ed884846112f590919063ffffffff16565b90508173ffffffffffffffffffffffffffffffffffffffff166370a08231306040518263ffffffff1660e01b8152600401610f1391906122b3565b602060405180830381600087803b158015610f2d57600080fd5b505af1158015610f41573d6000803e3d6000fd5b505050506040513d601f19601f82011682018060405250610f659190810190611ca5565b811115610fa7576040517f08c379a0000000000000000000000000000000000000000000000000000000008152600401610f9e9061258a565b60405180910390fd5b8173ffffffffffffffffffffffffffffffffffffffff1663a9059cbb33836040518363ffffffff1660e01b8152600401610fe2929190612362565b602060405180830381600087803b158015610ffc57600080fd5b505af1158015611010573d6000803e3d6000fd5b505050506040513d601f19601f820116820180604052506110349190810190611c3b565b5050505b505050505050565b606080825160405190808252806020026020018201604052801561107857816020015b60608152602001906001900390816110635790505b50905060008090505b83518110156110ca576110a684828151811061109957fe5b6020026020010151611365565b8282815181106110b257fe5b60200260200101819052508080600101915050611081565b5080915050919050565b600060418251146110e857600090506111ba565b60008060006020850151925060408501519150606085015160001a90507f7fffffffffffffffffffffffffffffff5d576e7357a4501ddfe92f46681b20a08260001c111561113c57600093505050506111ba565b601b8160ff16141580156111545750601c8160ff1614155b1561116557600093505050506111ba565b6001868285856040516000815260200160405260405161118894939291906123c8565b6020604051602081039080840390855afa1580156111aa573d6000803e3d6000fd5b5050506020604051035193505050505b92915050565b60606044825110156111ec576040518060600160405280602181526020016128e5602191399050611221565b6060611207600480855103856113969092919063ffffffff16565b90508080602001905161121d9190810190611c64565b9150505b919050565b600080600060608480602001905161124191908101906118ac565b83935080905093509350935093509193509193565b600061129883836040518060400160405280601e81526020017f536166654d6174683a207375627472616374696f6e206f766572666c6f770000815250611422565b905092915050565b6000808284019050838110156112eb576040517f08c379a00000000000000000000000000000000000000000000000000000000081526004016112e29061248a565b60405180910390fd5b8091505092915050565b600080831415611308576000905061135f565b600082840290508284828161131957fe5b041461135a576040517f08c379a00000000000000000000000000000000000000000000000000000000081526004016113519061250a565b60405180910390fd5b809150505b92915050565b60606000806000606061137786611226565b935093509350935061138b8484848461147d565b945050505050919050565b6060818301845110156113a857600080fd5b60608215600081146113c557604051915060208201604052611416565b6040519150601f8416801560200281840101858101878315602002848b0101015b8183101561140357805183526020830192506020810190506113e6565b50868552601f19601f8301166040525050505b50809150509392505050565b600083831115829061146a576040517f08c379a00000000000000000000000000000000000000000000000000000000081526004016114619190612428565b60405180910390fd5b5060008385039050809150509392505050565b6060600060608673ffffffffffffffffffffffffffffffffffffffff168587866040516114aa9190612261565b600060405180830381858888f193505050503d80600081146114e8576040519150601f19603f3d011682016040523d82523d6000602084013e6114ed565b606091505b509150915081611541576060611502826111c0565b9050806040517f08c379a00000000000000000000000000000000000000000000000000000000081526004016115389190612428565b60405180910390fd5b8092505050949350505050565b60008135905061155d81612888565b92915050565b6000815190506115728161289f565b92915050565b600082601f83011261158957600080fd5b815161159c611597826125f2565b6125c5565b9150818183526020840193506020810190508360005b838110156115e257815186016115c8888261175d565b8452602084019350602083019250506001810190506115b2565b5050505092915050565b600082601f8301126115fd57600080fd5b813561161061160b8261261a565b6125c5565b9150818183526020840193506020810190508360005b83811015611656578135860161163c8882611709565b845260208401935060208301925050600181019050611626565b5050505092915050565b60008083601f84011261167257600080fd5b8235905067ffffffffffffffff81111561168b57600080fd5b6020830191508360208202830111156116a357600080fd5b9250929050565b6000815190506116b9816128b6565b92915050565b60008083601f8401126116d157600080fd5b8235905067ffffffffffffffff8111156116ea57600080fd5b60208301915083600182028301111561170257600080fd5b9250929050565b600082601f83011261171a57600080fd5b813561172d61172882612642565b6125c5565b9150808252602083016020830185838301111561174957600080fd5b61175483828461282b565b50505092915050565b600082601f83011261176e57600080fd5b815161178161177c82612642565b6125c5565b9150808252602083016020830185838301111561179d57600080fd5b6117a883828461283a565b50505092915050565b600082601f8301126117c257600080fd5b81356117d56117d08261266e565b6125c5565b915080825260208301602083018583830111156117f157600080fd5b6117fc83828461282b565b50505092915050565b600082601f83011261181657600080fd5b81516118296118248261269a565b6125c5565b9150808252602083016020830185838301111561184557600080fd5b61185083828461283a565b50505092915050565b600081359050611868816128cd565b92915050565b60008151905061187d816128cd565b92915050565b60006020828403121561189557600080fd5b60006118a38482850161154e565b91505092915050565b600080600080608085870312156118c257600080fd5b60006118d087828801611563565b94505060206118e18782880161186e565b93505060406118f28782880161186e565b925050606085015167ffffffffffffffff81111561190f57600080fd5b61191b8782880161175d565b91505092959194509250565b60008060008060008060008060a0898b03121561194357600080fd5b60006119518b828c0161154e565b98505060206119628b828c0161154e565b975050604089013567ffffffffffffffff81111561197f57600080fd5b61198b8b828c01611660565b9650965050606089013567ffffffffffffffff8111156119aa57600080fd5b6119b68b828c01611660565b9450945050608089013567ffffffffffffffff8111156119d557600080fd5b6119e18b828c016116bf565b92509250509295985092959890939650565b60008060008060808587031215611a0957600080fd5b6000611a178782880161154e565b9450506020611a288782880161154e565b9350506040611a3987828801611859565b925050606085013567ffffffffffffffff811115611a5657600080fd5b611a62878288016117b1565b91505092959194509250565b60008060008060008060a08789031215611a8757600080fd5b6000611a9589828a0161154e565b9650506020611aa689828a0161154e565b9550506040611ab789828a01611859565b9450506060611ac889828a01611859565b935050608087013567ffffffffffffffff811115611ae557600080fd5b611af189828a016116bf565b92509250509295509295509295565b600060208284031215611b1257600080fd5b600082015167ffffffffffffffff811115611b2c57600080fd5b611b3884828501611578565b91505092915050565b600060208284031215611b5357600080fd5b600082013567ffffffffffffffff811115611b6d57600080fd5b611b79848285016115ec565b91505092915050565b60008060008060008060c08789031215611b9b57600080fd5b600087013567ffffffffffffffff811115611bb557600080fd5b611bc189828a016115ec565b9650506020611bd289828a01611859565b9550506040611be389828a01611859565b9450506060611bf489828a0161154e565b9350506080611c0589828a01611859565b92505060a087013567ffffffffffffffff811115611c2257600080fd5b611c2e89828a016117b1565b9150509295509295509295565b600060208284031215611c4d57600080fd5b6000611c5b848285016116aa565b91505092915050565b600060208284031215611c7657600080fd5b600082015167ffffffffffffffff811115611c9057600080fd5b611c9c84828501611805565b91505092915050565b600060208284031215611cb757600080fd5b6000611cc58482850161186e565b91505092915050565b6000611cda8383611df9565b905092915050565b611ceb816127f5565b82525050565b611cfa8161276a565b82525050565b611d0981612758565b82525050565b6000611d1a826126d6565b611d24818561270f565b935083602082028501611d36856126c6565b8060005b85811015611d725784840389528151611d538582611cce565b9450611d5e83612702565b925060208a01995050600181019050611d3a565b50829750879550505050505092915050565b611d8d8161277c565b82525050565b611d9c81612788565b82525050565b611db3611dae82612788565b61286d565b82525050565b611dc281612792565b82525050565b6000611dd3826126ec565b611ddd8185612731565b9350611ded81856020860161283a565b80840191505092915050565b6000611e04826126e1565b611e0e8185612720565b9350611e1e81856020860161283a565b611e2781612877565b840191505092915050565b6000611e3d826126f7565b611e47818561273c565b9350611e5781856020860161283a565b611e6081612877565b840191505092915050565b6000611e7860248361273c565b91507f424d54413a204e6f742061206c6172676520656e6f7567682074782e6761737060008301527f72696365000000000000000000000000000000000000000000000000000000006020830152604082019050919050565b6000611ede601c8361274d565b91507f19457468657265756d205369676e6564204d6573736167653a0a3332000000006000830152601c82019050919050565b6000611f1e60258361273c565b91507f42413a20496e73756666696369656e742067617320284554482920666f72207260008301527f6566756e640000000000000000000000000000000000000000000000000000006020830152604082019050919050565b6000611f84601b8361273c565b91507f536166654d6174683a206164646974696f6e206f766572666c6f7700000000006000830152602082019050919050565b6000611fc4601a8361273c565b91507f414b4d54413a2041757468206b657920697320696e76616c69640000000000006000830152602082019050919050565b6000612004601f8361273c565b91507f42413a2043616e6e6f742072656d6f7665206c6173742061757468206b6579006000830152602082019050919050565b600061204460218361273c565b91507f41493a20496d70726f70657220696e697469616c697a6174696f6e206f72646560008301527f72000000000000000000000000000000000000000000000000000000000000006020830152604082019050919050565b60006120aa60218361273c565b91507f536166654d6174683a206d756c7469706c69636174696f6e206f766572666c6f60008301527f77000000000000000000000000000000000000000000000000000000000000006020830152604082019050919050565b6000612110601f8361273c565b91507f42413a2041757468206b6579206f722073656c6620697320696e76616c6964006000830152602082019050919050565b6000612150600083612731565b9150600082019050919050565b600061216a601a8361273c565b91507f42413a2041757468206b657920616c72656164792061646465640000000000006000830152602082019050919050565b60006121aa601a8361273c565b91507f42413a2041757468206b6579206e6f74207965742061646465640000000000006000830152602082019050919050565b60006121ea60278361273c565b91507f42413a20496e73756666696369656e74206761732028746f6b656e2920666f7260008301527f20726566756e64000000000000000000000000000000000000000000000000006020830152604082019050919050565b61224c816127de565b82525050565b61225b816127e8565b82525050565b600061226d8284611dc8565b915081905092915050565b600061228382611ed1565b915061228f8284611da2565b60208201915081905092915050565b60006122a982612143565b9150819050919050565b60006020820190506122c86000830184611ce2565b92915050565b6000610120820190506122e4600083018c611cf1565b6122f1602083018b611db9565b6122fe604083018a612243565b61230b6060830189612243565b818103608083015261231d8188611d0f565b905061232c60a0830187612243565b61233960c0830186612243565b61234660e0830185611d00565b612354610100830184612243565b9a9950505050505050505050565b60006040820190506123776000830185611ce2565b6123846020830184612243565b9392505050565b600060208201905081810360008301526123a58184611d0f565b905092915050565b60006020820190506123c26000830184611d84565b92915050565b60006080820190506123dd6000830187611d93565b6123ea6020830186612252565b6123f76040830185611d93565b6124046060830184611d93565b95945050505050565b60006020820190506124226000830184611db9565b92915050565b600060208201905081810360008301526124428184611e32565b905092915050565b6000602082019050818103600083015261246381611e6b565b9050919050565b6000602082019050818103600083015261248381611f11565b9050919050565b600060208201905081810360008301526124a381611f77565b9050919050565b600060208201905081810360008301526124c381611fb7565b9050919050565b600060208201905081810360008301526124e381611ff7565b9050919050565b6000602082019050818103600083015261250381612037565b9050919050565b600060208201905081810360008301526125238161209d565b9050919050565b6000602082019050818103600083015261254381612103565b9050919050565b600060208201905081810360008301526125638161215d565b9050919050565b600060208201905081810360008301526125838161219d565b9050919050565b600060208201905081810360008301526125a3816121dd565b9050919050565b60006020820190506125bf6000830184612243565b92915050565b6000604051905081810181811067ffffffffffffffff821117156125e857600080fd5b8060405250919050565b600067ffffffffffffffff82111561260957600080fd5b602082029050602081019050919050565b600067ffffffffffffffff82111561263157600080fd5b602082029050602081019050919050565b600067ffffffffffffffff82111561265957600080fd5b601f19601f8301169050602081019050919050565b600067ffffffffffffffff82111561268557600080fd5b601f19601f8301169050602081019050919050565b600067ffffffffffffffff8211156126b157600080fd5b601f19601f8301169050602081019050919050565b6000819050602082019050919050565b600081519050919050565b600081519050919050565b600081519050919050565b600081519050919050565b6000602082019050919050565b600082825260208201905092915050565b600082825260208201905092915050565b600081905092915050565b600082825260208201905092915050565b600081905092915050565b6000612763826127be565b9050919050565b6000612775826127be565b9050919050565b60008115159050919050565b6000819050919050565b60007fffffffff0000000000000000000000000000000000000000000000000000000082169050919050565b600073ffffffffffffffffffffffffffffffffffffffff82169050919050565b6000819050919050565b600060ff82169050919050565b600061280082612807565b9050919050565b600061281282612819565b9050919050565b6000612824826127be565b9050919050565b82818337600083830152505050565b60005b8381101561285857808201518184015260208101905061283d565b83811115612867576000848401525b50505050565b6000819050919050565b6000601f19601f8301169050919050565b61289181612758565b811461289c57600080fd5b50565b6128a88161276a565b81146128b357600080fd5b50565b6128bf8161277c565b81146128ca57600080fd5b50565b6128d6816127de565b81146128e157600080fd5b5056fe42413a205472616e73616374696f6e2072657665727465642073696c656e746c79a365627a7a723158205bb3953a062e1796888c36389d5d4be8f01e82607f9edba4c790f3fce498658b6c6578706572696d656e74616cf564736f6c63430005100040",
  "source": "pragma solidity 0.5.16;\npragma experimental ABIEncoderV2;\n\nimport \"./BaseMetaTxAccount.sol\";\n\n/**\n * @title AuthKeyMetaTxAccount\n * @author Authereum Labs, Inc.\n * @dev Contract used by auth keys to send transactions.\n */\n\ncontract AuthKeyMetaTxAccount is BaseMetaTxAccount {\n\n    /// @dev Execute multiple authKey meta transactions\n    /// @param _transactions Arrays of transaction data ([destination, value, gasLimit, data][...]...)\n    /// @param _gasPrice Gas price set by the user\n    /// @param _gasOverhead Gas overhead of the transaction calculated offchain\n    /// @param _feeTokenAddress Address of the token used to pay a fee\n    /// @param _feeTokenRate Rate of the token (in tokenGasPrice/ethGasPrice) used to pay a fee\n    /// @param _transactionMessageHashSignature Signed transaction data\n    function executeMultipleAuthKeyMetaTransactions(\n        bytes[] memory _transactions,\n        uint256 _gasPrice,\n        uint256 _gasOverhead,\n        address _feeTokenAddress,\n        uint256 _feeTokenRate,\n        bytes memory _transactionMessageHashSignature\n    )\n        public\n        returns (bytes[] memory)\n    {\n        uint256 _startGas = gasleft();\n\n        // Hash the parameters\n        bytes32 _transactionMessageHash = keccak256(abi.encode(\n            address(this),\n            msg.sig,\n            getChainId(),\n            nonce,\n            _transactions,\n            _gasPrice,\n            _gasOverhead,\n            _feeTokenAddress,\n            _feeTokenRate\n        )).toEthSignedMessageHash();\n\n        // Validate the signer\n        // NOTE: This must be done prior to the _atomicExecuteMultipleMetaTransactions() call for security purposes\n        _validateAuthKeyMetaTransactionSigs(\n            _transactionMessageHash, _transactionMessageHashSignature\n        );\n\n        (, bytes[] memory _returnValues) = _atomicExecuteMultipleMetaTransactions(\n            _transactions,\n            _gasPrice,\n            _gasOverhead,\n            _feeTokenAddress,\n            _feeTokenRate\n        );\n\n        if (_shouldRefund(_transactions)) {\n          _issueRefund(_startGas, _gasPrice, _gasOverhead, _feeTokenAddress, _feeTokenRate);\n        }\n\n        return _returnValues;\n    }\n\n    /**\n     *  Internal functions\n     */\n\n    /// @dev Validate signatures from an auth key meta transaction\n    /// @param _transactionMessageHash Ethereum signed message of the transaction\n    /// @param _transactionMessageHashSignature Signed transaction data\n    /// @return Address of the auth key that signed the data\n    function _validateAuthKeyMetaTransactionSigs(\n        bytes32 _transactionMessageHash,\n        bytes memory _transactionMessageHashSignature\n    )\n        internal\n        view\n    {\n        address _authKey = _transactionMessageHash.recover(_transactionMessageHashSignature);\n        require(_isValidAuthKey(_authKey), \"AKMTA: Auth key is invalid\");\n    }\n\n    /// @dev Check whether a refund should be issued\n    /// @notice A refund should not be issued if the account is performing an Authereum-related update\n    /// @param _transactions Arrays of transaction data ([destination, value, gasLimit, data][...]...)\n    /// @return True if a refund should be issued\n    function _shouldRefund(bytes[] memory _transactions) internal view returns (bool) {\n        address _destination;\n        for(uint i = 0; i < _transactions.length; i++) {\n            (_destination,,,) = _decodeTransactionData(_transactions[i]);\n            if (_destination != address(this)) return true;\n        }\n\n        return false;\n    }\n}",
  "sourcePath": "/Users/smitrajput/Projects/batchoo/contracts/account/AuthKeyMetaTxAccount.sol",
  "compiler": {
    "name": "solc",
    "version": "0.5.16+commit.9c3226ce.Emscripten.clang"
  },
  "schemaVersion": "3.1.0",
  "updatedAt": "2020-05-20T12:48:46.012Z",
  "devdoc": {
    "author": "Authereum Labs, Inc.",
    "details": "Contract used by auth keys to send transactions.",
    "methods": {
      "addAuthKey(address)": {
        "details": "Add an auth key to the list of auth keys",
        "params": {
          "_authKey": "Address of the auth key to add"
        }
      },
      "executeMultipleAuthKeyMetaTransactions(bytes[],uint256,uint256,address,uint256,bytes)": {
        "details": "Execute multiple authKey meta transactions",
        "params": {
          "_feeTokenAddress": "Address of the token used to pay a fee",
          "_feeTokenRate": "Rate of the token (in tokenGasPrice/ethGasPrice) used to pay a fee",
          "_gasOverhead": "Gas overhead of the transaction calculated offchain",
          "_gasPrice": "Gas price set by the user",
          "_transactionMessageHashSignature": "Signed transaction data",
          "_transactions": "Arrays of transaction data ([destination, value, gasLimit, data][...]...)"
        }
      },
      "executeMultipleMetaTransactions(bytes[])": {
        "details": "Execute multiple meta transactions",
        "params": {
          "_transactions": "Arrays of transaction data ([destination, value, gasLimit, data][...]...)"
        },
        "return": "The responses of the calls"
      },
      "getChainId()": {
        "details": "Get the chain ID constant",
        "return": "The chain id"
      },
      "initializeV1(address)": {
        "details": "Initialize the Authereum Account",
        "params": {
          "_authKey": "authKey that will own this account"
        }
      },
      "onERC1155BatchReceived(address,address,uint256[],uint256[],bytes)": {
        "details": "An ERC1155-compliant smart contract MUST call this function on the token recipient contract, at the end of a `safeBatchTransferFrom` after the balances have been updated. This function MUST return `bytes4(keccak256(\"onERC1155BatchReceived(address,address,uint256[],uint256[],bytes)\"))` (i.e. 0xbc197c81) if it accepts the transfer(s). This function MUST revert if it rejects the transfer(s). Return of any other value than the prescribed keccak256 generated value MUST result in the transaction being reverted by the caller. param _operator  The address which initiated the batch transfer (i.e. msg.sender) param _from      The address which previously owned the token param _ids       An array containing ids of each token being transferred (order and length must match _values array) param _values    An array containing amounts of each token being transferred (order and length must match _ids array) param _data      Additional data with no specified format",
        "return": "`bytes4(keccak256(\"onERC1155BatchReceived(address,address,uint256[],uint256[],bytes)\"))`"
      },
      "onERC721Received(address,address,uint256,bytes)": {
        "details": "The ERC721 smart contract calls this function on the recipient after a {IERC721-safeTransferFrom}. This function MUST return the function selector, otherwise the caller will revert the transaction. The selector to be returned can be obtained as `this.onERC721Received.selector`. This function MAY throw to revert and reject the transfer. Note: the ERC721 contract address is always the message sender. param operator The address which called `safeTransferFrom` function param from The address which previously owned the token param tokenId The NFT identifier which is being transferred param data Additional data with no specified format",
        "return": "bytes4 `bytes4(keccak256(\"onERC721Received(address,address,uint256,bytes)\"))`"
      },
      "removeAuthKey(address)": {
        "details": "Remove an auth key from the list of auth keys",
        "params": {
          "_authKey": "Address of the auth key to remove"
        }
      }
    },
    "title": "AuthKeyMetaTxAccount"
  },
  "userdoc": {
    "methods": {
      "executeMultipleMetaTransactions(bytes[])": {
        "notice": "This can only be called by self as a part of the atomic meta transaction"
      },
      "onERC1155BatchReceived(address,address,uint256[],uint256[],bytes)": {
        "notice": "Handle the receipt of multiple ERC1155 token types."
      },
      "onERC1155Received(address,address,uint256,uint256,bytes)": {
        "notice": "ERC1155"
      },
      "onERC721Received(address,address,uint256,bytes)": {
        "notice": "Handle the receipt of an NFT"
      }
    }
  }
}