{
  "contractName": "AuthereumProxy",
  "abi": [
    {
      "inputs": [
        {
          "internalType": "address",
          "name": "_logic",
          "type": "address"
        }
      ],
      "payable": true,
      "stateMutability": "payable",
      "type": "constructor"
    },
    {
      "payable": true,
      "stateMutability": "payable",
      "type": "fallback"
    },
    {
      "constant": true,
      "inputs": [],
      "name": "authereumProxyVersion",
      "outputs": [
        {
          "internalType": "string",
          "name": "",
          "type": "string"
        }
      ],
      "payable": false,
      "stateMutability": "view",
      "type": "function"
    },
    {
      "constant": true,
      "inputs": [],
      "name": "implementation",
      "outputs": [
        {
          "internalType": "address",
          "name": "impl",
          "type": "address"
        }
      ],
      "payable": false,
      "stateMutability": "view",
      "type": "function"
    }
  ],
  "bytecode": "0x60806040526040516103753803806103758339818101604052610025919081019061006c565b60007f360894a13ba1a3210667c828492db98dca3e2076cc3735a920a3ca505d382bbc60001b905081815550506100de565b600081519050610066816100c7565b92915050565b60006020828403121561007e57600080fd5b600061008c84828501610057565b91505092915050565b60006100a0826100a7565b9050919050565b600073ffffffffffffffffffffffffffffffffffffffff82169050919050565b6100d081610095565b81146100db57600080fd5b50565b610288806100ed6000396000f3fe6080604052600436106100295760003560e01c80635bea7d5d1461006e5780635c60da1b14610099575b600080369050141561003a5761006c565b60006100446100c4565b90503660008037600080366000845af43d6000803e8060008114610067573d6000f35b3d6000fd5b005b34801561007a57600080fd5b506100836100f5565b6040516100909190610191565b60405180910390f35b3480156100a557600080fd5b506100ae6100c4565b6040516100bb9190610176565b60405180910390f35b6000807f360894a13ba1a3210667c828492db98dca3e2076cc3735a920a3ca505d382bbc60001b9050805491505090565b6040518060400160405280600a81526020017f323031393130323530300000000000000000000000000000000000000000000081525081565b610137816101cf565b82525050565b6000610148826101b3565b61015281856101be565b9350610162818560208601610201565b61016b81610234565b840191505092915050565b600060208201905061018b600083018461012e565b92915050565b600060208201905081810360008301526101ab818461013d565b905092915050565b600081519050919050565b600082825260208201905092915050565b60006101da826101e1565b9050919050565b600073ffffffffffffffffffffffffffffffffffffffff82169050919050565b60005b8381101561021f578082015181840152602081019050610204565b8381111561022e576000848401525b50505050565b6000601f19601f830116905091905056fea365627a7a7231582077eae57038fb59f6d4afc081f1e65bc51c107cfc62429a02c066b3cb1ba744cc6c6578706572696d656e74616cf564736f6c63430005100040",
  "source": "pragma solidity 0.5.16;\npragma experimental ABIEncoderV2;\n\n/**\n * @title AuthereumProxy\n * @author Authereum Labs, Inc.\n * @dev The Authereum Proxy.\n */\n\ncontract AuthereumProxy {\n    string constant public authereumProxyVersion = \"2019102500\";\n\n    /// @dev Storage slot with the address of the current implementation.\n    /// @notice This is the keccak-256 hash of \"eip1967.proxy.implementation\" subtracted \n    /// @notice by 1, and is validated in the constructor.\n    bytes32 internal constant IMPLEMENTATION_SLOT = 0x360894a13ba1a3210667c828492db98dca3e2076cc3735a920a3ca505d382bbc;\n\n    /// @dev Set the implementation in the constructor\n    /// @param _logic Address of the logic contract\n    constructor(address _logic) public payable {\n        bytes32 slot = IMPLEMENTATION_SLOT;\n        assembly {\n            sstore(slot, _logic)\n        }\n    }\n\n    /// @dev Fallback function\n    /// @notice A payable fallback needs to be implemented in the implementation contract\n    /// @notice This is a low level function that doesn't return to its internal call site.\n    /// @notice It will return to the external caller whatever the implementation returns.\n    function () external payable {\n        if (msg.data.length == 0) return;\n        address _implementation = implementation();\n\n        assembly {\n            // Copy msg.data. We take full control of memory in this inline assembly\n            // block because it will not return to Solidity code. We overwrite the\n            // Solidity scratch pad at memory position 0.\n            calldatacopy(0, 0, calldatasize)\n\n            // Call the implementation.\n            // out and outsize are 0 because we don't know the size yet.\n            let result := delegatecall(gas, _implementation, 0, calldatasize, 0, 0)\n\n            // Copy the returned data.\n            returndatacopy(0, 0, returndatasize)\n\n            switch result\n            // delegatecall returns 0 on error.\n            case 0 { revert(0, returndatasize) }\n            default { return(0, returndatasize) }\n        }\n    }\n\n    /// @dev Returns the current implementation.\n    /// @return Address of the current implementation\n    function implementation() public view returns (address impl) {\n        bytes32 slot = IMPLEMENTATION_SLOT;\n        assembly {\n            impl := sload(slot)\n        }\n    }\n}",
  "sourcePath": "/Users/smitrajput/Projects/batchoo/contracts/upgradeability/AuthereumProxy.sol",
  "compiler": {
    "name": "solc",
    "version": "0.5.16+commit.9c3226ce.Emscripten.clang"
  },
  "schemaVersion": "3.1.0",
  "updatedAt": "2020-05-20T12:48:23.591Z",
  "devdoc": {
    "author": "Authereum Labs, Inc.",
    "details": "The Authereum Proxy.",
    "methods": {
      "constructor": {
        "details": "Set the implementation in the constructor",
        "params": {
          "_logic": "Address of the logic contract"
        }
      },
      "implementation()": {
        "details": "Returns the current implementation.",
        "return": "Address of the current implementation"
      }
    },
    "title": "AuthereumProxy"
  },
  "userdoc": {
    "methods": {}
  }
}