{
  "contractName": "AuthereumEnsResolverProxy",
  "abi": [
    {
      "inputs": [
        {
          "internalType": "address",
          "name": "_logic",
          "type": "address"
        }
      ],
      "payable": true,
      "stateMutability": "payable",
      "type": "constructor"
    },
    {
      "anonymous": false,
      "inputs": [
        {
          "indexed": true,
          "internalType": "address",
          "name": "_newOwner",
          "type": "address"
        }
      ],
      "name": "OwnerChanged",
      "type": "event"
    },
    {
      "payable": true,
      "stateMutability": "payable",
      "type": "fallback"
    },
    {
      "constant": true,
      "inputs": [],
      "name": "authereumEnsResolverProxyVersion",
      "outputs": [
        {
          "internalType": "string",
          "name": "",
          "type": "string"
        }
      ],
      "payable": false,
      "stateMutability": "view",
      "type": "function"
    },
    {
      "constant": false,
      "inputs": [
        {
          "internalType": "address",
          "name": "_newOwner",
          "type": "address"
        }
      ],
      "name": "changeOwner",
      "outputs": [],
      "payable": false,
      "stateMutability": "nonpayable",
      "type": "function"
    },
    {
      "constant": true,
      "inputs": [
        {
          "internalType": "address",
          "name": "_potentialOwner",
          "type": "address"
        }
      ],
      "name": "isOwner",
      "outputs": [
        {
          "internalType": "bool",
          "name": "",
          "type": "bool"
        }
      ],
      "payable": false,
      "stateMutability": "view",
      "type": "function"
    },
    {
      "constant": true,
      "inputs": [],
      "name": "owner",
      "outputs": [
        {
          "internalType": "address",
          "name": "",
          "type": "address"
        }
      ],
      "payable": false,
      "stateMutability": "view",
      "type": "function"
    },
    {
      "constant": false,
      "inputs": [
        {
          "internalType": "address",
          "name": "_logic",
          "type": "address"
        }
      ],
      "name": "setImplementation",
      "outputs": [],
      "payable": false,
      "stateMutability": "nonpayable",
      "type": "function"
    },
    {
      "constant": true,
      "inputs": [],
      "name": "implementation",
      "outputs": [
        {
          "internalType": "address",
          "name": "impl",
          "type": "address"
        }
      ],
      "payable": false,
      "stateMutability": "view",
      "type": "function"
    }
  ],
  "bytecode": "0x60806040526040516108a73803806108a7833981810160405261002591908101906100ac565b336000806101000a81548173ffffffffffffffffffffffffffffffffffffffff021916908373ffffffffffffffffffffffffffffffffffffffff16021790555060007f360894a13ba1a3210667c828492db98dca3e2076cc3735a920a3ca505d382bbc60001b9050818155505061011e565b6000815190506100a681610107565b92915050565b6000602082840312156100be57600080fd5b60006100cc84828501610097565b91505092915050565b60006100e0826100e7565b9050919050565b600073ffffffffffffffffffffffffffffffffffffffff82169050919050565b610110816100d5565b811461011b57600080fd5b50565b61077a8061012d6000396000f3fe6080604052600436106100555760003560e01c80632f54bf6e1461009a5780635c60da1b146100d75780638c1e21f7146101025780638da5cb5b1461012d578063a6f9dae114610158578063d784d42614610181575b600080369050141561006657610098565b60006100706101aa565b90503660008037600080366000845af43d6000803e8060008114610093573d6000f35b3d6000fd5b005b3480156100a657600080fd5b506100c160048036036100bc91908101906104ea565b6101db565b6040516100ce9190610605565b60405180910390f35b3480156100e357600080fd5b506100ec6101aa565b6040516100f991906105ea565b60405180910390f35b34801561010e57600080fd5b50610117610234565b6040516101249190610620565b60405180910390f35b34801561013957600080fd5b5061014261026d565b60405161014f91906105ea565b60405180910390f35b34801561016457600080fd5b5061017f600480360361017a91908101906104ea565b610292565b005b34801561018d57600080fd5b506101a860048036036101a391908101906104ea565b610417565b005b6000807f360894a13ba1a3210667c828492db98dca3e2076cc3735a920a3ca505d382bbc60001b9050805491505090565b60008173ffffffffffffffffffffffffffffffffffffffff166000809054906101000a900473ffffffffffffffffffffffffffffffffffffffff1673ffffffffffffffffffffffffffffffffffffffff16149050919050565b6040518060400160405280600a81526020017f323031393131313530300000000000000000000000000000000000000000000081525081565b6000809054906101000a900473ffffffffffffffffffffffffffffffffffffffff1681565b6000809054906101000a900473ffffffffffffffffffffffffffffffffffffffff1673ffffffffffffffffffffffffffffffffffffffff163373ffffffffffffffffffffffffffffffffffffffff1614610321576040517f08c379a000000000000000000000000000000000000000000000000000000000815260040161031890610642565b60405180910390fd5b600073ffffffffffffffffffffffffffffffffffffffff168173ffffffffffffffffffffffffffffffffffffffff161415610391576040517f08c379a000000000000000000000000000000000000000000000000000000000815260040161038890610662565b60405180910390fd5b806000806101000a81548173ffffffffffffffffffffffffffffffffffffffff021916908373ffffffffffffffffffffffffffffffffffffffff1602179055508073ffffffffffffffffffffffffffffffffffffffff167fa2ea9883a321a3e97b8266c2b078bfeec6d50c711ed71f874a90d500ae2eaf3660405160405180910390a250565b6000809054906101000a900473ffffffffffffffffffffffffffffffffffffffff1673ffffffffffffffffffffffffffffffffffffffff163373ffffffffffffffffffffffffffffffffffffffff16146104a6576040517f08c379a000000000000000000000000000000000000000000000000000000000815260040161049d90610642565b60405180910390fd5b60007f360894a13ba1a3210667c828492db98dca3e2076cc3735a920a3ca505d382bbc60001b90508181555050565b6000813590506104e481610720565b92915050565b6000602082840312156104fc57600080fd5b600061050a848285016104d5565b91505092915050565b61051c8161069e565b82525050565b61052b816106b0565b82525050565b600061053c82610682565b610546818561068d565b93506105568185602086016106dc565b61055f8161070f565b840191505092915050565b600061057760108361068d565b91507f4f3a204d757374206265206f776e6572000000000000000000000000000000006000830152602082019050919050565b60006105b7601b8361068d565b91507f4f3a2041646472657373206d757374206e6f74206265206e756c6c00000000006000830152602082019050919050565b60006020820190506105ff6000830184610513565b92915050565b600060208201905061061a6000830184610522565b92915050565b6000602082019050818103600083015261063a8184610531565b905092915050565b6000602082019050818103600083015261065b8161056a565b9050919050565b6000602082019050818103600083015261067b816105aa565b9050919050565b600081519050919050565b600082825260208201905092915050565b60006106a9826106bc565b9050919050565b60008115159050919050565b600073ffffffffffffffffffffffffffffffffffffffff82169050919050565b60005b838110156106fa5780820151818401526020810190506106df565b83811115610709576000848401525b50505050565b6000601f19601f8301169050919050565b6107298161069e565b811461073457600080fd5b5056fea365627a7a723158209a3b961ef8c3ce0a4dc5f98cdcd27b3ad85f9816ae8516d4de47c07c2e5708916c6578706572696d656e74616cf564736f6c63430005100040",
  "source": "pragma solidity 0.5.16;\npragma experimental ABIEncoderV2;\n\nimport \"../base/Owned.sol\";\n\n/**\n * @title AuthereumEnsResolverProxy\n * @author Authereum Labs, Inc.\n * @dev The Authereum ENS Resolver Proxy.\n */\n\ncontract AuthereumEnsResolverProxy is Owned {\n    string constant public authereumEnsResolverProxyVersion = \"2019111500\";\n\n    /// @dev Storage slot with the address of the current implementation.\n    /// @notice This is the keccak-256 hash of \"eip1967.proxy.implementation\" subtracted \n    /// @notice by 1, and is validated in the constructor.\n    bytes32 internal constant IMPLEMENTATION_SLOT = 0x360894a13ba1a3210667c828492db98dca3e2076cc3735a920a3ca505d382bbc;\n\n    /// @dev Set the implementation address in the constructor\n    /// @param _logic Address of the logic contract\n    constructor(address _logic) public payable {\n        bytes32 slot = IMPLEMENTATION_SLOT;\n        assembly {\n            sstore(slot, _logic)\n        }\n    }\n\n    /**\n     * Fallback\n     */\n\n    /// @dev Fallback function\n    /// @notice A payable fallback needs to be implemented in the implementation contract\n    /// @notice This is a low level function that doesn't return to its internal call site.\n    /// @notice It will return to the external caller whatever the implementation returns.\n    function () external payable {\n        if (msg.data.length == 0) return;\n        address _implementation = implementation();\n\n        assembly {\n            // Copy msg.data. We take full control of memory in this inline assembly\n            // block because it will not return to Solidity code. We overwrite the\n            // Solidity scratch pad at memory position 0.\n            calldatacopy(0, 0, calldatasize)\n\n            // Call the implementation.\n            // out and outsize are 0 because we don't know the size yet.\n            let result := delegatecall(gas, _implementation, 0, calldatasize, 0, 0)\n\n            // Copy the returned data.\n            returndatacopy(0, 0, returndatasize)\n\n            switch result\n            // delegatecall returns 0 on error.\n            case 0 { revert(0, returndatasize) }\n            default { return(0, returndatasize) }\n        }\n    }\n\n    /**\n     * Setters\n     */\n\n    /// @dev Set the implementation address\n    /// @param _logic Address of the logic contract\n    function setImplementation (address _logic) public onlyOwner {\n        bytes32 slot = IMPLEMENTATION_SLOT;\n        assembly {\n            sstore(slot, _logic)\n        }\n    }\n\n    /**\n     * Getters\n     */\n\n    /// @dev Returns the current implementation.\n    /// @return Address of the current implementation\n    function implementation() public view returns (address impl) {\n        bytes32 slot = IMPLEMENTATION_SLOT;\n        assembly {\n            impl := sload(slot)\n        }\n    }\n}",
  "sourcePath": "/Users/smitrajput/Projects/batchoo/contracts/upgradeability/AuthereumEnsResolverProxy.sol",
  "compiler": {
    "name": "solc",
    "version": "0.5.16+commit.9c3226ce.Emscripten.clang"
  },
  "schemaVersion": "3.1.0",
  "updatedAt": "2020-05-20T12:48:23.590Z",
  "devdoc": {
    "author": "Authereum Labs, Inc.",
    "details": "The Authereum ENS Resolver Proxy.",
    "methods": {
      "changeOwner(address)": {
        "details": "Lets the owner transfer ownership of the contract to a new owner",
        "params": {
          "_newOwner": "The new owner"
        }
      },
      "constructor": {
        "details": "Set the implementation address in the constructor",
        "params": {
          "_logic": "Address of the logic contract"
        }
      },
      "implementation()": {
        "details": "Returns the current implementation.",
        "return": "Address of the current implementation"
      },
      "isOwner(address)": {
        "details": "Return the ownership status of an address",
        "params": {
          "_potentialOwner": "Address being checked"
        },
        "return": "True if the _potentialOwner is the owner"
      },
      "setImplementation(address)": {
        "details": "Set the implementation address",
        "params": {
          "_logic": "Address of the logic contract"
        }
      }
    },
    "title": "AuthereumEnsResolverProxy"
  },
  "userdoc": {
    "methods": {}
  }
}