{
  "contractName": "AuthereumEnsResolver",
  "abi": [
    {
      "inputs": [
        {
          "internalType": "contract EnsRegistry",
          "name": "_ensAddr",
          "type": "address"
        },
        {
          "internalType": "address",
          "name": "_timelockContract",
          "type": "address"
        }
      ],
      "payable": false,
      "stateMutability": "nonpayable",
      "type": "constructor"
    },
    {
      "anonymous": false,
      "inputs": [
        {
          "indexed": true,
          "internalType": "bytes32",
          "name": "node",
          "type": "bytes32"
        },
        {
          "indexed": false,
          "internalType": "address",
          "name": "a",
          "type": "address"
        }
      ],
      "name": "AddrChanged",
      "type": "event"
    },
    {
      "anonymous": false,
      "inputs": [
        {
          "indexed": true,
          "internalType": "bytes32",
          "name": "node",
          "type": "bytes32"
        },
        {
          "indexed": false,
          "internalType": "bytes",
          "name": "hash",
          "type": "bytes"
        }
      ],
      "name": "ContenthashChanged",
      "type": "event"
    },
    {
      "anonymous": false,
      "inputs": [
        {
          "indexed": true,
          "internalType": "address",
          "name": "_manager",
          "type": "address"
        }
      ],
      "name": "ManagerAdded",
      "type": "event"
    },
    {
      "anonymous": false,
      "inputs": [
        {
          "indexed": true,
          "internalType": "address",
          "name": "_manager",
          "type": "address"
        }
      ],
      "name": "ManagerRevoked",
      "type": "event"
    },
    {
      "anonymous": false,
      "inputs": [
        {
          "indexed": true,
          "internalType": "bytes32",
          "name": "node",
          "type": "bytes32"
        },
        {
          "indexed": false,
          "internalType": "string",
          "name": "name",
          "type": "string"
        }
      ],
      "name": "NameChanged",
      "type": "event"
    },
    {
      "anonymous": false,
      "inputs": [
        {
          "indexed": true,
          "internalType": "address",
          "name": "_newOwner",
          "type": "address"
        }
      ],
      "name": "OwnerChanged",
      "type": "event"
    },
    {
      "anonymous": false,
      "inputs": [
        {
          "indexed": true,
          "internalType": "bytes32",
          "name": "node",
          "type": "bytes32"
        },
        {
          "indexed": true,
          "internalType": "string",
          "name": "indexedKey",
          "type": "string"
        },
        {
          "indexed": false,
          "internalType": "string",
          "name": "key",
          "type": "string"
        },
        {
          "indexed": false,
          "internalType": "string",
          "name": "value",
          "type": "string"
        }
      ],
      "name": "TextChanged",
      "type": "event"
    },
    {
      "constant": false,
      "inputs": [
        {
          "internalType": "address",
          "name": "_manager",
          "type": "address"
        }
      ],
      "name": "addManager",
      "outputs": [],
      "payable": false,
      "stateMutability": "nonpayable",
      "type": "function"
    },
    {
      "constant": true,
      "inputs": [
        {
          "internalType": "bytes32",
          "name": "",
          "type": "bytes32"
        }
      ],
      "name": "addrs",
      "outputs": [
        {
          "internalType": "address",
          "name": "",
          "type": "address"
        }
      ],
      "payable": false,
      "stateMutability": "view",
      "type": "function"
    },
    {
      "constant": true,
      "inputs": [],
      "name": "authereumEnsResolverVersion",
      "outputs": [
        {
          "internalType": "string",
          "name": "",
          "type": "string"
        }
      ],
      "payable": false,
      "stateMutability": "view",
      "type": "function"
    },
    {
      "constant": false,
      "inputs": [
        {
          "internalType": "address",
          "name": "_newOwner",
          "type": "address"
        }
      ],
      "name": "changeOwner",
      "outputs": [],
      "payable": false,
      "stateMutability": "nonpayable",
      "type": "function"
    },
    {
      "constant": true,
      "inputs": [
        {
          "internalType": "bytes32",
          "name": "",
          "type": "bytes32"
        }
      ],
      "name": "hashes",
      "outputs": [
        {
          "internalType": "bytes",
          "name": "",
          "type": "bytes"
        }
      ],
      "payable": false,
      "stateMutability": "view",
      "type": "function"
    },
    {
      "constant": true,
      "inputs": [
        {
          "internalType": "address",
          "name": "_potentialOwner",
          "type": "address"
        }
      ],
      "name": "isOwner",
      "outputs": [
        {
          "internalType": "bool",
          "name": "",
          "type": "bool"
        }
      ],
      "payable": false,
      "stateMutability": "view",
      "type": "function"
    },
    {
      "constant": true,
      "inputs": [
        {
          "internalType": "address",
          "name": "",
          "type": "address"
        }
      ],
      "name": "managers",
      "outputs": [
        {
          "internalType": "bool",
          "name": "",
          "type": "bool"
        }
      ],
      "payable": false,
      "stateMutability": "view",
      "type": "function"
    },
    {
      "constant": true,
      "inputs": [
        {
          "internalType": "bytes32",
          "name": "",
          "type": "bytes32"
        }
      ],
      "name": "names",
      "outputs": [
        {
          "internalType": "string",
          "name": "",
          "type": "string"
        }
      ],
      "payable": false,
      "stateMutability": "view",
      "type": "function"
    },
    {
      "constant": true,
      "inputs": [],
      "name": "owner",
      "outputs": [
        {
          "internalType": "address",
          "name": "",
          "type": "address"
        }
      ],
      "payable": false,
      "stateMutability": "view",
      "type": "function"
    },
    {
      "constant": false,
      "inputs": [
        {
          "internalType": "address",
          "name": "_manager",
          "type": "address"
        }
      ],
      "name": "revokeManager",
      "outputs": [],
      "payable": false,
      "stateMutability": "nonpayable",
      "type": "function"
    },
    {
      "constant": true,
      "inputs": [
        {
          "internalType": "bytes32",
          "name": "",
          "type": "bytes32"
        },
        {
          "internalType": "string",
          "name": "",
          "type": "string"
        }
      ],
      "name": "texts",
      "outputs": [
        {
          "internalType": "string",
          "name": "",
          "type": "string"
        }
      ],
      "payable": false,
      "stateMutability": "view",
      "type": "function"
    },
    {
      "constant": true,
      "inputs": [],
      "name": "timelockContract",
      "outputs": [
        {
          "internalType": "address",
          "name": "",
          "type": "address"
        }
      ],
      "payable": false,
      "stateMutability": "view",
      "type": "function"
    },
    {
      "constant": false,
      "inputs": [
        {
          "internalType": "bytes32",
          "name": "_node",
          "type": "bytes32"
        },
        {
          "internalType": "address",
          "name": "_addr",
          "type": "address"
        }
      ],
      "name": "setAddr",
      "outputs": [],
      "payable": false,
      "stateMutability": "nonpayable",
      "type": "function"
    },
    {
      "constant": false,
      "inputs": [
        {
          "internalType": "bytes32",
          "name": "_node",
          "type": "bytes32"
        },
        {
          "internalType": "string",
          "name": "_name",
          "type": "string"
        }
      ],
      "name": "setName",
      "outputs": [],
      "payable": false,
      "stateMutability": "nonpayable",
      "type": "function"
    },
    {
      "constant": false,
      "inputs": [
        {
          "internalType": "bytes32",
          "name": "node",
          "type": "bytes32"
        },
        {
          "internalType": "string",
          "name": "key",
          "type": "string"
        },
        {
          "internalType": "string",
          "name": "value",
          "type": "string"
        }
      ],
      "name": "setText",
      "outputs": [],
      "payable": false,
      "stateMutability": "nonpayable",
      "type": "function"
    },
    {
      "constant": false,
      "inputs": [
        {
          "internalType": "bytes32",
          "name": "node",
          "type": "bytes32"
        },
        {
          "internalType": "bytes",
          "name": "hash",
          "type": "bytes"
        }
      ],
      "name": "setContenthash",
      "outputs": [],
      "payable": false,
      "stateMutability": "nonpayable",
      "type": "function"
    },
    {
      "constant": true,
      "inputs": [
        {
          "internalType": "bytes32",
          "name": "_node",
          "type": "bytes32"
        }
      ],
      "name": "addr",
      "outputs": [
        {
          "internalType": "address",
          "name": "",
          "type": "address"
        }
      ],
      "payable": false,
      "stateMutability": "view",
      "type": "function"
    },
    {
      "constant": true,
      "inputs": [
        {
          "internalType": "bytes32",
          "name": "_node",
          "type": "bytes32"
        }
      ],
      "name": "name",
      "outputs": [
        {
          "internalType": "string",
          "name": "",
          "type": "string"
        }
      ],
      "payable": false,
      "stateMutability": "view",
      "type": "function"
    },
    {
      "constant": true,
      "inputs": [
        {
          "internalType": "bytes32",
          "name": "node",
          "type": "bytes32"
        },
        {
          "internalType": "string",
          "name": "key",
          "type": "string"
        }
      ],
      "name": "text",
      "outputs": [
        {
          "internalType": "string",
          "name": "",
          "type": "string"
        }
      ],
      "payable": false,
      "stateMutability": "view",
      "type": "function"
    },
    {
      "constant": true,
      "inputs": [
        {
          "internalType": "bytes32",
          "name": "node",
          "type": "bytes32"
        }
      ],
      "name": "contenthash",
      "outputs": [
        {
          "internalType": "bytes",
          "name": "",
          "type": "bytes"
        }
      ],
      "payable": false,
      "stateMutability": "view",
      "type": "function"
    },
    {
      "constant": true,
      "inputs": [
        {
          "internalType": "bytes4",
          "name": "_interfaceID",
          "type": "bytes4"
        }
      ],
      "name": "supportsInterface",
      "outputs": [
        {
          "internalType": "bool",
          "name": "",
          "type": "bool"
        }
      ],
      "payable": false,
      "stateMutability": "pure",
      "type": "function"
    }
  ],
  "bytecode": "0x608060405234801561001057600080fd5b506040516125623803806125628339818101604052604081101561003357600080fd5b810190808051906020019092919080519060200190929190505050336000806101000a81548173ffffffffffffffffffffffffffffffffffffffff021916908373ffffffffffffffffffffffffffffffffffffffff16021790555081600260006101000a81548173ffffffffffffffffffffffffffffffffffffffff021916908373ffffffffffffffffffffffffffffffffffffffff16021790555080600360006101000a81548173ffffffffffffffffffffffffffffffffffffffff021916908373ffffffffffffffffffffffffffffffffffffffff1602179055505050612441806101216000396000f3fe608060405234801561001057600080fd5b50600436106101375760003560e01c806372dead8a116100b8578063bc1c58d11161007c578063bc1c58d1146109ab578063d5fa2b0014610a52578063d658d2e914610aa0578063e9b5393814610b47578063ea5822c614610bca578063fdff9b4d14610d0857610137565b806372dead8a146107a0578063773722131461080e5780638da5cb5b146108d3578063a6f9dae11461091d578063a9181cc41461096157610137565b8063304e6ade116100ff578063304e6ade14610444578063377e32e6146105095780633b3b57de1461054d57806359d1d43c146105bb578063691f3431146106f957610137565b806301ffc9a71461013c57806310f13a8c146101a157806320c38e2b146102fd5780632d06177a146103a45780632f54bf6e146103e8575b600080fd5b6101876004803603602081101561015257600080fd5b8101908080357bffffffffffffffffffffffffffffffffffffffffffffffffffffffff19169060200190929190505050610d64565b604051808215151515815260200191505060405180910390f35b6102fb600480360360608110156101b757600080fd5b8101908080359060200190929190803590602001906401000000008111156101de57600080fd5b8201836020820111156101f057600080fd5b8035906020019184600183028401116401000000008311171561021257600080fd5b91908080601f016020809104026020016040519081016040528093929190818152602001838380828437600081840152601f19601f8201169050808301925050505050505091929192908035906020019064010000000081111561027557600080fd5b82018360208201111561028757600080fd5b803590602001918460018302840111640100000000831117156102a957600080fd5b91908080601f016020809104026020016040519081016040528093929190818152602001838380828437600081840152601f19601f820116905080830192505050505050509192919290505050610ef1565b005b6103296004803603602081101561031357600080fd5b81019080803590602001909291905050506111b6565b6040518080602001828103825283818151815260200191508051906020019080838360005b8381101561036957808201518184015260208101905061034e565b50505050905090810190601f1680156103965780820380516001836020036101000a031916815260200191505b509250505060405180910390f35b6103e6600480360360208110156103ba57600080fd5b81019080803573ffffffffffffffffffffffffffffffffffffffff169060200190929190505050611266565b005b61042a600480360360208110156103fe57600080fd5b81019080803573ffffffffffffffffffffffffffffffffffffffff1690602001909291905050506114c2565b604051808215151515815260200191505060405180910390f35b6105076004803603604081101561045a57600080fd5b81019080803590602001909291908035906020019064010000000081111561048157600080fd5b82018360208201111561049357600080fd5b803590602001918460018302840111640100000000831117156104b557600080fd5b91908080601f016020809104026020016040519081016040528093929190818152602001838380828437600081840152601f19601f82011690508083019250505050505050919291929050505061151b565b005b61054b6004803603602081101561051f57600080fd5b81019080803573ffffffffffffffffffffffffffffffffffffffff1690602001909291905050506116aa565b005b6105796004803603602081101561056357600080fd5b81019080803590602001909291905050506118aa565b604051808273ffffffffffffffffffffffffffffffffffffffff1673ffffffffffffffffffffffffffffffffffffffff16815260200191505060405180910390f35b61067e600480360360408110156105d157600080fd5b8101908080359060200190929190803590602001906401000000008111156105f857600080fd5b82018360208201111561060a57600080fd5b8035906020019184600183028401116401000000008311171561062c57600080fd5b91908080601f016020809104026020016040519081016040528093929190818152602001838380828437600081840152601f19601f8201169050808301925050505050505091929192905050506118e7565b6040518080602001828103825283818151815260200191508051906020019080838360005b838110156106be5780820151818401526020810190506106a3565b50505050905090810190601f1680156106eb5780820380516001836020036101000a031916815260200191505b509250505060405180910390f35b6107256004803603602081101561070f57600080fd5b8101908080359060200190929190505050611a04565b6040518080602001828103825283818151815260200191508051906020019080838360005b8381101561076557808201518184015260208101905061074a565b50505050905090810190601f1680156107925780820380516001836020036101000a031916815260200191505b509250505060405180910390f35b6107cc600480360360208110156107b657600080fd5b8101908080359060200190929190505050611ab9565b604051808273ffffffffffffffffffffffffffffffffffffffff1673ffffffffffffffffffffffffffffffffffffffff16815260200191505060405180910390f35b6108d16004803603604081101561082457600080fd5b81019080803590602001909291908035906020019064010000000081111561084b57600080fd5b82018360208201111561085d57600080fd5b8035906020019184600183028401116401000000008311171561087f57600080fd5b91908080601f016020809104026020016040519081016040528093929190818152602001838380828437600081840152601f19601f820116905080830192505050505050509192919290505050611aec565b005b6108db611c7b565b604051808273ffffffffffffffffffffffffffffffffffffffff1673ffffffffffffffffffffffffffffffffffffffff16815260200191505060405180910390f35b61095f6004803603602081101561093357600080fd5b81019080803573ffffffffffffffffffffffffffffffffffffffff169060200190929190505050611ca0565b005b610969611e8b565b604051808273ffffffffffffffffffffffffffffffffffffffff1673ffffffffffffffffffffffffffffffffffffffff16815260200191505060405180910390f35b6109d7600480360360208110156109c157600080fd5b8101908080359060200190929190505050611eb1565b6040518080602001828103825283818151815260200191508051906020019080838360005b83811015610a175780820151818401526020810190506109fc565b50505050905090810190601f168015610a445780820380516001836020036101000a031916815260200191505b509250505060405180910390f35b610a9e60048036036040811015610a6857600080fd5b8101908080359060200190929190803573ffffffffffffffffffffffffffffffffffffffff169060200190929190505050611f66565b005b610acc60048036036020811015610ab657600080fd5b81019080803590602001909291905050506120e6565b6040518080602001828103825283818151815260200191508051906020019080838360005b83811015610b0c578082015181840152602081019050610af1565b50505050905090810190601f168015610b395780820380516001836020036101000a031916815260200191505b509250505060405180910390f35b610b4f612196565b6040518080602001828103825283818151815260200191508051906020019080838360005b83811015610b8f578082015181840152602081019050610b74565b50505050905090810190601f168015610bbc5780820380516001836020036101000a031916815260200191505b509250505060405180910390f35b610c8d60048036036040811015610be057600080fd5b810190808035906020019092919080359060200190640100000000811115610c0757600080fd5b820183602082011115610c1957600080fd5b80359060200191846001830284011164010000000083111715610c3b57600080fd5b91908080601f016020809104026020016040519081016040528093929190818152602001838380828437600081840152601f19601f8201169050808301925050505050505091929192905050506121cf565b6040518080602001828103825283818151815260200191508051906020019080838360005b83811015610ccd578082015181840152602081019050610cb2565b50505050905090810190601f168015610cfa5780820380516001836020036101000a031916815260200191505b509250505060405180910390f35b610d4a60048036036020811015610d1e57600080fd5b81019080803573ffffffffffffffffffffffffffffffffffffffff1690602001909291905050506122a2565b604051808215151515815260200191505060405180910390f35b60006301ffc9a760e01b7bffffffffffffffffffffffffffffffffffffffffffffffffffffffff1916827bffffffffffffffffffffffffffffffffffffffffffffffffffffffff19161480610dfd5750633b3b57de60e01b7bffffffffffffffffffffffffffffffffffffffffffffffffffffffff1916827bffffffffffffffffffffffffffffffffffffffffffffffffffffffff1916145b80610e4c575063691f343160e01b7bffffffffffffffffffffffffffffffffffffffffffffffffffffffff1916827bffffffffffffffffffffffffffffffffffffffffffffffffffffffff1916145b80610e9b57506359d1d43c60e01b7bffffffffffffffffffffffffffffffffffffffffffffffffffffffff1916827bffffffffffffffffffffffffffffffffffffffffffffffffffffffff1916145b80610eea575063bc1c58d160e01b7bffffffffffffffffffffffffffffffffffffffffffffffffffffffff1916827bffffffffffffffffffffffffffffffffffffffffffffffffffffffff1916145b9050919050565b60011515600160003373ffffffffffffffffffffffffffffffffffffffff1673ffffffffffffffffffffffffffffffffffffffff16815260200190815260200160002060009054906101000a900460ff16151514610fb7576040517f08c379a00000000000000000000000000000000000000000000000000000000081526004018080602001828103825260128152602001807f4d3a204d757374206265206d616e61676572000000000000000000000000000081525060200191505060405180910390fd5b8060066000858152602001908152602001600020836040518082805190602001908083835b60208310610fff5780518252602082019150602081019050602083039250610fdc565b6001836020036101000a038019825116818451168082178552505050505050905001915050908152602001604051809103902090805190602001906110459291906122c2565b50816040518082805190602001908083835b6020831061107a5780518252602082019150602081019050602083039250611057565b6001836020036101000a0380198251168184511680821785525050505050509050019150506040518091039020837f448bc014f1536726cf8d54ff3d6481ed3cbc683c2591ca204274009afa09b1a18484604051808060200180602001838103835285818151815260200191508051906020019080838360005b8381101561110f5780820151818401526020810190506110f4565b50505050905090810190601f16801561113c5780820380516001836020036101000a031916815260200191505b50838103825284818151815260200191508051906020019080838360005b8381101561117557808201518184015260208101905061115a565b50505050905090810190601f1680156111a25780820380516001836020036101000a031916815260200191505b5094505050505060405180910390a3505050565b60056020528060005260406000206000915090508054600181600116156101000203166002900480601f01602080910402602001604051908101604052809291908181526020018280546001816001161561010002031660029004801561125e5780601f106112335761010080835404028352916020019161125e565b820191906000526020600020905b81548152906001019060200180831161124157829003601f168201915b505050505081565b6000809054906101000a900473ffffffffffffffffffffffffffffffffffffffff1673ffffffffffffffffffffffffffffffffffffffff163373ffffffffffffffffffffffffffffffffffffffff1614611328576040517f08c379a00000000000000000000000000000000000000000000000000000000081526004018080602001828103825260108152602001807f4f3a204d757374206265206f776e65720000000000000000000000000000000081525060200191505060405180910390fd5b600073ffffffffffffffffffffffffffffffffffffffff168173ffffffffffffffffffffffffffffffffffffffff1614156113cb576040517f08c379a000000000000000000000000000000000000000000000000000000000815260040180806020018281038252601b8152602001807f4d3a2041646472657373206d757374206e6f74206265206e756c6c000000000081525060200191505060405180910390fd5b60001515600160008373ffffffffffffffffffffffffffffffffffffffff1673ffffffffffffffffffffffffffffffffffffffff16815260200190815260200160002060009054906101000a900460ff16151514156114bf5760018060008373ffffffffffffffffffffffffffffffffffffffff1673ffffffffffffffffffffffffffffffffffffffff16815260200190815260200160002060006101000a81548160ff0219169083151502179055508073ffffffffffffffffffffffffffffffffffffffff167f3b4a40cccf2058c593542587329dd385be4f0b588db5471fbd9598e56dd7093a60405160405180910390a25b50565b60008173ffffffffffffffffffffffffffffffffffffffff166000809054906101000a900473ffffffffffffffffffffffffffffffffffffffff1673ffffffffffffffffffffffffffffffffffffffff16149050919050565b60011515600160003373ffffffffffffffffffffffffffffffffffffffff1673ffffffffffffffffffffffffffffffffffffffff16815260200190815260200160002060009054906101000a900460ff161515146115e1576040517f08c379a00000000000000000000000000000000000000000000000000000000081526004018080602001828103825260128152602001807f4d3a204d757374206265206d616e61676572000000000000000000000000000081525060200191505060405180910390fd5b80600760008481526020019081526020016000209080519060200190611608929190612342565b50817fe379c1624ed7e714cc0937528a32359d69d5281337765313dba4e081b72d7578826040518080602001828103825283818151815260200191508051906020019080838360005b8381101561166c578082015181840152602081019050611651565b50505050905090810190601f1680156116995780820380516001836020036101000a031916815260200191505b509250505060405180910390a25050565b6000809054906101000a900473ffffffffffffffffffffffffffffffffffffffff1673ffffffffffffffffffffffffffffffffffffffff163373ffffffffffffffffffffffffffffffffffffffff161461176c576040517f08c379a00000000000000000000000000000000000000000000000000000000081526004018080602001828103825260108152602001807f4f3a204d757374206265206f776e65720000000000000000000000000000000081525060200191505060405180910390fd5b60011515600160008373ffffffffffffffffffffffffffffffffffffffff1673ffffffffffffffffffffffffffffffffffffffff16815260200190815260200160002060009054906101000a900460ff16151514611815576040517f08c379a00000000000000000000000000000000000000000000000000000000081526004018080602001828103825260258152602001806123e86025913960400191505060405180910390fd5b600160008273ffffffffffffffffffffffffffffffffffffffff1673ffffffffffffffffffffffffffffffffffffffff16815260200190815260200160002060006101000a81549060ff02191690558073ffffffffffffffffffffffffffffffffffffffff167fe5def11e0516f317f9c37b8835aec29fc01db4d4b6d6fecaca339d3596a29bc160405160405180910390a250565b60006004600083815260200190815260200160002060009054906101000a900473ffffffffffffffffffffffffffffffffffffffff169050919050565b606060066000848152602001908152602001600020826040518082805190602001908083835b60208310611930578051825260208201915060208101905060208303925061190d565b6001836020036101000a03801982511681845116808217855250505050505090500191505090815260200160405180910390208054600181600116156101000203166002900480601f0160208091040260200160405190810160405280929190818152602001828054600181600116156101000203166002900480156119f75780601f106119cc576101008083540402835291602001916119f7565b820191906000526020600020905b8154815290600101906020018083116119da57829003601f168201915b5050505050905092915050565b6060600560008381526020019081526020016000208054600181600116156101000203166002900480601f016020809104026020016040519081016040528092919081815260200182805460018160011615610100020316600290048015611aad5780601f10611a8257610100808354040283529160200191611aad565b820191906000526020600020905b815481529060010190602001808311611a9057829003601f168201915b50505050509050919050565b60046020528060005260406000206000915054906101000a900473ffffffffffffffffffffffffffffffffffffffff1681565b60011515600160003373ffffffffffffffffffffffffffffffffffffffff1673ffffffffffffffffffffffffffffffffffffffff16815260200190815260200160002060009054906101000a900460ff16151514611bb2576040517f08c379a00000000000000000000000000000000000000000000000000000000081526004018080602001828103825260128152602001807f4d3a204d757374206265206d616e61676572000000000000000000000000000081525060200191505060405180910390fd5b80600560008481526020019081526020016000209080519060200190611bd99291906122c2565b50817fb7d29e911041e8d9b843369e890bcb72c9388692ba48b65ac54e7214c4c348f7826040518080602001828103825283818151815260200191508051906020019080838360005b83811015611c3d578082015181840152602081019050611c22565b50505050905090810190601f168015611c6a5780820380516001836020036101000a031916815260200191505b509250505060405180910390a25050565b6000809054906101000a900473ffffffffffffffffffffffffffffffffffffffff1681565b6000809054906101000a900473ffffffffffffffffffffffffffffffffffffffff1673ffffffffffffffffffffffffffffffffffffffff163373ffffffffffffffffffffffffffffffffffffffff1614611d62576040517f08c379a00000000000000000000000000000000000000000000000000000000081526004018080602001828103825260108152602001807f4f3a204d757374206265206f776e65720000000000000000000000000000000081525060200191505060405180910390fd5b600073ffffffffffffffffffffffffffffffffffffffff168173ffffffffffffffffffffffffffffffffffffffff161415611e05576040517f08c379a000000000000000000000000000000000000000000000000000000000815260040180806020018281038252601b8152602001807f4f3a2041646472657373206d757374206e6f74206265206e756c6c000000000081525060200191505060405180910390fd5b806000806101000a81548173ffffffffffffffffffffffffffffffffffffffff021916908373ffffffffffffffffffffffffffffffffffffffff1602179055508073ffffffffffffffffffffffffffffffffffffffff167fa2ea9883a321a3e97b8266c2b078bfeec6d50c711ed71f874a90d500ae2eaf3660405160405180910390a250565b600360009054906101000a900473ffffffffffffffffffffffffffffffffffffffff1681565b6060600760008381526020019081526020016000208054600181600116156101000203166002900480601f016020809104026020016040519081016040528092919081815260200182805460018160011615610100020316600290048015611f5a5780601f10611f2f57610100808354040283529160200191611f5a565b820191906000526020600020905b815481529060010190602001808311611f3d57829003601f168201915b50505050509050919050565b60011515600160003373ffffffffffffffffffffffffffffffffffffffff1673ffffffffffffffffffffffffffffffffffffffff16815260200190815260200160002060009054906101000a900460ff1615151461202c576040517f08c379a00000000000000000000000000000000000000000000000000000000081526004018080602001828103825260128152602001807f4d3a204d757374206265206d616e61676572000000000000000000000000000081525060200191505060405180910390fd5b806004600084815260200190815260200160002060006101000a81548173ffffffffffffffffffffffffffffffffffffffff021916908373ffffffffffffffffffffffffffffffffffffffff160217905550817f52d7d861f09ab3d26239d492e8968629f95e9e318cf0b73bfddc441522a15fd282604051808273ffffffffffffffffffffffffffffffffffffffff1673ffffffffffffffffffffffffffffffffffffffff16815260200191505060405180910390a25050565b60076020528060005260406000206000915090508054600181600116156101000203166002900480601f01602080910402602001604051908101604052809291908181526020018280546001816001161561010002031660029004801561218e5780601f106121635761010080835404028352916020019161218e565b820191906000526020600020905b81548152906001019060200180831161217157829003601f168201915b505050505081565b6040518060400160405280600a81526020017f323031393131313530300000000000000000000000000000000000000000000081525081565b600660205281600052604060002081805160208101820180518482526020830160208501208183528095505050505050600091509150508054600181600116156101000203166002900480601f01602080910402602001604051908101604052809291908181526020018280546001816001161561010002031660029004801561229a5780601f1061226f5761010080835404028352916020019161229a565b820191906000526020600020905b81548152906001019060200180831161227d57829003601f168201915b505050505081565b60016020528060005260406000206000915054906101000a900460ff1681565b828054600181600116156101000203166002900490600052602060002090601f016020900481019282601f1061230357805160ff1916838001178555612331565b82800160010185558215612331579182015b82811115612330578251825591602001919060010190612315565b5b50905061233e91906123c2565b5090565b828054600181600116156101000203166002900490600052602060002090601f016020900481019282601f1061238357805160ff19168380011785556123b1565b828001600101855582156123b1579182015b828111156123b0578251825591602001919060010190612395565b5b5090506123be91906123c2565b5090565b6123e491905b808211156123e05760008160009055506001016123c8565b5090565b9056fe4d3a20546172676574206d75737420626520616e206578697374696e67206d616e61676572a265627a7a72315820047eda7d83f8d28c2f9f3866e81c5ae6307fe37bcae8e992ff674321bfe0335a64736f6c63430005100032",
  "source": "pragma solidity 0.5.16;\n\nimport \"../base/Managed.sol\";\nimport \"./state/AuthereumEnsResolverState.sol\";\n\n/**\n * @title AuthereumEnsResolver\n  * @author Authereum Labs, Inc.\n * @dev Authereum implementation of a Resolver.\n */\n\ncontract AuthereumEnsResolver is Managed, AuthereumEnsResolverState {\n\n    string constant public authereumEnsResolverVersion = \"2019111500\";\n\n    bytes4 constant private INTERFACE_META_ID = 0x01ffc9a7;\n    bytes4 constant private ADDR_INTERFACE_ID = 0x3b3b57de;\n    bytes4 constant private NAME_INTERFACE_ID = 0x691f3431;\n    bytes4 constant private TEXT_INTERFACE_ID = 0x59d1d43c;\n    bytes4 constant private CONTENT_HASH_INTERFACE_ID = 0xbc1c58d1;\n\n    event AddrChanged(bytes32 indexed node, address a);\n    event NameChanged(bytes32 indexed node, string name);\n    event TextChanged(bytes32 indexed node, string indexed indexedKey, string key, string value);\n    event ContenthashChanged(bytes32 indexed node, bytes hash);\n\n    /// @dev Constructor\n    /// @param _ensAddr The ENS registrar contract\n    /// @param _timelockContract Authereum timelock contract address\n    constructor(EnsRegistry _ensAddr, address _timelockContract) public {\n        ens = _ensAddr;\n        timelockContract = _timelockContract;\n    }\n\n    /**\n     * Setters\n     */\n\n    /// @dev Sets the address associated with an ENS node\n    /// @notice May only be called by the owner of that node in the ENS registry\n    /// @param _node The node to update\n    /// @param _addr The address to set\n    function setAddr(bytes32 _node, address _addr) public onlyManager {\n        addrs[_node]= _addr;\n        emit AddrChanged(_node, _addr);\n    }\n\n    /// @dev Sets the name associated with an ENS node, for reverse records\n    /// @notice May only be called by the owner of that node in the ENS registry\n    /// @param _node The node to update\n    /// @param _name The name to set\n    function setName(bytes32 _node, string memory _name) public onlyManager {\n        names[_node] = _name;\n        emit NameChanged(_node, _name);\n    }\n\n    /// @dev Sets the text data associated with an ENS node and key\n    /// @notice May only be called by the owner of that node in the ENS registry\n    /// @param node The node to update\n    /// @param key The key to set\n    /// @param value The text data value to set\n    function setText(bytes32 node, string memory key, string memory value) public onlyManager {\n        texts[node][key] = value;\n        emit TextChanged(node, key, key, value);\n    }\n\n    /// @dev Sets the contenthash associated with an ENS node\n    /// @notice May only be called by the owner of that node in the ENS registry\n    /// @param node The node to update\n    /// @param hash The contenthash to set\n    function setContenthash(bytes32 node, bytes memory hash) public onlyManager {\n        hashes[node] = hash;\n        emit ContenthashChanged(node, hash);\n    }\n\n    /**\n     * Getters\n     */\n\n    /// @dev Returns the address associated with an ENS node\n    /// @param _node The ENS node to query\n    /// @return The associated address\n    function addr(bytes32 _node) public view returns (address) {\n        return addrs[_node];\n    }\n\n    /// @dev Returns the name associated with an ENS node, for reverse records\n    /// @notice Defined in EIP181\n    /// @param _node The ENS node to query\n    /// @return The associated name\n    function name(bytes32 _node) public view returns (string memory) {\n        return names[_node];\n    }\n\n    /// @dev Returns the text data associated with an ENS node and key\n    /// @param node The ENS node to query\n    /// @param key The text data key to query\n    ///@return The associated text data\n    function text(bytes32 node, string memory key) public view returns (string memory) {\n        return texts[node][key];\n    }\n\n    /// @dev Returns the contenthash associated with an ENS node\n    /// @param node The ENS node to query\n    /// @return The associated contenthash\n    function contenthash(bytes32 node) public view returns (bytes memory) {\n        return hashes[node];\n    }\n\n    /// @dev Returns true if the resolver implements the interface specified by the provided hash\n    /// @param _interfaceID The ID of the interface to check for\n    /// @return True if the contract implements the requested interface\n    function supportsInterface(bytes4 _interfaceID) public pure returns (bool) {\n        return _interfaceID == INTERFACE_META_ID ||\n        _interfaceID == ADDR_INTERFACE_ID ||\n        _interfaceID == NAME_INTERFACE_ID ||\n        _interfaceID == TEXT_INTERFACE_ID ||\n        _interfaceID == CONTENT_HASH_INTERFACE_ID;\n    }\n}\n",
  "sourcePath": "/Users/smitrajput/Projects/batchoo/contracts/ens/AuthereumENSResolver.sol",
  "compiler": {
    "name": "solc",
    "version": "0.5.16+commit.9c3226ce.Emscripten.clang"
  },
  "schemaVersion": "3.1.0",
  "updatedAt": "2020-05-20T12:48:46.073Z",
  "devdoc": {
    "author": "Authereum Labs, Inc.",
    "details": "Authereum implementation of a Resolver.",
    "methods": {
      "addManager(address)": {
        "details": "Adds a manager",
        "params": {
          "_manager": "The address of the manager"
        }
      },
      "addr(bytes32)": {
        "details": "Returns the address associated with an ENS node",
        "params": {
          "_node": "The ENS node to query"
        },
        "return": "The associated address"
      },
      "changeOwner(address)": {
        "details": "Lets the owner transfer ownership of the contract to a new owner",
        "params": {
          "_newOwner": "The new owner"
        }
      },
      "constructor": {
        "details": "Constructor",
        "params": {
          "_ensAddr": "The ENS registrar contract",
          "_timelockContract": "Authereum timelock contract address"
        }
      },
      "contenthash(bytes32)": {
        "details": "Returns the contenthash associated with an ENS node",
        "params": {
          "node": "The ENS node to query"
        },
        "return": "The associated contenthash"
      },
      "isOwner(address)": {
        "details": "Return the ownership status of an address",
        "params": {
          "_potentialOwner": "Address being checked"
        },
        "return": "True if the _potentialOwner is the owner"
      },
      "name(bytes32)": {
        "details": "Returns the name associated with an ENS node, for reverse records",
        "params": {
          "_node": "The ENS node to query"
        },
        "return": "The associated name"
      },
      "revokeManager(address)": {
        "details": "Revokes a manager",
        "params": {
          "_manager": "The address of the manager"
        }
      },
      "setAddr(bytes32,address)": {
        "details": "Sets the address associated with an ENS node",
        "params": {
          "_addr": "The address to set",
          "_node": "The node to update"
        }
      },
      "setContenthash(bytes32,bytes)": {
        "details": "Sets the contenthash associated with an ENS node",
        "params": {
          "hash": "The contenthash to set",
          "node": "The node to update"
        }
      },
      "setName(bytes32,string)": {
        "details": "Sets the name associated with an ENS node, for reverse records",
        "params": {
          "_name": "The name to set",
          "_node": "The node to update"
        }
      },
      "setText(bytes32,string,string)": {
        "details": "Sets the text data associated with an ENS node and key",
        "params": {
          "key": "The key to set",
          "node": "The node to update",
          "value": "The text data value to set"
        }
      },
      "supportsInterface(bytes4)": {
        "details": "Returns true if the resolver implements the interface specified by the provided hash",
        "params": {
          "_interfaceID": "The ID of the interface to check for"
        },
        "return": "True if the contract implements the requested interface"
      },
      "text(bytes32,string)": {
        "details": "Returns the text data associated with an ENS node and key",
        "params": {
          "key": "The text data key to query",
          "node": "The ENS node to query"
        },
        "return": "The associated text data"
      }
    },
    "title": "AuthereumEnsResolver"
  },
  "userdoc": {
    "methods": {
      "name(bytes32)": {
        "notice": "Defined in EIP181"
      },
      "setAddr(bytes32,address)": {
        "notice": "May only be called by the owner of that node in the ENS registry"
      },
      "setContenthash(bytes32,bytes)": {
        "notice": "May only be called by the owner of that node in the ENS registry"
      },
      "setName(bytes32,string)": {
        "notice": "May only be called by the owner of that node in the ENS registry"
      },
      "setText(bytes32,string,string)": {
        "notice": "May only be called by the owner of that node in the ENS registry"
      }
    }
  }
}