{
  "contractName": "BaseMetaTxAccount",
  "abi": [
    {
      "anonymous": false,
      "inputs": [
        {
          "indexed": true,
          "internalType": "address",
          "name": "authKey",
          "type": "address"
        }
      ],
      "name": "AuthKeyAdded",
      "type": "event"
    },
    {
      "anonymous": false,
      "inputs": [
        {
          "indexed": true,
          "internalType": "address",
          "name": "authKey",
          "type": "address"
        }
      ],
      "name": "AuthKeyRemoved",
      "type": "event"
    },
    {
      "anonymous": false,
      "inputs": [
        {
          "indexed": false,
          "internalType": "string",
          "name": "reason",
          "type": "string"
        }
      ],
      "name": "CallFailed",
      "type": "event"
    },
    {
      "anonymous": false,
      "inputs": [
        {
          "indexed": true,
          "internalType": "address",
          "name": "implementation",
          "type": "address"
        }
      ],
      "name": "Upgraded",
      "type": "event"
    },
    {
      "payable": true,
      "stateMutability": "payable",
      "type": "fallback"
    },
    {
      "constant": false,
      "inputs": [
        {
          "internalType": "address",
          "name": "_authKey",
          "type": "address"
        }
      ],
      "name": "addAuthKey",
      "outputs": [],
      "payable": false,
      "stateMutability": "nonpayable",
      "type": "function"
    },
    {
      "constant": true,
      "inputs": [
        {
          "internalType": "address",
          "name": "",
          "type": "address"
        }
      ],
      "name": "authKeys",
      "outputs": [
        {
          "internalType": "bool",
          "name": "",
          "type": "bool"
        }
      ],
      "payable": false,
      "stateMutability": "view",
      "type": "function"
    },
    {
      "constant": true,
      "inputs": [],
      "name": "getChainId",
      "outputs": [
        {
          "internalType": "uint256",
          "name": "",
          "type": "uint256"
        }
      ],
      "payable": false,
      "stateMutability": "pure",
      "type": "function"
    },
    {
      "constant": false,
      "inputs": [
        {
          "internalType": "address",
          "name": "_authKey",
          "type": "address"
        }
      ],
      "name": "initializeV1",
      "outputs": [],
      "payable": false,
      "stateMutability": "nonpayable",
      "type": "function"
    },
    {
      "constant": true,
      "inputs": [],
      "name": "lastInitializedVersion",
      "outputs": [
        {
          "internalType": "uint256",
          "name": "",
          "type": "uint256"
        }
      ],
      "payable": false,
      "stateMutability": "view",
      "type": "function"
    },
    {
      "constant": true,
      "inputs": [],
      "name": "nonce",
      "outputs": [
        {
          "internalType": "uint256",
          "name": "",
          "type": "uint256"
        }
      ],
      "payable": false,
      "stateMutability": "view",
      "type": "function"
    },
    {
      "constant": true,
      "inputs": [],
      "name": "numAuthKeys",
      "outputs": [
        {
          "internalType": "uint256",
          "name": "",
          "type": "uint256"
        }
      ],
      "payable": false,
      "stateMutability": "view",
      "type": "function"
    },
    {
      "constant": false,
      "inputs": [
        {
          "internalType": "address",
          "name": "",
          "type": "address"
        },
        {
          "internalType": "address",
          "name": "",
          "type": "address"
        },
        {
          "internalType": "uint256[]",
          "name": "",
          "type": "uint256[]"
        },
        {
          "internalType": "uint256[]",
          "name": "",
          "type": "uint256[]"
        },
        {
          "internalType": "bytes",
          "name": "",
          "type": "bytes"
        }
      ],
      "name": "onERC1155BatchReceived",
      "outputs": [
        {
          "internalType": "bytes4",
          "name": "",
          "type": "bytes4"
        }
      ],
      "payable": false,
      "stateMutability": "nonpayable",
      "type": "function"
    },
    {
      "constant": false,
      "inputs": [
        {
          "internalType": "address",
          "name": "",
          "type": "address"
        },
        {
          "internalType": "address",
          "name": "",
          "type": "address"
        },
        {
          "internalType": "uint256",
          "name": "",
          "type": "uint256"
        },
        {
          "internalType": "uint256",
          "name": "",
          "type": "uint256"
        },
        {
          "internalType": "bytes",
          "name": "",
          "type": "bytes"
        }
      ],
      "name": "onERC1155Received",
      "outputs": [
        {
          "internalType": "bytes4",
          "name": "",
          "type": "bytes4"
        }
      ],
      "payable": false,
      "stateMutability": "nonpayable",
      "type": "function"
    },
    {
      "constant": false,
      "inputs": [
        {
          "internalType": "address",
          "name": "",
          "type": "address"
        },
        {
          "internalType": "address",
          "name": "",
          "type": "address"
        },
        {
          "internalType": "uint256",
          "name": "",
          "type": "uint256"
        },
        {
          "internalType": "bytes",
          "name": "",
          "type": "bytes"
        }
      ],
      "name": "onERC721Received",
      "outputs": [
        {
          "internalType": "bytes4",
          "name": "",
          "type": "bytes4"
        }
      ],
      "payable": false,
      "stateMutability": "nonpayable",
      "type": "function"
    },
    {
      "constant": false,
      "inputs": [
        {
          "internalType": "address",
          "name": "_authKey",
          "type": "address"
        }
      ],
      "name": "removeAuthKey",
      "outputs": [],
      "payable": false,
      "stateMutability": "nonpayable",
      "type": "function"
    },
    {
      "constant": false,
      "inputs": [
        {
          "internalType": "bytes[]",
          "name": "_transactions",
          "type": "bytes[]"
        }
      ],
      "name": "executeMultipleMetaTransactions",
      "outputs": [
        {
          "internalType": "bytes[]",
          "name": "",
          "type": "bytes[]"
        }
      ],
      "payable": false,
      "stateMutability": "nonpayable",
      "type": "function"
    }
  ],
  "bytecode": "0x608060405234801561001057600080fd5b50611872806100206000396000f3fe6080604052600436106100a75760003560e01c80637e7fd66c116100645780637e7fd66c146101dd5780639565389e14610208578063affed0e014610231578063bc197c811461025c578063ec5e319e14610299578063f23a6e61146102c4576100a7565b806313f8c578146100a9578063150b7a02146100d25780631b9a9f9e1461010f5780633408e470146101385780635175ca5e14610163578063792c891f146101a0575b005b3480156100b557600080fd5b506100d060048036036100cb9190810190610e86565b610301565b005b3480156100de57600080fd5b506100f960048036036100f49190810190610ff6565b6104c0565b6040516101069190611498565b60405180910390f35b34801561011b57600080fd5b5061013660048036036101319190810190610e86565b6104d4565b005b34801561014457600080fd5b5061014d6105ce565b60405161015a9190611575565b60405180910390f35b34801561016f57600080fd5b5061018a60048036036101859190810190610e86565b6105d7565b604051610197919061147d565b60405180910390f35b3480156101ac57600080fd5b506101c760048036036101c29190810190611103565b6105f7565b6040516101d4919061145b565b60405180910390f35b3480156101e957600080fd5b506101f2610687565b6040516101ff9190611575565b60405180910390f35b34801561021457600080fd5b5061022f600480360361022a9190810190610e86565b61068d565b005b34801561023d57600080fd5b50610246610892565b6040516102539190611575565b60405180910390f35b34801561026857600080fd5b50610283600480360361027e9190810190610f2a565b610898565b6040516102909190611498565b60405180910390f35b3480156102a557600080fd5b506102ae6108b0565b6040516102bb9190611575565b60405180910390f35b3480156102d057600080fd5b506102eb60048036036102e69190810190611071565b6108b6565b6040516102f89190611498565b60405180910390f35b61030a336108cc565b8061034057503073ffffffffffffffffffffffffffffffffffffffff163373ffffffffffffffffffffffffffffffffffffffff16145b61037f576040517f08c379a000000000000000000000000000000000000000000000000000000000815260040161037690611515565b60405180910390fd5b60001515600160008373ffffffffffffffffffffffffffffffffffffffff1673ffffffffffffffffffffffffffffffffffffffff16815260200190815260200160002060009054906101000a900460ff16151514610412576040517f08c379a000000000000000000000000000000000000000000000000000000000815260040161040990611535565b60405180910390fd5b60018060008373ffffffffffffffffffffffffffffffffffffffff1673ffffffffffffffffffffffffffffffffffffffff16815260200190815260200160002060006101000a81548160ff02191690831515021790555060016003600082825401925050819055508073ffffffffffffffffffffffffffffffffffffffff167fb020719d16d3c4de45a91f9c329aa61d5bad3f44f760840c8d5d82d4cd3bcc3360405160405180910390a250565b600063150b7a0260e01b9050949350505050565b6000805414610518576040517f08c379a000000000000000000000000000000000000000000000000000000000815260040161050f906114f5565b60405180910390fd5b600160008190555060018060008373ffffffffffffffffffffffffffffffffffffffff1673ffffffffffffffffffffffffffffffffffffffff16815260200190815260200160002060006101000a81548160ff02191690831515021790555060016003600082825401925050819055508073ffffffffffffffffffffffffffffffffffffffff167fb020719d16d3c4de45a91f9c329aa61d5bad3f44f760840c8d5d82d4cd3bcc3360405160405180910390a250565b60006001905090565b60016020528060005260406000206000915054906101000a900460ff1681565b6060610602336108cc565b8061063857503073ffffffffffffffffffffffffffffffffffffffff163373ffffffffffffffffffffffffffffffffffffffff16145b610677576040517f08c379a000000000000000000000000000000000000000000000000000000000815260040161066e90611515565b60405180910390fd5b61068082610922565b9050919050565b60005481565b610696336108cc565b806106cc57503073ffffffffffffffffffffffffffffffffffffffff163373ffffffffffffffffffffffffffffffffffffffff16145b61070b576040517f08c379a000000000000000000000000000000000000000000000000000000000815260040161070290611515565b60405180910390fd5b60011515600160008373ffffffffffffffffffffffffffffffffffffffff1673ffffffffffffffffffffffffffffffffffffffff16815260200190815260200160002060009054906101000a900460ff1615151461079e576040517f08c379a000000000000000000000000000000000000000000000000000000000815260040161079590611555565b60405180910390fd5b6001600354116107e3576040517f08c379a00000000000000000000000000000000000000000000000000000000081526004016107da906114d5565b60405180910390fd5b6000600160008373ffffffffffffffffffffffffffffffffffffffff1673ffffffffffffffffffffffffffffffffffffffff16815260200190815260200160002060006101000a81548160ff02191690831515021790555060016003600082825403925050819055508073ffffffffffffffffffffffffffffffffffffffff167fbe55f9add9abe657e689a4a84a31854310f260c7e2610bcd22440e3ec3a836a460405160405180910390a250565b60025481565b600063bc197c8160e01b905098975050505050505050565b60035481565b600063f23a6e6160e01b90509695505050505050565b6000600160008373ffffffffffffffffffffffffffffffffffffffff1673ffffffffffffffffffffffffffffffffffffffff16815260200190815260200160002060009054906101000a900460ff169050919050565b606080825160405190808252806020026020018201604052801561095a57816020015b60608152602001906001900390816109455790505b50905060008090505b83518110156109ac5761098884828151811061097b57fe5b60200260200101516109b6565b82828151811061099457fe5b60200260200101819052508080600101915050610963565b5080915050919050565b6060600080600060606109c8866109e7565b93509350935093506109dc84848484610a17565b945050505050919050565b6000806000606084806020019051610a029190810190610eaf565b83935080905093509350935093509193509193565b6060600060608673ffffffffffffffffffffffffffffffffffffffff16858786604051610a449190611444565b600060405180830381858888f193505050503d8060008114610a82576040519150601f19603f3d011682016040523d82523d6000602084013e610a87565b606091505b509150915081610adb576060610a9c82610ae8565b9050806040517f08c379a0000000000000000000000000000000000000000000000000000000008152600401610ad291906114b3565b60405180910390fd5b8092505050949350505050565b6060604482511015610b145760405180606001604052806021815260200161180f602191399050610b49565b6060610b2f60048085510385610b4e9092919063ffffffff16565b905080806020019051610b459190810190611144565b9150505b919050565b606081830184511015610b6057600080fd5b6060821560008114610b7d57604051915060208201604052610bce565b6040519150601f8416801560200281840101858101878315602002848b0101015b81831015610bbb5780518352602083019250602081019050610b9e565b50868552601f19601f8301166040525050505b50809150509392505050565b600081359050610be9816117c9565b92915050565b600081519050610bfe816117e0565b92915050565b600082601f830112610c1557600080fd5b8135610c28610c23826115bd565b611590565b9150818183526020840193506020810190508360005b83811015610c6e5781358601610c548882610d0c565b845260208401935060208301925050600181019050610c3e565b5050505092915050565b60008083601f840112610c8a57600080fd5b8235905067ffffffffffffffff811115610ca357600080fd5b602083019150836020820283011115610cbb57600080fd5b9250929050565b60008083601f840112610cd457600080fd5b8235905067ffffffffffffffff811115610ced57600080fd5b602083019150836001820283011115610d0557600080fd5b9250929050565b600082601f830112610d1d57600080fd5b8135610d30610d2b826115e5565b611590565b91508082526020830160208301858383011115610d4c57600080fd5b610d57838284611776565b50505092915050565b600082601f830112610d7157600080fd5b8151610d84610d7f826115e5565b611590565b91508082526020830160208301858383011115610da057600080fd5b610dab838284611785565b50505092915050565b600082601f830112610dc557600080fd5b8135610dd8610dd382611611565b611590565b91508082526020830160208301858383011115610df457600080fd5b610dff838284611776565b50505092915050565b600082601f830112610e1957600080fd5b8151610e2c610e278261163d565b611590565b91508082526020830160208301858383011115610e4857600080fd5b610e53838284611785565b50505092915050565b600081359050610e6b816117f7565b92915050565b600081519050610e80816117f7565b92915050565b600060208284031215610e9857600080fd5b6000610ea684828501610bda565b91505092915050565b60008060008060808587031215610ec557600080fd5b6000610ed387828801610bef565b9450506020610ee487828801610e71565b9350506040610ef587828801610e71565b925050606085015167ffffffffffffffff811115610f1257600080fd5b610f1e87828801610d60565b91505092959194509250565b60008060008060008060008060a0898b031215610f4657600080fd5b6000610f548b828c01610bda565b9850506020610f658b828c01610bda565b975050604089013567ffffffffffffffff811115610f8257600080fd5b610f8e8b828c01610c78565b9650965050606089013567ffffffffffffffff811115610fad57600080fd5b610fb98b828c01610c78565b9450945050608089013567ffffffffffffffff811115610fd857600080fd5b610fe48b828c01610cc2565b92509250509295985092959890939650565b6000806000806080858703121561100c57600080fd5b600061101a87828801610bda565b945050602061102b87828801610bda565b935050604061103c87828801610e5c565b925050606085013567ffffffffffffffff81111561105957600080fd5b61106587828801610db4565b91505092959194509250565b60008060008060008060a0878903121561108a57600080fd5b600061109889828a01610bda565b96505060206110a989828a01610bda565b95505060406110ba89828a01610e5c565b94505060606110cb89828a01610e5c565b935050608087013567ffffffffffffffff8111156110e857600080fd5b6110f489828a01610cc2565b92509250509295509295509295565b60006020828403121561111557600080fd5b600082013567ffffffffffffffff81111561112f57600080fd5b61113b84828501610c04565b91505092915050565b60006020828403121561115657600080fd5b600082015167ffffffffffffffff81111561117057600080fd5b61117c84828501610e08565b91505092915050565b6000611191838361125d565b905092915050565b60006111a482611679565b6111ae81856116b2565b9350836020820285016111c085611669565b8060005b858110156111fc57848403895281516111dd8582611185565b94506111e8836116a5565b925060208a019950506001810190506111c4565b50829750879550505050505092915050565b61121781611714565b82525050565b61122681611720565b82525050565b60006112378261168f565b61124181856116d4565b9350611251818560208601611785565b80840191505092915050565b600061126882611684565b61127281856116c3565b9350611282818560208601611785565b61128b816117b8565b840191505092915050565b60006112a18261169a565b6112ab81856116df565b93506112bb818560208601611785565b6112c4816117b8565b840191505092915050565b60006112dc601f836116df565b91507f42413a2043616e6e6f742072656d6f7665206c6173742061757468206b6579006000830152602082019050919050565b600061131c6021836116df565b91507f41493a20496d70726f70657220696e697469616c697a6174696f6e206f72646560008301527f72000000000000000000000000000000000000000000000000000000000000006020830152604082019050919050565b6000611382601f836116df565b91507f42413a2041757468206b6579206f722073656c6620697320696e76616c6964006000830152602082019050919050565b60006113c2601a836116df565b91507f42413a2041757468206b657920616c72656164792061646465640000000000006000830152602082019050919050565b6000611402601a836116df565b91507f42413a2041757468206b6579206e6f74207965742061646465640000000000006000830152602082019050919050565b61143e8161176c565b82525050565b6000611450828461122c565b915081905092915050565b600060208201905081810360008301526114758184611199565b905092915050565b6000602082019050611492600083018461120e565b92915050565b60006020820190506114ad600083018461121d565b92915050565b600060208201905081810360008301526114cd8184611296565b905092915050565b600060208201905081810360008301526114ee816112cf565b9050919050565b6000602082019050818103600083015261150e8161130f565b9050919050565b6000602082019050818103600083015261152e81611375565b9050919050565b6000602082019050818103600083015261154e816113b5565b9050919050565b6000602082019050818103600083015261156e816113f5565b9050919050565b600060208201905061158a6000830184611435565b92915050565b6000604051905081810181811067ffffffffffffffff821117156115b357600080fd5b8060405250919050565b600067ffffffffffffffff8211156115d457600080fd5b602082029050602081019050919050565b600067ffffffffffffffff8211156115fc57600080fd5b601f19601f8301169050602081019050919050565b600067ffffffffffffffff82111561162857600080fd5b601f19601f8301169050602081019050919050565b600067ffffffffffffffff82111561165457600080fd5b601f19601f8301169050602081019050919050565b6000819050602082019050919050565b600081519050919050565b600081519050919050565b600081519050919050565b600081519050919050565b6000602082019050919050565b600082825260208201905092915050565b600082825260208201905092915050565b600081905092915050565b600082825260208201905092915050565b60006116fb8261174c565b9050919050565b600061170d8261174c565b9050919050565b60008115159050919050565b60007fffffffff0000000000000000000000000000000000000000000000000000000082169050919050565b600073ffffffffffffffffffffffffffffffffffffffff82169050919050565b6000819050919050565b82818337600083830152505050565b60005b838110156117a3578082015181840152602081019050611788565b838111156117b2576000848401525b50505050565b6000601f19601f8301169050919050565b6117d2816116f0565b81146117dd57600080fd5b50565b6117e981611702565b81146117f457600080fd5b50565b6118008161176c565b811461180b57600080fd5b5056fe42413a205472616e73616374696f6e2072657665727465642073696c656e746c79a365627a7a723158203767ffa20e66746cdf7e219b323bd64af3701245b47528ab3045e43e722739d76c6578706572696d656e74616cf564736f6c63430005100040",
  "source": "pragma solidity 0.5.16;\npragma experimental ABIEncoderV2;\n\nimport \"./BaseAccount.sol\";\n\n/**\n * @title BaseMetaTxAccount\n * @author Authereum Labs, Inc.\n * @dev Contract that lays the foundations for meta transactions\n * @dev are performed in this contract as well.\n */\n\ncontract BaseMetaTxAccount is BaseAccount {\n\n    /**\n     * Public functions\n     */\n\n    /// @dev Execute multiple meta transactions\n    /// @notice This can only be called by self as a part of the atomic meta transaction\n    /// @param _transactions Arrays of transaction data ([destination, value, gasLimit, data][...]...)\n    /// @return The responses of the calls\n    function executeMultipleMetaTransactions(bytes[] memory _transactions) public onlyAuthKeySenderOrSelf returns (bytes[] memory) {\n        return _executeMultipleMetaTransactions(_transactions);\n    }\n\n    /**\n     *  Internal functions\n     */\n\n    /// @dev Atomically execute a meta transaction\n    /// @param _transactions Arrays of transaction data ([destination, value, gasLimit, data][...]...)\n    /// @param _gasPrice Gas price set by the user\n    /// @param _gasOverhead Gas overhead of the transaction calculated offchain\n    /// @param _feeTokenAddress Address of the token used to pay a fee\n    /// @param _feeTokenRate Rate of the token (in tokenGasPrice/ethGasPrice) used to pay a fee\n    /// @return The _transactionMessageHash and responses of the calls\n    function _atomicExecuteMultipleMetaTransactions(\n        bytes[] memory _transactions,\n        uint256 _gasPrice,\n        uint256 _gasOverhead,\n        address _feeTokenAddress,\n        uint256 _feeTokenRate\n    )\n        internal\n        returns (bytes32, bytes[] memory)\n    {\n        // Verify that the relayer gasPrice is acceptable\n        require(_gasPrice <= tx.gasprice, \"BMTA: Not a large enough tx.gasprice\");\n\n        // Hash the parameters\n        bytes32 _transactionMessageHash = keccak256(abi.encode(\n            address(this),\n            msg.sig,\n            getChainId(),\n            nonce,\n            _transactions,\n            _gasPrice,\n            _gasOverhead,\n            _feeTokenAddress,\n            _feeTokenRate\n        )).toEthSignedMessageHash();\n\n        // Increment nonce by the number of transactions being processed\n        // NOTE: The nonce will still increment even if batched transactions fail atomically\n        // NOTE: The reason for this is to mimic an EOA as closely as possible\n        nonce += _transactions.length;\n\n        bytes memory _encodedTransactions = abi.encodeWithSelector(\n            this.executeMultipleMetaTransactions.selector,\n            _transactions\n        );\n\n        (bool success, bytes memory res) = address(this).call(_encodedTransactions);\n\n        // Check if any of the atomic transactions failed, if not, decode return data\n        bytes[] memory _returnValues;\n        if (!success) {\n            string memory _revertMsg = _getRevertMsg(res);\n            emit CallFailed(_revertMsg);\n        } else {\n            _returnValues = abi.decode(res, (bytes[]));\n        }\n\n        return (_transactionMessageHash, _returnValues);\n    }\n\n    /// @dev Execute a meta transaction\n    /// @param _transactions Arrays of transaction data ([destination, value, gasLimit, data][...]...)\n    /// @return The responses of the calls\n    function _executeMultipleMetaTransactions(bytes[] memory _transactions) internal returns (bytes[] memory) {\n        // Execute transactions individually\n        bytes[] memory _returnValues = new bytes[](_transactions.length);\n        for(uint i = 0; i < _transactions.length; i++) {\n            // Execute the transaction\n            _returnValues[i] = _decodeAndExecuteTransaction(_transactions[i]);\n        }\n\n        return _returnValues;\n    }\n\n    /// @dev Decode and execute a meta transaction\n    /// @param _transaction Transaction (destination, value, gasLimit, data)\n    /// @return Succcess status and response of the call\n    function _decodeAndExecuteTransaction(bytes memory _transaction) internal returns (bytes memory) {\n        (address _destination, uint256 _value, uint256 _gasLimit, bytes memory _data) = _decodeTransactionData(_transaction);\n\n        // Execute the transaction\n        return _executeTransaction(\n            _destination, _value, _gasLimit, _data\n        );\n    }\n\n    /// @dev Decode transaction data\n    /// @param _transaction Transaction (destination, value, gasLimit, data)\n    function _decodeTransactionData(bytes memory _transaction) internal pure returns (address, uint256, uint256, bytes memory) {\n        return abi.decode(_transaction, (address, uint256, uint256, bytes));\n    }\n\n    /// @dev Issue a refund\n    /// @param _startGas Starting gas at the beginning of the transaction\n    /// @param _gasPrice Gas price to use when sending a refund\n    /// @param _gasOverhead Gas overhead of the transaction calculated offchain\n    /// @param _feeTokenAddress Address of the token used to pay a fee\n    /// @param _feeTokenRate Rate of the token (in tokenGasPrice/ethGasPrice) used to pay a fee\n    function _issueRefund(\n        uint256 _startGas,\n        uint256 _gasPrice,\n        uint256 _gasOverhead,\n        address _feeTokenAddress,\n        uint256 _feeTokenRate\n    )\n        internal\n    {\n        uint256 _gasUsed = _startGas.sub(gasleft()).add(_gasOverhead);\n\n        // Pay refund in ETH if _feeTokenAddress is 0. Else, pay in the token\n        if (_feeTokenAddress == address(0)) {\n            require(_gasUsed.mul(_gasPrice) <= address(this).balance, \"BA: Insufficient gas (ETH) for refund\");\n            // NOTE: The return value is not checked because the relayer should not propagate a transaction that will revert\n            // NOTE: and malicious behavior by the relayer here will cost the relayer, as the fee is already calculated\n            msg.sender.call.value(_gasUsed.mul(_gasPrice))(\"\");\n        } else {\n            IERC20 feeToken = IERC20(_feeTokenAddress);\n            uint256 totalTokenFee = _gasUsed.mul(_feeTokenRate);\n            require(totalTokenFee <= feeToken.balanceOf(address(this)), \"BA: Insufficient gas (token) for refund\");\n            // NOTE: The return value is not checked because the relayer should not propagate a transaction that will revert\n            feeToken.transfer(msg.sender, totalTokenFee);\n        }\n    }\n}",
  "sourcePath": "/Users/smitrajput/Projects/batchoo/contracts/account/BaseMetaTxAccount.sol",
  "compiler": {
    "name": "solc",
    "version": "0.5.16+commit.9c3226ce.Emscripten.clang"
  },
  "schemaVersion": "3.1.0",
  "updatedAt": "2020-05-20T12:48:46.038Z",
  "devdoc": {
    "author": "Authereum Labs, Inc.",
    "details": "Contract that lays the foundations for meta transactionsare performed in this contract as well.",
    "methods": {
      "addAuthKey(address)": {
        "details": "Add an auth key to the list of auth keys",
        "params": {
          "_authKey": "Address of the auth key to add"
        }
      },
      "executeMultipleMetaTransactions(bytes[])": {
        "details": "Execute multiple meta transactions",
        "params": {
          "_transactions": "Arrays of transaction data ([destination, value, gasLimit, data][...]...)"
        },
        "return": "The responses of the calls"
      },
      "getChainId()": {
        "details": "Get the chain ID constant",
        "return": "The chain id"
      },
      "initializeV1(address)": {
        "details": "Initialize the Authereum Account",
        "params": {
          "_authKey": "authKey that will own this account"
        }
      },
      "onERC1155BatchReceived(address,address,uint256[],uint256[],bytes)": {
        "details": "An ERC1155-compliant smart contract MUST call this function on the token recipient contract, at the end of a `safeBatchTransferFrom` after the balances have been updated. This function MUST return `bytes4(keccak256(\"onERC1155BatchReceived(address,address,uint256[],uint256[],bytes)\"))` (i.e. 0xbc197c81) if it accepts the transfer(s). This function MUST revert if it rejects the transfer(s). Return of any other value than the prescribed keccak256 generated value MUST result in the transaction being reverted by the caller. param _operator  The address which initiated the batch transfer (i.e. msg.sender) param _from      The address which previously owned the token param _ids       An array containing ids of each token being transferred (order and length must match _values array) param _values    An array containing amounts of each token being transferred (order and length must match _ids array) param _data      Additional data with no specified format",
        "return": "`bytes4(keccak256(\"onERC1155BatchReceived(address,address,uint256[],uint256[],bytes)\"))`"
      },
      "onERC721Received(address,address,uint256,bytes)": {
        "details": "The ERC721 smart contract calls this function on the recipient after a {IERC721-safeTransferFrom}. This function MUST return the function selector, otherwise the caller will revert the transaction. The selector to be returned can be obtained as `this.onERC721Received.selector`. This function MAY throw to revert and reject the transfer. Note: the ERC721 contract address is always the message sender. param operator The address which called `safeTransferFrom` function param from The address which previously owned the token param tokenId The NFT identifier which is being transferred param data Additional data with no specified format",
        "return": "bytes4 `bytes4(keccak256(\"onERC721Received(address,address,uint256,bytes)\"))`"
      },
      "removeAuthKey(address)": {
        "details": "Remove an auth key from the list of auth keys",
        "params": {
          "_authKey": "Address of the auth key to remove"
        }
      }
    },
    "title": "BaseMetaTxAccount"
  },
  "userdoc": {
    "methods": {
      "executeMultipleMetaTransactions(bytes[])": {
        "notice": "This can only be called by self as a part of the atomic meta transaction"
      },
      "onERC1155BatchReceived(address,address,uint256[],uint256[],bytes)": {
        "notice": "Handle the receipt of multiple ERC1155 token types."
      },
      "onERC1155Received(address,address,uint256,uint256,bytes)": {
        "notice": "ERC1155"
      },
      "onERC721Received(address,address,uint256,bytes)": {
        "notice": "Handle the receipt of an NFT"
      }
    }
  }
}