{
  "contractName": "BaseAccount",
  "abi": [
    {
      "anonymous": false,
      "inputs": [
        {
          "indexed": true,
          "internalType": "address",
          "name": "authKey",
          "type": "address"
        }
      ],
      "name": "AuthKeyAdded",
      "type": "event"
    },
    {
      "anonymous": false,
      "inputs": [
        {
          "indexed": true,
          "internalType": "address",
          "name": "authKey",
          "type": "address"
        }
      ],
      "name": "AuthKeyRemoved",
      "type": "event"
    },
    {
      "anonymous": false,
      "inputs": [
        {
          "indexed": false,
          "internalType": "string",
          "name": "reason",
          "type": "string"
        }
      ],
      "name": "CallFailed",
      "type": "event"
    },
    {
      "anonymous": false,
      "inputs": [
        {
          "indexed": true,
          "internalType": "address",
          "name": "implementation",
          "type": "address"
        }
      ],
      "name": "Upgraded",
      "type": "event"
    },
    {
      "payable": true,
      "stateMutability": "payable",
      "type": "fallback"
    },
    {
      "constant": true,
      "inputs": [
        {
          "internalType": "address",
          "name": "",
          "type": "address"
        }
      ],
      "name": "authKeys",
      "outputs": [
        {
          "internalType": "bool",
          "name": "",
          "type": "bool"
        }
      ],
      "payable": false,
      "stateMutability": "view",
      "type": "function"
    },
    {
      "constant": false,
      "inputs": [
        {
          "internalType": "address",
          "name": "_authKey",
          "type": "address"
        }
      ],
      "name": "initializeV1",
      "outputs": [],
      "payable": false,
      "stateMutability": "nonpayable",
      "type": "function"
    },
    {
      "constant": true,
      "inputs": [],
      "name": "lastInitializedVersion",
      "outputs": [
        {
          "internalType": "uint256",
          "name": "",
          "type": "uint256"
        }
      ],
      "payable": false,
      "stateMutability": "view",
      "type": "function"
    },
    {
      "constant": true,
      "inputs": [],
      "name": "nonce",
      "outputs": [
        {
          "internalType": "uint256",
          "name": "",
          "type": "uint256"
        }
      ],
      "payable": false,
      "stateMutability": "view",
      "type": "function"
    },
    {
      "constant": true,
      "inputs": [],
      "name": "numAuthKeys",
      "outputs": [
        {
          "internalType": "uint256",
          "name": "",
          "type": "uint256"
        }
      ],
      "payable": false,
      "stateMutability": "view",
      "type": "function"
    },
    {
      "constant": false,
      "inputs": [
        {
          "internalType": "address",
          "name": "",
          "type": "address"
        },
        {
          "internalType": "address",
          "name": "",
          "type": "address"
        },
        {
          "internalType": "uint256[]",
          "name": "",
          "type": "uint256[]"
        },
        {
          "internalType": "uint256[]",
          "name": "",
          "type": "uint256[]"
        },
        {
          "internalType": "bytes",
          "name": "",
          "type": "bytes"
        }
      ],
      "name": "onERC1155BatchReceived",
      "outputs": [
        {
          "internalType": "bytes4",
          "name": "",
          "type": "bytes4"
        }
      ],
      "payable": false,
      "stateMutability": "nonpayable",
      "type": "function"
    },
    {
      "constant": false,
      "inputs": [
        {
          "internalType": "address",
          "name": "",
          "type": "address"
        },
        {
          "internalType": "address",
          "name": "",
          "type": "address"
        },
        {
          "internalType": "uint256",
          "name": "",
          "type": "uint256"
        },
        {
          "internalType": "uint256",
          "name": "",
          "type": "uint256"
        },
        {
          "internalType": "bytes",
          "name": "",
          "type": "bytes"
        }
      ],
      "name": "onERC1155Received",
      "outputs": [
        {
          "internalType": "bytes4",
          "name": "",
          "type": "bytes4"
        }
      ],
      "payable": false,
      "stateMutability": "nonpayable",
      "type": "function"
    },
    {
      "constant": false,
      "inputs": [
        {
          "internalType": "address",
          "name": "",
          "type": "address"
        },
        {
          "internalType": "address",
          "name": "",
          "type": "address"
        },
        {
          "internalType": "uint256",
          "name": "",
          "type": "uint256"
        },
        {
          "internalType": "bytes",
          "name": "",
          "type": "bytes"
        }
      ],
      "name": "onERC721Received",
      "outputs": [
        {
          "internalType": "bytes4",
          "name": "",
          "type": "bytes4"
        }
      ],
      "payable": false,
      "stateMutability": "nonpayable",
      "type": "function"
    },
    {
      "constant": true,
      "inputs": [],
      "name": "getChainId",
      "outputs": [
        {
          "internalType": "uint256",
          "name": "",
          "type": "uint256"
        }
      ],
      "payable": false,
      "stateMutability": "pure",
      "type": "function"
    },
    {
      "constant": false,
      "inputs": [
        {
          "internalType": "address",
          "name": "_authKey",
          "type": "address"
        }
      ],
      "name": "addAuthKey",
      "outputs": [],
      "payable": false,
      "stateMutability": "nonpayable",
      "type": "function"
    },
    {
      "constant": false,
      "inputs": [
        {
          "internalType": "address",
          "name": "_authKey",
          "type": "address"
        }
      ],
      "name": "removeAuthKey",
      "outputs": [],
      "payable": false,
      "stateMutability": "nonpayable",
      "type": "function"
    }
  ],
  "bytecode": "0x608060405234801561001057600080fd5b50610f40806100206000396000f3fe60806040526004361061009c5760003560e01c80637e7fd66c116100645780637e7fd66c146101955780639565389e146101c0578063affed0e0146101e9578063bc197c8114610214578063ec5e319e14610251578063f23a6e611461027c5761009c565b806313f8c5781461009e578063150b7a02146100c75780631b9a9f9e146101045780633408e4701461012d5780635175ca5e14610158575b005b3480156100aa57600080fd5b506100c560048036036100c0919081019061095c565b6102b9565b005b3480156100d357600080fd5b506100ee60048036036100e99190810190610a51565b610478565b6040516100fb9190610d0c565b60405180910390f35b34801561011057600080fd5b5061012b6004803603610126919081019061095c565b61048c565b005b34801561013957600080fd5b50610142610586565b60405161014f9190610dc7565b60405180910390f35b34801561016457600080fd5b5061017f600480360361017a919081019061095c565b61058f565b60405161018c9190610cf1565b60405180910390f35b3480156101a157600080fd5b506101aa6105af565b6040516101b79190610dc7565b60405180910390f35b3480156101cc57600080fd5b506101e760048036036101e2919081019061095c565b6105b5565b005b3480156101f557600080fd5b506101fe6107ba565b60405161020b9190610dc7565b60405180910390f35b34801561022057600080fd5b5061023b60048036036102369190810190610985565b6107c0565b6040516102489190610d0c565b60405180910390f35b34801561025d57600080fd5b506102666107d8565b6040516102739190610dc7565b60405180910390f35b34801561028857600080fd5b506102a3600480360361029e9190810190610acc565b6107de565b6040516102b09190610d0c565b60405180910390f35b6102c2336107f4565b806102f857503073ffffffffffffffffffffffffffffffffffffffff163373ffffffffffffffffffffffffffffffffffffffff16145b610337576040517f08c379a000000000000000000000000000000000000000000000000000000000815260040161032e90610d67565b60405180910390fd5b60001515600160008373ffffffffffffffffffffffffffffffffffffffff1673ffffffffffffffffffffffffffffffffffffffff16815260200190815260200160002060009054906101000a900460ff161515146103ca576040517f08c379a00000000000000000000000000000000000000000000000000000000081526004016103c190610d87565b60405180910390fd5b60018060008373ffffffffffffffffffffffffffffffffffffffff1673ffffffffffffffffffffffffffffffffffffffff16815260200190815260200160002060006101000a81548160ff02191690831515021790555060016003600082825401925050819055508073ffffffffffffffffffffffffffffffffffffffff167fb020719d16d3c4de45a91f9c329aa61d5bad3f44f760840c8d5d82d4cd3bcc3360405160405180910390a250565b600063150b7a0260e01b9050949350505050565b60008054146104d0576040517f08c379a00000000000000000000000000000000000000000000000000000000081526004016104c790610d47565b60405180910390fd5b600160008190555060018060008373ffffffffffffffffffffffffffffffffffffffff1673ffffffffffffffffffffffffffffffffffffffff16815260200190815260200160002060006101000a81548160ff02191690831515021790555060016003600082825401925050819055508073ffffffffffffffffffffffffffffffffffffffff167fb020719d16d3c4de45a91f9c329aa61d5bad3f44f760840c8d5d82d4cd3bcc3360405160405180910390a250565b60006001905090565b60016020528060005260406000206000915054906101000a900460ff1681565b60005481565b6105be336107f4565b806105f457503073ffffffffffffffffffffffffffffffffffffffff163373ffffffffffffffffffffffffffffffffffffffff16145b610633576040517f08c379a000000000000000000000000000000000000000000000000000000000815260040161062a90610d67565b60405180910390fd5b60011515600160008373ffffffffffffffffffffffffffffffffffffffff1673ffffffffffffffffffffffffffffffffffffffff16815260200190815260200160002060009054906101000a900460ff161515146106c6576040517f08c379a00000000000000000000000000000000000000000000000000000000081526004016106bd90610da7565b60405180910390fd5b60016003541161070b576040517f08c379a000000000000000000000000000000000000000000000000000000000815260040161070290610d27565b60405180910390fd5b6000600160008373ffffffffffffffffffffffffffffffffffffffff1673ffffffffffffffffffffffffffffffffffffffff16815260200190815260200160002060006101000a81548160ff02191690831515021790555060016003600082825403925050819055508073ffffffffffffffffffffffffffffffffffffffff167fbe55f9add9abe657e689a4a84a31854310f260c7e2610bcd22440e3ec3a836a460405160405180910390a250565b60025481565b600063bc197c8160e01b905098975050505050505050565b60035481565b600063f23a6e6160e01b90509695505050505050565b6000600160008373ffffffffffffffffffffffffffffffffffffffff1673ffffffffffffffffffffffffffffffffffffffff16815260200190815260200160002060009054906101000a900460ff169050919050565b60008135905061085981610ecf565b92915050565b60008083601f84011261087157600080fd5b8235905067ffffffffffffffff81111561088a57600080fd5b6020830191508360208202830111156108a257600080fd5b9250929050565b60008083601f8401126108bb57600080fd5b8235905067ffffffffffffffff8111156108d457600080fd5b6020830191508360018202830111156108ec57600080fd5b9250929050565b600082601f83011261090457600080fd5b813561091761091282610e0f565b610de2565b9150808252602083016020830185838301111561093357600080fd5b61093e838284610ec0565b50505092915050565b60008135905061095681610ee6565b92915050565b60006020828403121561096e57600080fd5b600061097c8482850161084a565b91505092915050565b60008060008060008060008060a0898b0312156109a157600080fd5b60006109af8b828c0161084a565b98505060206109c08b828c0161084a565b975050604089013567ffffffffffffffff8111156109dd57600080fd5b6109e98b828c0161085f565b9650965050606089013567ffffffffffffffff811115610a0857600080fd5b610a148b828c0161085f565b9450945050608089013567ffffffffffffffff811115610a3357600080fd5b610a3f8b828c016108a9565b92509250509295985092959890939650565b60008060008060808587031215610a6757600080fd5b6000610a758782880161084a565b9450506020610a868782880161084a565b9350506040610a9787828801610947565b925050606085013567ffffffffffffffff811115610ab457600080fd5b610ac0878288016108f3565b91505092959194509250565b60008060008060008060a08789031215610ae557600080fd5b6000610af389828a0161084a565b9650506020610b0489828a0161084a565b9550506040610b1589828a01610947565b9450506060610b2689828a01610947565b935050608087013567ffffffffffffffff811115610b4357600080fd5b610b4f89828a016108a9565b92509250509295509295509295565b610b6781610e5e565b82525050565b610b7681610e6a565b82525050565b6000610b89601f83610e3b565b91507f42413a2043616e6e6f742072656d6f7665206c6173742061757468206b6579006000830152602082019050919050565b6000610bc9602183610e3b565b91507f41493a20496d70726f70657220696e697469616c697a6174696f6e206f72646560008301527f72000000000000000000000000000000000000000000000000000000000000006020830152604082019050919050565b6000610c2f601f83610e3b565b91507f42413a2041757468206b6579206f722073656c6620697320696e76616c6964006000830152602082019050919050565b6000610c6f601a83610e3b565b91507f42413a2041757468206b657920616c72656164792061646465640000000000006000830152602082019050919050565b6000610caf601a83610e3b565b91507f42413a2041757468206b6579206e6f74207965742061646465640000000000006000830152602082019050919050565b610ceb81610eb6565b82525050565b6000602082019050610d066000830184610b5e565b92915050565b6000602082019050610d216000830184610b6d565b92915050565b60006020820190508181036000830152610d4081610b7c565b9050919050565b60006020820190508181036000830152610d6081610bbc565b9050919050565b60006020820190508181036000830152610d8081610c22565b9050919050565b60006020820190508181036000830152610da081610c62565b9050919050565b60006020820190508181036000830152610dc081610ca2565b9050919050565b6000602082019050610ddc6000830184610ce2565b92915050565b6000604051905081810181811067ffffffffffffffff82111715610e0557600080fd5b8060405250919050565b600067ffffffffffffffff821115610e2657600080fd5b601f19601f8301169050602081019050919050565b600082825260208201905092915050565b6000610e5782610e96565b9050919050565b60008115159050919050565b60007fffffffff0000000000000000000000000000000000000000000000000000000082169050919050565b600073ffffffffffffffffffffffffffffffffffffffff82169050919050565b6000819050919050565b82818337600083830152505050565b610ed881610e4c565b8114610ee357600080fd5b50565b610eef81610eb6565b8114610efa57600080fd5b5056fea365627a7a7231582086a78d239151986fc0e6e865f4f95f79d7e0a3861813fb09e01b9eee68437e686c6578706572696d656e74616cf564736f6c63430005100040",
  "source": "pragma solidity 0.5.16;\npragma experimental ABIEncoderV2;\n\nimport \"./initializer/AccountInitialize.sol\";\nimport \"./state/AccountState.sol\";\nimport \"./TokenReceiverHooks.sol\";\nimport \"../interfaces/IERC20.sol\";\nimport \"../libs/ECDSA.sol\";\nimport \"../libs/SafeMath.sol\";\nimport \"../libs/BytesLib.sol\";\n\n/**\n * @title BaseAccount\n * @author Authereum Labs, Inc.\n * @dev Base account contract. Performs most of the functionality\n * @dev of an Authereum account contract.\n */\n\ncontract BaseAccount is AccountState, AccountInitialize, TokenReceiverHooks {\n    using SafeMath for uint256;\n    using ECDSA for bytes32;\n    using BytesLib for bytes;\n\n    // Include a CHAIN_ID const\n    uint256 constant private CHAIN_ID = 1;\n\n    modifier onlySelf {\n        require(msg.sender == address(this), \"BA: Only self allowed\");\n        _;\n    }\n\n    modifier onlyAuthKeySender {\n        require(_isValidAuthKey(msg.sender), \"BA: Auth key is invalid\");\n        _;\n    }\n\n    modifier onlyAuthKeySenderOrSelf {\n        require(_isValidAuthKey(msg.sender) || msg.sender == address(this), \"BA: Auth key or self is invalid\");\n        _;\n    }\n\n    // This is required for funds sent to this contract\n    function () external payable {}\n\n    /**\n     *  Getters\n     */\n\n    /// @dev Get the chain ID constant\n    /// @return The chain id\n    function getChainId() public pure returns (uint256) {\n        return CHAIN_ID;\n    }\n\n    /**\n     *  Public functions\n     */\n\n    /// @dev Add an auth key to the list of auth keys\n    /// @param _authKey Address of the auth key to add\n    function addAuthKey(address _authKey) external onlyAuthKeySenderOrSelf {\n        require(authKeys[_authKey] == false, \"BA: Auth key already added\");\n        authKeys[_authKey] = true;\n        numAuthKeys += 1;\n        emit AuthKeyAdded(_authKey);\n    }\n\n    /// @dev Remove an auth key from the list of auth keys\n    /// @param _authKey Address of the auth key to remove\n    function removeAuthKey(address _authKey) external onlyAuthKeySenderOrSelf {\n        require(authKeys[_authKey] == true, \"BA: Auth key not yet added\");\n        require(numAuthKeys > 1, \"BA: Cannot remove last auth key\");\n        authKeys[_authKey] = false;\n        numAuthKeys -= 1;\n        emit AuthKeyRemoved(_authKey);\n    }\n\n    /**\n     *  Internal functions\n     */\n\n    /// @dev Check if an auth key is valid\n    /// @param _authKey Address of the auth key to validate\n    /// @return True if the auth key is valid\n    function _isValidAuthKey(address _authKey) internal view returns (bool) {\n        return authKeys[_authKey];\n    }\n\n    /// @dev Execute a transaction without a refund\n    /// @notice This is the transaction sent from the CBA\n    /// @param _destination Destination of the transaction\n    /// @param _value Value of the transaction\n    /// @param _gasLimit Gas limit of the transaction\n    /// @param _data Data of the transaction\n    /// @return Response of the call\n    function _executeTransaction(\n        address _destination,\n        uint256 _value,\n        uint256 _gasLimit,\n        bytes memory _data\n    )\n        internal\n        returns (bytes memory)\n    {\n        (bool success, bytes memory res) = _destination.call.gas(_gasLimit).value(_value)(_data);\n\n        // Get the revert message of the call and revert with it if the call failed\n        if (!success) {\n            string memory _revertMsg = _getRevertMsg(res);\n            revert(_revertMsg);\n        }\n\n        return res;\n    }\n\n    /// @dev Get the revert message from a call\n    /// @notice This is needed in order to get the human-readable revert message from a call\n    /// @param _res Response of the call\n    /// @return Revert message string\n    function _getRevertMsg(bytes memory _res) internal pure returns (string memory) {\n        // If the _res length is less than 68, then the transaction failed silently (without a revert message)\n        if (_res.length < 68) return 'BA: Transaction reverted silently';\n        bytes memory revertData = _res.slice(4, _res.length - 4); // Remove the selector which is the first 4 bytes\n        return abi.decode(revertData, (string)); // All that remains is the revert string\n    }\n}",
  "sourcePath": "/Users/smitrajput/Projects/batchoo/contracts/account/BaseAccount.sol",
  "compiler": {
    "name": "solc",
    "version": "0.5.16+commit.9c3226ce.Emscripten.clang"
  },
  "schemaVersion": "3.1.0",
  "updatedAt": "2020-05-20T12:48:46.023Z",
  "devdoc": {
    "author": "Authereum Labs, Inc.",
    "details": "Base account contract. Performs most of the functionalityof an Authereum account contract.",
    "methods": {
      "addAuthKey(address)": {
        "details": "Add an auth key to the list of auth keys",
        "params": {
          "_authKey": "Address of the auth key to add"
        }
      },
      "getChainId()": {
        "details": "Get the chain ID constant",
        "return": "The chain id"
      },
      "initializeV1(address)": {
        "details": "Initialize the Authereum Account",
        "params": {
          "_authKey": "authKey that will own this account"
        }
      },
      "onERC1155BatchReceived(address,address,uint256[],uint256[],bytes)": {
        "details": "An ERC1155-compliant smart contract MUST call this function on the token recipient contract, at the end of a `safeBatchTransferFrom` after the balances have been updated. This function MUST return `bytes4(keccak256(\"onERC1155BatchReceived(address,address,uint256[],uint256[],bytes)\"))` (i.e. 0xbc197c81) if it accepts the transfer(s). This function MUST revert if it rejects the transfer(s). Return of any other value than the prescribed keccak256 generated value MUST result in the transaction being reverted by the caller. param _operator  The address which initiated the batch transfer (i.e. msg.sender) param _from      The address which previously owned the token param _ids       An array containing ids of each token being transferred (order and length must match _values array) param _values    An array containing amounts of each token being transferred (order and length must match _ids array) param _data      Additional data with no specified format",
        "return": "`bytes4(keccak256(\"onERC1155BatchReceived(address,address,uint256[],uint256[],bytes)\"))`"
      },
      "onERC721Received(address,address,uint256,bytes)": {
        "details": "The ERC721 smart contract calls this function on the recipient after a {IERC721-safeTransferFrom}. This function MUST return the function selector, otherwise the caller will revert the transaction. The selector to be returned can be obtained as `this.onERC721Received.selector`. This function MAY throw to revert and reject the transfer. Note: the ERC721 contract address is always the message sender. param operator The address which called `safeTransferFrom` function param from The address which previously owned the token param tokenId The NFT identifier which is being transferred param data Additional data with no specified format",
        "return": "bytes4 `bytes4(keccak256(\"onERC721Received(address,address,uint256,bytes)\"))`"
      },
      "removeAuthKey(address)": {
        "details": "Remove an auth key from the list of auth keys",
        "params": {
          "_authKey": "Address of the auth key to remove"
        }
      }
    },
    "title": "BaseAccount"
  },
  "userdoc": {
    "methods": {
      "onERC1155BatchReceived(address,address,uint256[],uint256[],bytes)": {
        "notice": "Handle the receipt of multiple ERC1155 token types."
      },
      "onERC1155Received(address,address,uint256,uint256,bytes)": {
        "notice": "ERC1155"
      },
      "onERC721Received(address,address,uint256,bytes)": {
        "notice": "Handle the receipt of an NFT"
      }
    }
  }
}