{
  "contractName": "EnsResolver",
  "abi": [
    {
      "inputs": [
        {
          "internalType": "contract ENS",
          "name": "ensAddr",
          "type": "address"
        }
      ],
      "payable": false,
      "stateMutability": "nonpayable",
      "type": "constructor"
    },
    {
      "anonymous": false,
      "inputs": [
        {
          "indexed": true,
          "internalType": "bytes32",
          "name": "node",
          "type": "bytes32"
        },
        {
          "indexed": true,
          "internalType": "uint256",
          "name": "contentType",
          "type": "uint256"
        }
      ],
      "name": "ABIChanged",
      "type": "event"
    },
    {
      "anonymous": false,
      "inputs": [
        {
          "indexed": true,
          "internalType": "bytes32",
          "name": "node",
          "type": "bytes32"
        },
        {
          "indexed": false,
          "internalType": "address",
          "name": "a",
          "type": "address"
        }
      ],
      "name": "AddrChanged",
      "type": "event"
    },
    {
      "anonymous": false,
      "inputs": [
        {
          "indexed": true,
          "internalType": "bytes32",
          "name": "node",
          "type": "bytes32"
        },
        {
          "indexed": false,
          "internalType": "bytes",
          "name": "hash",
          "type": "bytes"
        }
      ],
      "name": "ContenthashChanged",
      "type": "event"
    },
    {
      "anonymous": false,
      "inputs": [
        {
          "indexed": true,
          "internalType": "bytes32",
          "name": "node",
          "type": "bytes32"
        },
        {
          "indexed": false,
          "internalType": "string",
          "name": "name",
          "type": "string"
        }
      ],
      "name": "NameChanged",
      "type": "event"
    },
    {
      "anonymous": false,
      "inputs": [
        {
          "indexed": true,
          "internalType": "bytes32",
          "name": "node",
          "type": "bytes32"
        },
        {
          "indexed": false,
          "internalType": "bytes32",
          "name": "x",
          "type": "bytes32"
        },
        {
          "indexed": false,
          "internalType": "bytes32",
          "name": "y",
          "type": "bytes32"
        }
      ],
      "name": "PubkeyChanged",
      "type": "event"
    },
    {
      "anonymous": false,
      "inputs": [
        {
          "indexed": true,
          "internalType": "bytes32",
          "name": "node",
          "type": "bytes32"
        },
        {
          "indexed": false,
          "internalType": "string",
          "name": "indexedKey",
          "type": "string"
        },
        {
          "indexed": false,
          "internalType": "string",
          "name": "key",
          "type": "string"
        }
      ],
      "name": "TextChanged",
      "type": "event"
    },
    {
      "constant": false,
      "inputs": [
        {
          "internalType": "bytes32",
          "name": "node",
          "type": "bytes32"
        },
        {
          "internalType": "address",
          "name": "addr",
          "type": "address"
        }
      ],
      "name": "setAddr",
      "outputs": [],
      "payable": false,
      "stateMutability": "nonpayable",
      "type": "function"
    },
    {
      "constant": false,
      "inputs": [
        {
          "internalType": "bytes32",
          "name": "node",
          "type": "bytes32"
        },
        {
          "internalType": "bytes",
          "name": "hash",
          "type": "bytes"
        }
      ],
      "name": "setContenthash",
      "outputs": [],
      "payable": false,
      "stateMutability": "nonpayable",
      "type": "function"
    },
    {
      "constant": false,
      "inputs": [
        {
          "internalType": "bytes32",
          "name": "node",
          "type": "bytes32"
        },
        {
          "internalType": "string",
          "name": "name",
          "type": "string"
        }
      ],
      "name": "setName",
      "outputs": [],
      "payable": false,
      "stateMutability": "nonpayable",
      "type": "function"
    },
    {
      "constant": false,
      "inputs": [
        {
          "internalType": "bytes32",
          "name": "node",
          "type": "bytes32"
        },
        {
          "internalType": "uint256",
          "name": "contentType",
          "type": "uint256"
        },
        {
          "internalType": "bytes",
          "name": "data",
          "type": "bytes"
        }
      ],
      "name": "setABI",
      "outputs": [],
      "payable": false,
      "stateMutability": "nonpayable",
      "type": "function"
    },
    {
      "constant": false,
      "inputs": [
        {
          "internalType": "bytes32",
          "name": "node",
          "type": "bytes32"
        },
        {
          "internalType": "bytes32",
          "name": "x",
          "type": "bytes32"
        },
        {
          "internalType": "bytes32",
          "name": "y",
          "type": "bytes32"
        }
      ],
      "name": "setPubkey",
      "outputs": [],
      "payable": false,
      "stateMutability": "nonpayable",
      "type": "function"
    },
    {
      "constant": false,
      "inputs": [
        {
          "internalType": "bytes32",
          "name": "node",
          "type": "bytes32"
        },
        {
          "internalType": "string",
          "name": "key",
          "type": "string"
        },
        {
          "internalType": "string",
          "name": "value",
          "type": "string"
        }
      ],
      "name": "setText",
      "outputs": [],
      "payable": false,
      "stateMutability": "nonpayable",
      "type": "function"
    },
    {
      "constant": true,
      "inputs": [
        {
          "internalType": "bytes32",
          "name": "node",
          "type": "bytes32"
        },
        {
          "internalType": "string",
          "name": "key",
          "type": "string"
        }
      ],
      "name": "text",
      "outputs": [
        {
          "internalType": "string",
          "name": "",
          "type": "string"
        }
      ],
      "payable": false,
      "stateMutability": "view",
      "type": "function"
    },
    {
      "constant": true,
      "inputs": [
        {
          "internalType": "bytes32",
          "name": "node",
          "type": "bytes32"
        }
      ],
      "name": "pubkey",
      "outputs": [
        {
          "internalType": "bytes32",
          "name": "x",
          "type": "bytes32"
        },
        {
          "internalType": "bytes32",
          "name": "y",
          "type": "bytes32"
        }
      ],
      "payable": false,
      "stateMutability": "view",
      "type": "function"
    },
    {
      "constant": true,
      "inputs": [
        {
          "internalType": "bytes32",
          "name": "node",
          "type": "bytes32"
        },
        {
          "internalType": "uint256",
          "name": "contentTypes",
          "type": "uint256"
        }
      ],
      "name": "ABI",
      "outputs": [
        {
          "internalType": "uint256",
          "name": "contentType",
          "type": "uint256"
        },
        {
          "internalType": "bytes",
          "name": "data",
          "type": "bytes"
        }
      ],
      "payable": false,
      "stateMutability": "view",
      "type": "function"
    },
    {
      "constant": true,
      "inputs": [
        {
          "internalType": "bytes32",
          "name": "node",
          "type": "bytes32"
        }
      ],
      "name": "name",
      "outputs": [
        {
          "internalType": "string",
          "name": "",
          "type": "string"
        }
      ],
      "payable": false,
      "stateMutability": "view",
      "type": "function"
    },
    {
      "constant": true,
      "inputs": [
        {
          "internalType": "bytes32",
          "name": "node",
          "type": "bytes32"
        }
      ],
      "name": "addr",
      "outputs": [
        {
          "internalType": "address",
          "name": "",
          "type": "address"
        }
      ],
      "payable": false,
      "stateMutability": "view",
      "type": "function"
    },
    {
      "constant": true,
      "inputs": [
        {
          "internalType": "bytes32",
          "name": "node",
          "type": "bytes32"
        }
      ],
      "name": "contenthash",
      "outputs": [
        {
          "internalType": "bytes",
          "name": "",
          "type": "bytes"
        }
      ],
      "payable": false,
      "stateMutability": "view",
      "type": "function"
    },
    {
      "constant": true,
      "inputs": [
        {
          "internalType": "bytes4",
          "name": "interfaceID",
          "type": "bytes4"
        }
      ],
      "name": "supportsInterface",
      "outputs": [
        {
          "internalType": "bool",
          "name": "",
          "type": "bool"
        }
      ],
      "payable": false,
      "stateMutability": "pure",
      "type": "function"
    }
  ],
  "bytecode": "0x608060405234801561001057600080fd5b50604051611c41380380611c418339818101604052602081101561003357600080fd5b8101908080519060200190929190505050806000806101000a81548173ffffffffffffffffffffffffffffffffffffffff021916908373ffffffffffffffffffffffffffffffffffffffff16021790555050611bad806100946000396000f3fe608060405234801561001057600080fd5b50600436106100cf5760003560e01c806359d1d43c1161008c57806377372213116100665780637737221314610776578063bc1c58d11461083b578063c8690233146108e2578063d5fa2b001461092b576100cf565b806359d1d43c146104c2578063623195b014610600578063691f3431146106cf576100cf565b806301ffc9a7146100d457806310f13a8c146101395780632203ab561461029557806329cd62ea1461034d578063304e6ade1461038f5780633b3b57de14610454575b600080fd5b61011f600480360360208110156100ea57600080fd5b8101908080357bffffffffffffffffffffffffffffffffffffffffffffffffffffffff19169060200190929190505050610979565b604051808215151515815260200191505060405180910390f35b6102936004803603606081101561014f57600080fd5b81019080803590602001909291908035906020019064010000000081111561017657600080fd5b82018360208201111561018857600080fd5b803590602001918460018302840111640100000000831117156101aa57600080fd5b91908080601f016020809104026020016040519081016040528093929190818152602001838380828437600081840152601f19601f8201169050808301925050505050505091929192908035906020019064010000000081111561020d57600080fd5b82018360208201111561021f57600080fd5b8035906020019184600183028401116401000000008311171561024157600080fd5b91908080601f016020809104026020016040519081016040528093929190818152602001838380828437600081840152601f19601f820116905080830192505050505050509192919290505050610ba4565b005b6102cb600480360360408110156102ab57600080fd5b810190808035906020019092919080359060200190929190505050610e2b565b6040518083815260200180602001828103825283818151815260200191508051906020019080838360005b838110156103115780820151818401526020810190506102f6565b50505050905090810190601f16801561033e5780820380516001836020036101000a031916815260200191505b50935050505060405180910390f35b61038d6004803603606081101561036357600080fd5b81019080803590602001909291908035906020019092919080359060200190929190505050610f68565b005b610452600480360360408110156103a557600080fd5b8101908080359060200190929190803590602001906401000000008111156103cc57600080fd5b8201836020820111156103de57600080fd5b8035906020019184600183028401116401000000008311171561040057600080fd5b91908080601f016020809104026020016040519081016040528093929190818152602001838380828437600081840152601f19601f8201169050808301925050505050505091929192905050506110d5565b005b6104806004803603602081101561046a57600080fd5b8101908080359060200190929190505050611287565b604051808273ffffffffffffffffffffffffffffffffffffffff1673ffffffffffffffffffffffffffffffffffffffff16815260200191505060405180910390f35b610585600480360360408110156104d857600080fd5b8101908080359060200190929190803590602001906401000000008111156104ff57600080fd5b82018360208201111561051157600080fd5b8035906020019184600183028401116401000000008311171561053357600080fd5b91908080601f016020809104026020016040519081016040528093929190818152602001838380828437600081840152601f19601f8201169050808301925050505050505091929192905050506112c7565b6040518080602001828103825283818151815260200191508051906020019080838360005b838110156105c55780820151818401526020810190506105aa565b50505050905090810190601f1680156105f25780820380516001836020036101000a031916815260200191505b509250505060405180910390f35b6106cd6004803603606081101561061657600080fd5b8101908080359060200190929190803590602001909291908035906020019064010000000081111561064757600080fd5b82018360208201111561065957600080fd5b8035906020019184600183028401116401000000008311171561067b57600080fd5b91908080601f016020809104026020016040519081016040528093929190818152602001838380828437600081840152601f19601f8201169050808301925050505050505091929192905050506113e7565b005b6106fb600480360360208110156106e557600080fd5b810190808035906020019092919050505061154e565b6040518080602001828103825283818151815260200191508051906020019080838360005b8381101561073b578082015181840152602081019050610720565b50505050905090810190601f1680156107685780820380516001836020036101000a031916815260200191505b509250505060405180910390f35b6108396004803603604081101561078c57600080fd5b8101908080359060200190929190803590602001906401000000008111156107b357600080fd5b8201836020820111156107c557600080fd5b803590602001918460018302840111640100000000831117156107e757600080fd5b91908080601f016020809104026020016040519081016040528093929190818152602001838380828437600081840152601f19601f820116905080830192505050505050509192919290505050611606565b005b6108676004803603602081101561085157600080fd5b81019080803590602001909291905050506117b8565b6040518080602001828103825283818151815260200191508051906020019080838360005b838110156108a757808201518184015260208101905061088c565b50505050905090810190601f1680156108d45780820380516001836020036101000a031916815260200191505b509250505060405180910390f35b61090e600480360360208110156108f857600080fd5b8101908080359060200190929190505050611870565b604051808381526020018281526020019250505060405180910390f35b6109776004803603604081101561094157600080fd5b8101908080359060200190929190803573ffffffffffffffffffffffffffffffffffffffff1690602001909291905050506118b0565b005b6000633b3b57de60e01b7bffffffffffffffffffffffffffffffffffffffffffffffffffffffff1916827bffffffffffffffffffffffffffffffffffffffffffffffffffffffff19161480610a12575063691f343160e01b7bffffffffffffffffffffffffffffffffffffffffffffffffffffffff1916827bffffffffffffffffffffffffffffffffffffffffffffffffffffffff1916145b80610a615750632203ab5660e01b7bffffffffffffffffffffffffffffffffffffffffffffffffffffffff1916827bffffffffffffffffffffffffffffffffffffffffffffffffffffffff1916145b80610ab0575063c869023360e01b7bffffffffffffffffffffffffffffffffffffffffffffffffffffffff1916827bffffffffffffffffffffffffffffffffffffffffffffffffffffffff1916145b80610aff57506359d1d43c60e01b7bffffffffffffffffffffffffffffffffffffffffffffffffffffffff1916827bffffffffffffffffffffffffffffffffffffffffffffffffffffffff1916145b80610b4e575063bc1c58d160e01b7bffffffffffffffffffffffffffffffffffffffffffffffffffffffff1916827bffffffffffffffffffffffffffffffffffffffffffffffffffffffff1916145b80610b9d57506301ffc9a760e01b7bffffffffffffffffffffffffffffffffffffffffffffffffffffffff1916827bffffffffffffffffffffffffffffffffffffffffffffffffffffffff1916145b9050919050565b823373ffffffffffffffffffffffffffffffffffffffff166000809054906101000a900473ffffffffffffffffffffffffffffffffffffffff1673ffffffffffffffffffffffffffffffffffffffff166302571be3836040518263ffffffff1660e01b81526004018082815260200191505060206040518083038186803b158015610c2e57600080fd5b505afa158015610c42573d6000803e3d6000fd5b505050506040513d6020811015610c5857600080fd5b810190808051906020019092919050505073ffffffffffffffffffffffffffffffffffffffff1614610c8957600080fd5b8160016000868152602001908152602001600020600401846040518082805190602001908083835b60208310610cd45780518252602082019150602081019050602083039250610cb1565b6001836020036101000a03801982511681845116808217855250505050505090500191505090815260200160405180910390209080519060200190610d1a929190611a53565b50837fd8c9334b1a9c2f9da342a0a2b32629c1a229b6445dad78947f674b44444a75508485604051808060200180602001838103835285818151815260200191508051906020019080838360005b83811015610d83578082015181840152602081019050610d68565b50505050905090810190601f168015610db05780820380516001836020036101000a031916815260200191505b50838103825284818151815260200191508051906020019080838360005b83811015610de9578082015181840152602081019050610dce565b50505050905090810190601f168015610e165780820380516001836020036101000a031916815260200191505b5094505050505060405180910390a250505050565b600060606000600160008681526020019081526020016000209050600192505b838311610f5b57600084841614158015610e8e57506000816005016000858152602001908152602001600020805460018160011615610100020316600290049050115b15610f4f578060050160008481526020019081526020016000208054600181600116156101000203166002900480601f016020809104026020016040519081016040528092919081815260200182805460018160011615610100020316600290048015610f3c5780601f10610f1157610100808354040283529160200191610f3c565b820191906000526020600020905b815481529060010190602001808311610f1f57829003601f168201915b5050505050915082829250925050610f61565b600183901b9250610e4b565b60009250505b9250929050565b823373ffffffffffffffffffffffffffffffffffffffff166000809054906101000a900473ffffffffffffffffffffffffffffffffffffffff1673ffffffffffffffffffffffffffffffffffffffff166302571be3836040518263ffffffff1660e01b81526004018082815260200191505060206040518083038186803b158015610ff257600080fd5b505afa158015611006573d6000803e3d6000fd5b505050506040513d602081101561101c57600080fd5b810190808051906020019092919050505073ffffffffffffffffffffffffffffffffffffffff161461104d57600080fd5b604051806040016040528084815260200183815250600160008681526020019081526020016000206002016000820151816000015560208201518160010155905050837f1d6f5e03d3f63eb58751986629a5439baee5079ff04f345becb66e23eb154e468484604051808381526020018281526020019250505060405180910390a250505050565b813373ffffffffffffffffffffffffffffffffffffffff166000809054906101000a900473ffffffffffffffffffffffffffffffffffffffff1673ffffffffffffffffffffffffffffffffffffffff166302571be3836040518263ffffffff1660e01b81526004018082815260200191505060206040518083038186803b15801561115f57600080fd5b505afa158015611173573d6000803e3d6000fd5b505050506040513d602081101561118957600080fd5b810190808051906020019092919050505073ffffffffffffffffffffffffffffffffffffffff16146111ba57600080fd5b816001600085815260200190815260200160002060060190805190602001906111e4929190611ad3565b50827fe379c1624ed7e714cc0937528a32359d69d5281337765313dba4e081b72d7578836040518080602001828103825283818151815260200191508051906020019080838360005b8381101561124857808201518184015260208101905061122d565b50505050905090810190601f1680156112755780820380516001836020036101000a031916815260200191505b509250505060405180910390a2505050565b60006001600083815260200190815260200160002060000160009054906101000a900473ffffffffffffffffffffffffffffffffffffffff169050919050565b606060016000848152602001908152602001600020600401826040518082805190602001908083835b6020831061131357805182526020820191506020810190506020830392506112f0565b6001836020036101000a03801982511681845116808217855250505050505090500191505090815260200160405180910390208054600181600116156101000203166002900480601f0160208091040260200160405190810160405280929190818152602001828054600181600116156101000203166002900480156113da5780601f106113af576101008083540402835291602001916113da565b820191906000526020600020905b8154815290600101906020018083116113bd57829003601f168201915b5050505050905092915050565b823373ffffffffffffffffffffffffffffffffffffffff166000809054906101000a900473ffffffffffffffffffffffffffffffffffffffff1673ffffffffffffffffffffffffffffffffffffffff166302571be3836040518263ffffffff1660e01b81526004018082815260200191505060206040518083038186803b15801561147157600080fd5b505afa158015611485573d6000803e3d6000fd5b505050506040513d602081101561149b57600080fd5b810190808051906020019092919050505073ffffffffffffffffffffffffffffffffffffffff16146114cc57600080fd5b6000836001850316146114de57600080fd5b816001600086815260200190815260200160002060050160008581526020019081526020016000209080519060200190611519929190611ad3565b5082847faa121bbeef5f32f5961a2a28966e769023910fc9479059ee3495d4c1a696efe360405160405180910390a350505050565b6060600160008381526020019081526020016000206001018054600181600116156101000203166002900480601f0160208091040260200160405190810160405280929190818152602001828054600181600116156101000203166002900480156115fa5780601f106115cf576101008083540402835291602001916115fa565b820191906000526020600020905b8154815290600101906020018083116115dd57829003601f168201915b50505050509050919050565b813373ffffffffffffffffffffffffffffffffffffffff166000809054906101000a900473ffffffffffffffffffffffffffffffffffffffff1673ffffffffffffffffffffffffffffffffffffffff166302571be3836040518263ffffffff1660e01b81526004018082815260200191505060206040518083038186803b15801561169057600080fd5b505afa1580156116a4573d6000803e3d6000fd5b505050506040513d60208110156116ba57600080fd5b810190808051906020019092919050505073ffffffffffffffffffffffffffffffffffffffff16146116eb57600080fd5b81600160008581526020019081526020016000206001019080519060200190611715929190611a53565b50827fb7d29e911041e8d9b843369e890bcb72c9388692ba48b65ac54e7214c4c348f7836040518080602001828103825283818151815260200191508051906020019080838360005b8381101561177957808201518184015260208101905061175e565b50505050905090810190601f1680156117a65780820380516001836020036101000a031916815260200191505b509250505060405180910390a2505050565b6060600160008381526020019081526020016000206006018054600181600116156101000203166002900480601f0160208091040260200160405190810160405280929190818152602001828054600181600116156101000203166002900480156118645780601f1061183957610100808354040283529160200191611864565b820191906000526020600020905b81548152906001019060200180831161184757829003601f168201915b50505050509050919050565b6000806001600084815260200190815260200160002060020160000154600160008581526020019081526020016000206002016001015491509150915091565b813373ffffffffffffffffffffffffffffffffffffffff166000809054906101000a900473ffffffffffffffffffffffffffffffffffffffff1673ffffffffffffffffffffffffffffffffffffffff166302571be3836040518263ffffffff1660e01b81526004018082815260200191505060206040518083038186803b15801561193a57600080fd5b505afa15801561194e573d6000803e3d6000fd5b505050506040513d602081101561196457600080fd5b810190808051906020019092919050505073ffffffffffffffffffffffffffffffffffffffff161461199557600080fd5b816001600085815260200190815260200160002060000160006101000a81548173ffffffffffffffffffffffffffffffffffffffff021916908373ffffffffffffffffffffffffffffffffffffffff160217905550827f52d7d861f09ab3d26239d492e8968629f95e9e318cf0b73bfddc441522a15fd283604051808273ffffffffffffffffffffffffffffffffffffffff1673ffffffffffffffffffffffffffffffffffffffff16815260200191505060405180910390a2505050565b828054600181600116156101000203166002900490600052602060002090601f016020900481019282601f10611a9457805160ff1916838001178555611ac2565b82800160010185558215611ac2579182015b82811115611ac1578251825591602001919060010190611aa6565b5b509050611acf9190611b53565b5090565b828054600181600116156101000203166002900490600052602060002090601f016020900481019282601f10611b1457805160ff1916838001178555611b42565b82800160010185558215611b42579182015b82811115611b41578251825591602001919060010190611b26565b5b509050611b4f9190611b53565b5090565b611b7591905b80821115611b71576000816000905550600101611b59565b5090565b9056fea265627a7a723158203c50fa28fd5741b68435ecfe0f607371ba643b5098edaf21740c5fdc213abf3c64736f6c63430005100032",
  "source": "/**\n *Submitted for verification at Etherscan.io on 2018-11-15\n*/\n\npragma solidity 0.5.16;\n\ninterface ENS {\n\n    // Logged when the owner of a node assigns a new owner to a subnode.\n    event NewOwner(bytes32 indexed node, bytes32 indexed label, address owner);\n\n    // Logged when the owner of a node transfers ownership to a new account.\n    event Transfer(bytes32 indexed node, address owner);\n\n    // Logged when the resolver for a node changes.\n    event NewResolver(bytes32 indexed node, address resolver);\n\n    // Logged when the TTL of a node changes\n    event NewTTL(bytes32 indexed node, uint64 ttl);\n\n\n    function setSubnodeOwner(bytes32 node, bytes32 label, address owner) external;\n    function setResolver(bytes32 node, address resolver) external;\n    function setOwner(bytes32 node, address owner) external;\n    function setTTL(bytes32 node, uint64 ttl) external;\n    function owner(bytes32 node) external view returns (address);\n    function resolver(bytes32 node) external view returns (address);\n    function ttl(bytes32 node) external view returns (uint64);\n\n}\n\n/**\n * A simple resolver anyone can use; only allows the owner of a node to set its\n * address.\n */\ncontract EnsResolver {\n\n    bytes4 constant INTERFACE_META_ID = 0x01ffc9a7;\n    bytes4 constant ADDR_INTERFACE_ID = 0x3b3b57de;\n    bytes4 constant NAME_INTERFACE_ID = 0x691f3431;\n    bytes4 constant ABI_INTERFACE_ID = 0x2203ab56;\n    bytes4 constant PUBKEY_INTERFACE_ID = 0xc8690233;\n    bytes4 constant TEXT_INTERFACE_ID = 0x59d1d43c;\n    bytes4 constant CONTENTHASH_INTERFACE_ID = 0xbc1c58d1;\n\n    event AddrChanged(bytes32 indexed node, address a);\n    event NameChanged(bytes32 indexed node, string name);\n    event ABIChanged(bytes32 indexed node, uint256 indexed contentType);\n    event PubkeyChanged(bytes32 indexed node, bytes32 x, bytes32 y);\n    event TextChanged(bytes32 indexed node, string indexedKey, string key);\n    event ContenthashChanged(bytes32 indexed node, bytes hash);\n\n    struct PublicKey {\n        bytes32 x;\n        bytes32 y;\n    }\n\n    struct Record {\n        address addr;\n        string name;\n        PublicKey pubkey;\n        mapping(string=>string) text;\n        mapping(uint256=>bytes) abis;\n        bytes contenthash;\n    }\n\n    ENS ens;\n\n    mapping (bytes32 => Record) records;\n\n    modifier onlyOwner(bytes32 node) {\n        require(ens.owner(node) == msg.sender);\n        _;\n    }\n\n    /**\n     * Constructor.\n     * @param ensAddr The ENS registrar contract.\n     */\n    constructor(ENS ensAddr) public {\n        ens = ensAddr;\n    }\n\n    /**\n     * Sets the address associated with an ENS node.\n     * May only be called by the owner of that node in the ENS registry.\n     * @param node The node to update.\n     * @param addr The address to set.\n     */\n    function setAddr(bytes32 node, address addr) public onlyOwner(node) {\n        records[node].addr = addr;\n        emit AddrChanged(node, addr);\n    }\n\n    /**\n     * Sets the contenthash associated with an ENS node.\n     * May only be called by the owner of that node in the ENS registry.\n     * @param node The node to update.\n     * @param hash The contenthash to set\n     */\n    function setContenthash(bytes32 node, bytes memory hash) public onlyOwner(node) {\n        records[node].contenthash = hash;\n        emit ContenthashChanged(node, hash);\n    }\n\n    /**\n     * Sets the name associated with an ENS node, for reverse records.\n     * May only be called by the owner of that node in the ENS registry.\n     * @param node The node to update.\n     * @param name The name to set.\n     */\n    function setName(bytes32 node, string memory name) public onlyOwner(node) {\n        records[node].name = name;\n        emit NameChanged(node, name);\n    }\n\n    /**\n     * Sets the ABI associated with an ENS node.\n     * Nodes may have one ABI of each content type. To remove an ABI, set it to\n     * the empty string.\n     * @param node The node to update.\n     * @param contentType The content type of the ABI\n     * @param data The ABI data.\n     */\n    function setABI(bytes32 node, uint256 contentType, bytes memory data) public onlyOwner(node) {\n        // Content types must be powers of 2\n        require(((contentType - 1) & contentType) == 0);\n\n        records[node].abis[contentType] = data;\n        emit ABIChanged(node, contentType);\n    }\n\n    /**\n     * Sets the SECP256k1 public key associated with an ENS node.\n     * @param node The ENS node to query\n     * @param x the X coordinate of the curve point for the public key.\n     * @param y the Y coordinate of the curve point for the public key.\n     */\n    function setPubkey(bytes32 node, bytes32 x, bytes32 y) public onlyOwner(node) {\n        records[node].pubkey = PublicKey(x, y);\n        emit PubkeyChanged(node, x, y);\n    }\n\n    /**\n     * Sets the text data associated with an ENS node and key.\n     * May only be called by the owner of that node in the ENS registry.\n     * @param node The node to update.\n     * @param key The key to set.\n     * @param value The text data value to set.\n     */\n    function setText(bytes32 node, string memory key, string memory value) public onlyOwner(node) {\n        records[node].text[key] = value;\n        emit TextChanged(node, key, key);\n    }\n\n    /**\n     * Returns the text data associated with an ENS node and key.\n     * @param node The ENS node to query.\n     * @param key The text data key to query.\n     * @return The associated text data.\n     */\n    function text(bytes32 node, string memory key) public view returns (string memory) {\n        return records[node].text[key];\n    }\n\n    /**\n     * Returns the SECP256k1 public key associated with an ENS node.\n     * Defined in EIP 619.\n     * @param node The ENS node to query\n     * @return x, y the X and Y coordinates of the curve point for the public key.\n     */\n    function pubkey(bytes32 node) public view returns (bytes32 x, bytes32 y) {\n        return (records[node].pubkey.x, records[node].pubkey.y);\n    }\n\n    /**\n     * Returns the ABI associated with an ENS node.\n     * Defined in EIP205.\n     * @param node The ENS node to query\n     * @param contentTypes A bitwise OR of the ABI formats accepted by the caller.\n     * @return contentType The content type of the return value\n     * @return data The ABI data\n     */\n    function ABI(bytes32 node, uint256 contentTypes) public view returns (uint256 contentType, bytes memory data) {\n        Record storage record = records[node];\n        for (contentType = 1; contentType <= contentTypes; contentType <<= 1) {\n            if ((contentType & contentTypes) != 0 && record.abis[contentType].length > 0) {\n                data = record.abis[contentType];\n                return (contentType, data);\n            }\n        }\n        contentType = 0;\n    }\n\n    /**\n     * Returns the name associated with an ENS node, for reverse records.\n     * Defined in EIP181.\n     * @param node The ENS node to query.\n     * @return The associated name.\n     */\n    function name(bytes32 node) public view returns (string memory) {\n        return records[node].name;\n    }\n\n    /**\n     * Returns the address associated with an ENS node.\n     * @param node The ENS node to query.\n     * @return The associated address.\n     */\n    function addr(bytes32 node) public view returns (address) {\n        return records[node].addr;\n    }\n\n    /**\n     * Returns the contenthash associated with an ENS node.\n     * @param node The ENS node to query.\n     * @return The associated contenthash.\n     */\n    function contenthash(bytes32 node) public view returns (bytes memory) {\n        return records[node].contenthash;\n    }\n\n    /**\n     * Returns true if the resolver implements the interface specified by the provided hash.\n     * @param interfaceID The ID of the interface to check for.\n     * @return True if the contract implements the requested interface.\n     */\n    function supportsInterface(bytes4 interfaceID) public pure returns (bool) {\n        return interfaceID == ADDR_INTERFACE_ID ||\n        interfaceID == NAME_INTERFACE_ID ||\n        interfaceID == ABI_INTERFACE_ID ||\n        interfaceID == PUBKEY_INTERFACE_ID ||\n        interfaceID == TEXT_INTERFACE_ID ||\n        interfaceID == CONTENTHASH_INTERFACE_ID ||\n        interfaceID == INTERFACE_META_ID;\n    }\n}",
  "sourcePath": "/Users/smitrajput/Projects/batchoo/contracts/test/EnsResolver.sol",
  "compiler": {
    "name": "solc",
    "version": "0.5.16+commit.9c3226ce.Emscripten.clang"
  },
  "schemaVersion": "3.1.0",
  "updatedAt": "2020-05-20T12:48:23.548Z",
  "devdoc": {
    "methods": {
      "ABI(bytes32,uint256)": {
        "params": {
          "contentTypes": "A bitwise OR of the ABI formats accepted by the caller.",
          "node": "The ENS node to query"
        },
        "return": "contentType The content type of the return valuedata The ABI data"
      },
      "addr(bytes32)": {
        "params": {
          "node": "The ENS node to query."
        },
        "return": "The associated address."
      },
      "constructor": {
        "params": {
          "ensAddr": "The ENS registrar contract."
        }
      },
      "contenthash(bytes32)": {
        "params": {
          "node": "The ENS node to query."
        },
        "return": "The associated contenthash."
      },
      "name(bytes32)": {
        "params": {
          "node": "The ENS node to query."
        },
        "return": "The associated name."
      },
      "pubkey(bytes32)": {
        "params": {
          "node": "The ENS node to query"
        },
        "return": "x, y the X and Y coordinates of the curve point for the public key."
      },
      "setABI(bytes32,uint256,bytes)": {
        "params": {
          "contentType": "The content type of the ABI",
          "data": "The ABI data.",
          "node": "The node to update."
        }
      },
      "setAddr(bytes32,address)": {
        "params": {
          "addr": "The address to set.",
          "node": "The node to update."
        }
      },
      "setContenthash(bytes32,bytes)": {
        "params": {
          "hash": "The contenthash to set",
          "node": "The node to update."
        }
      },
      "setName(bytes32,string)": {
        "params": {
          "name": "The name to set.",
          "node": "The node to update."
        }
      },
      "setPubkey(bytes32,bytes32,bytes32)": {
        "params": {
          "node": "The ENS node to query",
          "x": "the X coordinate of the curve point for the public key.",
          "y": "the Y coordinate of the curve point for the public key."
        }
      },
      "setText(bytes32,string,string)": {
        "params": {
          "key": "The key to set.",
          "node": "The node to update.",
          "value": "The text data value to set."
        }
      },
      "supportsInterface(bytes4)": {
        "params": {
          "interfaceID": "The ID of the interface to check for."
        },
        "return": "True if the contract implements the requested interface."
      },
      "text(bytes32,string)": {
        "params": {
          "key": "The text data key to query.",
          "node": "The ENS node to query."
        },
        "return": "The associated text data."
      }
    }
  },
  "userdoc": {
    "methods": {
      "ABI(bytes32,uint256)": {
        "notice": "Returns the ABI associated with an ENS node. Defined in EIP205."
      },
      "addr(bytes32)": {
        "notice": "Returns the address associated with an ENS node."
      },
      "constructor": "Constructor.",
      "contenthash(bytes32)": {
        "notice": "Returns the contenthash associated with an ENS node."
      },
      "name(bytes32)": {
        "notice": "Returns the name associated with an ENS node, for reverse records. Defined in EIP181."
      },
      "pubkey(bytes32)": {
        "notice": "Returns the SECP256k1 public key associated with an ENS node. Defined in EIP 619."
      },
      "setABI(bytes32,uint256,bytes)": {
        "notice": "Sets the ABI associated with an ENS node. Nodes may have one ABI of each content type. To remove an ABI, set it to the empty string."
      },
      "setAddr(bytes32,address)": {
        "notice": "Sets the address associated with an ENS node. May only be called by the owner of that node in the ENS registry."
      },
      "setContenthash(bytes32,bytes)": {
        "notice": "Sets the contenthash associated with an ENS node. May only be called by the owner of that node in the ENS registry."
      },
      "setName(bytes32,string)": {
        "notice": "Sets the name associated with an ENS node, for reverse records. May only be called by the owner of that node in the ENS registry."
      },
      "setPubkey(bytes32,bytes32,bytes32)": {
        "notice": "Sets the SECP256k1 public key associated with an ENS node."
      },
      "setText(bytes32,string,string)": {
        "notice": "Sets the text data associated with an ENS node and key. May only be called by the owner of that node in the ENS registry."
      },
      "supportsInterface(bytes4)": {
        "notice": "Returns true if the resolver implements the interface specified by the provided hash."
      },
      "text(bytes32,string)": {
        "notice": "Returns the text data associated with an ENS node and key."
      }
    },
    "notice": "A simple resolver anyone can use; only allows the owner of a node to set its address."
  }
}