{
  "contractName": "ERC1271Account",
  "abi": [
    {
      "anonymous": false,
      "inputs": [
        {
          "indexed": true,
          "internalType": "address",
          "name": "authKey",
          "type": "address"
        }
      ],
      "name": "AuthKeyAdded",
      "type": "event"
    },
    {
      "anonymous": false,
      "inputs": [
        {
          "indexed": true,
          "internalType": "address",
          "name": "authKey",
          "type": "address"
        }
      ],
      "name": "AuthKeyRemoved",
      "type": "event"
    },
    {
      "anonymous": false,
      "inputs": [
        {
          "indexed": false,
          "internalType": "string",
          "name": "reason",
          "type": "string"
        }
      ],
      "name": "CallFailed",
      "type": "event"
    },
    {
      "anonymous": false,
      "inputs": [
        {
          "indexed": true,
          "internalType": "address",
          "name": "implementation",
          "type": "address"
        }
      ],
      "name": "Upgraded",
      "type": "event"
    },
    {
      "payable": true,
      "stateMutability": "payable",
      "type": "fallback"
    },
    {
      "constant": false,
      "inputs": [
        {
          "internalType": "address",
          "name": "_authKey",
          "type": "address"
        }
      ],
      "name": "addAuthKey",
      "outputs": [],
      "payable": false,
      "stateMutability": "nonpayable",
      "type": "function"
    },
    {
      "constant": true,
      "inputs": [
        {
          "internalType": "address",
          "name": "",
          "type": "address"
        }
      ],
      "name": "authKeys",
      "outputs": [
        {
          "internalType": "bool",
          "name": "",
          "type": "bool"
        }
      ],
      "payable": false,
      "stateMutability": "view",
      "type": "function"
    },
    {
      "constant": true,
      "inputs": [],
      "name": "getChainId",
      "outputs": [
        {
          "internalType": "uint256",
          "name": "",
          "type": "uint256"
        }
      ],
      "payable": false,
      "stateMutability": "pure",
      "type": "function"
    },
    {
      "constant": false,
      "inputs": [
        {
          "internalType": "address",
          "name": "_authKey",
          "type": "address"
        }
      ],
      "name": "initializeV1",
      "outputs": [],
      "payable": false,
      "stateMutability": "nonpayable",
      "type": "function"
    },
    {
      "constant": true,
      "inputs": [],
      "name": "lastInitializedVersion",
      "outputs": [
        {
          "internalType": "uint256",
          "name": "",
          "type": "uint256"
        }
      ],
      "payable": false,
      "stateMutability": "view",
      "type": "function"
    },
    {
      "constant": true,
      "inputs": [],
      "name": "nonce",
      "outputs": [
        {
          "internalType": "uint256",
          "name": "",
          "type": "uint256"
        }
      ],
      "payable": false,
      "stateMutability": "view",
      "type": "function"
    },
    {
      "constant": true,
      "inputs": [],
      "name": "numAuthKeys",
      "outputs": [
        {
          "internalType": "uint256",
          "name": "",
          "type": "uint256"
        }
      ],
      "payable": false,
      "stateMutability": "view",
      "type": "function"
    },
    {
      "constant": false,
      "inputs": [
        {
          "internalType": "address",
          "name": "",
          "type": "address"
        },
        {
          "internalType": "address",
          "name": "",
          "type": "address"
        },
        {
          "internalType": "uint256[]",
          "name": "",
          "type": "uint256[]"
        },
        {
          "internalType": "uint256[]",
          "name": "",
          "type": "uint256[]"
        },
        {
          "internalType": "bytes",
          "name": "",
          "type": "bytes"
        }
      ],
      "name": "onERC1155BatchReceived",
      "outputs": [
        {
          "internalType": "bytes4",
          "name": "",
          "type": "bytes4"
        }
      ],
      "payable": false,
      "stateMutability": "nonpayable",
      "type": "function"
    },
    {
      "constant": false,
      "inputs": [
        {
          "internalType": "address",
          "name": "",
          "type": "address"
        },
        {
          "internalType": "address",
          "name": "",
          "type": "address"
        },
        {
          "internalType": "uint256",
          "name": "",
          "type": "uint256"
        },
        {
          "internalType": "uint256",
          "name": "",
          "type": "uint256"
        },
        {
          "internalType": "bytes",
          "name": "",
          "type": "bytes"
        }
      ],
      "name": "onERC1155Received",
      "outputs": [
        {
          "internalType": "bytes4",
          "name": "",
          "type": "bytes4"
        }
      ],
      "payable": false,
      "stateMutability": "nonpayable",
      "type": "function"
    },
    {
      "constant": false,
      "inputs": [
        {
          "internalType": "address",
          "name": "",
          "type": "address"
        },
        {
          "internalType": "address",
          "name": "",
          "type": "address"
        },
        {
          "internalType": "uint256",
          "name": "",
          "type": "uint256"
        },
        {
          "internalType": "bytes",
          "name": "",
          "type": "bytes"
        }
      ],
      "name": "onERC721Received",
      "outputs": [
        {
          "internalType": "bytes4",
          "name": "",
          "type": "bytes4"
        }
      ],
      "payable": false,
      "stateMutability": "nonpayable",
      "type": "function"
    },
    {
      "constant": false,
      "inputs": [
        {
          "internalType": "address",
          "name": "_authKey",
          "type": "address"
        }
      ],
      "name": "removeAuthKey",
      "outputs": [],
      "payable": false,
      "stateMutability": "nonpayable",
      "type": "function"
    },
    {
      "constant": true,
      "inputs": [
        {
          "internalType": "bytes",
          "name": "_data",
          "type": "bytes"
        },
        {
          "internalType": "bytes",
          "name": "_signature",
          "type": "bytes"
        }
      ],
      "name": "isValidSignature",
      "outputs": [
        {
          "internalType": "bytes4",
          "name": "",
          "type": "bytes4"
        }
      ],
      "payable": false,
      "stateMutability": "view",
      "type": "function"
    },
    {
      "constant": true,
      "inputs": [
        {
          "internalType": "bytes",
          "name": "_data",
          "type": "bytes"
        },
        {
          "internalType": "bytes",
          "name": "_signature",
          "type": "bytes"
        }
      ],
      "name": "isValidAuthKeySignature",
      "outputs": [
        {
          "internalType": "bytes4",
          "name": "",
          "type": "bytes4"
        }
      ],
      "payable": false,
      "stateMutability": "view",
      "type": "function"
    },
    {
      "constant": true,
      "inputs": [
        {
          "internalType": "bytes",
          "name": "_data",
          "type": "bytes"
        },
        {
          "internalType": "bytes",
          "name": "_signature",
          "type": "bytes"
        }
      ],
      "name": "isValidLoginKeySignature",
      "outputs": [
        {
          "internalType": "bytes4",
          "name": "",
          "type": "bytes4"
        }
      ],
      "payable": false,
      "stateMutability": "view",
      "type": "function"
    }
  ],
  "bytecode": "0x608060405234801561001057600080fd5b50611c4e806100206000396000f3fe6080604052600436106100dd5760003560e01c80637e7fd66c1161007f578063bc197c8111610059578063bc197c8114610782578063d59e3e9814610944578063ec5e319e14610af5578063f23a6e6114610b20576100dd565b80637e7fd66c146106db5780639565389e14610706578063affed0e014610757576100dd565b806320c13b0b116100bb57806320c13b0b146102e55780633408e4701461049657806340914b06146104c15780635175ca5e14610672576100dd565b806313f8c578146100df578063150b7a02146101305780631b9a9f9e14610294575b005b3480156100eb57600080fd5b5061012e6004803603602081101561010257600080fd5b81019080803573ffffffffffffffffffffffffffffffffffffffff169060200190929190505050610c4c565b005b34801561013c57600080fd5b506102406004803603608081101561015357600080fd5b81019080803573ffffffffffffffffffffffffffffffffffffffff169060200190929190803573ffffffffffffffffffffffffffffffffffffffff16906020019092919080359060200190929190803590602001906401000000008111156101ba57600080fd5b8201836020820111156101cc57600080fd5b803590602001918460018302840111640100000000831117156101ee57600080fd5b91908080601f016020809104026020016040519081016040528093929190818152602001838380828437600081840152601f19601f820116905080830192505050505050509192919290505050610e71565b60405180827bffffffffffffffffffffffffffffffffffffffffffffffffffffffff19167bffffffffffffffffffffffffffffffffffffffffffffffffffffffff1916815260200191505060405180910390f35b3480156102a057600080fd5b506102e3600480360360208110156102b757600080fd5b81019080803573ffffffffffffffffffffffffffffffffffffffff169060200190929190505050610e85565b005b3480156102f157600080fd5b506104426004803603604081101561030857600080fd5b810190808035906020019064010000000081111561032557600080fd5b82018360208201111561033757600080fd5b8035906020019184600183028401116401000000008311171561035957600080fd5b91908080601f016020809104026020016040519081016040528093929190818152602001838380828437600081840152601f19601f820116905080830192505050505050509192919290803590602001906401000000008111156103bc57600080fd5b8201836020820111156103ce57600080fd5b803590602001918460018302840111640100000000831117156103f057600080fd5b91908080601f016020809104026020016040519081016040528093929190818152602001838380828437600081840152601f19601f820116905080830192505050505050509192919290505050610f95565b60405180827bffffffffffffffffffffffffffffffffffffffffffffffffffffffff19167bffffffffffffffffffffffffffffffffffffffffffffffffffffffff1916815260200191505060405180910390f35b3480156104a257600080fd5b506104ab611023565b6040518082815260200191505060405180910390f35b3480156104cd57600080fd5b5061061e600480360360408110156104e457600080fd5b810190808035906020019064010000000081111561050157600080fd5b82018360208201111561051357600080fd5b8035906020019184600183028401116401000000008311171561053557600080fd5b91908080601f016020809104026020016040519081016040528093929190818152602001838380828437600081840152601f19601f8201169050808301925050505050505091929192908035906020019064010000000081111561059857600080fd5b8201836020820111156105aa57600080fd5b803590602001918460018302840111640100000000831117156105cc57600080fd5b91908080601f016020809104026020016040519081016040528093929190818152602001838380828437600081840152601f19601f82011690508083019250505050505050919291929050505061102c565b60405180827bffffffffffffffffffffffffffffffffffffffffffffffffffffffff19167bffffffffffffffffffffffffffffffffffffffffffffffffffffffff1916815260200191505060405180910390f35b34801561067e57600080fd5b506106c16004803603602081101561069557600080fd5b81019080803573ffffffffffffffffffffffffffffffffffffffff1690602001909291905050506110d9565b604051808215151515815260200191505060405180910390f35b3480156106e757600080fd5b506106f06110f9565b6040518082815260200191505060405180910390f35b34801561071257600080fd5b506107556004803603602081101561072957600080fd5b81019080803573ffffffffffffffffffffffffffffffffffffffff1690602001909291905050506110ff565b005b34801561076357600080fd5b5061076c61139d565b6040518082815260200191505060405180910390f35b34801561078e57600080fd5b506108f0600480360360a08110156107a557600080fd5b81019080803573ffffffffffffffffffffffffffffffffffffffff169060200190929190803573ffffffffffffffffffffffffffffffffffffffff1690602001909291908035906020019064010000000081111561080257600080fd5b82018360208201111561081457600080fd5b8035906020019184602083028401116401000000008311171561083657600080fd5b90919293919293908035906020019064010000000081111561085757600080fd5b82018360208201111561086957600080fd5b8035906020019184602083028401116401000000008311171561088b57600080fd5b9091929391929390803590602001906401000000008111156108ac57600080fd5b8201836020820111156108be57600080fd5b803590602001918460018302840111640100000000831117156108e057600080fd5b90919293919293905050506113a3565b60405180827bffffffffffffffffffffffffffffffffffffffffffffffffffffffff19167bffffffffffffffffffffffffffffffffffffffffffffffffffffffff1916815260200191505060405180910390f35b34801561095057600080fd5b50610aa16004803603604081101561096757600080fd5b810190808035906020019064010000000081111561098457600080fd5b82018360208201111561099657600080fd5b803590602001918460018302840111640100000000831117156109b857600080fd5b91908080601f016020809104026020016040519081016040528093929190818152602001838380828437600081840152601f19601f82011690508083019250505050505050919291929080359060200190640100000000811115610a1b57600080fd5b820183602082011115610a2d57600080fd5b80359060200191846001830284011164010000000083111715610a4f57600080fd5b91908080601f016020809104026020016040519081016040528093929190818152602001838380828437600081840152601f19601f8201169050808301925050505050505091929192905050506113bb565b60405180827bffffffffffffffffffffffffffffffffffffffffffffffffffffffff19167bffffffffffffffffffffffffffffffffffffffffffffffffffffffff1916815260200191505060405180910390f35b348015610b0157600080fd5b50610b0a6115ba565b6040518082815260200191505060405180910390f35b348015610b2c57600080fd5b50610bf8600480360360a0811015610b4357600080fd5b81019080803573ffffffffffffffffffffffffffffffffffffffff169060200190929190803573ffffffffffffffffffffffffffffffffffffffff169060200190929190803590602001909291908035906020019092919080359060200190640100000000811115610bb457600080fd5b820183602082011115610bc657600080fd5b80359060200191846001830284011164010000000083111715610be857600080fd5b90919293919293905050506115c0565b60405180827bffffffffffffffffffffffffffffffffffffffffffffffffffffffff19167bffffffffffffffffffffffffffffffffffffffffffffffffffffffff1916815260200191505060405180910390f35b610c55336115d6565b80610c8b57503073ffffffffffffffffffffffffffffffffffffffff163373ffffffffffffffffffffffffffffffffffffffff16145b610cfd576040517f08c379a000000000000000000000000000000000000000000000000000000000815260040180806020018281038252601f8152602001807f42413a2041757468206b6579206f722073656c6620697320696e76616c69640081525060200191505060405180910390fd5b60001515600160008373ffffffffffffffffffffffffffffffffffffffff1673ffffffffffffffffffffffffffffffffffffffff16815260200190815260200160002060009054906101000a900460ff16151514610dc3576040517f08c379a000000000000000000000000000000000000000000000000000000000815260040180806020018281038252601a8152602001807f42413a2041757468206b657920616c726561647920616464656400000000000081525060200191505060405180910390fd5b60018060008373ffffffffffffffffffffffffffffffffffffffff1673ffffffffffffffffffffffffffffffffffffffff16815260200190815260200160002060006101000a81548160ff02191690831515021790555060016003600082825401925050819055508073ffffffffffffffffffffffffffffffffffffffff167fb020719d16d3c4de45a91f9c329aa61d5bad3f44f760840c8d5d82d4cd3bcc3360405160405180910390a250565b600063150b7a0260e01b9050949350505050565b6000805414610edf576040517f08c379a0000000000000000000000000000000000000000000000000000000008152600401808060200182810382526021815260200180611b8b6021913960400191505060405180910390fd5b600160008190555060018060008373ffffffffffffffffffffffffffffffffffffffff1673ffffffffffffffffffffffffffffffffffffffff16815260200190815260200160002060006101000a81548160ff02191690831515021790555060016003600082825401925050819055508073ffffffffffffffffffffffffffffffffffffffff167fb020719d16d3c4de45a91f9c329aa61d5bad3f44f760840c8d5d82d4cd3bcc3360405160405180910390a250565b6000604182511415610fb257610fab838361102c565b905061101d565b6082825110610fcc57610fc583836113bb565b905061101d565b6040517f08c379a0000000000000000000000000000000000000000000000000000000008152600401808060200182810382526033815260200180611bac6033913960400191505060405180910390fd5b92915050565b60006001905090565b60006041825114611088576040517f08c379a000000000000000000000000000000000000000000000000000000000815260040180806020018281038252603a815260200180611b51603a913960400191505060405180910390fd5b60006110a5836110978661162c565b61172b90919063ffffffff16565b905060006110b2826115d6565b6110c35763ffffffff60e01b6110cc565b6320c13b0b60e01b5b9050809250505092915050565b60016020528060005260406000206000915054906101000a900460ff1681565b60005481565b611108336115d6565b8061113e57503073ffffffffffffffffffffffffffffffffffffffff163373ffffffffffffffffffffffffffffffffffffffff16145b6111b0576040517f08c379a000000000000000000000000000000000000000000000000000000000815260040180806020018281038252601f8152602001807f42413a2041757468206b6579206f722073656c6620697320696e76616c69640081525060200191505060405180910390fd5b60011515600160008373ffffffffffffffffffffffffffffffffffffffff1673ffffffffffffffffffffffffffffffffffffffff16815260200190815260200160002060009054906101000a900460ff16151514611276576040517f08c379a000000000000000000000000000000000000000000000000000000000815260040180806020018281038252601a8152602001807f42413a2041757468206b6579206e6f742079657420616464656400000000000081525060200191505060405180910390fd5b6001600354116112ee576040517f08c379a000000000000000000000000000000000000000000000000000000000815260040180806020018281038252601f8152602001807f42413a2043616e6e6f742072656d6f7665206c6173742061757468206b65790081525060200191505060405180910390fd5b6000600160008373ffffffffffffffffffffffffffffffffffffffff1673ffffffffffffffffffffffffffffffffffffffff16815260200190815260200160002060006101000a81548160ff02191690831515021790555060016003600082825403925050819055508073ffffffffffffffffffffffffffffffffffffffff167fbe55f9add9abe657e689a4a84a31854310f260c7e2610bcd22440e3ec3a836a460405160405180910390a250565b60025481565b600063bc197c8160e01b905098975050505050505050565b6000608282511015611418576040517f08c379a000000000000000000000000000000000000000000000000000000000815260040180806020018281038252603b815260200180611bdf603b913960400191505060405180910390fd5b6060611431600060418561182f9092919063ffffffff16565b9050606061144b6041808661182f9092919063ffffffff16565b90506000611464608286516118bb90919063ffffffff16565b9050606061147e6082838861182f9092919063ffffffff16565b9050600061149d8561148f8a61162c565b61172b90919063ffffffff16565b905060006115698284604051602001808373ffffffffffffffffffffffffffffffffffffffff1673ffffffffffffffffffffffffffffffffffffffff16815260200180602001828103825283818151815260200191508051906020019080838360005b8381101561151b578082015181840152602081019050611500565b50505050905090810190601f1680156115485780820380516001836020036101000a031916815260200191505b50935050505060405160208183030381529060405280519060200120611905565b90506000611580868361172b90919063ffffffff16565b9050600061158d826115d6565b61159e5763ffffffff60e01b6115a7565b6320c13b0b60e01b5b9050809850505050505050505092915050565b60035481565b600063f23a6e6160e01b90509695505050505050565b6000600160008373ffffffffffffffffffffffffffffffffffffffff1673ffffffffffffffffffffffffffffffffffffffff16815260200190815260200160002060009054906101000a900460ff169050919050565b6000611638825161195d565b8260405160200180807f19457468657265756d205369676e6564204d6573736167653a0a000000000000815250601a0183805190602001908083835b602083106116975780518252602082019150602081019050602083039250611674565b6001836020036101000a03801982511681845116808217855250505050505090500182805190602001908083835b602083106116e857805182526020820191506020810190506020830392506116c5565b6001836020036101000a03801982511681845116808217855250505050505090500192505050604051602081830303815290604052805190602001209050919050565b6000604182511461173f5760009050611829565b60008060006020850151925060408501519150606085015160001a90507f7fffffffffffffffffffffffffffffff5d576e7357a4501ddfe92f46681b20a08260001c11156117935760009350505050611829565b601b8160ff16141580156117ab5750601c8160ff1614155b156117bc5760009350505050611829565b60018682858560405160008152602001604052604051808581526020018460ff1660ff1681526020018381526020018281526020019450505050506020604051602081039080840390855afa158015611819573d6000803e3d6000fd5b5050506020604051035193505050505b92915050565b60608183018451101561184157600080fd5b606082156000811461185e576040519150602082016040526118af565b6040519150601f8416801560200281840101858101878315602002848b0101015b8183101561189c578051835260208301925060208101905061187f565b50868552601f19601f8301166040525050505b50809150509392505050565b60006118fd83836040518060400160405280601e81526020017f536166654d6174683a207375627472616374696f6e206f766572666c6f770000815250611a90565b905092915050565b60008160405160200180807f19457468657265756d205369676e6564204d6573736167653a0a333200000000815250601c01828152602001915050604051602081830303815290604052805190602001209050919050565b606060008214156119a5576040518060400160405280600181526020017f30000000000000000000000000000000000000000000000000000000000000008152509050611a8b565b6000829050600083905060005b600082146119d4578080600101915050600a82816119cc57fe5b0491506119b2565b6060816040519080825280601f01601f191660200182016040528015611a095781602001600182028038833980820191505090505b50905060006001830390505b60008514611a8257600a8581611a2757fe5b0660300160f81b82828060019003935081518110611a4157fe5b60200101907effffffffffffffffffffffffffffffffffffffffffffffffffffffffffffff1916908160001a905350600a8581611a7a57fe5b049450611a15565b81955050505050505b919050565b6000838311158290611b3d576040517f08c379a00000000000000000000000000000000000000000000000000000000081526004018080602001828103825283818151815260200191508051906020019080838360005b83811015611b02578082015181840152602081019050611ae7565b50505050905090810190601f168015611b2f5780820380516001836020036101000a031916815260200191505b509250505060405180910390fd5b506000838503905080915050939250505056fe455243313237313a20496e76616c696420697356616c6964417574684b65795369676e6174757265205f7369676e6174757265206c656e67746841493a20496d70726f70657220696e697469616c697a6174696f6e206f72646572455243313237313a20496e76616c696420697356616c69645369676e6174757265205f7369676e6174757265206c656e677468455243313237313a20496e76616c696420697356616c69644c6f67696e4b65795369676e6174757265205f7369676e6174757265206c656e677468a265627a7a72315820ce5af5c12ac8fedb71371787001b38c44593749e721a6999ce40495fdd7f8a9664736f6c63430005100032",
  "source": "pragma solidity 0.5.16;\n\nimport \"./BaseAccount.sol\";\nimport \"../interfaces/IERC1271.sol\";\n\n/**\n * @title ERC1271Account\n * @author Authereum Labs, Inc.\n * @dev Implements isValidSignature for ERC1271 compatibility\n */\n\ncontract ERC1271Account is IERC1271, BaseAccount {\n\n    // NOTE: Valid magic value bytes4(keccak256(\"isValidSignature(bytes,bytes)\")\n    bytes4 constant private VALID_SIG = 0x20c13b0b;\n    // NOTE: Invalid magic value\n    bytes4 constant private INVALID_SIG = 0xffffffff;\n\n    /**\n     *  Public functions\n     */\n\n    /// @dev Check if a message and signature pair is valid\n    /// @notice The _signature parameter can either be one auth key signature or it can\n    /// @notice be a login key signature and an auth key signature (signed login key)\n    /// @param _data Data that was signed\n    /// @param _signature Signature(s) of the data. Either a single signature (login) or two (login and auth)\n    /// @return VALID_SIG or INVALID_SIG hex data\n    function isValidSignature(\n        bytes memory _data,\n        bytes memory _signature\n    )\n        public\n        view\n        returns (bytes4)\n    {\n        if (_signature.length == 65) {\n            return isValidAuthKeySignature(_data, _signature);\n        } else if (_signature.length >= 130) {\n            return isValidLoginKeySignature(_data, _signature);\n        } else {\n            revert(\"ERC1271: Invalid isValidSignature _signature length\");\n        }\n    }\n\n    /// @dev Check if a message and auth key signature pair is valid\n    /// @param _data Data that was signed\n    /// @param _signature Signature of the data signed by the authkey\n    /// @return VALID_SIG or INVALID_SIG hex data\n    function isValidAuthKeySignature(\n        bytes memory _data,\n        bytes memory _signature\n    )\n        public\n        view\n        returns (bytes4)\n    {\n        require(_signature.length == 65, \"ERC1271: Invalid isValidAuthKeySignature _signature length\");\n\n        address authKeyAddress = _getEthSignedMessageHash(_data).recover(\n            _signature\n        );\n\n        bytes4 magicValue = _isValidAuthKey(authKeyAddress) ? VALID_SIG : INVALID_SIG;\n        return magicValue;\n    }\n\n    /// @dev Check if a message and login key signature pair is valid, as well as a signed login key by an auth key\n    /// @param _data Message that was signed\n    /// @param _signature Signature of the data. Signed msg data by the login key and signed login key by auth key\n    /// @return VALID_SIG or INVALID_SIG hex data\n    function isValidLoginKeySignature(\n        bytes memory _data,\n        bytes memory _signature\n    )\n        public\n        view\n        returns (bytes4)\n    {\n        require(_signature.length >= 130, \"ERC1271: Invalid isValidLoginKeySignature _signature length\");\n\n        bytes memory msgHashSignature = _signature.slice(0, 65);\n        bytes memory loginKeyAttestationSignature = _signature.slice(65, 65);\n        uint256 restrictionDataLength = _signature.length.sub(130);\n        bytes memory loginKeyRestrictionData = _signature.slice(130, restrictionDataLength);\n\n        address _loginKeyAddress = _getEthSignedMessageHash(_data).recover(\n            msgHashSignature\n        );\n\n        // NOTE: The OpenZeppelin toEthSignedMessageHash is used here (and not above)\n        // NOTE: because the length is hard coded at 32 and we know that this will always\n        // NOTE: be true for this line.\n        bytes32 loginKeyAttestationMessageHash = keccak256(abi.encode(\n            _loginKeyAddress, loginKeyRestrictionData\n        )).toEthSignedMessageHash();\n\n        address _authKeyAddress = loginKeyAttestationMessageHash.recover(\n            loginKeyAttestationSignature\n        );\n\n        bytes4 magicValue = _isValidAuthKey(_authKeyAddress) ? VALID_SIG : INVALID_SIG;\n        return magicValue;\n    }\n\n    /**\n     *  Internal functions\n     */\n\n    /// @dev Adds ETH signed message prefix to bytes message and hashes it\n    /// @param _data Bytes data before adding the prefix\n    /// @return Prefixed and hashed message\n    function _getEthSignedMessageHash(bytes memory _data) internal pure returns (bytes32) {\n        return keccak256(abi.encodePacked(\"\\x19Ethereum Signed Message:\\n\", _uint2str(_data.length), _data));\n    }\n\n    /// @dev Convert uint to string\n    /// @param _num Uint to be converted\n    /// @return String equivalent of the uint\n    function _uint2str(uint _num) private pure returns (string memory _uintAsString) {\n        if (_num == 0) {\n            return \"0\";\n        }\n        uint i = _num;\n        uint j = _num;\n        uint len;\n        while (j != 0) {\n            len++;\n            j /= 10;\n        }\n        bytes memory bstr = new bytes(len);\n        uint k = len - 1;\n        while (i != 0) {\n            bstr[k--] = byte(uint8(48 + i % 10));\n            i /= 10;\n        }\n        return string(bstr);\n    }\n}",
  "sourcePath": "/Users/smitrajput/Projects/batchoo/contracts/account/ERC1271Account.sol",
  "compiler": {
    "name": "solc",
    "version": "0.5.16+commit.9c3226ce.Emscripten.clang"
  },
  "schemaVersion": "3.1.0",
  "updatedAt": "2020-05-20T12:48:46.048Z",
  "devdoc": {
    "author": "Authereum Labs, Inc.",
    "details": "Implements isValidSignature for ERC1271 compatibility",
    "methods": {
      "addAuthKey(address)": {
        "details": "Add an auth key to the list of auth keys",
        "params": {
          "_authKey": "Address of the auth key to add"
        }
      },
      "getChainId()": {
        "details": "Get the chain ID constant",
        "return": "The chain id"
      },
      "initializeV1(address)": {
        "details": "Initialize the Authereum Account",
        "params": {
          "_authKey": "authKey that will own this account"
        }
      },
      "isValidAuthKeySignature(bytes,bytes)": {
        "details": "Check if a message and auth key signature pair is valid",
        "params": {
          "_data": "Data that was signed",
          "_signature": "Signature of the data signed by the authkey"
        },
        "return": "VALID_SIG or INVALID_SIG hex data"
      },
      "isValidLoginKeySignature(bytes,bytes)": {
        "details": "Check if a message and login key signature pair is valid, as well as a signed login key by an auth key",
        "params": {
          "_data": "Message that was signed",
          "_signature": "Signature of the data. Signed msg data by the login key and signed login key by auth key"
        },
        "return": "VALID_SIG or INVALID_SIG hex data"
      },
      "isValidSignature(bytes,bytes)": {
        "details": "Check if a message and signature pair is valid",
        "params": {
          "_data": "Data that was signed",
          "_signature": "Signature(s) of the data. Either a single signature (login) or two (login and auth)"
        },
        "return": "VALID_SIG or INVALID_SIG hex data"
      },
      "onERC1155BatchReceived(address,address,uint256[],uint256[],bytes)": {
        "details": "An ERC1155-compliant smart contract MUST call this function on the token recipient contract, at the end of a `safeBatchTransferFrom` after the balances have been updated. This function MUST return `bytes4(keccak256(\"onERC1155BatchReceived(address,address,uint256[],uint256[],bytes)\"))` (i.e. 0xbc197c81) if it accepts the transfer(s). This function MUST revert if it rejects the transfer(s). Return of any other value than the prescribed keccak256 generated value MUST result in the transaction being reverted by the caller. param _operator  The address which initiated the batch transfer (i.e. msg.sender) param _from      The address which previously owned the token param _ids       An array containing ids of each token being transferred (order and length must match _values array) param _values    An array containing amounts of each token being transferred (order and length must match _ids array) param _data      Additional data with no specified format",
        "return": "`bytes4(keccak256(\"onERC1155BatchReceived(address,address,uint256[],uint256[],bytes)\"))`"
      },
      "onERC721Received(address,address,uint256,bytes)": {
        "details": "The ERC721 smart contract calls this function on the recipient after a {IERC721-safeTransferFrom}. This function MUST return the function selector, otherwise the caller will revert the transaction. The selector to be returned can be obtained as `this.onERC721Received.selector`. This function MAY throw to revert and reject the transfer. Note: the ERC721 contract address is always the message sender. param operator The address which called `safeTransferFrom` function param from The address which previously owned the token param tokenId The NFT identifier which is being transferred param data Additional data with no specified format",
        "return": "bytes4 `bytes4(keccak256(\"onERC721Received(address,address,uint256,bytes)\"))`"
      },
      "removeAuthKey(address)": {
        "details": "Remove an auth key from the list of auth keys",
        "params": {
          "_authKey": "Address of the auth key to remove"
        }
      }
    },
    "title": "ERC1271Account"
  },
  "userdoc": {
    "methods": {
      "isValidSignature(bytes,bytes)": {
        "notice": "The _signature parameter can either be one auth key signature or it canbe a login key signature and an auth key signature (signed login key)"
      },
      "onERC1155BatchReceived(address,address,uint256[],uint256[],bytes)": {
        "notice": "Handle the receipt of multiple ERC1155 token types."
      },
      "onERC1155Received(address,address,uint256,uint256,bytes)": {
        "notice": "ERC1155"
      },
      "onERC721Received(address,address,uint256,bytes)": {
        "notice": "Handle the receipt of an NFT"
      }
    }
  }
}