{
  "contractName": "HashRegistrar",
  "abi": [
    {
      "inputs": [
        {
          "internalType": "contract ENS",
          "name": "_ens",
          "type": "address"
        },
        {
          "internalType": "bytes32",
          "name": "_rootNode",
          "type": "bytes32"
        },
        {
          "internalType": "uint256",
          "name": "_startDate",
          "type": "uint256"
        }
      ],
      "payable": false,
      "stateMutability": "nonpayable",
      "type": "constructor"
    },
    {
      "anonymous": false,
      "inputs": [
        {
          "indexed": true,
          "internalType": "bytes32",
          "name": "hash",
          "type": "bytes32"
        },
        {
          "indexed": false,
          "internalType": "uint256",
          "name": "registrationDate",
          "type": "uint256"
        }
      ],
      "name": "AuctionStarted",
      "type": "event"
    },
    {
      "anonymous": false,
      "inputs": [
        {
          "indexed": true,
          "internalType": "bytes32",
          "name": "hash",
          "type": "bytes32"
        },
        {
          "indexed": true,
          "internalType": "address",
          "name": "owner",
          "type": "address"
        },
        {
          "indexed": false,
          "internalType": "uint256",
          "name": "value",
          "type": "uint256"
        },
        {
          "indexed": false,
          "internalType": "uint8",
          "name": "status",
          "type": "uint8"
        }
      ],
      "name": "BidRevealed",
      "type": "event"
    },
    {
      "anonymous": false,
      "inputs": [
        {
          "indexed": true,
          "internalType": "bytes32",
          "name": "hash",
          "type": "bytes32"
        },
        {
          "indexed": true,
          "internalType": "string",
          "name": "name",
          "type": "string"
        },
        {
          "indexed": false,
          "internalType": "uint256",
          "name": "value",
          "type": "uint256"
        },
        {
          "indexed": false,
          "internalType": "uint256",
          "name": "registrationDate",
          "type": "uint256"
        }
      ],
      "name": "HashInvalidated",
      "type": "event"
    },
    {
      "anonymous": false,
      "inputs": [
        {
          "indexed": true,
          "internalType": "bytes32",
          "name": "hash",
          "type": "bytes32"
        },
        {
          "indexed": true,
          "internalType": "address",
          "name": "owner",
          "type": "address"
        },
        {
          "indexed": false,
          "internalType": "uint256",
          "name": "value",
          "type": "uint256"
        },
        {
          "indexed": false,
          "internalType": "uint256",
          "name": "registrationDate",
          "type": "uint256"
        }
      ],
      "name": "HashRegistered",
      "type": "event"
    },
    {
      "anonymous": false,
      "inputs": [
        {
          "indexed": true,
          "internalType": "bytes32",
          "name": "hash",
          "type": "bytes32"
        },
        {
          "indexed": false,
          "internalType": "uint256",
          "name": "value",
          "type": "uint256"
        }
      ],
      "name": "HashReleased",
      "type": "event"
    },
    {
      "anonymous": false,
      "inputs": [
        {
          "indexed": true,
          "internalType": "bytes32",
          "name": "hash",
          "type": "bytes32"
        },
        {
          "indexed": true,
          "internalType": "address",
          "name": "bidder",
          "type": "address"
        },
        {
          "indexed": false,
          "internalType": "uint256",
          "name": "deposit",
          "type": "uint256"
        }
      ],
      "name": "NewBid",
      "type": "event"
    },
    {
      "constant": true,
      "inputs": [],
      "name": "ens",
      "outputs": [
        {
          "internalType": "contract ENS",
          "name": "",
          "type": "address"
        }
      ],
      "payable": false,
      "stateMutability": "view",
      "type": "function"
    },
    {
      "constant": true,
      "inputs": [],
      "name": "launchLength",
      "outputs": [
        {
          "internalType": "uint32",
          "name": "",
          "type": "uint32"
        }
      ],
      "payable": false,
      "stateMutability": "view",
      "type": "function"
    },
    {
      "constant": true,
      "inputs": [],
      "name": "registryStarted",
      "outputs": [
        {
          "internalType": "uint256",
          "name": "",
          "type": "uint256"
        }
      ],
      "payable": false,
      "stateMutability": "view",
      "type": "function"
    },
    {
      "constant": true,
      "inputs": [],
      "name": "rootNode",
      "outputs": [
        {
          "internalType": "bytes32",
          "name": "",
          "type": "bytes32"
        }
      ],
      "payable": false,
      "stateMutability": "view",
      "type": "function"
    },
    {
      "constant": true,
      "inputs": [
        {
          "internalType": "address",
          "name": "",
          "type": "address"
        },
        {
          "internalType": "bytes32",
          "name": "",
          "type": "bytes32"
        }
      ],
      "name": "sealedBids",
      "outputs": [
        {
          "internalType": "contract Deed",
          "name": "",
          "type": "address"
        }
      ],
      "payable": false,
      "stateMutability": "view",
      "type": "function"
    },
    {
      "constant": false,
      "inputs": [
        {
          "internalType": "bytes32",
          "name": "_hash",
          "type": "bytes32"
        }
      ],
      "name": "startAuction",
      "outputs": [],
      "payable": false,
      "stateMutability": "nonpayable",
      "type": "function"
    },
    {
      "constant": false,
      "inputs": [
        {
          "internalType": "bytes32[]",
          "name": "_hashes",
          "type": "bytes32[]"
        }
      ],
      "name": "startAuctions",
      "outputs": [],
      "payable": false,
      "stateMutability": "nonpayable",
      "type": "function"
    },
    {
      "constant": false,
      "inputs": [
        {
          "internalType": "bytes32",
          "name": "sealedBid",
          "type": "bytes32"
        }
      ],
      "name": "newBid",
      "outputs": [],
      "payable": true,
      "stateMutability": "payable",
      "type": "function"
    },
    {
      "constant": false,
      "inputs": [
        {
          "internalType": "bytes32[]",
          "name": "hashes",
          "type": "bytes32[]"
        },
        {
          "internalType": "bytes32",
          "name": "sealedBid",
          "type": "bytes32"
        }
      ],
      "name": "startAuctionsAndBid",
      "outputs": [],
      "payable": true,
      "stateMutability": "payable",
      "type": "function"
    },
    {
      "constant": false,
      "inputs": [
        {
          "internalType": "bytes32",
          "name": "_hash",
          "type": "bytes32"
        },
        {
          "internalType": "uint256",
          "name": "_value",
          "type": "uint256"
        },
        {
          "internalType": "bytes32",
          "name": "_salt",
          "type": "bytes32"
        }
      ],
      "name": "unsealBid",
      "outputs": [],
      "payable": false,
      "stateMutability": "nonpayable",
      "type": "function"
    },
    {
      "constant": false,
      "inputs": [
        {
          "internalType": "address",
          "name": "bidder",
          "type": "address"
        },
        {
          "internalType": "bytes32",
          "name": "seal",
          "type": "bytes32"
        }
      ],
      "name": "cancelBid",
      "outputs": [],
      "payable": false,
      "stateMutability": "nonpayable",
      "type": "function"
    },
    {
      "constant": false,
      "inputs": [
        {
          "internalType": "bytes32",
          "name": "_hash",
          "type": "bytes32"
        }
      ],
      "name": "finalizeAuction",
      "outputs": [],
      "payable": false,
      "stateMutability": "nonpayable",
      "type": "function"
    },
    {
      "constant": false,
      "inputs": [
        {
          "internalType": "bytes32",
          "name": "_hash",
          "type": "bytes32"
        },
        {
          "internalType": "address payable",
          "name": "newOwner",
          "type": "address"
        }
      ],
      "name": "transfer",
      "outputs": [],
      "payable": false,
      "stateMutability": "nonpayable",
      "type": "function"
    },
    {
      "constant": false,
      "inputs": [
        {
          "internalType": "bytes32",
          "name": "_hash",
          "type": "bytes32"
        }
      ],
      "name": "releaseDeed",
      "outputs": [],
      "payable": false,
      "stateMutability": "nonpayable",
      "type": "function"
    },
    {
      "constant": false,
      "inputs": [
        {
          "internalType": "string",
          "name": "unhashedName",
          "type": "string"
        }
      ],
      "name": "invalidateName",
      "outputs": [],
      "payable": false,
      "stateMutability": "nonpayable",
      "type": "function"
    },
    {
      "constant": false,
      "inputs": [
        {
          "internalType": "bytes32[]",
          "name": "labels",
          "type": "bytes32[]"
        }
      ],
      "name": "eraseNode",
      "outputs": [],
      "payable": false,
      "stateMutability": "nonpayable",
      "type": "function"
    },
    {
      "constant": false,
      "inputs": [
        {
          "internalType": "bytes32",
          "name": "_hash",
          "type": "bytes32"
        }
      ],
      "name": "transferRegistrars",
      "outputs": [],
      "payable": false,
      "stateMutability": "nonpayable",
      "type": "function"
    },
    {
      "constant": false,
      "inputs": [
        {
          "internalType": "bytes32",
          "name": "hash",
          "type": "bytes32"
        },
        {
          "internalType": "contract Deed",
          "name": "deed",
          "type": "address"
        },
        {
          "internalType": "uint256",
          "name": "registrationDate",
          "type": "uint256"
        }
      ],
      "name": "acceptRegistrarTransfer",
      "outputs": [],
      "payable": false,
      "stateMutability": "nonpayable",
      "type": "function"
    },
    {
      "constant": true,
      "inputs": [
        {
          "internalType": "bytes32",
          "name": "_hash",
          "type": "bytes32"
        }
      ],
      "name": "entries",
      "outputs": [
        {
          "internalType": "enum Registrar.Mode",
          "name": "",
          "type": "uint8"
        },
        {
          "internalType": "address",
          "name": "",
          "type": "address"
        },
        {
          "internalType": "uint256",
          "name": "",
          "type": "uint256"
        },
        {
          "internalType": "uint256",
          "name": "",
          "type": "uint256"
        },
        {
          "internalType": "uint256",
          "name": "",
          "type": "uint256"
        }
      ],
      "payable": false,
      "stateMutability": "view",
      "type": "function"
    },
    {
      "constant": true,
      "inputs": [
        {
          "internalType": "bytes32",
          "name": "_hash",
          "type": "bytes32"
        }
      ],
      "name": "state",
      "outputs": [
        {
          "internalType": "enum Registrar.Mode",
          "name": "",
          "type": "uint8"
        }
      ],
      "payable": false,
      "stateMutability": "view",
      "type": "function"
    },
    {
      "constant": true,
      "inputs": [
        {
          "internalType": "bytes32",
          "name": "_hash",
          "type": "bytes32"
        },
        {
          "internalType": "uint256",
          "name": "_timestamp",
          "type": "uint256"
        }
      ],
      "name": "isAllowed",
      "outputs": [
        {
          "internalType": "bool",
          "name": "allowed",
          "type": "bool"
        }
      ],
      "payable": false,
      "stateMutability": "view",
      "type": "function"
    },
    {
      "constant": true,
      "inputs": [
        {
          "internalType": "bytes32",
          "name": "_hash",
          "type": "bytes32"
        }
      ],
      "name": "getAllowedTime",
      "outputs": [
        {
          "internalType": "uint256",
          "name": "",
          "type": "uint256"
        }
      ],
      "payable": false,
      "stateMutability": "view",
      "type": "function"
    },
    {
      "constant": true,
      "inputs": [
        {
          "internalType": "bytes32",
          "name": "hash",
          "type": "bytes32"
        },
        {
          "internalType": "address",
          "name": "owner",
          "type": "address"
        },
        {
          "internalType": "uint256",
          "name": "value",
          "type": "uint256"
        },
        {
          "internalType": "bytes32",
          "name": "salt",
          "type": "bytes32"
        }
      ],
      "name": "shaBid",
      "outputs": [
        {
          "internalType": "bytes32",
          "name": "",
          "type": "bytes32"
        }
      ],
      "payable": false,
      "stateMutability": "pure",
      "type": "function"
    }
  ],
  "bytecode": "0x60806040523480156200001157600080fd5b506040516200416138038062004161833981810160405260608110156200003757600080fd5b81019080805190602001909291908051906020019092919080519060200190929190505050826000806101000a81548173ffffffffffffffffffffffffffffffffffffffff021916908373ffffffffffffffffffffffffffffffffffffffff1602179055508160018190555060008111620000b35742620000b5565b805b60048190555050505061409380620000ce6000396000f3fe6080604052600436106101405760003560e01c806379ce9fac116100b6578063de10f04b1161006f578063de10f04b14610734578063e27fe50f146107ba578063ea9e107a14610840578063ede8acdb146108a5578063faff50a8146108e0578063febefd611461090b57610140565b806379ce9fac146105b1578063935033371461060c578063983b94fb146106695780639c67f06f146106a4578063ae1a0b0c146106cf578063ce92dced1461070657610140565b8063267b692211610108578063267b6922146103335780633f15457f146103d857806347872b421461042f5780635ddae2831461047e5780635e431709146104b957806361d585da1461055457610140565b80630230a07c1461014557806313c89a8f1461018057806315f73331146101cf57806322ec1244146102555780632525f5c1146102d8575b600080fd5b34801561015157600080fd5b5061017e6004803603602081101561016857600080fd5b810190808035906020019092919050505061098e565b005b34801561018c57600080fd5b506101b9600480360360208110156101a357600080fd5b8101908080359060200190929190505050610cf3565b6040518082815260200191505060405180910390f35b3480156101db57600080fd5b50610253600480360360208110156101f257600080fd5b810190808035906020019064010000000081111561020f57600080fd5b82018360208201111561022157600080fd5b8035906020019184600183028401116401000000008311171561024357600080fd5b9091929391929390505050610d16565b005b34801561026157600080fd5b506102c26004803603608081101561027857600080fd5b8101908080359060200190929190803573ffffffffffffffffffffffffffffffffffffffff1690602001909291908035906020019092919080359060200190929190505050611199565b6040518082815260200191505060405180910390f35b3480156102e457600080fd5b50610331600480360360408110156102fb57600080fd5b81019080803573ffffffffffffffffffffffffffffffffffffffff16906020019092919080359060200190929190505050611213565b005b34801561033f57600080fd5b5061036c6004803603602081101561035657600080fd5b8101908080359060200190929190505050611552565b6040518086600581111561037c57fe5b60ff1681526020018573ffffffffffffffffffffffffffffffffffffffff1673ffffffffffffffffffffffffffffffffffffffff1681526020018481526020018381526020018281526020019550505050505060405180910390f35b3480156103e457600080fd5b506103ed6115c1565b604051808273ffffffffffffffffffffffffffffffffffffffff1673ffffffffffffffffffffffffffffffffffffffff16815260200191505060405180910390f35b34801561043b57600080fd5b5061047c6004803603606081101561045257600080fd5b810190808035906020019092919080359060200190929190803590602001909291905050506115e6565b005b34801561048a57600080fd5b506104b7600480360360208110156104a157600080fd5b8101908080359060200190929190505050611e4f565b005b3480156104c557600080fd5b50610512600480360360408110156104dc57600080fd5b81019080803573ffffffffffffffffffffffffffffffffffffffff1690602001909291908035906020019092919050505061225d565b604051808273ffffffffffffffffffffffffffffffffffffffff1673ffffffffffffffffffffffffffffffffffffffff16815260200191505060405180910390f35b34801561056057600080fd5b5061058d6004803603602081101561057757600080fd5b810190808035906020019092919050505061229f565b6040518082600581111561059d57fe5b60ff16815260200191505060405180910390f35b3480156105bd57600080fd5b5061060a600480360360408110156105d457600080fd5b8101908080359060200190929190803573ffffffffffffffffffffffffffffffffffffffff169060200190929190505050612328565b005b34801561061857600080fd5b5061064f6004803603604081101561062f57600080fd5b81019080803590602001909291908035906020019092919050505061255d565b604051808215151515815260200191505060405180910390f35b34801561067557600080fd5b506106a26004803603602081101561068c57600080fd5b8101908080359060200190929190505050612572565b005b3480156106b057600080fd5b506106b9612915565b6040518082815260200191505060405180910390f35b3480156106db57600080fd5b506106e461291b565b604051808263ffffffff1663ffffffff16815260200191505060405180910390f35b6107326004803603602081101561071c57600080fd5b8101908080359060200190929190505050612922565b005b34801561074057600080fd5b506107b86004803603602081101561075757600080fd5b810190808035906020019064010000000081111561077457600080fd5b82018360208201111561078657600080fd5b803590602001918460208302840111640100000000831117156107a857600080fd5b909192939192939050505061292e565b005b3480156107c657600080fd5b5061083e600480360360208110156107dd57600080fd5b81019080803590602001906401000000008111156107fa57600080fd5b82018360208201111561080c57600080fd5b8035906020019184602083028401116401000000008311171561082e57600080fd5b90919293919293905050506129db565b005b34801561084c57600080fd5b506108a36004803603606081101561086357600080fd5b8101908080359060200190929190803573ffffffffffffffffffffffffffffffffffffffff16906020019092919080359060200190929190505050612a29565b005b3480156108b157600080fd5b506108de600480360360208110156108c857600080fd5b8101908080359060200190929190505050612a2e565b005b3480156108ec57600080fd5b506108f5612a3a565b6040518082815260200191505060405180910390f35b61098c6004803603604081101561092157600080fd5b810190808035906020019064010000000081111561093e57600080fd5b82018360208201111561095057600080fd5b8035906020019184602083028401116401000000008311171561097257600080fd5b909192939192939080359060200190929190505050612a40565b005b806002600581111561099c57fe5b6109a58261229f565b60058111156109b057fe5b148015610a9e57506002600082815260200190815260200160002060000160009054906101000a900473ffffffffffffffffffffffffffffffffffffffff1673ffffffffffffffffffffffffffffffffffffffff16638da5cb5b6040518163ffffffff1660e01b815260040160206040518083038186803b158015610a3457600080fd5b505afa158015610a48573d6000803e3d6000fd5b505050506040513d6020811015610a5e57600080fd5b810190808051906020019092919050505073ffffffffffffffffffffffffffffffffffffffff163373ffffffffffffffffffffffffffffffffffffffff16145b610aa757600080fd5b600060026000848152602001908152602001600020905060008160000160009054906101000a900473ffffffffffffffffffffffffffffffffffffffff1690506301e1338082600101540142101580610bda57503073ffffffffffffffffffffffffffffffffffffffff166000809054906101000a900473ffffffffffffffffffffffffffffffffffffffff1673ffffffffffffffffffffffffffffffffffffffff166302571be36001546040518263ffffffff1660e01b81526004018082815260200191505060206040518083038186803b158015610b8657600080fd5b505afa158015610b9a573d6000803e3d6000fd5b505050506040513d6020811015610bb057600080fd5b810190808051906020019092919050505073ffffffffffffffffffffffffffffffffffffffff1614155b610be357600080fd5b600082600201819055506000826003018190555060008260000160006101000a81548173ffffffffffffffffffffffffffffffffffffffff021916908373ffffffffffffffffffffffffffffffffffffffff160217905550610c4484612a98565b8073ffffffffffffffffffffffffffffffffffffffff1663bbe427716103e86040518263ffffffff1660e01b815260040180828152602001915050600060405180830381600087803b158015610c9957600080fd5b505af1158015610cad573d6000803e3d6000fd5b50505050837f292b79b9246fa2c8e77d3fe195b251f9cb839d7d038e667c069ee7708c631e1683600201546040518082815260200191505060405180910390a250505050565b60006080808360001c901c6249d40063ffffffff1602901c600454019050919050565b818160405160200180806020018281038252848482818152602001925080828437600081840152601f19601f8201169050808301925050509350505050604051602081830303815290604052805190602001206002806005811115610d7757fe5b610d808361229f565b6005811115610d8b57fe5b14610d9557600080fd5b6006610de485858080601f016020809104026020016040519081016040528093929190818152602001838380828437600081840152601f19601f82011690508083019250505050505050612e00565b1115610def57600080fd5b6000848460405160200180806020018281038252848482818152602001925080828437600081840152601f19601f82011690508083019250505093505050506040516020818303038152906040528051906020012090506000600260008381526020019081526020016000209050610e6682612a98565b600073ffffffffffffffffffffffffffffffffffffffff168160000160009054906101000a900473ffffffffffffffffffffffffffffffffffffffff1673ffffffffffffffffffffffffffffffffffffffff16146110d257610ed38160020154662386f26fc10000612ebe565b81600201819055508060000160009054906101000a900473ffffffffffffffffffffffffffffffffffffffff1673ffffffffffffffffffffffffffffffffffffffff1663b0c809726002836002015481610f2957fe5b0460006040518363ffffffff1660e01b8152600401808381526020018215151515815260200192505050600060405180830381600087803b158015610f6d57600080fd5b505af1158015610f81573d6000803e3d6000fd5b505050508060000160009054906101000a900473ffffffffffffffffffffffffffffffffffffffff1673ffffffffffffffffffffffffffffffffffffffff166313af4035336040518263ffffffff1660e01b8152600401808273ffffffffffffffffffffffffffffffffffffffff1673ffffffffffffffffffffffffffffffffffffffff168152602001915050600060405180830381600087803b15801561102857600080fd5b505af115801561103c573d6000803e3d6000fd5b505050508060000160009054906101000a900473ffffffffffffffffffffffffffffffffffffffff1673ffffffffffffffffffffffffffffffffffffffff1663bbe427716103e86040518263ffffffff1660e01b815260040180828152602001915050600060405180830381600087803b1580156110b957600080fd5b505af11580156110cd573d6000803e3d6000fd5b505050505b85856040518083838082843780830192505050925050506040518091039020827f1f9c649fe47e58bb60f4e52f0d90e4c47a526c9f90c5113df842c025970b66ad83600201548460010154604051808381526020018281526020019250505060405180910390a3600081600201819055506000816003018190555060008160000160006101000a81548173ffffffffffffffffffffffffffffffffffffffff021916908373ffffffffffffffffffffffffffffffffffffffff160217905550505050505050565b600084848484604051602001808581526020018473ffffffffffffffffffffffffffffffffffffffff1673ffffffffffffffffffffffffffffffffffffffff1660601b8152601401838152602001828152602001945050505050604051602081830303815290604052805190602001209050949350505050565b6000600360008473ffffffffffffffffffffffffffffffffffffffff1673ffffffffffffffffffffffffffffffffffffffff168152602001908152602001600020600083815260200190815260200160002060009054906101000a900473ffffffffffffffffffffffffffffffffffffffff169050600073ffffffffffffffffffffffffffffffffffffffff168173ffffffffffffffffffffffffffffffffffffffff16141580156113555750621275006206978063ffffffff168273ffffffffffffffffffffffffffffffffffffffff166305b344106040518163ffffffff1660e01b815260040160206040518083038186803b15801561131457600080fd5b505afa158015611328573d6000803e3d6000fd5b505050506040513d602081101561133e57600080fd5b810190808051906020019092919050505001014210155b61135e57600080fd5b8073ffffffffffffffffffffffffffffffffffffffff166313af4035336040518263ffffffff1660e01b8152600401808273ffffffffffffffffffffffffffffffffffffffff1673ffffffffffffffffffffffffffffffffffffffff168152602001915050600060405180830381600087803b1580156113dd57600080fd5b505af11580156113f1573d6000803e3d6000fd5b505050508073ffffffffffffffffffffffffffffffffffffffff1663bbe4277160056040518263ffffffff1660e01b815260040180828152602001915050600060405180830381600087803b15801561144957600080fd5b505af115801561145d573d6000803e3d6000fd5b505050506000600360008573ffffffffffffffffffffffffffffffffffffffff1673ffffffffffffffffffffffffffffffffffffffff168152602001908152602001600020600084815260200190815260200160002060006101000a81548173ffffffffffffffffffffffffffffffffffffffff021916908373ffffffffffffffffffffffffffffffffffffffff1602179055508273ffffffffffffffffffffffffffffffffffffffff16827f7b6c4b278d165a6b33958f8ea5dfb00c8c9d4d0acf1985bef5d10786898bc3e760006005604051808381526020018260ff1681526020019250505060405180910390a3505050565b6000806000806000806002600088815260200190815260200160002090506115798761229f565b8160000160009054906101000a900473ffffffffffffffffffffffffffffffffffffffff16826001015483600201548460030154955095509550955095505091939590929450565b6000809054906101000a900473ffffffffffffffffffffffffffffffffffffffff1681565b60006115f484338585611199565b90506000600360003373ffffffffffffffffffffffffffffffffffffffff1673ffffffffffffffffffffffffffffffffffffffff168152602001908152602001600020600083815260200190815260200160002060009054906101000a900473ffffffffffffffffffffffffffffffffffffffff169050600073ffffffffffffffffffffffffffffffffffffffff168173ffffffffffffffffffffffffffffffffffffffff1614156116a557600080fd5b6000600360003373ffffffffffffffffffffffffffffffffffffffff1673ffffffffffffffffffffffffffffffffffffffff168152602001908152602001600020600084815260200190815260200160002060006101000a81548173ffffffffffffffffffffffffffffffffffffffff021916908373ffffffffffffffffffffffffffffffffffffffff160217905550600060026000878152602001908152602001600020905060006117d8868473ffffffffffffffffffffffffffffffffffffffff16633fa4f2456040518163ffffffff1660e01b815260040160206040518083038186803b15801561179857600080fd5b505afa1580156117ac573d6000803e3d6000fd5b505050506040513d60208110156117c257600080fd5b8101908080519060200190929190505050612eda565b90508273ffffffffffffffffffffffffffffffffffffffff1663b0c809728260016040518363ffffffff1660e01b8152600401808381526020018215151515815260200192505050600060405180830381600087803b15801561183a57600080fd5b505af115801561184e573d6000803e3d6000fd5b50505050600061185d8861229f565b90506002600581111561186c57fe5b81600581111561187857fe5b141561194a578373ffffffffffffffffffffffffffffffffffffffff1663bbe4277160056040518263ffffffff1660e01b815260040180828152602001915050600060405180830381600087803b1580156118d257600080fd5b505af11580156118e6573d6000803e3d6000fd5b505050503373ffffffffffffffffffffffffffffffffffffffff16887f7b6c4b278d165a6b33958f8ea5dfb00c8c9d4d0acf1985bef5d10786898bc3e7846001604051808381526020018260ff1681526020019250505060405180910390a3611e45565b6004600581111561195757fe5b81600581111561196357fe5b1461196d57600080fd5b662386f26fc10000821080611a1057506202a30063ffffffff168360010154038473ffffffffffffffffffffffffffffffffffffffff166305b344106040518163ffffffff1660e01b815260040160206040518083038186803b1580156119d357600080fd5b505afa1580156119e7573d6000803e3d6000fd5b505050506040513d60208110156119fd57600080fd5b8101908080519060200190929190505050115b15611ae2578373ffffffffffffffffffffffffffffffffffffffff1663bbe427716103e36040518263ffffffff1660e01b815260040180828152602001915050600060405180830381600087803b158015611a6a57600080fd5b505af1158015611a7e573d6000803e3d6000fd5b505050503373ffffffffffffffffffffffffffffffffffffffff16887f7b6c4b278d165a6b33958f8ea5dfb00c8c9d4d0acf1985bef5d10786898bc3e7846000604051808381526020018260ff1681526020019250505060405180910390a3611e44565b8260030154821115611c9757600073ffffffffffffffffffffffffffffffffffffffff168360000160009054906101000a900473ffffffffffffffffffffffffffffffffffffffff1673ffffffffffffffffffffffffffffffffffffffff1614611bde5760008360000160009054906101000a900473ffffffffffffffffffffffffffffffffffffffff1690508073ffffffffffffffffffffffffffffffffffffffff1663bbe427716103e36040518263ffffffff1660e01b815260040180828152602001915050600060405180830381600087803b158015611bc457600080fd5b505af1158015611bd8573d6000803e3d6000fd5b50505050505b82600301548360020181905550818360030181905550838360000160006101000a81548173ffffffffffffffffffffffffffffffffffffffff021916908373ffffffffffffffffffffffffffffffffffffffff1602179055503373ffffffffffffffffffffffffffffffffffffffff16887f7b6c4b278d165a6b33958f8ea5dfb00c8c9d4d0acf1985bef5d10786898bc3e7846002604051808381526020018260ff1681526020019250505060405180910390a3611e43565b8260020154821115611d79578183600201819055508373ffffffffffffffffffffffffffffffffffffffff1663bbe427716103e36040518263ffffffff1660e01b815260040180828152602001915050600060405180830381600087803b158015611d0157600080fd5b505af1158015611d15573d6000803e3d6000fd5b505050503373ffffffffffffffffffffffffffffffffffffffff16887f7b6c4b278d165a6b33958f8ea5dfb00c8c9d4d0acf1985bef5d10786898bc3e7846003604051808381526020018260ff1681526020019250505060405180910390a3611e42565b8373ffffffffffffffffffffffffffffffffffffffff1663bbe427716103e36040518263ffffffff1660e01b815260040180828152602001915050600060405180830381600087803b158015611dce57600080fd5b505af1158015611de2573d6000803e3d6000fd5b505050503373ffffffffffffffffffffffffffffffffffffffff16887f7b6c4b278d165a6b33958f8ea5dfb00c8c9d4d0acf1985bef5d10786898bc3e7846004604051808381526020018260ff1681526020019250505060405180910390a35b5b5b5b5050505050505050565b8060026005811115611e5d57fe5b611e668261229f565b6005811115611e7157fe5b148015611f5f57506002600082815260200190815260200160002060000160009054906101000a900473ffffffffffffffffffffffffffffffffffffffff1673ffffffffffffffffffffffffffffffffffffffff16638da5cb5b6040518163ffffffff1660e01b815260040160206040518083038186803b158015611ef557600080fd5b505afa158015611f09573d6000803e3d6000fd5b505050506040513d6020811015611f1f57600080fd5b810190808051906020019092919050505073ffffffffffffffffffffffffffffffffffffffff163373ffffffffffffffffffffffffffffffffffffffff16145b611f6857600080fd5b60008060009054906101000a900473ffffffffffffffffffffffffffffffffffffffff1673ffffffffffffffffffffffffffffffffffffffff166302571be36001546040518263ffffffff1660e01b81526004018082815260200191505060206040518083038186803b158015611fde57600080fd5b505afa158015611ff2573d6000803e3d6000fd5b505050506040513d602081101561200857600080fd5b810190808051906020019092919050505090503073ffffffffffffffffffffffffffffffffffffffff168173ffffffffffffffffffffffffffffffffffffffff16141561205457600080fd5b60006002600085815260200190815260200160002090508060000160009054906101000a900473ffffffffffffffffffffffffffffffffffffffff1673ffffffffffffffffffffffffffffffffffffffff1663faab9d39836040518263ffffffff1660e01b8152600401808273ffffffffffffffffffffffffffffffffffffffff1673ffffffffffffffffffffffffffffffffffffffff168152602001915050600060405180830381600087803b15801561210e57600080fd5b505af1158015612122573d6000803e3d6000fd5b505050508173ffffffffffffffffffffffffffffffffffffffff1663ea9e107a858360000160009054906101000a900473ffffffffffffffffffffffffffffffffffffffff1684600101546040518463ffffffff1660e01b8152600401808481526020018373ffffffffffffffffffffffffffffffffffffffff1673ffffffffffffffffffffffffffffffffffffffff1681526020018281526020019350505050600060405180830381600087803b1580156121dd57600080fd5b505af11580156121f1573d6000803e3d6000fd5b5050505060008160000160006101000a81548173ffffffffffffffffffffffffffffffffffffffff021916908373ffffffffffffffffffffffffffffffffffffffff16021790555060008160010181905550600081600201819055506000816003018190555050505050565b60036020528160005260406000206020528060005260406000206000915091509054906101000a900473ffffffffffffffffffffffffffffffffffffffff1681565b6000806002600084815260200190815260200160002090506122c1834261255d565b6122cf576005915050612323565b8060010154421015612306576202a30063ffffffff168160010154034210156122fc576001915050612323565b6004915050612323565b60008160030154141561231d576000915050612323565b60029150505b919050565b816002600581111561233657fe5b61233f8261229f565b600581111561234a57fe5b14801561243857506002600082815260200190815260200160002060000160009054906101000a900473ffffffffffffffffffffffffffffffffffffffff1673ffffffffffffffffffffffffffffffffffffffff16638da5cb5b6040518163ffffffff1660e01b815260040160206040518083038186803b1580156123ce57600080fd5b505afa1580156123e2573d6000803e3d6000fd5b505050506040513d60208110156123f857600080fd5b810190808051906020019092919050505073ffffffffffffffffffffffffffffffffffffffff163373ffffffffffffffffffffffffffffffffffffffff16145b61244157600080fd5b600073ffffffffffffffffffffffffffffffffffffffff168273ffffffffffffffffffffffffffffffffffffffff16141561247b57600080fd5b60006002600085815260200190815260200160002090508060000160009054906101000a900473ffffffffffffffffffffffffffffffffffffffff1673ffffffffffffffffffffffffffffffffffffffff166313af4035846040518263ffffffff1660e01b8152600401808273ffffffffffffffffffffffffffffffffffffffff1673ffffffffffffffffffffffffffffffffffffffff168152602001915050600060405180830381600087803b15801561253557600080fd5b505af1158015612549573d6000803e3d6000fd5b505050506125578484612ef6565b50505050565b600061256883610cf3565b8211905092915050565b806002600581111561258057fe5b6125898261229f565b600581111561259457fe5b14801561268257506002600082815260200190815260200160002060000160009054906101000a900473ffffffffffffffffffffffffffffffffffffffff1673ffffffffffffffffffffffffffffffffffffffff16638da5cb5b6040518163ffffffff1660e01b815260040160206040518083038186803b15801561261857600080fd5b505afa15801561262c573d6000803e3d6000fd5b505050506040513d602081101561264257600080fd5b810190808051906020019092919050505073ffffffffffffffffffffffffffffffffffffffff163373ffffffffffffffffffffffffffffffffffffffff16145b61268b57600080fd5b60006002600084815260200190815260200160002090506126b78160020154662386f26fc10000612ebe565b81600201819055508060000160009054906101000a900473ffffffffffffffffffffffffffffffffffffffff1673ffffffffffffffffffffffffffffffffffffffff1663b0c80972826002015460016040518363ffffffff1660e01b8152600401808381526020018215151515815260200192505050600060405180830381600087803b15801561274757600080fd5b505af115801561275b573d6000803e3d6000fd5b5050505061280d838260000160009054906101000a900473ffffffffffffffffffffffffffffffffffffffff1673ffffffffffffffffffffffffffffffffffffffff16638da5cb5b6040518163ffffffff1660e01b815260040160206040518083038186803b1580156127cd57600080fd5b505afa1580156127e1573d6000803e3d6000fd5b505050506040513d60208110156127f757600080fd5b8101908080519060200190929190505050612ef6565b8060000160009054906101000a900473ffffffffffffffffffffffffffffffffffffffff1673ffffffffffffffffffffffffffffffffffffffff16638da5cb5b6040518163ffffffff1660e01b815260040160206040518083038186803b15801561287757600080fd5b505afa15801561288b573d6000803e3d6000fd5b505050506040513d60208110156128a157600080fd5b810190808051906020019092919050505073ffffffffffffffffffffffffffffffffffffffff16837f0f0c27adfd84b60b6f456b0e87cdccb1e5fb9603991588d87fa99f5b6b61e67083600201548460010154604051808381526020018281526020019250505060405180910390a3505050565b60045481565b6249d40081565b61292b816130a7565b50565b600082829050141561293f57600080fd5b6002600581111561294c57fe5b61296d83836001868690500381811061296157fe5b9050602002013561229f565b600581111561297857fe5b141561298357600080fd5b6129d760018383905003838380806020026020016040519081016040528093929190818152602001838360200280828437600081840152601f19601f820116905080830192505050505050506001546132ac565b5050565b612a25828280806020026020016040519081016040528093929190818152602001838360200280828437600081840152601f19601f8201169050808301925050505050505061356a565b5050565b505050565b612a37816135a6565b50565b60015481565b612a8a838380806020026020016040519081016040528093929190818152602001838360200280828437600081840152601f19601f8201169050808301925050505050505061356a565b612a93816130a7565b505050565b3073ffffffffffffffffffffffffffffffffffffffff166000809054906101000a900473ffffffffffffffffffffffffffffffffffffffff1673ffffffffffffffffffffffffffffffffffffffff166302571be36001546040518263ffffffff1660e01b81526004018082815260200191505060206040518083038186803b158015612b2357600080fd5b505afa158015612b37573d6000803e3d6000fd5b505050506040513d6020811015612b4d57600080fd5b810190808051906020019092919050505073ffffffffffffffffffffffffffffffffffffffff161415612dfd576000809054906101000a900473ffffffffffffffffffffffffffffffffffffffff1673ffffffffffffffffffffffffffffffffffffffff166306ab592360015483306040518463ffffffff1660e01b8152600401808481526020018381526020018273ffffffffffffffffffffffffffffffffffffffff1673ffffffffffffffffffffffffffffffffffffffff1681526020019350505050600060405180830381600087803b158015612c2c57600080fd5b505af1158015612c40573d6000803e3d6000fd5b5050505060006001548260405160200180838152602001828152602001925050506040516020818303038152906040528051906020012090506000809054906101000a900473ffffffffffffffffffffffffffffffffffffffff1673ffffffffffffffffffffffffffffffffffffffff16631896f70a8260006040518363ffffffff1660e01b8152600401808381526020018273ffffffffffffffffffffffffffffffffffffffff1673ffffffffffffffffffffffffffffffffffffffff16815260200192505050600060405180830381600087803b158015612d2257600080fd5b505af1158015612d36573d6000803e3d6000fd5b505050506000809054906101000a900473ffffffffffffffffffffffffffffffffffffffff1673ffffffffffffffffffffffffffffffffffffffff16635b0fc9c38260006040518363ffffffff1660e01b8152600401808381526020018273ffffffffffffffffffffffffffffffffffffffff1673ffffffffffffffffffffffffffffffffffffffff16815260200192505050600060405180830381600087803b158015612de357600080fd5b505af1158015612df7573d6000803e3d6000fd5b50505050505b50565b6000808060018401915081845101905060008090505b81831015612eb357600060ff845116905060808160ff161015612e3e57600184019350612ea5565b60e08160ff161015612e5557600284019350612ea4565b60f08160ff161015612e6c57600384019350612ea3565b60f88160ff161015612e8357600484019350612ea2565b60fc8160ff161015612e9a57600584019350612ea1565b6006840193505b5b5b5b5b508080600101915050612e16565b809350505050919050565b600081831115612ed057829050612ed4565b8190505b92915050565b600081831015612eec57829050612ef0565b8190505b92915050565b3073ffffffffffffffffffffffffffffffffffffffff166000809054906101000a900473ffffffffffffffffffffffffffffffffffffffff1673ffffffffffffffffffffffffffffffffffffffff166302571be36001546040518263ffffffff1660e01b81526004018082815260200191505060206040518083038186803b158015612f8157600080fd5b505afa158015612f95573d6000803e3d6000fd5b505050506040513d6020811015612fab57600080fd5b810190808051906020019092919050505073ffffffffffffffffffffffffffffffffffffffff1614156130a3576000809054906101000a900473ffffffffffffffffffffffffffffffffffffffff1673ffffffffffffffffffffffffffffffffffffffff166306ab592360015484846040518463ffffffff1660e01b8152600401808481526020018381526020018273ffffffffffffffffffffffffffffffffffffffff1673ffffffffffffffffffffffffffffffffffffffff1681526020019350505050600060405180830381600087803b15801561308a57600080fd5b505af115801561309e573d6000803e3d6000fd5b505050505b5050565b600073ffffffffffffffffffffffffffffffffffffffff16600360003373ffffffffffffffffffffffffffffffffffffffff1673ffffffffffffffffffffffffffffffffffffffff168152602001908152602001600020600083815260200190815260200160002060009054906101000a900473ffffffffffffffffffffffffffffffffffffffff1673ffffffffffffffffffffffffffffffffffffffff161461315057600080fd5b662386f26fc1000034101561316457600080fd5b6000343360405161317490613784565b808273ffffffffffffffffffffffffffffffffffffffff1673ffffffffffffffffffffffffffffffffffffffff1681526020019150506040518091039082f0801580156131c5573d6000803e3d6000fd5b509050905080600360003373ffffffffffffffffffffffffffffffffffffffff1673ffffffffffffffffffffffffffffffffffffffff168152602001908152602001600020600084815260200190815260200160002060006101000a81548173ffffffffffffffffffffffffffffffffffffffff021916908373ffffffffffffffffffffffffffffffffffffffff1602179055503373ffffffffffffffffffffffffffffffffffffffff16827fb556ff269c1b6714f432c36431e2041d28436a73b6c3f19c021827bbdc6bfc29346040518082815260200191505060405180910390a35050565b6000809054906101000a900473ffffffffffffffffffffffffffffffffffffffff1673ffffffffffffffffffffffffffffffffffffffff166306ab5923828486815181106132f657fe5b6020026020010151306040518463ffffffff1660e01b8152600401808481526020018381526020018273ffffffffffffffffffffffffffffffffffffffff1673ffffffffffffffffffffffffffffffffffffffff1681526020019350505050600060405180830381600087803b15801561336f57600080fd5b505af1158015613383573d6000803e3d6000fd5b505050508082848151811061339457fe5b6020026020010151604051602001808381526020018281526020019250505060405160208183030381529060405280519060200120905060008311156133e3576133e26001840383836132ac565b5b6000809054906101000a900473ffffffffffffffffffffffffffffffffffffffff1673ffffffffffffffffffffffffffffffffffffffff16631896f70a8260006040518363ffffffff1660e01b8152600401808381526020018273ffffffffffffffffffffffffffffffffffffffff1673ffffffffffffffffffffffffffffffffffffffff16815260200192505050600060405180830381600087803b15801561348c57600080fd5b505af11580156134a0573d6000803e3d6000fd5b505050506000809054906101000a900473ffffffffffffffffffffffffffffffffffffffff1673ffffffffffffffffffffffffffffffffffffffff16635b0fc9c38260006040518363ffffffff1660e01b8152600401808381526020018273ffffffffffffffffffffffffffffffffffffffff1673ffffffffffffffffffffffffffffffffffffffff16815260200192505050600060405180830381600087803b15801561354d57600080fd5b505af1158015613561573d6000803e3d6000fd5b50505050505050565b60008090505b81518110156135a25761359582828151811061358857fe5b60200260200101516135a6565b8080600101915050613570565b5050565b60045442101580156135c05750630784ce00600454014211155b80156136a557503073ffffffffffffffffffffffffffffffffffffffff166000809054906101000a900473ffffffffffffffffffffffffffffffffffffffff1673ffffffffffffffffffffffffffffffffffffffff166302571be36001546040518263ffffffff1660e01b81526004018082815260200191505060206040518083038186803b15801561365257600080fd5b505afa158015613666573d6000803e3d6000fd5b505050506040513d602081101561367c57600080fd5b810190808051906020019092919050505073ffffffffffffffffffffffffffffffffffffffff16145b6136ae57600080fd5b60006136b98261229f565b9050600160058111156136c857fe5b8160058111156136d457fe5b14156136e05750613781565b600060058111156136ed57fe5b8160058111156136f957fe5b1461370357600080fd5b60006002600084815260200190815260200160002090506206978063ffffffff16420181600101819055506000816002018190555060008160030181905550827f87e97e825a1d1fa0c54e1d36c7506c1dea8b1efd451fe68b000cf96f7cf4000382600101546040518082815260200191505060405180910390a250505b50565b6108cd806137928339019056fe60806040526040516108cd3803806108cd8339818101604052602081101561002657600080fd5b8101908080519060200190929190505050806000806101000a81548173ffffffffffffffffffffffffffffffffffffffff021916908373ffffffffffffffffffffffffffffffffffffffff16021790555033600260006101000a81548173ffffffffffffffffffffffffffffffffffffffff021916908373ffffffffffffffffffffffffffffffffffffffff160217905550426003819055506001600560006101000a81548160ff02191690831515021790555034600481905550506107dc806100f16000396000f3fe608060405234801561001057600080fd5b50600436106100935760003560e01c8063674f220f11610066578063674f220f146101225780638da5cb5b1461016c578063b0c80972146101b6578063bbe42771146101f0578063faab9d391461021e57610093565b806305b34410146100985780630b5ab3d5146100b657806313af4035146100c05780633fa4f24514610104575b600080fd5b6100a0610262565b6040518082815260200191505060405180910390f35b6100be610267565b005b610102600480360360208110156100d657600080fd5b81019080803573ffffffffffffffffffffffffffffffffffffffff169060200190929190505050610271565b005b61010c61040d565b6040518082815260200191505060405180910390f35b61012a610417565b604051808273ffffffffffffffffffffffffffffffffffffffff1673ffffffffffffffffffffffffffffffffffffffff16815260200191505060405180910390f35b610174610441565b604051808273ffffffffffffffffffffffffffffffffffffffff1673ffffffffffffffffffffffffffffffffffffffff16815260200191505060405180910390f35b6101ee600480360360408110156101cc57600080fd5b810190808035906020019092919080351515906020019092919050505061046a565b005b61021c6004803603602081101561020657600080fd5b8101908080359060200190929190505050610561565b005b6102606004803603602081101561023457600080fd5b81019080803573ffffffffffffffffffffffffffffffffffffffff169060200190929190505050610677565b005b600090565b61026f610715565b565b600260009054906101000a900473ffffffffffffffffffffffffffffffffffffffff1673ffffffffffffffffffffffffffffffffffffffff163373ffffffffffffffffffffffffffffffffffffffff16146102cb57600080fd5b600073ffffffffffffffffffffffffffffffffffffffff168173ffffffffffffffffffffffffffffffffffffffff16141561030557600080fd5b6000809054906101000a900473ffffffffffffffffffffffffffffffffffffffff16600160006101000a81548173ffffffffffffffffffffffffffffffffffffffff021916908373ffffffffffffffffffffffffffffffffffffffff160217905550806000806101000a81548173ffffffffffffffffffffffffffffffffffffffff021916908373ffffffffffffffffffffffffffffffffffffffff1602179055507fa2ea9883a321a3e97b8266c2b078bfeec6d50c711ed71f874a90d500ae2eaf3681604051808273ffffffffffffffffffffffffffffffffffffffff1673ffffffffffffffffffffffffffffffffffffffff16815260200191505060405180910390a150565b6000600454905090565b6000600160009054906101000a900473ffffffffffffffffffffffffffffffffffffffff16905090565b60008060009054906101000a900473ffffffffffffffffffffffffffffffffffffffff16905090565b600260009054906101000a900473ffffffffffffffffffffffffffffffffffffffff1673ffffffffffffffffffffffffffffffffffffffff163373ffffffffffffffffffffffffffffffffffffffff16146104c457600080fd5b600560009054906101000a900460ff166104dd57600080fd5b8160045410156104ec57600080fd5b816004819055506000809054906101000a900473ffffffffffffffffffffffffffffffffffffffff1673ffffffffffffffffffffffffffffffffffffffff166108fc8347039081150290604051600060405180830381858888f1935050505080610554575080155b61055d57600080fd5b5050565b600260009054906101000a900473ffffffffffffffffffffffffffffffffffffffff1673ffffffffffffffffffffffffffffffffffffffff163373ffffffffffffffffffffffffffffffffffffffff16146105bb57600080fd5b600560009054906101000a900460ff166105d457600080fd5b6000600560006101000a81548160ff02191690831515021790555061dead73ffffffffffffffffffffffffffffffffffffffff166108fc6103e847846103e803028161061c57fe5b049081150290604051600060405180830381858888f1935050505061064057600080fd5b7fbb2ce2f51803bba16bc85282b47deeea9a5c6223eabea1077be696b3f265cf1360405160405180910390a1610674610715565b50565b600260009054906101000a900473ffffffffffffffffffffffffffffffffffffffff1673ffffffffffffffffffffffffffffffffffffffff163373ffffffffffffffffffffffffffffffffffffffff16146106d157600080fd5b80600260006101000a81548173ffffffffffffffffffffffffffffffffffffffff021916908373ffffffffffffffffffffffffffffffffffffffff16021790555050565b600560009054906101000a900460ff161561072f57600080fd5b6000809054906101000a900473ffffffffffffffffffffffffffffffffffffffff1673ffffffffffffffffffffffffffffffffffffffff166108fc479081150290604051600060405180830381858888f19350505050156107a55761dead73ffffffffffffffffffffffffffffffffffffffff16ff5b56fea265627a7a72315820cd319a9e88ea31325cb64607e16ad1d4017c1a9cc4a6af6ef8bcce815a68638364736f6c63430005100032a265627a7a72315820c984b2a253062305879c53e2455051e56bc6c316c321f309343b900cd08f445364736f6c63430005100032",
  "source": "/**\n *Submitted for verification at Etherscan.io on 2019-04-30\n*/\n\n// File: @ensdomains/ens/contracts/ENS.sol\n\npragma solidity >=0.4.24;\n\ninterface ENS {\n\n    // Logged when the owner of a node assigns a new owner to a subnode.\n    event NewOwner(bytes32 indexed node, bytes32 indexed label, address owner);\n\n    // Logged when the owner of a node transfers ownership to a new account.\n    event Transfer(bytes32 indexed node, address owner);\n\n    // Logged when the resolver for a node changes.\n    event NewResolver(bytes32 indexed node, address resolver);\n\n    // Logged when the TTL of a node changes\n    event NewTTL(bytes32 indexed node, uint64 ttl);\n\n\n    function setSubnodeOwner(bytes32 node, bytes32 label, address owner) external;\n    function setResolver(bytes32 node, address resolver) external;\n    function setOwner(bytes32 node, address owner) external;\n    function setTTL(bytes32 node, uint64 ttl) external;\n    function owner(bytes32 node) external view returns (address);\n    function resolver(bytes32 node) external view returns (address);\n    function ttl(bytes32 node) external view returns (uint64);\n\n}\n\n// File: @ensdomains/ens/contracts/Deed.sol\n\npragma solidity >=0.4.24;\n\ninterface Deed {\n\n    function setOwner(address payable newOwner) external;\n    function setRegistrar(address newRegistrar) external;\n    function setBalance(uint newValue, bool throwOnFailure) external;\n    function closeDeed(uint refundRatio) external;\n    function destroyDeed() external;\n\n    function owner() external view returns (address);\n    function previousOwner() external view returns (address);\n    function value() external view returns (uint);\n    function creationDate() external view returns (uint);\n\n}\n\n// File: @ensdomains/ens/contracts/Registrar.sol\n\npragma solidity >=0.4.24;\n\n\ninterface Registrar {\n\n    enum Mode { Open, Auction, Owned, Forbidden, Reveal, NotYetAvailable }\n\n    event AuctionStarted(bytes32 indexed hash, uint registrationDate);\n    event NewBid(bytes32 indexed hash, address indexed bidder, uint deposit);\n    event BidRevealed(bytes32 indexed hash, address indexed owner, uint value, uint8 status);\n    event HashRegistered(bytes32 indexed hash, address indexed owner, uint value, uint registrationDate);\n    event HashReleased(bytes32 indexed hash, uint value);\n    event HashInvalidated(bytes32 indexed hash, string indexed name, uint value, uint registrationDate);\n\n    function startAuction(bytes32 _hash) external;\n    function startAuctions(bytes32[] calldata _hashes) external;\n    function newBid(bytes32 sealedBid) external payable;\n    function startAuctionsAndBid(bytes32[] calldata hashes, bytes32 sealedBid) external payable;\n    function unsealBid(bytes32 _hash, uint _value, bytes32 _salt) external;\n    function cancelBid(address bidder, bytes32 seal) external;\n    function finalizeAuction(bytes32 _hash) external;\n    function transfer(bytes32 _hash, address payable newOwner) external;\n    function releaseDeed(bytes32 _hash) external;\n    function invalidateName(string calldata unhashedName) external;\n    function eraseNode(bytes32[] calldata labels) external;\n    function transferRegistrars(bytes32 _hash) external;\n    function acceptRegistrarTransfer(bytes32 hash, Deed deed, uint registrationDate) external;\n    function entries(bytes32 _hash) external view returns (Mode, address, uint, uint, uint);\n}\n\n// File: @ensdomains/ens/contracts/DeedImplementation.sol\n\npragma solidity ^0.5.0;\n\n\n/**\n * @title Deed to hold ether in exchange for ownership of a node\n * @dev The deed can be controlled only by the registrar and can only send ether back to the owner.\n */\ncontract DeedImplementation is Deed {\n\n    address payable constant burn = address(0xdead);\n\n    address payable private _owner;\n    address private _previousOwner;\n    address private _registrar;\n\n    uint private _creationDate;\n    uint private _value;\n\n    bool active;\n\n    event OwnerChanged(address newOwner);\n    event DeedClosed();\n\n    modifier onlyRegistrar {\n        require(msg.sender == _registrar);\n        _;\n    }\n\n    modifier onlyActive {\n        require(active);\n        _;\n    }\n\n    constructor(address payable initialOwner) public payable {\n        _owner = initialOwner;\n        _registrar = msg.sender;\n        _creationDate = now;\n        active = true;\n        _value = msg.value;\n    }\n\n    function setOwner(address payable newOwner) external onlyRegistrar {\n        require(newOwner != address(0x0));\n        _previousOwner = _owner;  // This allows contracts to check who sent them the ownership\n        _owner = newOwner;\n        emit OwnerChanged(newOwner);\n    }\n\n    function setRegistrar(address newRegistrar) external onlyRegistrar {\n        _registrar = newRegistrar;\n    }\n\n    function setBalance(uint newValue, bool throwOnFailure) external onlyRegistrar onlyActive {\n        // Check if it has enough balance to set the value\n        require(_value >= newValue);\n        _value = newValue;\n        // Send the difference to the owner\n        require(_owner.send(address(this).balance - newValue) || !throwOnFailure);\n    }\n\n    /**\n     * @dev Close a deed and refund a specified fraction of the bid value\n     *\n     * @param refundRatio The amount*1/1000 to refund\n     */\n    function closeDeed(uint refundRatio) external onlyRegistrar onlyActive {\n        active = false;\n        require(burn.send(((1000 - refundRatio) * address(this).balance)/1000));\n        emit DeedClosed();\n        _destroyDeed();\n    }\n\n    /**\n     * @dev Close a deed and refund a specified fraction of the bid value\n     */\n    function destroyDeed() external {\n        _destroyDeed();\n    }\n\n    function owner() external view returns (address) {\n        return _owner;\n    }\n\n    function previousOwner() external view returns (address) {\n        return _previousOwner;\n    }\n\n    function value() external view returns (uint) {\n        return _value;\n    }\n\n    function creationDate() external view returns (uint) {\n        _creationDate;\n    }\n\n    function _destroyDeed() internal {\n        require(!active);\n\n        // Instead of selfdestruct(owner), invoke owner fallback function to allow\n        // owner to log an event if desired; but owner should also be aware that\n        // its fallback function can also be invoked by setBalance\n        if (_owner.send(address(this).balance)) {\n            selfdestruct(burn);\n        }\n    }\n}\n\n// File: @ensdomains/ens/contracts/HashRegistrar.sol\n\npragma solidity ^0.5.0;\n\n\n/*\n\nTemporary Hash Registrar\n========================\n\nThis is a simplified version of a hash registrar. It is purporsefully limited:\nnames cannot be six letters or shorter, new auctions will stop after 4 years.\n\nThe plan is to test the basic features and then move to a new contract in at most\n2 years, when some sort of renewal mechanism will be enabled.\n*/\n\n\n\n\n/**\n * @title Registrar\n * @dev The registrar handles the auction process for each subnode of the node it owns.\n */\ncontract HashRegistrar is Registrar {\n    ENS public ens;\n    bytes32 public rootNode;\n\n    mapping (bytes32 => Entry) _entries;\n    mapping (address => mapping (bytes32 => Deed)) public sealedBids;\n\n    uint32 constant totalAuctionLength = 5 days;\n    uint32 constant revealPeriod = 48 hours;\n    uint32 public constant launchLength = 8 weeks;\n\n    uint constant minPrice = 0.01 ether;\n    uint public registryStarted;\n\n    struct Entry {\n        Deed deed;\n        uint registrationDate;\n        uint value;\n        uint highestBid;\n    }\n\n    modifier inState(bytes32 _hash, Mode _state) {\n        require(state(_hash) == _state);\n        _;\n    }\n\n    modifier onlyOwner(bytes32 _hash) {\n        require(state(_hash) == Mode.Owned && msg.sender == _entries[_hash].deed.owner());\n        _;\n    }\n\n    modifier registryOpen() {\n        require(now >= registryStarted && now <= registryStarted + (365 * 4) * 1 days && ens.owner(rootNode) == address(this));\n        _;\n    }\n\n    /**\n     * @dev Constructs a new Registrar, with the provided address as the owner of the root node.\n     *\n     * @param _ens The address of the ENS\n     * @param _rootNode The hash of the rootnode.\n     */\n    constructor(ENS _ens, bytes32 _rootNode, uint _startDate) public {\n        ens = _ens;\n        rootNode = _rootNode;\n        registryStarted = _startDate > 0 ? _startDate : now;\n    }\n\n    /**\n     * @dev Start an auction for an available hash\n     *\n     * @param _hash The hash to start an auction on\n     */\n    function startAuction(bytes32 _hash) external {\n        _startAuction(_hash);\n    }\n\n    /**\n     * @dev Start multiple auctions for better anonymity\n     *\n     * Anyone can start an auction by sending an array of hashes that they want to bid for.\n     * Arrays are sent so that someone can open up an auction for X dummy hashes when they\n     * are only really interested in bidding for one. This will increase the cost for an\n     * attacker to simply bid blindly on all new auctions. Dummy auctions that are\n     * open but not bid on are closed after a week.\n     *\n     * @param _hashes An array of hashes, at least one of which you presumably want to bid on\n     */\n    function startAuctions(bytes32[] calldata _hashes) external {\n        _startAuctions(_hashes);\n    }\n\n    /**\n     * @dev Submit a new sealed bid on a desired hash in a blind auction\n     *\n     * Bids are sent by sending a message to the main contract with a hash and an amount. The hash\n     * contains information about the bid, including the bidded hash, the bid amount, and a random\n     * salt. Bids are not tied to any one auction until they are revealed. The value of the bid\n     * itself can be masqueraded by sending more than the value of your actual bid. This is\n     * followed by a 48h reveal period. Bids revealed after this period will be burned and the ether unrecoverable.\n     * Since this is an auction, it is expected that most public hashes, like known domains and common dictionary\n     * words, will have multiple bidders pushing the price up.\n     *\n     * @param sealedBid A sealedBid, created by the shaBid function\n     */\n    function newBid(bytes32 sealedBid) external payable {\n        _newBid(sealedBid);\n    }\n\n    /**\n     * @dev Start a set of auctions and bid on one of them\n     *\n     * This method functions identically to calling `startAuctions` followed by `newBid`,\n     * but all in one transaction.\n     *\n     * @param hashes A list of hashes to start auctions on.\n     * @param sealedBid A sealed bid for one of the auctions.\n     */\n    function startAuctionsAndBid(bytes32[] calldata hashes, bytes32 sealedBid) external payable {\n        _startAuctions(hashes);\n        _newBid(sealedBid);\n    }\n\n    /**\n     * @dev Submit the properties of a bid to reveal them\n     *\n     * @param _hash The node in the sealedBid\n     * @param _value The bid amount in the sealedBid\n     * @param _salt The sale in the sealedBid\n     */\n    function unsealBid(bytes32 _hash, uint _value, bytes32 _salt) external {\n        bytes32 seal = shaBid(_hash, msg.sender, _value, _salt);\n        Deed bid = sealedBids[msg.sender][seal];\n        require(address(bid) != address(0x0));\n\n        sealedBids[msg.sender][seal] = Deed(address(0x0));\n        Entry storage h = _entries[_hash];\n        uint value = min(_value, bid.value());\n        bid.setBalance(value, true);\n\n        Mode auctionState = state(_hash);\n        if (auctionState == Mode.Owned) {\n            // Too late! Bidder loses their bid. Gets 0.5% back.\n            bid.closeDeed(5);\n            emit BidRevealed(_hash, msg.sender, value, 1);\n        } else if (auctionState != Mode.Reveal) {\n            // Invalid phase\n            revert();\n        } else if (value < minPrice || bid.creationDate() > h.registrationDate - revealPeriod) {\n            // Bid too low or too late, refund 99.5%\n            bid.closeDeed(995);\n            emit BidRevealed(_hash, msg.sender, value, 0);\n        } else if (value > h.highestBid) {\n            // New winner\n            // Cancel the other bid, refund 99.5%\n            if (address(h.deed) != address(0x0)) {\n                Deed previousWinner = h.deed;\n                previousWinner.closeDeed(995);\n            }\n\n            // Set new winner\n            // Per the rules of a vickery auction, the value becomes the previous highestBid\n            h.value = h.highestBid;  // will be zero if there's only 1 bidder\n            h.highestBid = value;\n            h.deed = bid;\n            emit BidRevealed(_hash, msg.sender, value, 2);\n        } else if (value > h.value) {\n            // Not winner, but affects second place\n            h.value = value;\n            bid.closeDeed(995);\n            emit BidRevealed(_hash, msg.sender, value, 3);\n        } else {\n            // Bid doesn't affect auction\n            bid.closeDeed(995);\n            emit BidRevealed(_hash, msg.sender, value, 4);\n        }\n    }\n\n    /**\n     * @dev Cancel a bid\n     *\n     * @param seal The value returned by the shaBid function\n     */\n    function cancelBid(address bidder, bytes32 seal) external {\n        Deed bid = sealedBids[bidder][seal];\n        \n        // If a sole bidder does not `unsealBid` in time, they have a few more days\n        // where they can call `startAuction` (again) and then `unsealBid` during\n        // the revealPeriod to get back their bid value.\n        // For simplicity, they should call `startAuction` within\n        // 9 days (2 weeks - totalAuctionLength), otherwise their bid will be\n        // cancellable by anyone.\n        require(address(bid) != address(0x0) && now >= bid.creationDate() + totalAuctionLength + 2 weeks);\n\n        // Send the canceller 0.5% of the bid, and burn the rest.\n        bid.setOwner(msg.sender);\n        bid.closeDeed(5);\n        sealedBids[bidder][seal] = Deed(0);\n        emit BidRevealed(seal, bidder, 0, 5);\n    }\n\n    /**\n     * @dev Finalize an auction after the registration date has passed\n     *\n     * @param _hash The hash of the name the auction is for\n     */\n    function finalizeAuction(bytes32 _hash) external onlyOwner(_hash) {\n        Entry storage h = _entries[_hash];\n        \n        // Handles the case when there's only a single bidder (h.value is zero)\n        h.value = max(h.value, minPrice);\n        h.deed.setBalance(h.value, true);\n\n        trySetSubnodeOwner(_hash, h.deed.owner());\n        emit HashRegistered(_hash, h.deed.owner(), h.value, h.registrationDate);\n    }\n\n    /**\n     * @dev The owner of a domain may transfer it to someone else at any time.\n     *\n     * @param _hash The node to transfer\n     * @param newOwner The address to transfer ownership to\n     */\n    function transfer(bytes32 _hash, address payable newOwner) external onlyOwner(_hash) {\n        require(newOwner != address(0x0));\n\n        Entry storage h = _entries[_hash];\n        h.deed.setOwner(newOwner);\n        trySetSubnodeOwner(_hash, newOwner);\n    }\n\n    /**\n     * @dev After some time, or if we're no longer the registrar, the owner can release\n     *      the name and get their ether back.\n     *\n     * @param _hash The node to release\n     */\n    function releaseDeed(bytes32 _hash) external onlyOwner(_hash) {\n        Entry storage h = _entries[_hash];\n        Deed deedContract = h.deed;\n\n        require(now >= h.registrationDate + 365 days || ens.owner(rootNode) != address(this));\n\n        h.value = 0;\n        h.highestBid = 0;\n        h.deed = Deed(0);\n\n        _tryEraseSingleNode(_hash);\n        deedContract.closeDeed(1000);\n        emit HashReleased(_hash, h.value);        \n    }\n\n    /**\n     * @dev Submit a name 6 characters long or less. If it has been registered,\n     *      the submitter will earn 50% of the deed value. \n     * \n     * We are purposefully handicapping the simplified registrar as a way \n     * to force it into being restructured in a few years.\n     *\n     * @param unhashedName An invalid name to search for in the registry.\n     */\n    function invalidateName(string calldata unhashedName)\n        external\n        inState(keccak256(abi.encode(unhashedName)), Mode.Owned)\n    {\n        require(strlen(unhashedName) <= 6);\n        bytes32 hash = keccak256(abi.encode(unhashedName));\n\n        Entry storage h = _entries[hash];\n\n        _tryEraseSingleNode(hash);\n\n        if (address(h.deed) != address(0x0)) {\n            // Reward the discoverer with 50% of the deed\n            // The previous owner gets 50%\n            h.value = max(h.value, minPrice);\n            h.deed.setBalance(h.value/2, false);\n            h.deed.setOwner(msg.sender);\n            h.deed.closeDeed(1000);\n        }\n\n        emit HashInvalidated(hash, unhashedName, h.value, h.registrationDate);\n\n        h.value = 0;\n        h.highestBid = 0;\n        h.deed = Deed(0);\n    }\n\n    /**\n     * @dev Allows anyone to delete the owner and resolver records for a (subdomain of) a\n     *      name that is not currently owned in the registrar. If passing, eg, 'foo.bar.eth',\n     *      the owner and resolver fields on 'foo.bar.eth' and 'bar.eth' will all be cleared.\n     *\n     * @param labels A series of label hashes identifying the name to zero out, rooted at the\n     *        registrar's root. Must contain at least one element. For instance, to zero \n     *        'foo.bar.eth' on a registrar that owns '.eth', pass an array containing\n     *        [keccak256('foo'), keccak256('bar')].\n     */\n    function eraseNode(bytes32[] calldata labels) external {\n        require(labels.length != 0);\n        require(state(labels[labels.length - 1]) != Mode.Owned);\n\n        _eraseNodeHierarchy(labels.length - 1, labels, rootNode);\n    }\n\n    /**\n     * @dev Transfers the deed to the current registrar, if different from this one.\n     *\n     * Used during the upgrade process to a permanent registrar.\n     *\n     * @param _hash The name hash to transfer.\n     */\n    function transferRegistrars(bytes32 _hash) external onlyOwner(_hash) {\n        address registrar = ens.owner(rootNode);\n        require(registrar != address(this));\n\n        // Migrate the deed\n        Entry storage h = _entries[_hash];\n        h.deed.setRegistrar(registrar);\n\n        // Call the new registrar to accept the transfer\n        Registrar(registrar).acceptRegistrarTransfer(_hash, h.deed, h.registrationDate);\n\n        // Zero out the Entry\n        h.deed = Deed(0);\n        h.registrationDate = 0;\n        h.value = 0;\n        h.highestBid = 0;\n    }\n\n    /**\n     * @dev Accepts a transfer from a previous registrar; stubbed out here since there\n     *      is no previous registrar implementing this interface.\n     *\n     * @param hash The sha3 hash of the label to transfer.\n     * @param deed The Deed object for the name being transferred in.\n     * @param registrationDate The date at which the name was originally registered.\n     */\n    function acceptRegistrarTransfer(bytes32 hash, Deed deed, uint registrationDate) external {\n        hash; deed; registrationDate; // Don't warn about unused variables\n    }\n\n    function entries(bytes32 _hash) external view returns (Mode, address, uint, uint, uint) {\n        Entry storage h = _entries[_hash];\n        return (state(_hash), address(h.deed), h.registrationDate, h.value, h.highestBid);\n    }\n\n    // State transitions for names:\n    //   Open -> Auction (startAuction)\n    //   Auction -> Reveal\n    //   Reveal -> Owned\n    //   Reveal -> Open (if nobody bid)\n    //   Owned -> Open (releaseDeed or invalidateName)\n    function state(bytes32 _hash) public view returns (Mode) {\n        Entry storage entry = _entries[_hash];\n\n        if (!isAllowed(_hash, now)) {\n            return Mode.NotYetAvailable;\n        } else if (now < entry.registrationDate) {\n            if (now < entry.registrationDate - revealPeriod) {\n                return Mode.Auction;\n            } else {\n                return Mode.Reveal;\n            }\n        } else {\n            if (entry.highestBid == 0) {\n                return Mode.Open;\n            } else {\n                return Mode.Owned;\n            }\n        }\n    }\n\n    /**\n     * @dev Determines if a name is available for registration yet\n     *\n     * Each name will be assigned a random date in which its auction\n     * can be started, from 0 to 8 weeks\n     *\n     * @param _hash The hash to start an auction on\n     * @param _timestamp The timestamp to query about\n     */\n    function isAllowed(bytes32 _hash, uint _timestamp) public view returns (bool allowed) {\n        return _timestamp > getAllowedTime(_hash);\n    }\n\n    /**\n     * @dev Returns available date for hash\n     *\n     * The available time from the `registryStarted` for a hash is proportional\n     * to its numeric value.\n     *\n     * @param _hash The hash to start an auction on\n     */\n    function getAllowedTime(bytes32 _hash) public view returns (uint) {\n        return registryStarted + ((launchLength * (uint(_hash) >> 128)) >> 128);\n        // Right shift operator: a >> b == a / 2**b\n    }\n\n    /**\n     * @dev Hash the values required for a secret bid\n     *\n     * @param hash The node corresponding to the desired namehash\n     * @param value The bid amount\n     * @param salt A random value to ensure secrecy of the bid\n     * @return The hash of the bid values\n     */\n    function shaBid(bytes32 hash, address owner, uint value, bytes32 salt) public pure returns (bytes32) {\n        return keccak256(abi.encodePacked(hash, owner, value, salt));\n    }\n\n    function _tryEraseSingleNode(bytes32 label) internal {\n        if (ens.owner(rootNode) == address(this)) {\n            ens.setSubnodeOwner(rootNode, label, address(this));\n            bytes32 node = keccak256(abi.encodePacked(rootNode, label));\n            ens.setResolver(node, address(0x0));\n            ens.setOwner(node, address(0x0));\n        }\n    }\n\n    function _startAuction(bytes32 _hash) internal registryOpen() {\n        Mode mode = state(_hash);\n        if (mode == Mode.Auction) return;\n        require(mode == Mode.Open);\n\n        Entry storage newAuction = _entries[_hash];\n        newAuction.registrationDate = now + totalAuctionLength;\n        newAuction.value = 0;\n        newAuction.highestBid = 0;\n        emit AuctionStarted(_hash, newAuction.registrationDate);\n    }\n\n    function _startAuctions(bytes32[] memory _hashes) internal {\n        for (uint i = 0; i < _hashes.length; i ++) {\n            _startAuction(_hashes[i]);\n        }\n    }\n\n    function _newBid(bytes32 sealedBid) internal {\n        require(address(sealedBids[msg.sender][sealedBid]) == address(0x0));\n        require(msg.value >= minPrice);\n\n        // Creates a new hash contract with the owner\n        Deed bid = (new DeedImplementation).value(msg.value)(msg.sender);\n        sealedBids[msg.sender][sealedBid] = bid;\n        emit NewBid(sealedBid, msg.sender, msg.value);\n    }\n\n    function _eraseNodeHierarchy(uint idx, bytes32[] memory labels, bytes32 node) internal {\n        // Take ownership of the node\n        ens.setSubnodeOwner(node, labels[idx], address(this));\n        node = keccak256(abi.encodePacked(node, labels[idx]));\n\n        // Recurse if there are more labels\n        if (idx > 0) {\n            _eraseNodeHierarchy(idx - 1, labels, node);\n        }\n\n        // Erase the resolver and owner records\n        ens.setResolver(node, address(0x0));\n        ens.setOwner(node, address(0x0));\n    }\n\n    /**\n     * @dev Assign the owner in ENS, if we're still the registrar\n     *\n     * @param _hash hash to change owner\n     * @param _newOwner new owner to transfer to\n     */\n    function trySetSubnodeOwner(bytes32 _hash, address _newOwner) internal {\n        if (ens.owner(rootNode) == address(this))\n            ens.setSubnodeOwner(rootNode, _hash, _newOwner);\n    }\n\n    /**\n     * @dev Returns the maximum of two unsigned integers\n     *\n     * @param a A number to compare\n     * @param b A number to compare\n     * @return The maximum of two unsigned integers\n     */\n    function max(uint a, uint b) internal pure returns (uint) {\n        if (a > b)\n            return a;\n        else\n            return b;\n    }\n\n    /**\n     * @dev Returns the minimum of two unsigned integers\n     *\n     * @param a A number to compare\n     * @param b A number to compare\n     * @return The minimum of two unsigned integers\n     */\n    function min(uint a, uint b) internal pure returns (uint) {\n        if (a < b)\n            return a;\n        else\n            return b;\n    }\n\n    /**\n     * @dev Returns the length of a given string\n     *\n     * @param s The string to measure the length of\n     * @return The length of the input string\n     */\n    function strlen(string memory s) internal pure returns (uint) {\n        s; // Don't warn about unused variables\n        // Starting here means the LSB will be the byte we care about\n        uint ptr;\n        uint end;\n        assembly {\n            ptr := add(s, 1)\n            end := add(mload(s), ptr)\n        }\n        uint len = 0;\n        for (len; ptr < end; len++) {\n            uint8 b;\n            assembly { b := and(mload(ptr), 0xFF) }\n            if (b < 0x80) {\n                ptr += 1;\n            } else if (b < 0xE0) {\n                ptr += 2;\n            } else if (b < 0xF0) {\n                ptr += 3;\n            } else if (b < 0xF8) {\n                ptr += 4;\n            } else if (b < 0xFC) {\n                ptr += 5;\n            } else {\n                ptr += 6;\n            }\n        }\n        return len;\n    }\n\n}\n\n// File: openzeppelin-solidity/contracts/introspection/IERC165.sol\n\npragma solidity ^0.5.0;\n\n/**\n * @title IERC165\n * @dev https://github.com/ethereum/EIPs/blob/master/EIPS/eip-165.md\n */\ninterface IERC165 {\n    /**\n     * @notice Query if a contract implements an interface\n     * @param interfaceId The interface identifier, as specified in ERC-165\n     * @dev Interface identification is specified in ERC-165. This function\n     * uses less than 30,000 gas.\n     */\n    function supportsInterface(bytes4 interfaceId) external view returns (bool);\n}\n\n// File: openzeppelin-solidity/contracts/token/ERC721/IERC721.sol\n\npragma solidity ^0.5.0;\n\n\n/**\n * @title ERC721 Non-Fungible Token Standard basic interface\n * @dev see https://github.com/ethereum/EIPs/blob/master/EIPS/eip-721.md\n */\ncontract IERC721 is IERC165 {\n    event Transfer(address indexed from, address indexed to, uint256 indexed tokenId);\n    event Approval(address indexed owner, address indexed approved, uint256 indexed tokenId);\n    event ApprovalForAll(address indexed owner, address indexed operator, bool approved);\n\n    function balanceOf(address owner) public view returns (uint256 balance);\n    function ownerOf(uint256 tokenId) public view returns (address owner);\n\n    function approve(address to, uint256 tokenId) public;\n    function getApproved(uint256 tokenId) public view returns (address operator);\n\n    function setApprovalForAll(address operator, bool _approved) public;\n    function isApprovedForAll(address owner, address operator) public view returns (bool);\n\n    function transferFrom(address from, address to, uint256 tokenId) public;\n    function safeTransferFrom(address from, address to, uint256 tokenId) public;\n\n    function safeTransferFrom(address from, address to, uint256 tokenId, bytes memory data) public;\n}\n\n// File: openzeppelin-solidity/contracts/token/ERC721/IERC721Receiver.sol\n\npragma solidity ^0.5.0;\n\n/**\n * @title ERC721 token receiver interface\n * @dev Interface for any contract that wants to support safeTransfers\n * from ERC721 asset contracts.\n */\ncontract IERC721Receiver {\n    /**\n     * @notice Handle the receipt of an NFT\n     * @dev The ERC721 smart contract calls this function on the recipient\n     * after a `safeTransfer`. This function MUST return the function selector,\n     * otherwise the caller will revert the transaction. The selector to be\n     * returned can be obtained as `this.onERC721Received.selector`. This\n     * function MAY throw to revert and reject the transfer.\n     * Note: the ERC721 contract address is always the message sender.\n     * @param operator The address which called `safeTransferFrom` function\n     * @param from The address which previously owned the token\n     * @param tokenId The NFT identifier which is being transferred\n     * @param data Additional data with no specified format\n     * @return `bytes4(keccak256(\"onERC721Received(address,address,uint256,bytes)\"))`\n     */\n    function onERC721Received(address operator, address from, uint256 tokenId, bytes memory data)\n    public returns (bytes4);\n}\n\n// File: openzeppelin-solidity/contracts/math/SafeMath.sol\n\npragma solidity ^0.5.0;\n\n/**\n * @title SafeMath\n * @dev Unsigned math operations with safety checks that revert on error\n */\nlibrary SafeMath {\n    /**\n    * @dev Multiplies two unsigned integers, reverts on overflow.\n    */\n    function mul(uint256 a, uint256 b) internal pure returns (uint256) {\n        // Gas optimization: this is cheaper than requiring 'a' not being zero, but the\n        // benefit is lost if 'b' is also tested.\n        // See: https://github.com/OpenZeppelin/openzeppelin-solidity/pull/522\n        if (a == 0) {\n            return 0;\n        }\n\n        uint256 c = a * b;\n        require(c / a == b);\n\n        return c;\n    }\n\n    /**\n    * @dev Integer division of two unsigned integers truncating the quotient, reverts on division by zero.\n    */\n    function div(uint256 a, uint256 b) internal pure returns (uint256) {\n        // Solidity only automatically asserts when dividing by 0\n        require(b > 0);\n        uint256 c = a / b;\n        // assert(a == b * c + a % b); // There is no case in which this doesn't hold\n\n        return c;\n    }\n\n    /**\n    * @dev Subtracts two unsigned integers, reverts on overflow (i.e. if subtrahend is greater than minuend).\n    */\n    function sub(uint256 a, uint256 b) internal pure returns (uint256) {\n        require(b <= a);\n        uint256 c = a - b;\n\n        return c;\n    }\n\n    /**\n    * @dev Adds two unsigned integers, reverts on overflow.\n    */\n    function add(uint256 a, uint256 b) internal pure returns (uint256) {\n        uint256 c = a + b;\n        require(c >= a);\n\n        return c;\n    }\n\n    /**\n    * @dev Divides two unsigned integers and returns the remainder (unsigned integer modulo),\n    * reverts when dividing by zero.\n    */\n    function mod(uint256 a, uint256 b) internal pure returns (uint256) {\n        require(b != 0);\n        return a % b;\n    }\n}\n\n// File: openzeppelin-solidity/contracts/utils/Address.sol\n\npragma solidity ^0.5.0;\n\n/**\n * Utility library of inline functions on addresses\n */\nlibrary Address {\n    /**\n     * Returns whether the target address is a contract\n     * @dev This function will return false if invoked during the constructor of a contract,\n     * as the code is not actually created until after the constructor finishes.\n     * @param account address of the account to check\n     * @return whether the target address is a contract\n     */\n    function isContract(address account) internal view returns (bool) {\n        uint256 size;\n        // XXX Currently there is no better way to check if there is a contract in an address\n        // than to check the size of the code at that address.\n        // See https://ethereum.stackexchange.com/a/14016/36603\n        // for more details about how this works.\n        // TODO Check this again before the Serenity release, because all addresses will be\n        // contracts then.\n        // solhint-disable-next-line no-inline-assembly\n        assembly { size := extcodesize(account) }\n        return size > 0;\n    }\n}\n\n// File: openzeppelin-solidity/contracts/introspection/ERC165.sol\n\npragma solidity ^0.5.0;\n\n\n/**\n * @title ERC165\n * @author Matt Condon (@shrugs)\n * @dev Implements ERC165 using a lookup table.\n */\ncontract ERC165 is IERC165 {\n    bytes4 private constant _INTERFACE_ID_ERC165 = 0x01ffc9a7;\n    /**\n     * 0x01ffc9a7 ===\n     *     bytes4(keccak256('supportsInterface(bytes4)'))\n     */\n\n    /**\n     * @dev a mapping of interface id to whether or not it's supported\n     */\n    mapping(bytes4 => bool) private _supportedInterfaces;\n\n    /**\n     * @dev A contract implementing SupportsInterfaceWithLookup\n     * implement ERC165 itself\n     */\n    constructor () internal {\n        _registerInterface(_INTERFACE_ID_ERC165);\n    }\n\n    /**\n     * @dev implement supportsInterface(bytes4) using a lookup table\n     */\n    function supportsInterface(bytes4 interfaceId) external view returns (bool) {\n        return _supportedInterfaces[interfaceId];\n    }\n\n    /**\n     * @dev internal method for registering an interface\n     */\n    function _registerInterface(bytes4 interfaceId) internal {\n        require(interfaceId != 0xffffffff);\n        _supportedInterfaces[interfaceId] = true;\n    }\n}\n\n// File: openzeppelin-solidity/contracts/token/ERC721/ERC721.sol\n\npragma solidity ^0.5.0;\n\n\n\n\n\n\n/**\n * @title ERC721 Non-Fungible Token Standard basic implementation\n * @dev see https://github.com/ethereum/EIPs/blob/master/EIPS/eip-721.md\n */\ncontract ERC721 is ERC165, IERC721 {\n    using SafeMath for uint256;\n    using Address for address;\n\n    // Equals to `bytes4(keccak256(\"onERC721Received(address,address,uint256,bytes)\"))`\n    // which can be also obtained as `IERC721Receiver(0).onERC721Received.selector`\n    bytes4 private constant _ERC721_RECEIVED = 0x150b7a02;\n\n    // Mapping from token ID to owner\n    mapping (uint256 => address) private _tokenOwner;\n\n    // Mapping from token ID to approved address\n    mapping (uint256 => address) private _tokenApprovals;\n\n    // Mapping from owner to number of owned token\n    mapping (address => uint256) private _ownedTokensCount;\n\n    // Mapping from owner to operator approvals\n    mapping (address => mapping (address => bool)) private _operatorApprovals;\n\n    bytes4 private constant _INTERFACE_ID_ERC721 = 0x80ac58cd;\n    /*\n     * 0x80ac58cd ===\n     *     bytes4(keccak256('balanceOf(address)')) ^\n     *     bytes4(keccak256('ownerOf(uint256)')) ^\n     *     bytes4(keccak256('approve(address,uint256)')) ^\n     *     bytes4(keccak256('getApproved(uint256)')) ^\n     *     bytes4(keccak256('setApprovalForAll(address,bool)')) ^\n     *     bytes4(keccak256('isApprovedForAll(address,address)')) ^\n     *     bytes4(keccak256('transferFrom(address,address,uint256)')) ^\n     *     bytes4(keccak256('safeTransferFrom(address,address,uint256)')) ^\n     *     bytes4(keccak256('safeTransferFrom(address,address,uint256,bytes)'))\n     */\n\n    constructor () public {\n        // register the supported interfaces to conform to ERC721 via ERC165\n        _registerInterface(_INTERFACE_ID_ERC721);\n    }\n\n    /**\n     * @dev Gets the balance of the specified address\n     * @param owner address to query the balance of\n     * @return uint256 representing the amount owned by the passed address\n     */\n    function balanceOf(address owner) public view returns (uint256) {\n        require(owner != address(0));\n        return _ownedTokensCount[owner];\n    }\n\n    /**\n     * @dev Gets the owner of the specified token ID\n     * @param tokenId uint256 ID of the token to query the owner of\n     * @return owner address currently marked as the owner of the given token ID\n     */\n    function ownerOf(uint256 tokenId) public view returns (address) {\n        address owner = _tokenOwner[tokenId];\n        require(owner != address(0));\n        return owner;\n    }\n\n    /**\n     * @dev Approves another address to transfer the given token ID\n     * The zero address indicates there is no approved address.\n     * There can only be one approved address per token at a given time.\n     * Can only be called by the token owner or an approved operator.\n     * @param to address to be approved for the given token ID\n     * @param tokenId uint256 ID of the token to be approved\n     */\n    function approve(address to, uint256 tokenId) public {\n        address owner = ownerOf(tokenId);\n        require(to != owner);\n        require(msg.sender == owner || isApprovedForAll(owner, msg.sender));\n\n        _tokenApprovals[tokenId] = to;\n        emit Approval(owner, to, tokenId);\n    }\n\n    /**\n     * @dev Gets the approved address for a token ID, or zero if no address set\n     * Reverts if the token ID does not exist.\n     * @param tokenId uint256 ID of the token to query the approval of\n     * @return address currently approved for the given token ID\n     */\n    function getApproved(uint256 tokenId) public view returns (address) {\n        require(_exists(tokenId));\n        return _tokenApprovals[tokenId];\n    }\n\n    /**\n     * @dev Sets or unsets the approval of a given operator\n     * An operator is allowed to transfer all tokens of the sender on their behalf\n     * @param to operator address to set the approval\n     * @param approved representing the status of the approval to be set\n     */\n    function setApprovalForAll(address to, bool approved) public {\n        require(to != msg.sender);\n        _operatorApprovals[msg.sender][to] = approved;\n        emit ApprovalForAll(msg.sender, to, approved);\n    }\n\n    /**\n     * @dev Tells whether an operator is approved by a given owner\n     * @param owner owner address which you want to query the approval of\n     * @param operator operator address which you want to query the approval of\n     * @return bool whether the given operator is approved by the given owner\n     */\n    function isApprovedForAll(address owner, address operator) public view returns (bool) {\n        return _operatorApprovals[owner][operator];\n    }\n\n    /**\n     * @dev Transfers the ownership of a given token ID to another address\n     * Usage of this method is discouraged, use `safeTransferFrom` whenever possible\n     * Requires the msg sender to be the owner, approved, or operator\n     * @param from current owner of the token\n     * @param to address to receive the ownership of the given token ID\n     * @param tokenId uint256 ID of the token to be transferred\n    */\n    function transferFrom(address from, address to, uint256 tokenId) public {\n        require(_isApprovedOrOwner(msg.sender, tokenId));\n\n        _transferFrom(from, to, tokenId);\n    }\n\n    /**\n     * @dev Safely transfers the ownership of a given token ID to another address\n     * If the target address is a contract, it must implement `onERC721Received`,\n     * which is called upon a safe transfer, and return the magic value\n     * `bytes4(keccak256(\"onERC721Received(address,address,uint256,bytes)\"))`; otherwise,\n     * the transfer is reverted.\n     *\n     * Requires the msg sender to be the owner, approved, or operator\n     * @param from current owner of the token\n     * @param to address to receive the ownership of the given token ID\n     * @param tokenId uint256 ID of the token to be transferred\n    */\n    function safeTransferFrom(address from, address to, uint256 tokenId) public {\n        safeTransferFrom(from, to, tokenId, \"\");\n    }\n\n    /**\n     * @dev Safely transfers the ownership of a given token ID to another address\n     * If the target address is a contract, it must implement `onERC721Received`,\n     * which is called upon a safe transfer, and return the magic value\n     * `bytes4(keccak256(\"onERC721Received(address,address,uint256,bytes)\"))`; otherwise,\n     * the transfer is reverted.\n     * Requires the msg sender to be the owner, approved, or operator\n     * @param from current owner of the token\n     * @param to address to receive the ownership of the given token ID\n     * @param tokenId uint256 ID of the token to be transferred\n     * @param _data bytes data to send along with a safe transfer check\n     */\n    function safeTransferFrom(address from, address to, uint256 tokenId, bytes memory _data) public {\n        transferFrom(from, to, tokenId);\n        require(_checkOnERC721Received(from, to, tokenId, _data));\n    }\n\n    /**\n     * @dev Returns whether the specified token exists\n     * @param tokenId uint256 ID of the token to query the existence of\n     * @return whether the token exists\n     */\n    function _exists(uint256 tokenId) internal view returns (bool) {\n        address owner = _tokenOwner[tokenId];\n        return owner != address(0);\n    }\n\n    /**\n     * @dev Returns whether the given spender can transfer a given token ID\n     * @param spender address of the spender to query\n     * @param tokenId uint256 ID of the token to be transferred\n     * @return bool whether the msg.sender is approved for the given token ID,\n     *    is an operator of the owner, or is the owner of the token\n     */\n    function _isApprovedOrOwner(address spender, uint256 tokenId) internal view returns (bool) {\n        address owner = ownerOf(tokenId);\n        return (spender == owner || getApproved(tokenId) == spender || isApprovedForAll(owner, spender));\n    }\n\n    /**\n     * @dev Internal function to mint a new token\n     * Reverts if the given token ID already exists\n     * @param to The address that will own the minted token\n     * @param tokenId uint256 ID of the token to be minted\n     */\n    function _mint(address to, uint256 tokenId) internal {\n        require(to != address(0));\n        require(!_exists(tokenId));\n\n        _tokenOwner[tokenId] = to;\n        _ownedTokensCount[to] = _ownedTokensCount[to].add(1);\n\n        emit Transfer(address(0), to, tokenId);\n    }\n\n    /**\n     * @dev Internal function to burn a specific token\n     * Reverts if the token does not exist\n     * Deprecated, use _burn(uint256) instead.\n     * @param owner owner of the token to burn\n     * @param tokenId uint256 ID of the token being burned\n     */\n    function _burn(address owner, uint256 tokenId) internal {\n        require(ownerOf(tokenId) == owner);\n\n        _clearApproval(tokenId);\n\n        _ownedTokensCount[owner] = _ownedTokensCount[owner].sub(1);\n        _tokenOwner[tokenId] = address(0);\n\n        emit Transfer(owner, address(0), tokenId);\n    }\n\n    /**\n     * @dev Internal function to burn a specific token\n     * Reverts if the token does not exist\n     * @param tokenId uint256 ID of the token being burned\n     */\n    function _burn(uint256 tokenId) internal {\n        _burn(ownerOf(tokenId), tokenId);\n    }\n\n    /**\n     * @dev Internal function to transfer ownership of a given token ID to another address.\n     * As opposed to transferFrom, this imposes no restrictions on msg.sender.\n     * @param from current owner of the token\n     * @param to address to receive the ownership of the given token ID\n     * @param tokenId uint256 ID of the token to be transferred\n    */\n    function _transferFrom(address from, address to, uint256 tokenId) internal {\n        require(ownerOf(tokenId) == from);\n        require(to != address(0));\n\n        _clearApproval(tokenId);\n\n        _ownedTokensCount[from] = _ownedTokensCount[from].sub(1);\n        _ownedTokensCount[to] = _ownedTokensCount[to].add(1);\n\n        _tokenOwner[tokenId] = to;\n\n        emit Transfer(from, to, tokenId);\n    }\n\n    /**\n     * @dev Internal function to invoke `onERC721Received` on a target address\n     * The call is not executed if the target address is not a contract\n     * @param from address representing the previous owner of the given token ID\n     * @param to target address that will receive the tokens\n     * @param tokenId uint256 ID of the token to be transferred\n     * @param _data bytes optional data to send along with the call\n     * @return whether the call correctly returned the expected magic value\n     */\n    function _checkOnERC721Received(address from, address to, uint256 tokenId, bytes memory _data)\n        internal returns (bool)\n    {\n        if (!to.isContract()) {\n            return true;\n        }\n\n        bytes4 retval = IERC721Receiver(to).onERC721Received(msg.sender, from, tokenId, _data);\n        return (retval == _ERC721_RECEIVED);\n    }\n\n    /**\n     * @dev Private function to clear current approval of a given token ID\n     * @param tokenId uint256 ID of the token to be transferred\n     */\n    function _clearApproval(uint256 tokenId) private {\n        if (_tokenApprovals[tokenId] != address(0)) {\n            _tokenApprovals[tokenId] = address(0);\n        }\n    }\n}\n\n// File: openzeppelin-solidity/contracts/ownership/Ownable.sol\n\npragma solidity ^0.5.0;\n\n/**\n * @title Ownable\n * @dev The Ownable contract has an owner address, and provides basic authorization control\n * functions, this simplifies the implementation of \"user permissions\".\n */\ncontract Ownable {\n    address private _owner;\n\n    event OwnershipTransferred(address indexed previousOwner, address indexed newOwner);\n\n    /**\n     * @dev The Ownable constructor sets the original `owner` of the contract to the sender\n     * account.\n     */\n    constructor () internal {\n        _owner = msg.sender;\n        emit OwnershipTransferred(address(0), _owner);\n    }\n\n    /**\n     * @return the address of the owner.\n     */\n    function owner() public view returns (address) {\n        return _owner;\n    }\n\n    /**\n     * @dev Throws if called by any account other than the owner.\n     */\n    modifier onlyOwner() {\n        require(isOwner());\n        _;\n    }\n\n    /**\n     * @return true if `msg.sender` is the owner of the contract.\n     */\n    function isOwner() public view returns (bool) {\n        return msg.sender == _owner;\n    }\n\n    /**\n     * @dev Allows the current owner to relinquish control of the contract.\n     * @notice Renouncing to ownership will leave the contract without an owner.\n     * It will not be possible to call the functions with the `onlyOwner`\n     * modifier anymore.\n     */\n    function renounceOwnership() public onlyOwner {\n        emit OwnershipTransferred(_owner, address(0));\n        _owner = address(0);\n    }\n\n    /**\n     * @dev Allows the current owner to transfer control of the contract to a newOwner.\n     * @param newOwner The address to transfer ownership to.\n     */\n    function transferOwnership(address newOwner) public onlyOwner {\n        _transferOwnership(newOwner);\n    }\n\n    /**\n     * @dev Transfers control of the contract to a newOwner.\n     * @param newOwner The address to transfer ownership to.\n     */\n    function _transferOwnership(address newOwner) internal {\n        require(newOwner != address(0));\n        emit OwnershipTransferred(_owner, newOwner);\n        _owner = newOwner;\n    }\n}\n\n// File: contracts/BaseRegistrar.sol\n\npragma solidity >=0.4.24;\n\n\n\n\n\ncontract BaseRegistrar is ERC721, Ownable {\n    uint constant public GRACE_PERIOD = 90 days;\n\n    event ControllerAdded(address indexed controller);\n    event ControllerRemoved(address indexed controller);\n    event NameMigrated(uint256 indexed id, address indexed owner, uint expires);\n    event NameRegistered(uint256 indexed id, address indexed owner, uint expires);\n    event NameRenewed(uint256 indexed id, uint expires);\n\n    // Expiration timestamp for migrated domains.\n    uint public transferPeriodEnds;\n\n    // The ENS registry\n    ENS public ens;\n\n    // The namehash of the TLD this registrar owns (eg, .eth)\n    bytes32 public baseNode;\n\n    // The interim registrar\n    HashRegistrar public previousRegistrar;\n\n    // A map of addresses that are authorised to register and renew names.\n    mapping(address=>bool) public controllers;\n\n    // Authorises a controller, who can register and renew domains.\n    function addController(address controller) external;\n\n    // Revoke controller permission for an address.\n    function removeController(address controller) external;\n\n    // Set the resolver for the TLD this registrar manages.\n    function setResolver(address resolver) external;\n\n    // Returns the expiration timestamp of the specified label hash.\n    function nameExpires(uint256 id) external view returns(uint);\n\n    // Returns true iff the specified name is available for registration.\n    function available(uint256 id) public view returns(bool);\n\n    /**\n     * @dev Register a name.\n     */\n    function register(uint256 id, address owner, uint duration) external returns(uint);\n\n    function renew(uint256 id, uint duration) external returns(uint);\n\n    /**\n     * @dev Reclaim ownership of a name in ENS, if you own it in the registrar.\n     */\n    function reclaim(uint256 id, address owner) external;\n\n    /**\n     * @dev Transfers a registration from the initial registrar.\n     * This function is called by the initial registrar when a user calls `transferRegistrars`.\n     */\n    function acceptRegistrarTransfer(bytes32 label, Deed deed, uint) external;\n}\n\n// File: contracts/BaseRegistrarImplementation.sol\n\npragma solidity ^0.5.0;\n\n\n\n\n\ncontract EnsBaseRegistrar is BaseRegistrar {\n    // A map of expiry times\n    mapping(uint256=>uint) expiries;\n\n    uint constant public MIGRATION_LOCK_PERIOD = 28 days;\n\n    bytes4 constant private INTERFACE_META_ID = bytes4(keccak256(\"supportsInterface(bytes4)\"));\n    bytes4 constant private ERC721_ID = bytes4(\n        keccak256(\"balanceOf(uint256)\") ^\n        keccak256(\"ownerOf(uint256)\") ^\n        keccak256(\"approve(address,uint256)\") ^\n        keccak256(\"getApproved(uint256)\") ^\n        keccak256(\"setApprovalForAll(address,bool)\") ^\n        keccak256(\"isApprovedForAll(address,address)\") ^\n        keccak256(\"transferFrom(address,address,uint256)\") ^\n        keccak256(\"safeTransferFrom(address,address,uint256)\") ^\n        keccak256(\"safeTransferFrom(address,address,uint256,bytes)\")\n    );\n    bytes4 constant private RECLAIM_ID = bytes4(keccak256(\"reclaim(uint256,address)\"));\n\n    constructor(ENS _ens, HashRegistrar _previousRegistrar, bytes32 _baseNode, uint _transferPeriodEnds) public {\n        // Require that people have time to transfer names over.\n        require(_transferPeriodEnds > now + 2 * MIGRATION_LOCK_PERIOD);\n\n        ens = _ens;\n        baseNode = _baseNode;\n        previousRegistrar = _previousRegistrar;\n        transferPeriodEnds = _transferPeriodEnds;\n    }\n\n    modifier live {\n        require(ens.owner(baseNode) == address(this));\n        _;\n    }\n\n    modifier onlyController {\n        require(controllers[msg.sender]);\n        _;\n    }\n\n    /**\n     * @dev Gets the owner of the specified token ID. Names become unowned\n     *      when their registration expires.\n     * @param tokenId uint256 ID of the token to query the owner of\n     * @return address currently marked as the owner of the given token ID\n     */\n    function ownerOf(uint256 tokenId) public view returns (address) {\n        require(expiries[tokenId] > now);\n        return super.ownerOf(tokenId);\n    }\n\n    // Authorises a controller, who can register and renew domains.\n    function addController(address controller) external onlyOwner {\n        controllers[controller] = true;\n        emit ControllerAdded(controller);\n    }\n\n    // Revoke controller permission for an address.\n    function removeController(address controller) external onlyOwner {\n        controllers[controller] = false;\n        emit ControllerRemoved(controller);\n    }\n\n    // Set the resolver for the TLD this registrar manages.\n    function setResolver(address resolver) external onlyOwner {\n        ens.setResolver(baseNode, resolver);\n    }\n\n    // Returns the expiration timestamp of the specified id.\n    function nameExpires(uint256 id) external view returns(uint) {\n        return expiries[id];\n    }\n\n    // Returns true iff the specified name is available for registration.\n    function available(uint256 id) public view returns(bool) {\n        // Not available if it's registered here or in its grace period.\n        if(expiries[id] + GRACE_PERIOD >= now) {\n            return false;\n        }\n        // Available if we're past the transfer period, or the name isn't\n        // registered in the legacy registrar.\n        return now > transferPeriodEnds || previousRegistrar.state(bytes32(id)) == Registrar.Mode.Open;\n    }\n\n    /**\n     * @dev Register a name.\n     */\n    function register(uint256 id, address owner, uint duration) external live onlyController returns(uint) {\n        require(available(id));\n        require(now + duration + GRACE_PERIOD > now + GRACE_PERIOD); // Prevent future overflow\n\n        expiries[id] = now + duration;\n        if(_exists(id)) {\n            // Name was previously owned, and expired\n            _burn(id);\n        }\n        _mint(owner, id);\n        ens.setSubnodeOwner(baseNode, bytes32(id), owner);\n\n        emit NameRegistered(id, owner, now + duration);\n\n        return now + duration;\n    }\n\n    function renew(uint256 id, uint duration) external live onlyController returns(uint) {\n        require(expiries[id] + GRACE_PERIOD >= now); // Name must be registered here or in grace period\n        require(expiries[id] + duration + GRACE_PERIOD > duration + GRACE_PERIOD); // Prevent future overflow\n\n        expiries[id] += duration;\n        emit NameRenewed(id, expiries[id]);\n        return expiries[id];\n    }\n\n    /**\n     * @dev Reclaim ownership of a name in ENS, if you own it in the registrar.\n     */\n    function reclaim(uint256 id, address owner) external live {\n        require(_isApprovedOrOwner(msg.sender, id));\n        ens.setSubnodeOwner(baseNode, bytes32(id), owner);\n    }\n\n    /**\n     * @dev Transfers a registration from the initial registrar.\n     * This function is called by the initial registrar when a user calls `transferRegistrars`.\n     */\n    function acceptRegistrarTransfer(bytes32 label, Deed deed, uint) external live {\n        uint256 id = uint256(label);\n\n        require(msg.sender == address(previousRegistrar));\n        require(expiries[id] == 0);\n        require(transferPeriodEnds > now);\n\n        uint registrationDate;\n        (,,registrationDate,,) = previousRegistrar.entries(label);\n        require(registrationDate < now - MIGRATION_LOCK_PERIOD);\n\n        address owner = deed.owner();\n\n        // Destroy the deed and transfer the funds back to the registrant.\n        deed.closeDeed(1000);\n\n        // Register the name\n        expiries[id] = transferPeriodEnds;\n        _mint(owner, id);\n\n        ens.setSubnodeOwner(baseNode, label, owner);\n\n        emit NameMigrated(id, owner, transferPeriodEnds);\n        emit NameRegistered(id, owner, transferPeriodEnds);\n    }\n\n    function supportsInterface(bytes4 interfaceID) external view returns (bool) {\n        return interfaceID == INTERFACE_META_ID ||\n               interfaceID == ERC721_ID ||\n               interfaceID == RECLAIM_ID;\n    }\n}",
  "sourcePath": "/Users/smitrajput/Projects/batchoo/contracts/test/EnsBaseRegistrar.sol",
  "compiler": {
    "name": "solc",
    "version": "0.5.16+commit.9c3226ce.Emscripten.clang"
  },
  "schemaVersion": "3.1.0",
  "updatedAt": "2020-05-20T12:48:23.318Z",
  "devdoc": {
    "details": "The registrar handles the auction process for each subnode of the node it owns.",
    "methods": {
      "acceptRegistrarTransfer(bytes32,address,uint256)": {
        "details": "Accepts a transfer from a previous registrar; stubbed out here since there     is no previous registrar implementing this interface.",
        "params": {
          "deed": "The Deed object for the name being transferred in.",
          "hash": "The sha3 hash of the label to transfer.",
          "registrationDate": "The date at which the name was originally registered."
        }
      },
      "cancelBid(address,bytes32)": {
        "details": "Cancel a bid",
        "params": {
          "seal": "The value returned by the shaBid function"
        }
      },
      "constructor": {
        "details": "Constructs a new Registrar, with the provided address as the owner of the root node.",
        "params": {
          "_ens": "The address of the ENS",
          "_rootNode": "The hash of the rootnode."
        }
      },
      "eraseNode(bytes32[])": {
        "details": "Allows anyone to delete the owner and resolver records for a (subdomain of) a     name that is not currently owned in the registrar. If passing, eg, 'foo.bar.eth',     the owner and resolver fields on 'foo.bar.eth' and 'bar.eth' will all be cleared.",
        "params": {
          "labels": "A series of label hashes identifying the name to zero out, rooted at the       registrar's root. Must contain at least one element. For instance, to zero        'foo.bar.eth' on a registrar that owns '.eth', pass an array containing       [keccak256('foo'), keccak256('bar')]."
        }
      },
      "finalizeAuction(bytes32)": {
        "details": "Finalize an auction after the registration date has passed",
        "params": {
          "_hash": "The hash of the name the auction is for"
        }
      },
      "getAllowedTime(bytes32)": {
        "details": "Returns available date for hash     * The available time from the `registryStarted` for a hash is proportional to its numeric value.",
        "params": {
          "_hash": "The hash to start an auction on"
        }
      },
      "invalidateName(string)": {
        "details": "Submit a name 6 characters long or less. If it has been registered,     the submitter will earn 50% of the deed value.       * We are purposefully handicapping the simplified registrar as a way  to force it into being restructured in a few years.",
        "params": {
          "unhashedName": "An invalid name to search for in the registry."
        }
      },
      "isAllowed(bytes32,uint256)": {
        "details": "Determines if a name is available for registration yet     * Each name will be assigned a random date in which its auction can be started, from 0 to 8 weeks",
        "params": {
          "_hash": "The hash to start an auction on",
          "_timestamp": "The timestamp to query about"
        }
      },
      "newBid(bytes32)": {
        "details": "Submit a new sealed bid on a desired hash in a blind auction     * Bids are sent by sending a message to the main contract with a hash and an amount. The hash contains information about the bid, including the bidded hash, the bid amount, and a random salt. Bids are not tied to any one auction until they are revealed. The value of the bid itself can be masqueraded by sending more than the value of your actual bid. This is followed by a 48h reveal period. Bids revealed after this period will be burned and the ether unrecoverable. Since this is an auction, it is expected that most public hashes, like known domains and common dictionary words, will have multiple bidders pushing the price up.",
        "params": {
          "sealedBid": "A sealedBid, created by the shaBid function"
        }
      },
      "releaseDeed(bytes32)": {
        "details": "After some time, or if we're no longer the registrar, the owner can release     the name and get their ether back.",
        "params": {
          "_hash": "The node to release"
        }
      },
      "shaBid(bytes32,address,uint256,bytes32)": {
        "details": "Hash the values required for a secret bid",
        "params": {
          "hash": "The node corresponding to the desired namehash",
          "salt": "A random value to ensure secrecy of the bid",
          "value": "The bid amount"
        },
        "return": "The hash of the bid values"
      },
      "startAuction(bytes32)": {
        "details": "Start an auction for an available hash",
        "params": {
          "_hash": "The hash to start an auction on"
        }
      },
      "startAuctions(bytes32[])": {
        "details": "Start multiple auctions for better anonymity     * Anyone can start an auction by sending an array of hashes that they want to bid for. Arrays are sent so that someone can open up an auction for X dummy hashes when they are only really interested in bidding for one. This will increase the cost for an attacker to simply bid blindly on all new auctions. Dummy auctions that are open but not bid on are closed after a week.",
        "params": {
          "_hashes": "An array of hashes, at least one of which you presumably want to bid on"
        }
      },
      "startAuctionsAndBid(bytes32[],bytes32)": {
        "details": "Start a set of auctions and bid on one of them     * This method functions identically to calling `startAuctions` followed by `newBid`, but all in one transaction.",
        "params": {
          "hashes": "A list of hashes to start auctions on.",
          "sealedBid": "A sealed bid for one of the auctions."
        }
      },
      "transfer(bytes32,address)": {
        "details": "The owner of a domain may transfer it to someone else at any time.",
        "params": {
          "_hash": "The node to transfer",
          "newOwner": "The address to transfer ownership to"
        }
      },
      "transferRegistrars(bytes32)": {
        "details": "Transfers the deed to the current registrar, if different from this one.     * Used during the upgrade process to a permanent registrar.",
        "params": {
          "_hash": "The name hash to transfer."
        }
      },
      "unsealBid(bytes32,uint256,bytes32)": {
        "details": "Submit the properties of a bid to reveal them",
        "params": {
          "_hash": "The node in the sealedBid",
          "_salt": "The sale in the sealedBid",
          "_value": "The bid amount in the sealedBid"
        }
      }
    },
    "title": "Registrar"
  },
  "userdoc": {
    "methods": {}
  }
}