{
  "contractName": "LoginKeyMetaTxAccount",
  "abi": [
    {
      "anonymous": false,
      "inputs": [
        {
          "indexed": true,
          "internalType": "address",
          "name": "authKey",
          "type": "address"
        }
      ],
      "name": "AuthKeyAdded",
      "type": "event"
    },
    {
      "anonymous": false,
      "inputs": [
        {
          "indexed": true,
          "internalType": "address",
          "name": "authKey",
          "type": "address"
        }
      ],
      "name": "AuthKeyRemoved",
      "type": "event"
    },
    {
      "anonymous": false,
      "inputs": [
        {
          "indexed": false,
          "internalType": "string",
          "name": "reason",
          "type": "string"
        }
      ],
      "name": "CallFailed",
      "type": "event"
    },
    {
      "anonymous": false,
      "inputs": [
        {
          "indexed": true,
          "internalType": "address",
          "name": "implementation",
          "type": "address"
        }
      ],
      "name": "Upgraded",
      "type": "event"
    },
    {
      "payable": true,
      "stateMutability": "payable",
      "type": "fallback"
    },
    {
      "constant": false,
      "inputs": [
        {
          "internalType": "address",
          "name": "_authKey",
          "type": "address"
        }
      ],
      "name": "addAuthKey",
      "outputs": [],
      "payable": false,
      "stateMutability": "nonpayable",
      "type": "function"
    },
    {
      "constant": true,
      "inputs": [
        {
          "internalType": "address",
          "name": "",
          "type": "address"
        }
      ],
      "name": "authKeys",
      "outputs": [
        {
          "internalType": "bool",
          "name": "",
          "type": "bool"
        }
      ],
      "payable": false,
      "stateMutability": "view",
      "type": "function"
    },
    {
      "constant": false,
      "inputs": [
        {
          "internalType": "bytes[]",
          "name": "_transactions",
          "type": "bytes[]"
        }
      ],
      "name": "executeMultipleMetaTransactions",
      "outputs": [
        {
          "internalType": "bytes[]",
          "name": "",
          "type": "bytes[]"
        }
      ],
      "payable": false,
      "stateMutability": "nonpayable",
      "type": "function"
    },
    {
      "constant": true,
      "inputs": [],
      "name": "getChainId",
      "outputs": [
        {
          "internalType": "uint256",
          "name": "",
          "type": "uint256"
        }
      ],
      "payable": false,
      "stateMutability": "pure",
      "type": "function"
    },
    {
      "constant": false,
      "inputs": [
        {
          "internalType": "address",
          "name": "_authKey",
          "type": "address"
        }
      ],
      "name": "initializeV1",
      "outputs": [],
      "payable": false,
      "stateMutability": "nonpayable",
      "type": "function"
    },
    {
      "constant": true,
      "inputs": [],
      "name": "lastInitializedVersion",
      "outputs": [
        {
          "internalType": "uint256",
          "name": "",
          "type": "uint256"
        }
      ],
      "payable": false,
      "stateMutability": "view",
      "type": "function"
    },
    {
      "constant": true,
      "inputs": [],
      "name": "nonce",
      "outputs": [
        {
          "internalType": "uint256",
          "name": "",
          "type": "uint256"
        }
      ],
      "payable": false,
      "stateMutability": "view",
      "type": "function"
    },
    {
      "constant": true,
      "inputs": [],
      "name": "numAuthKeys",
      "outputs": [
        {
          "internalType": "uint256",
          "name": "",
          "type": "uint256"
        }
      ],
      "payable": false,
      "stateMutability": "view",
      "type": "function"
    },
    {
      "constant": false,
      "inputs": [
        {
          "internalType": "address",
          "name": "",
          "type": "address"
        },
        {
          "internalType": "address",
          "name": "",
          "type": "address"
        },
        {
          "internalType": "uint256[]",
          "name": "",
          "type": "uint256[]"
        },
        {
          "internalType": "uint256[]",
          "name": "",
          "type": "uint256[]"
        },
        {
          "internalType": "bytes",
          "name": "",
          "type": "bytes"
        }
      ],
      "name": "onERC1155BatchReceived",
      "outputs": [
        {
          "internalType": "bytes4",
          "name": "",
          "type": "bytes4"
        }
      ],
      "payable": false,
      "stateMutability": "nonpayable",
      "type": "function"
    },
    {
      "constant": false,
      "inputs": [
        {
          "internalType": "address",
          "name": "",
          "type": "address"
        },
        {
          "internalType": "address",
          "name": "",
          "type": "address"
        },
        {
          "internalType": "uint256",
          "name": "",
          "type": "uint256"
        },
        {
          "internalType": "uint256",
          "name": "",
          "type": "uint256"
        },
        {
          "internalType": "bytes",
          "name": "",
          "type": "bytes"
        }
      ],
      "name": "onERC1155Received",
      "outputs": [
        {
          "internalType": "bytes4",
          "name": "",
          "type": "bytes4"
        }
      ],
      "payable": false,
      "stateMutability": "nonpayable",
      "type": "function"
    },
    {
      "constant": false,
      "inputs": [
        {
          "internalType": "address",
          "name": "",
          "type": "address"
        },
        {
          "internalType": "address",
          "name": "",
          "type": "address"
        },
        {
          "internalType": "uint256",
          "name": "",
          "type": "uint256"
        },
        {
          "internalType": "bytes",
          "name": "",
          "type": "bytes"
        }
      ],
      "name": "onERC721Received",
      "outputs": [
        {
          "internalType": "bytes4",
          "name": "",
          "type": "bytes4"
        }
      ],
      "payable": false,
      "stateMutability": "nonpayable",
      "type": "function"
    },
    {
      "constant": false,
      "inputs": [
        {
          "internalType": "address",
          "name": "_authKey",
          "type": "address"
        }
      ],
      "name": "removeAuthKey",
      "outputs": [],
      "payable": false,
      "stateMutability": "nonpayable",
      "type": "function"
    },
    {
      "constant": false,
      "inputs": [
        {
          "internalType": "bytes[]",
          "name": "_transactions",
          "type": "bytes[]"
        },
        {
          "internalType": "uint256",
          "name": "_gasPrice",
          "type": "uint256"
        },
        {
          "internalType": "uint256",
          "name": "_gasOverhead",
          "type": "uint256"
        },
        {
          "internalType": "bytes",
          "name": "_loginKeyRestrictionsData",
          "type": "bytes"
        },
        {
          "internalType": "address",
          "name": "_feeTokenAddress",
          "type": "address"
        },
        {
          "internalType": "uint256",
          "name": "_feeTokenRate",
          "type": "uint256"
        },
        {
          "internalType": "bytes",
          "name": "_transactionMessageHashSignature",
          "type": "bytes"
        },
        {
          "internalType": "bytes",
          "name": "_loginKeyAttestationSignature",
          "type": "bytes"
        }
      ],
      "name": "executeMultipleLoginKeyMetaTransactions",
      "outputs": [
        {
          "internalType": "bytes[]",
          "name": "",
          "type": "bytes[]"
        }
      ],
      "payable": false,
      "stateMutability": "nonpayable",
      "type": "function"
    }
  ],
  "bytecode": "0x608060405234801561001057600080fd5b50612bd5806100206000396000f3fe6080604052600436106100c25760003560e01c80637e7fd66c1161007f578063bc197c8111610059578063bc197c8114610277578063d5553b88146102b4578063ec5e319e146102f1578063f23a6e611461031c576100c2565b80637e7fd66c146101f85780639565389e14610223578063affed0e01461024c576100c2565b806313f8c578146100c4578063150b7a02146100ed5780631b9a9f9e1461012a5780633408e470146101535780635175ca5e1461017e578063792c891f146101bb575b005b3480156100d057600080fd5b506100eb60048036036100e69190810190611957565b610359565b005b3480156100f957600080fd5b50610114600480360361010f9190810190611ac7565b610518565b6040516101219190612649565b60405180910390f35b34801561013657600080fd5b50610151600480360361014c9190810190611957565b61052c565b005b34801561015f57600080fd5b50610168610626565b6040516101759190612826565b60405180910390f35b34801561018a57600080fd5b506101a560048036036101a09190810190611957565b61062f565b6040516101b291906125e9565b60405180910390f35b3480156101c757600080fd5b506101e260048036036101dd9190810190611c15565b61064f565b6040516101ef91906125c7565b60405180910390f35b34801561020457600080fd5b5061020d6106df565b60405161021a9190612826565b60405180910390f35b34801561022f57600080fd5b5061024a60048036036102459190810190611957565b6106e5565b005b34801561025857600080fd5b506102616108ea565b60405161026e9190612826565b60405180910390f35b34801561028357600080fd5b5061029e600480360361029991908101906119fb565b6108f0565b6040516102ab9190612649565b60405180910390f35b3480156102c057600080fd5b506102db60048036036102d69190810190611c56565b610908565b6040516102e891906125c7565b60405180910390f35b3480156102fd57600080fd5b506103066109c6565b6040516103139190612826565b60405180910390f35b34801561032857600080fd5b50610343600480360361033e9190810190611b42565b6109cc565b6040516103509190612649565b60405180910390f35b610362336109e2565b8061039857503073ffffffffffffffffffffffffffffffffffffffff163373ffffffffffffffffffffffffffffffffffffffff16145b6103d7576040517f08c379a00000000000000000000000000000000000000000000000000000000081526004016103ce906127a6565b60405180910390fd5b60001515600160008373ffffffffffffffffffffffffffffffffffffffff1673ffffffffffffffffffffffffffffffffffffffff16815260200190815260200160002060009054906101000a900460ff1615151461046a576040517f08c379a0000000000000000000000000000000000000000000000000000000008152600401610461906127c6565b60405180910390fd5b60018060008373ffffffffffffffffffffffffffffffffffffffff1673ffffffffffffffffffffffffffffffffffffffff16815260200190815260200160002060006101000a81548160ff02191690831515021790555060016003600082825401925050819055508073ffffffffffffffffffffffffffffffffffffffff167fb020719d16d3c4de45a91f9c329aa61d5bad3f44f760840c8d5d82d4cd3bcc3360405160405180910390a250565b600063150b7a0260e01b9050949350505050565b6000805414610570576040517f08c379a000000000000000000000000000000000000000000000000000000000815260040161056790612746565b60405180910390fd5b600160008190555060018060008373ffffffffffffffffffffffffffffffffffffffff1673ffffffffffffffffffffffffffffffffffffffff16815260200190815260200160002060006101000a81548160ff02191690831515021790555060016003600082825401925050819055508073ffffffffffffffffffffffffffffffffffffffff167fb020719d16d3c4de45a91f9c329aa61d5bad3f44f760840c8d5d82d4cd3bcc3360405160405180910390a250565b60006001905090565b60016020528060005260406000206000915054906101000a900460ff1681565b606061065a336109e2565b8061069057503073ffffffffffffffffffffffffffffffffffffffff163373ffffffffffffffffffffffffffffffffffffffff16145b6106cf576040517f08c379a00000000000000000000000000000000000000000000000000000000081526004016106c6906127a6565b60405180910390fd5b6106d882610a38565b9050919050565b60005481565b6106ee336109e2565b8061072457503073ffffffffffffffffffffffffffffffffffffffff163373ffffffffffffffffffffffffffffffffffffffff16145b610763576040517f08c379a000000000000000000000000000000000000000000000000000000000815260040161075a906127a6565b60405180910390fd5b60011515600160008373ffffffffffffffffffffffffffffffffffffffff1673ffffffffffffffffffffffffffffffffffffffff16815260200190815260200160002060009054906101000a900460ff161515146107f6576040517f08c379a00000000000000000000000000000000000000000000000000000000081526004016107ed906127e6565b60405180910390fd5b60016003541161083b576040517f08c379a000000000000000000000000000000000000000000000000000000000815260040161083290612726565b60405180910390fd5b6000600160008373ffffffffffffffffffffffffffffffffffffffff1673ffffffffffffffffffffffffffffffffffffffff16815260200190815260200160002060006101000a81548160ff02191690831515021790555060016003600082825403925050819055508073ffffffffffffffffffffffffffffffffffffffff167fbe55f9add9abe657e689a4a84a31854310f260c7e2610bcd22440e3ec3a836a460405160405180910390a250565b60025481565b600063bc197c8160e01b905098975050505050505050565b606060005a90506109198a88610acc565b6000610987306000357fffffffff000000000000000000000000000000000000000000000000000000001661094c610626565b6002548f8f8f8e8e60405160200161096c999897969594939291906124da565b60405160208183030381529060405280519060200120610be0565b905061099581868a87610c10565b60606109a48c8c8c8b8b610cc4565b9150506109b4838c8c8b8b610ef3565b80935050505098975050505050505050565b60035481565b600063f23a6e6160e01b90509695505050505050565b6000600160008373ffffffffffffffffffffffffffffffffffffffff1673ffffffffffffffffffffffffffffffffffffffff16815260200190815260200160002060009054906101000a900460ff169050919050565b6060808251604051908082528060200260200182016040528015610a7057816020015b6060815260200190600190039081610a5b5790505b50905060008090505b8351811015610ac257610a9e848281518110610a9157fe5b60200260200101516111a8565b828281518110610aaa57fe5b60200260200101819052508080600101915050610a79565b5080915050919050565b600080600090505b8351811015610b7f57610af9848281518110610aec57fe5b60200260200101516111d9565b909150905050809250503073ffffffffffffffffffffffffffffffffffffffff168273ffffffffffffffffffffffffffffffffffffffff161415610b72576040517f08c379a0000000000000000000000000000000000000000000000000000000008152600401610b6990612766565b60405180910390fd5b8080600101915050610ad4565b50600082806020019051610b969190810190611dd2565b9050428111610bda576040517f08c379a0000000000000000000000000000000000000000000000000000000008152600401610bd190612706565b60405180910390fd5b50505050565b600081604051602001610bf39190612484565b604051602081830303815290604052805190602001209050919050565b6000610c25848661120990919063ffffffff16565b90506000610c5a8285604051602001610c3f929190612597565b60405160208183030381529060405280519060200120610be0565b90506000610c71848361120990919063ffffffff16565b9050610c7c816109e2565b610cbb576040517f08c379a0000000000000000000000000000000000000000000000000000000008152600401610cb2906126a6565b60405180910390fd5b50505050505050565b600060603a861115610d0b576040517f08c379a0000000000000000000000000000000000000000000000000000000008152600401610d0290612686565b60405180910390fd5b6000610d79306000357fffffffff0000000000000000000000000000000000000000000000000000000016610d3e610626565b6002548c8c8c8c8c604051602001610d5e999897969594939291906124da565b60405160208183030381529060405280519060200120610be0565b90508751600260008282540192505081905550606063792c891f60e01b89604051602401610da791906125c7565b604051602081830303815290604052907bffffffffffffffffffffffffffffffffffffffffffffffffffffffff19166020820180517bffffffffffffffffffffffffffffffffffffffffffffffffffffffff83818316178352505050509050600060603073ffffffffffffffffffffffffffffffffffffffff1683604051610e2f919061246d565b6000604051808303816000865af19150503d8060008114610e6c576040519150601f19603f3d011682016040523d82523d6000602084013e610e71565b606091505b5091509150606082610ec7576060610e88836112f5565b90507fb5e1dc2ddc0e1a0221e00b3c0446f36b707001d3ac7cfb494259863fdef7ccd781604051610eb99190612664565b60405180910390a150610ede565b81806020019051610edb9190810190611bd4565b90505b84819650965050505050509550959350505050565b6000610f1a84610f0c5a8961135b90919063ffffffff16565b6113a590919063ffffffff16565b9050600073ffffffffffffffffffffffffffffffffffffffff168373ffffffffffffffffffffffffffffffffffffffff1614156110265747610f6586836113fa90919063ffffffff16565b1115610fa6576040517f08c379a0000000000000000000000000000000000000000000000000000000008152600401610f9d906126c6565b60405180910390fd5b3373ffffffffffffffffffffffffffffffffffffffff16610fd086836113fa90919063ffffffff16565b604051610fdc906124aa565b60006040518083038185875af1925050503d8060008114611019576040519150601f19603f3d011682016040523d82523d6000602084013e61101e565b606091505b5050506111a0565b6000839050600061104084846113fa90919063ffffffff16565b90508173ffffffffffffffffffffffffffffffffffffffff166370a08231306040518263ffffffff1660e01b815260040161107b91906124bf565b602060405180830381600087803b15801561109557600080fd5b505af11580156110a9573d6000803e3d6000fd5b505050506040513d601f19601f820116820180604052506110cd9190810190611dd2565b81111561110f576040517f08c379a000000000000000000000000000000000000000000000000000000000815260040161110690612806565b60405180910390fd5b8173ffffffffffffffffffffffffffffffffffffffff1663a9059cbb33836040518363ffffffff1660e01b815260040161114a92919061256e565b602060405180830381600087803b15801561116457600080fd5b505af1158015611178573d6000803e3d6000fd5b505050506040513d601f19601f8201168201806040525061119c9190810190611d68565b5050505b505050505050565b6060600080600060606111ba866111d9565b93509350935093506111ce8484848461146a565b945050505050919050565b60008060006060848060200190516111f49190810190611980565b83935080905093509350935093509193509193565b6000604182511461121d57600090506112ef565b60008060006020850151925060408501519150606085015160001a90507f7fffffffffffffffffffffffffffffff5d576e7357a4501ddfe92f46681b20a08260001c111561127157600093505050506112ef565b601b8160ff16141580156112895750601c8160ff1614155b1561129a57600093505050506112ef565b600186828585604051600081526020016040526040516112bd9493929190612604565b6020604051602081039080840390855afa1580156112df573d6000803e3d6000fd5b5050506020604051035193505050505b92915050565b606060448251101561132157604051806060016040528060218152602001612b72602191399050611356565b606061133c6004808551038561153b9092919063ffffffff16565b9050808060200190516113529190810190611d91565b9150505b919050565b600061139d83836040518060400160405280601e81526020017f536166654d6174683a207375627472616374696f6e206f766572666c6f7700008152506115c7565b905092915050565b6000808284019050838110156113f0576040517f08c379a00000000000000000000000000000000000000000000000000000000081526004016113e7906126e6565b60405180910390fd5b8091505092915050565b60008083141561140d5760009050611464565b600082840290508284828161141e57fe5b041461145f576040517f08c379a000000000000000000000000000000000000000000000000000000000815260040161145690612786565b60405180910390fd5b809150505b92915050565b6060600060608673ffffffffffffffffffffffffffffffffffffffff16858786604051611497919061246d565b600060405180830381858888f193505050503d80600081146114d5576040519150601f19603f3d011682016040523d82523d6000602084013e6114da565b606091505b50915091508161152e5760606114ef826112f5565b9050806040517f08c379a00000000000000000000000000000000000000000000000000000000081526004016115259190612664565b60405180910390fd5b8092505050949350505050565b60608183018451101561154d57600080fd5b606082156000811461156a576040519150602082016040526115bb565b6040519150601f8416801560200281840101858101878315602002848b0101015b818310156115a8578051835260208301925060208101905061158b565b50868552601f19601f8301166040525050505b50809150509392505050565b600083831115829061160f576040517f08c379a00000000000000000000000000000000000000000000000000000000081526004016116069190612664565b60405180910390fd5b5060008385039050809150509392505050565b60008135905061163181612b15565b92915050565b60008151905061164681612b2c565b92915050565b600082601f83011261165d57600080fd5b815161167061166b8261286e565b612841565b9150818183526020840193506020810190508360005b838110156116b6578151860161169c8882611831565b845260208401935060208301925050600181019050611686565b5050505092915050565b600082601f8301126116d157600080fd5b81356116e46116df82612896565b612841565b9150818183526020840193506020810190508360005b8381101561172a578135860161171088826117dd565b8452602084019350602083019250506001810190506116fa565b5050505092915050565b60008083601f84011261174657600080fd5b8235905067ffffffffffffffff81111561175f57600080fd5b60208301915083602082028301111561177757600080fd5b9250929050565b60008151905061178d81612b43565b92915050565b60008083601f8401126117a557600080fd5b8235905067ffffffffffffffff8111156117be57600080fd5b6020830191508360018202830111156117d657600080fd5b9250929050565b600082601f8301126117ee57600080fd5b81356118016117fc826128be565b612841565b9150808252602083016020830185838301111561181d57600080fd5b611828838284612ab8565b50505092915050565b600082601f83011261184257600080fd5b8151611855611850826128be565b612841565b9150808252602083016020830185838301111561187157600080fd5b61187c838284612ac7565b50505092915050565b600082601f83011261189657600080fd5b81356118a96118a4826128ea565b612841565b915080825260208301602083018583830111156118c557600080fd5b6118d0838284612ab8565b50505092915050565b600082601f8301126118ea57600080fd5b81516118fd6118f882612916565b612841565b9150808252602083016020830185838301111561191957600080fd5b611924838284612ac7565b50505092915050565b60008135905061193c81612b5a565b92915050565b60008151905061195181612b5a565b92915050565b60006020828403121561196957600080fd5b600061197784828501611622565b91505092915050565b6000806000806080858703121561199657600080fd5b60006119a487828801611637565b94505060206119b587828801611942565b93505060406119c687828801611942565b925050606085015167ffffffffffffffff8111156119e357600080fd5b6119ef87828801611831565b91505092959194509250565b60008060008060008060008060a0898b031215611a1757600080fd5b6000611a258b828c01611622565b9850506020611a368b828c01611622565b975050604089013567ffffffffffffffff811115611a5357600080fd5b611a5f8b828c01611734565b9650965050606089013567ffffffffffffffff811115611a7e57600080fd5b611a8a8b828c01611734565b9450945050608089013567ffffffffffffffff811115611aa957600080fd5b611ab58b828c01611793565b92509250509295985092959890939650565b60008060008060808587031215611add57600080fd5b6000611aeb87828801611622565b9450506020611afc87828801611622565b9350506040611b0d8782880161192d565b925050606085013567ffffffffffffffff811115611b2a57600080fd5b611b3687828801611885565b91505092959194509250565b60008060008060008060a08789031215611b5b57600080fd5b6000611b6989828a01611622565b9650506020611b7a89828a01611622565b9550506040611b8b89828a0161192d565b9450506060611b9c89828a0161192d565b935050608087013567ffffffffffffffff811115611bb957600080fd5b611bc589828a01611793565b92509250509295509295509295565b600060208284031215611be657600080fd5b600082015167ffffffffffffffff811115611c0057600080fd5b611c0c8482850161164c565b91505092915050565b600060208284031215611c2757600080fd5b600082013567ffffffffffffffff811115611c4157600080fd5b611c4d848285016116c0565b91505092915050565b600080600080600080600080610100898b031215611c7357600080fd5b600089013567ffffffffffffffff811115611c8d57600080fd5b611c998b828c016116c0565b9850506020611caa8b828c0161192d565b9750506040611cbb8b828c0161192d565b965050606089013567ffffffffffffffff811115611cd857600080fd5b611ce48b828c01611885565b9550506080611cf58b828c01611622565b94505060a0611d068b828c0161192d565b93505060c089013567ffffffffffffffff811115611d2357600080fd5b611d2f8b828c01611885565b92505060e089013567ffffffffffffffff811115611d4c57600080fd5b611d588b828c01611885565b9150509295985092959890939650565b600060208284031215611d7a57600080fd5b6000611d888482850161177e565b91505092915050565b600060208284031215611da357600080fd5b600082015167ffffffffffffffff811115611dbd57600080fd5b611dc9848285016118d9565b91505092915050565b600060208284031215611de457600080fd5b6000611df284828501611942565b91505092915050565b6000611e078383611f5f565b905092915050565b611e1881612a82565b82525050565b611e27816129f7565b82525050565b611e36816129e5565b82525050565b6000611e4782612952565b611e51818561298b565b935083602082028501611e6385612942565b8060005b85811015611e9f5784840389528151611e808582611dfb565b9450611e8b8361297e565b925060208a01995050600181019050611e67565b50829750879550505050505092915050565b611eba81612a09565b82525050565b611ec981612a15565b82525050565b611ee0611edb82612a15565b612afa565b82525050565b611eef81612a1f565b82525050565b6000611f0082612968565b611f0a81856129ad565b9350611f1a818560208601612ac7565b611f2381612b04565b840191505092915050565b6000611f3982612968565b611f4381856129be565b9350611f53818560208601612ac7565b80840191505092915050565b6000611f6a8261295d565b611f74818561299c565b9350611f84818560208601612ac7565b611f8d81612b04565b840191505092915050565b6000611fa382612973565b611fad81856129c9565b9350611fbd818560208601612ac7565b611fc681612b04565b840191505092915050565b6000611fde6024836129c9565b91507f424d54413a204e6f742061206c6172676520656e6f7567682074782e6761737060008301527f72696365000000000000000000000000000000000000000000000000000000006020830152604082019050919050565b6000612044601a836129c9565b91507f4c4b4d54413a2041757468206b657920697320696e76616c69640000000000006000830152602082019050919050565b6000612084601c836129da565b91507f19457468657265756d205369676e6564204d6573736167653a0a3332000000006000830152601c82019050919050565b60006120c46025836129c9565b91507f42413a20496e73756666696369656e742067617320284554482920666f72207260008301527f6566756e640000000000000000000000000000000000000000000000000000006020830152604082019050919050565b600061212a601b836129c9565b91507f536166654d6174683a206164646974696f6e206f766572666c6f7700000000006000830152602082019050919050565b600061216a601b836129c9565b91507f4c4b4d54413a204c6f67696e206b6579206973206578706972656400000000006000830152602082019050919050565b60006121aa601f836129c9565b91507f42413a2043616e6e6f742072656d6f7665206c6173742061757468206b6579006000830152602082019050919050565b60006121ea6021836129c9565b91507f41493a20496d70726f70657220696e697469616c697a6174696f6e206f72646560008301527f72000000000000000000000000000000000000000000000000000000000000006020830152604082019050919050565b60006122506029836129c9565b91507f4c4b4d54413a204c6f67696e206b6579206973206e6f742061626c6520746f2060008301527f63616c6c2073656c6600000000000000000000000000000000000000000000006020830152604082019050919050565b60006122b66021836129c9565b91507f536166654d6174683a206d756c7469706c69636174696f6e206f766572666c6f60008301527f77000000000000000000000000000000000000000000000000000000000000006020830152604082019050919050565b600061231c601f836129c9565b91507f42413a2041757468206b6579206f722073656c6620697320696e76616c6964006000830152602082019050919050565b600061235c6000836129be565b9150600082019050919050565b6000612376601a836129c9565b91507f42413a2041757468206b657920616c72656164792061646465640000000000006000830152602082019050919050565b60006123b6601a836129c9565b91507f42413a2041757468206b6579206e6f74207965742061646465640000000000006000830152602082019050919050565b60006123f66027836129c9565b91507f42413a20496e73756666696369656e74206761732028746f6b656e2920666f7260008301527f20726566756e64000000000000000000000000000000000000000000000000006020830152604082019050919050565b61245881612a6b565b82525050565b61246781612a75565b82525050565b60006124798284611f2e565b915081905092915050565b600061248f82612077565b915061249b8284611ecf565b60208201915081905092915050565b60006124b58261234f565b9150819050919050565b60006020820190506124d46000830184611e0f565b92915050565b6000610120820190506124f0600083018c611e1e565b6124fd602083018b611ee6565b61250a604083018a61244f565b612517606083018961244f565b81810360808301526125298188611e3c565b905061253860a083018761244f565b61254560c083018661244f565b61255260e0830185611e2d565b61256061010083018461244f565b9a9950505050505050505050565b60006040820190506125836000830185611e0f565b612590602083018461244f565b9392505050565b60006040820190506125ac6000830185611e2d565b81810360208301526125be8184611ef5565b90509392505050565b600060208201905081810360008301526125e18184611e3c565b905092915050565b60006020820190506125fe6000830184611eb1565b92915050565b60006080820190506126196000830187611ec0565b612626602083018661245e565b6126336040830185611ec0565b6126406060830184611ec0565b95945050505050565b600060208201905061265e6000830184611ee6565b92915050565b6000602082019050818103600083015261267e8184611f98565b905092915050565b6000602082019050818103600083015261269f81611fd1565b9050919050565b600060208201905081810360008301526126bf81612037565b9050919050565b600060208201905081810360008301526126df816120b7565b9050919050565b600060208201905081810360008301526126ff8161211d565b9050919050565b6000602082019050818103600083015261271f8161215d565b9050919050565b6000602082019050818103600083015261273f8161219d565b9050919050565b6000602082019050818103600083015261275f816121dd565b9050919050565b6000602082019050818103600083015261277f81612243565b9050919050565b6000602082019050818103600083015261279f816122a9565b9050919050565b600060208201905081810360008301526127bf8161230f565b9050919050565b600060208201905081810360008301526127df81612369565b9050919050565b600060208201905081810360008301526127ff816123a9565b9050919050565b6000602082019050818103600083015261281f816123e9565b9050919050565b600060208201905061283b600083018461244f565b92915050565b6000604051905081810181811067ffffffffffffffff8211171561286457600080fd5b8060405250919050565b600067ffffffffffffffff82111561288557600080fd5b602082029050602081019050919050565b600067ffffffffffffffff8211156128ad57600080fd5b602082029050602081019050919050565b600067ffffffffffffffff8211156128d557600080fd5b601f19601f8301169050602081019050919050565b600067ffffffffffffffff82111561290157600080fd5b601f19601f8301169050602081019050919050565b600067ffffffffffffffff82111561292d57600080fd5b601f19601f8301169050602081019050919050565b6000819050602082019050919050565b600081519050919050565b600081519050919050565b600081519050919050565b600081519050919050565b6000602082019050919050565b600082825260208201905092915050565b600082825260208201905092915050565b600082825260208201905092915050565b600081905092915050565b600082825260208201905092915050565b600081905092915050565b60006129f082612a4b565b9050919050565b6000612a0282612a4b565b9050919050565b60008115159050919050565b6000819050919050565b60007fffffffff0000000000000000000000000000000000000000000000000000000082169050919050565b600073ffffffffffffffffffffffffffffffffffffffff82169050919050565b6000819050919050565b600060ff82169050919050565b6000612a8d82612a94565b9050919050565b6000612a9f82612aa6565b9050919050565b6000612ab182612a4b565b9050919050565b82818337600083830152505050565b60005b83811015612ae5578082015181840152602081019050612aca565b83811115612af4576000848401525b50505050565b6000819050919050565b6000601f19601f8301169050919050565b612b1e816129e5565b8114612b2957600080fd5b50565b612b35816129f7565b8114612b4057600080fd5b50565b612b4c81612a09565b8114612b5757600080fd5b50565b612b6381612a6b565b8114612b6e57600080fd5b5056fe42413a205472616e73616374696f6e2072657665727465642073696c656e746c79a365627a7a72315820541b1f69664c9d1c3c9e8eac66f83a8b7f7aef370968d20d8e53d972bb11cf3b6c6578706572696d656e74616cf564736f6c63430005100040",
  "source": "pragma solidity 0.5.16;\npragma experimental ABIEncoderV2;\n\nimport \"./BaseMetaTxAccount.sol\";\n\n/**\n * @title LoginKeyMetaTxAccount\n * @author Authereum Labs, Inc.\n * @dev Contract used by login keys to send transactions. Login key firwall checks\n * @dev are performed in this contract as well.\n */\n\ncontract LoginKeyMetaTxAccount is BaseMetaTxAccount {\n\n    /// @dev Execute an loginKey meta transaction\n    /// @param _transactions Arrays of transaction data ([destination, value, gasLimit, data][...]...)\n    /// @param _gasPrice Gas price set by the user\n    /// @param _gasOverhead Gas overhead of the transaction calculated offchain\n    /// @param _loginKeyRestrictionsData Contains restrictions to the loginKey's functionality\n    /// @param _feeTokenAddress Address of the token used to pay a fee\n    /// @param _feeTokenRate Rate of the token (in tokenGasPrice/ethGasPrice) used to pay a fee\n    /// @param _transactionMessageHashSignature Signed transaction data\n    /// @param _loginKeyAttestationSignature Signed loginKey\n    /// @return Response of the call\n    function executeMultipleLoginKeyMetaTransactions(\n        bytes[] memory _transactions,\n        uint256 _gasPrice,\n        uint256 _gasOverhead,\n        bytes memory _loginKeyRestrictionsData,\n        address _feeTokenAddress,\n        uint256 _feeTokenRate,\n        bytes memory _transactionMessageHashSignature,\n        bytes memory _loginKeyAttestationSignature\n    )\n        public\n        returns (bytes[] memory)\n    {\n        uint256 startGas = gasleft();\n\n        _validateLoginKeyRestrictions(\n            _transactions,\n            _loginKeyRestrictionsData\n        );\n\n        // Hash the parameters\n        bytes32 _transactionMessageHash = keccak256(abi.encode(\n            address(this),\n            msg.sig,\n            getChainId(),\n            nonce,\n            _transactions,\n            _gasPrice,\n            _gasOverhead,\n            _feeTokenAddress,\n            _feeTokenRate\n        )).toEthSignedMessageHash();\n\n        // Validate the signers\n        // NOTE: This must be done prior to the _atomicExecuteMultipleMetaTransactions() call for security purposes\n        _validateLoginKeyMetaTransactionSigs(\n            _transactionMessageHash, _transactionMessageHashSignature, _loginKeyRestrictionsData, _loginKeyAttestationSignature\n        );\n\n        (, bytes[] memory _returnValues) = _atomicExecuteMultipleMetaTransactions(\n            _transactions,\n            _gasPrice,\n            _gasOverhead,\n            _feeTokenAddress,\n            _feeTokenRate\n        );\n\n        // Refund gas costs\n        _issueRefund(startGas, _gasPrice, _gasOverhead, _feeTokenAddress, _feeTokenRate);\n\n        return _returnValues;\n    }\n\n    /**\n     *  Internal functions\n     */\n\n    /// @dev validates all loginKey Restrictions\n    /// @param _transactions Arrays of transaction data ([destination, value, gasLimit, data][...]...)\n    /// @param _loginKeyRestrictionsData Contains restrictions to the loginKey's functionality\n    function _validateLoginKeyRestrictions(\n        bytes[] memory _transactions,\n        bytes memory _loginKeyRestrictionsData\n    )\n        internal\n        view\n    {\n        // Check that no calls are made to self\n        address _destination;\n        for(uint i = 0; i < _transactions.length; i++) {\n            (_destination,,,) = _decodeTransactionData(_transactions[i]);\n            require(_destination != address(this), \"LKMTA: Login key is not able to call self\");\n        }\n\n        // Check _validateLoginKeyRestrictions restrictions\n        uint256 loginKeyExpirationTime = abi.decode(_loginKeyRestrictionsData, (uint256));\n\n        // Check that loginKey is not expired\n        require(loginKeyExpirationTime > now, \"LKMTA: Login key is expired\");\n    }\n\n    /// @dev Validate signatures from an auth key meta transaction\n    /// @param _transactionsMessageHash Ethereum signed message of the transaction\n    /// @param _transactionMessgeHashSignature Signed transaction data\n    /// @param _loginKeyRestrictionsData Contains restrictions to the loginKey's functionality\n    /// @param _loginKeyAttestationSignature Signed loginKey\n    /// @return Address of the login key that signed the data\n    function _validateLoginKeyMetaTransactionSigs(\n        bytes32 _transactionsMessageHash,\n        bytes memory _transactionMessgeHashSignature,\n        bytes memory _loginKeyRestrictionsData,\n        bytes memory _loginKeyAttestationSignature\n    )\n        internal\n        view\n    {\n        address _transactionMessageSigner = _transactionsMessageHash.recover(\n            _transactionMessgeHashSignature\n        );\n\n        bytes32 loginKeyAttestationMessageHash = keccak256(abi.encode(\n            _transactionMessageSigner,\n            _loginKeyRestrictionsData\n        )).toEthSignedMessageHash();\n\n        address _authKeyAddress = loginKeyAttestationMessageHash.recover(\n            _loginKeyAttestationSignature\n        );\n\n        require(_isValidAuthKey(_authKeyAddress), \"LKMTA: Auth key is invalid\");\n    }\n}",
  "sourcePath": "/Users/smitrajput/Projects/batchoo/contracts/account/LoginKeyMetaTxAccount.sol",
  "compiler": {
    "name": "solc",
    "version": "0.5.16+commit.9c3226ce.Emscripten.clang"
  },
  "schemaVersion": "3.1.0",
  "updatedAt": "2020-05-20T12:48:46.056Z",
  "devdoc": {
    "author": "Authereum Labs, Inc.",
    "details": "Contract used by login keys to send transactions. Login key firwall checksare performed in this contract as well.",
    "methods": {
      "addAuthKey(address)": {
        "details": "Add an auth key to the list of auth keys",
        "params": {
          "_authKey": "Address of the auth key to add"
        }
      },
      "executeMultipleLoginKeyMetaTransactions(bytes[],uint256,uint256,bytes,address,uint256,bytes,bytes)": {
        "details": "Execute an loginKey meta transaction",
        "params": {
          "_feeTokenAddress": "Address of the token used to pay a fee",
          "_feeTokenRate": "Rate of the token (in tokenGasPrice/ethGasPrice) used to pay a fee",
          "_gasOverhead": "Gas overhead of the transaction calculated offchain",
          "_gasPrice": "Gas price set by the user",
          "_loginKeyAttestationSignature": "Signed loginKey",
          "_loginKeyRestrictionsData": "Contains restrictions to the loginKey's functionality",
          "_transactionMessageHashSignature": "Signed transaction data",
          "_transactions": "Arrays of transaction data ([destination, value, gasLimit, data][...]...)"
        },
        "return": "Response of the call"
      },
      "executeMultipleMetaTransactions(bytes[])": {
        "details": "Execute multiple meta transactions",
        "params": {
          "_transactions": "Arrays of transaction data ([destination, value, gasLimit, data][...]...)"
        },
        "return": "The responses of the calls"
      },
      "getChainId()": {
        "details": "Get the chain ID constant",
        "return": "The chain id"
      },
      "initializeV1(address)": {
        "details": "Initialize the Authereum Account",
        "params": {
          "_authKey": "authKey that will own this account"
        }
      },
      "onERC1155BatchReceived(address,address,uint256[],uint256[],bytes)": {
        "details": "An ERC1155-compliant smart contract MUST call this function on the token recipient contract, at the end of a `safeBatchTransferFrom` after the balances have been updated. This function MUST return `bytes4(keccak256(\"onERC1155BatchReceived(address,address,uint256[],uint256[],bytes)\"))` (i.e. 0xbc197c81) if it accepts the transfer(s). This function MUST revert if it rejects the transfer(s). Return of any other value than the prescribed keccak256 generated value MUST result in the transaction being reverted by the caller. param _operator  The address which initiated the batch transfer (i.e. msg.sender) param _from      The address which previously owned the token param _ids       An array containing ids of each token being transferred (order and length must match _values array) param _values    An array containing amounts of each token being transferred (order and length must match _ids array) param _data      Additional data with no specified format",
        "return": "`bytes4(keccak256(\"onERC1155BatchReceived(address,address,uint256[],uint256[],bytes)\"))`"
      },
      "onERC721Received(address,address,uint256,bytes)": {
        "details": "The ERC721 smart contract calls this function on the recipient after a {IERC721-safeTransferFrom}. This function MUST return the function selector, otherwise the caller will revert the transaction. The selector to be returned can be obtained as `this.onERC721Received.selector`. This function MAY throw to revert and reject the transfer. Note: the ERC721 contract address is always the message sender. param operator The address which called `safeTransferFrom` function param from The address which previously owned the token param tokenId The NFT identifier which is being transferred param data Additional data with no specified format",
        "return": "bytes4 `bytes4(keccak256(\"onERC721Received(address,address,uint256,bytes)\"))`"
      },
      "removeAuthKey(address)": {
        "details": "Remove an auth key from the list of auth keys",
        "params": {
          "_authKey": "Address of the auth key to remove"
        }
      }
    },
    "title": "LoginKeyMetaTxAccount"
  },
  "userdoc": {
    "methods": {
      "executeMultipleMetaTransactions(bytes[])": {
        "notice": "This can only be called by self as a part of the atomic meta transaction"
      },
      "onERC1155BatchReceived(address,address,uint256[],uint256[],bytes)": {
        "notice": "Handle the receipt of multiple ERC1155 token types."
      },
      "onERC1155Received(address,address,uint256,uint256,bytes)": {
        "notice": "ERC1155"
      },
      "onERC721Received(address,address,uint256,bytes)": {
        "notice": "Handle the receipt of an NFT"
      }
    }
  }
}