{
  "contractName": "Managed",
  "abi": [
    {
      "anonymous": false,
      "inputs": [
        {
          "indexed": true,
          "internalType": "address",
          "name": "_manager",
          "type": "address"
        }
      ],
      "name": "ManagerAdded",
      "type": "event"
    },
    {
      "anonymous": false,
      "inputs": [
        {
          "indexed": true,
          "internalType": "address",
          "name": "_manager",
          "type": "address"
        }
      ],
      "name": "ManagerRevoked",
      "type": "event"
    },
    {
      "anonymous": false,
      "inputs": [
        {
          "indexed": true,
          "internalType": "address",
          "name": "_newOwner",
          "type": "address"
        }
      ],
      "name": "OwnerChanged",
      "type": "event"
    },
    {
      "constant": false,
      "inputs": [
        {
          "internalType": "address",
          "name": "_newOwner",
          "type": "address"
        }
      ],
      "name": "changeOwner",
      "outputs": [],
      "payable": false,
      "stateMutability": "nonpayable",
      "type": "function"
    },
    {
      "constant": true,
      "inputs": [
        {
          "internalType": "address",
          "name": "_potentialOwner",
          "type": "address"
        }
      ],
      "name": "isOwner",
      "outputs": [
        {
          "internalType": "bool",
          "name": "",
          "type": "bool"
        }
      ],
      "payable": false,
      "stateMutability": "view",
      "type": "function"
    },
    {
      "constant": true,
      "inputs": [
        {
          "internalType": "address",
          "name": "",
          "type": "address"
        }
      ],
      "name": "managers",
      "outputs": [
        {
          "internalType": "bool",
          "name": "",
          "type": "bool"
        }
      ],
      "payable": false,
      "stateMutability": "view",
      "type": "function"
    },
    {
      "constant": true,
      "inputs": [],
      "name": "owner",
      "outputs": [
        {
          "internalType": "address",
          "name": "",
          "type": "address"
        }
      ],
      "payable": false,
      "stateMutability": "view",
      "type": "function"
    },
    {
      "constant": false,
      "inputs": [
        {
          "internalType": "address",
          "name": "_manager",
          "type": "address"
        }
      ],
      "name": "addManager",
      "outputs": [],
      "payable": false,
      "stateMutability": "nonpayable",
      "type": "function"
    },
    {
      "constant": false,
      "inputs": [
        {
          "internalType": "address",
          "name": "_manager",
          "type": "address"
        }
      ],
      "name": "revokeManager",
      "outputs": [],
      "payable": false,
      "stateMutability": "nonpayable",
      "type": "function"
    }
  ],
  "bytecode": "0x6080604052336000806101000a81548173ffffffffffffffffffffffffffffffffffffffff021916908373ffffffffffffffffffffffffffffffffffffffff160217905550610974806100536000396000f3fe608060405234801561001057600080fd5b50600436106100625760003560e01c80632d06177a146100675780632f54bf6e146100ab578063377e32e6146101075780638da5cb5b1461014b578063a6f9dae114610195578063fdff9b4d146101d9575b600080fd5b6100a96004803603602081101561007d57600080fd5b81019080803573ffffffffffffffffffffffffffffffffffffffff169060200190929190505050610235565b005b6100ed600480360360208110156100c157600080fd5b81019080803573ffffffffffffffffffffffffffffffffffffffff169060200190929190505050610491565b604051808215151515815260200191505060405180910390f35b6101496004803603602081101561011d57600080fd5b81019080803573ffffffffffffffffffffffffffffffffffffffff1690602001909291905050506104ea565b005b6101536106ea565b604051808273ffffffffffffffffffffffffffffffffffffffff1673ffffffffffffffffffffffffffffffffffffffff16815260200191505060405180910390f35b6101d7600480360360208110156101ab57600080fd5b81019080803573ffffffffffffffffffffffffffffffffffffffff16906020019092919050505061070f565b005b61021b600480360360208110156101ef57600080fd5b81019080803573ffffffffffffffffffffffffffffffffffffffff1690602001909291905050506108fa565b604051808215151515815260200191505060405180910390f35b6000809054906101000a900473ffffffffffffffffffffffffffffffffffffffff1673ffffffffffffffffffffffffffffffffffffffff163373ffffffffffffffffffffffffffffffffffffffff16146102f7576040517f08c379a00000000000000000000000000000000000000000000000000000000081526004018080602001828103825260108152602001807f4f3a204d757374206265206f776e65720000000000000000000000000000000081525060200191505060405180910390fd5b600073ffffffffffffffffffffffffffffffffffffffff168173ffffffffffffffffffffffffffffffffffffffff16141561039a576040517f08c379a000000000000000000000000000000000000000000000000000000000815260040180806020018281038252601b8152602001807f4d3a2041646472657373206d757374206e6f74206265206e756c6c000000000081525060200191505060405180910390fd5b60001515600160008373ffffffffffffffffffffffffffffffffffffffff1673ffffffffffffffffffffffffffffffffffffffff16815260200190815260200160002060009054906101000a900460ff161515141561048e5760018060008373ffffffffffffffffffffffffffffffffffffffff1673ffffffffffffffffffffffffffffffffffffffff16815260200190815260200160002060006101000a81548160ff0219169083151502179055508073ffffffffffffffffffffffffffffffffffffffff167f3b4a40cccf2058c593542587329dd385be4f0b588db5471fbd9598e56dd7093a60405160405180910390a25b50565b60008173ffffffffffffffffffffffffffffffffffffffff166000809054906101000a900473ffffffffffffffffffffffffffffffffffffffff1673ffffffffffffffffffffffffffffffffffffffff16149050919050565b6000809054906101000a900473ffffffffffffffffffffffffffffffffffffffff1673ffffffffffffffffffffffffffffffffffffffff163373ffffffffffffffffffffffffffffffffffffffff16146105ac576040517f08c379a00000000000000000000000000000000000000000000000000000000081526004018080602001828103825260108152602001807f4f3a204d757374206265206f776e65720000000000000000000000000000000081525060200191505060405180910390fd5b60011515600160008373ffffffffffffffffffffffffffffffffffffffff1673ffffffffffffffffffffffffffffffffffffffff16815260200190815260200160002060009054906101000a900460ff16151514610655576040517f08c379a000000000000000000000000000000000000000000000000000000000815260040180806020018281038252602581526020018061091b6025913960400191505060405180910390fd5b600160008273ffffffffffffffffffffffffffffffffffffffff1673ffffffffffffffffffffffffffffffffffffffff16815260200190815260200160002060006101000a81549060ff02191690558073ffffffffffffffffffffffffffffffffffffffff167fe5def11e0516f317f9c37b8835aec29fc01db4d4b6d6fecaca339d3596a29bc160405160405180910390a250565b6000809054906101000a900473ffffffffffffffffffffffffffffffffffffffff1681565b6000809054906101000a900473ffffffffffffffffffffffffffffffffffffffff1673ffffffffffffffffffffffffffffffffffffffff163373ffffffffffffffffffffffffffffffffffffffff16146107d1576040517f08c379a00000000000000000000000000000000000000000000000000000000081526004018080602001828103825260108152602001807f4f3a204d757374206265206f776e65720000000000000000000000000000000081525060200191505060405180910390fd5b600073ffffffffffffffffffffffffffffffffffffffff168173ffffffffffffffffffffffffffffffffffffffff161415610874576040517f08c379a000000000000000000000000000000000000000000000000000000000815260040180806020018281038252601b8152602001807f4f3a2041646472657373206d757374206e6f74206265206e756c6c000000000081525060200191505060405180910390fd5b806000806101000a81548173ffffffffffffffffffffffffffffffffffffffff021916908373ffffffffffffffffffffffffffffffffffffffff1602179055508073ffffffffffffffffffffffffffffffffffffffff167fa2ea9883a321a3e97b8266c2b078bfeec6d50c711ed71f874a90d500ae2eaf3660405160405180910390a250565b60016020528060005260406000206000915054906101000a900460ff168156fe4d3a20546172676574206d75737420626520616e206578697374696e67206d616e61676572a265627a7a7231582019bcf47be2d4a10baafec097e5690dfc4bc7f46e9d42437b725b98cb235e579f64736f6c63430005100032",
  "source": "pragma solidity 0.5.16;\n\nimport \"./Owned.sol\";\n\n/**\n * @title Managed\n * @author Authereum Labs, Inc.\n * @dev Basic contract that defines a set of managers. Only the owner can add/remove managers.\n */\n\ncontract Managed is Owned {\n\n    // The managers\n    mapping (address => bool) public managers;\n\n    /// @dev Throws if the sender is not a manager\n    modifier onlyManager {\n        require(managers[msg.sender] == true, \"M: Must be manager\");\n        _;\n    }\n\n    event ManagerAdded(address indexed _manager);\n    event ManagerRevoked(address indexed _manager);\n\n    /// @dev Adds a manager\n    /// @param _manager The address of the manager\n    function addManager(address _manager) external onlyOwner {\n        require(_manager != address(0), \"M: Address must not be null\");\n        if(managers[_manager] == false) {\n            managers[_manager] = true;\n            emit ManagerAdded(_manager);\n        }\n    }\n\n    /// @dev Revokes a manager\n    /// @param _manager The address of the manager\n    function revokeManager(address _manager) external onlyOwner {\n        require(managers[_manager] == true, \"M: Target must be an existing manager\");\n        delete managers[_manager];\n        emit ManagerRevoked(_manager);\n    }\n}",
  "sourcePath": "/Users/smitrajput/Projects/batchoo/contracts/base/Managed.sol",
  "compiler": {
    "name": "solc",
    "version": "0.5.16+commit.9c3226ce.Emscripten.clang"
  },
  "schemaVersion": "3.1.0",
  "updatedAt": "2020-05-20T12:48:22.923Z",
  "devdoc": {
    "author": "Authereum Labs, Inc.",
    "details": "Basic contract that defines a set of managers. Only the owner can add/remove managers.",
    "methods": {
      "addManager(address)": {
        "details": "Adds a manager",
        "params": {
          "_manager": "The address of the manager"
        }
      },
      "changeOwner(address)": {
        "details": "Lets the owner transfer ownership of the contract to a new owner",
        "params": {
          "_newOwner": "The new owner"
        }
      },
      "isOwner(address)": {
        "details": "Return the ownership status of an address",
        "params": {
          "_potentialOwner": "Address being checked"
        },
        "return": "True if the _potentialOwner is the owner"
      },
      "revokeManager(address)": {
        "details": "Revokes a manager",
        "params": {
          "_manager": "The address of the manager"
        }
      }
    },
    "title": "Managed"
  },
  "userdoc": {
    "methods": {}
  }
}