{
  "contractName": "ResetManager",
  "abi": [
    {
      "inputs": [
        {
          "internalType": "bytes32",
          "name": "_rootNode",
          "type": "bytes32"
        },
        {
          "internalType": "address",
          "name": "_ensRegistry",
          "type": "address"
        }
      ],
      "payable": false,
      "stateMutability": "nonpayable",
      "type": "constructor"
    },
    {
      "anonymous": false,
      "inputs": [
        {
          "indexed": true,
          "internalType": "address",
          "name": "_newOwner",
          "type": "address"
        }
      ],
      "name": "OwnerChanged",
      "type": "event"
    },
    {
      "anonymous": false,
      "inputs": [
        {
          "indexed": true,
          "internalType": "bytes32",
          "name": "rootnode",
          "type": "bytes32"
        },
        {
          "indexed": true,
          "internalType": "address",
          "name": "newOwner",
          "type": "address"
        }
      ],
      "name": "RootnodeOwnerChanged",
      "type": "event"
    },
    {
      "constant": false,
      "inputs": [
        {
          "internalType": "address",
          "name": "_newOwner",
          "type": "address"
        }
      ],
      "name": "changeOwner",
      "outputs": [],
      "payable": false,
      "stateMutability": "nonpayable",
      "type": "function"
    },
    {
      "constant": true,
      "inputs": [
        {
          "internalType": "address",
          "name": "_potentialOwner",
          "type": "address"
        }
      ],
      "name": "isOwner",
      "outputs": [
        {
          "internalType": "bool",
          "name": "",
          "type": "bool"
        }
      ],
      "payable": false,
      "stateMutability": "view",
      "type": "function"
    },
    {
      "constant": true,
      "inputs": [],
      "name": "owner",
      "outputs": [
        {
          "internalType": "address",
          "name": "",
          "type": "address"
        }
      ],
      "payable": false,
      "stateMutability": "view",
      "type": "function"
    },
    {
      "constant": true,
      "inputs": [],
      "name": "rootNode",
      "outputs": [
        {
          "internalType": "bytes32",
          "name": "",
          "type": "bytes32"
        }
      ],
      "payable": false,
      "stateMutability": "view",
      "type": "function"
    },
    {
      "constant": false,
      "inputs": [
        {
          "internalType": "address",
          "name": "_newOwner",
          "type": "address"
        }
      ],
      "name": "changeRootnodeOwner",
      "outputs": [],
      "payable": false,
      "stateMutability": "nonpayable",
      "type": "function"
    },
    {
      "constant": true,
      "inputs": [],
      "name": "getEnsRegistry",
      "outputs": [
        {
          "internalType": "contract EnsRegistry",
          "name": "",
          "type": "address"
        }
      ],
      "payable": false,
      "stateMutability": "view",
      "type": "function"
    },
    {
      "constant": false,
      "inputs": [
        {
          "internalType": "string",
          "name": "_label",
          "type": "string"
        }
      ],
      "name": "reset",
      "outputs": [],
      "payable": false,
      "stateMutability": "nonpayable",
      "type": "function"
    }
  ],
  "bytecode": "0x608060405234801561001057600080fd5b50604051610c7c380380610c7c8339818101604052604081101561003357600080fd5b810190808051906020019092919080519060200190929190505050336000806101000a81548173ffffffffffffffffffffffffffffffffffffffff021916908373ffffffffffffffffffffffffffffffffffffffff1602179055508160028190555080600160006101000a81548173ffffffffffffffffffffffffffffffffffffffff021916908373ffffffffffffffffffffffffffffffffffffffff1602179055505050610b95806100e76000396000f3fe608060405234801561001057600080fd5b506004361061007d5760003560e01c80638da5cb5b1161005b5780638da5cb5b1461016c578063a6f9dae1146101b6578063d6d90498146101fa578063faff50a8146102735761007d565b80632f54bf6e146100825780637c6f945d146100de57806386605d9614610128575b600080fd5b6100c46004803603602081101561009857600080fd5b81019080803573ffffffffffffffffffffffffffffffffffffffff169060200190929190505050610291565b604051808215151515815260200191505060405180910390f35b6100e66102ea565b604051808273ffffffffffffffffffffffffffffffffffffffff1673ffffffffffffffffffffffffffffffffffffffff16815260200191505060405180910390f35b61016a6004803603602081101561013e57600080fd5b81019080803573ffffffffffffffffffffffffffffffffffffffff169060200190929190505050610314565b005b61017461056a565b604051808273ffffffffffffffffffffffffffffffffffffffff1673ffffffffffffffffffffffffffffffffffffffff16815260200191505060405180910390f35b6101f8600480360360208110156101cc57600080fd5b81019080803573ffffffffffffffffffffffffffffffffffffffff16906020019092919050505061058f565b005b6102716004803603602081101561021057600080fd5b810190808035906020019064010000000081111561022d57600080fd5b82018360208201111561023f57600080fd5b8035906020019184600183028401116401000000008311171561026157600080fd5b909192939192939050505061077a565b005b61027b610b5a565b6040518082815260200191505060405180910390f35b60008173ffffffffffffffffffffffffffffffffffffffff166000809054906101000a900473ffffffffffffffffffffffffffffffffffffffff1673ffffffffffffffffffffffffffffffffffffffff16149050919050565b6000600160009054906101000a900473ffffffffffffffffffffffffffffffffffffffff16905090565b6000809054906101000a900473ffffffffffffffffffffffffffffffffffffffff1673ffffffffffffffffffffffffffffffffffffffff163373ffffffffffffffffffffffffffffffffffffffff16146103d6576040517f08c379a00000000000000000000000000000000000000000000000000000000081526004018080602001828103825260108152602001807f4f3a204d757374206265206f776e65720000000000000000000000000000000081525060200191505060405180910390fd5b600073ffffffffffffffffffffffffffffffffffffffff168173ffffffffffffffffffffffffffffffffffffffff161415610479576040517f08c379a000000000000000000000000000000000000000000000000000000000815260040180806020018281038252601d8152602001807f41454d3a2041646472657373206d757374206e6f74206265206e756c6c00000081525060200191505060405180910390fd5b6104816102ea565b73ffffffffffffffffffffffffffffffffffffffff16635b0fc9c3600254836040518363ffffffff1660e01b8152600401808381526020018273ffffffffffffffffffffffffffffffffffffffff1673ffffffffffffffffffffffffffffffffffffffff16815260200192505050600060405180830381600087803b15801561050957600080fd5b505af115801561051d573d6000803e3d6000fd5b505050508073ffffffffffffffffffffffffffffffffffffffff166002547f516d0db138244386233318abd545c7f39d1be56e4da256f941042d7e7114a97560405160405180910390a350565b6000809054906101000a900473ffffffffffffffffffffffffffffffffffffffff1681565b6000809054906101000a900473ffffffffffffffffffffffffffffffffffffffff1673ffffffffffffffffffffffffffffffffffffffff163373ffffffffffffffffffffffffffffffffffffffff1614610651576040517f08c379a00000000000000000000000000000000000000000000000000000000081526004018080602001828103825260108152602001807f4f3a204d757374206265206f776e65720000000000000000000000000000000081525060200191505060405180910390fd5b600073ffffffffffffffffffffffffffffffffffffffff168173ffffffffffffffffffffffffffffffffffffffff1614156106f4576040517f08c379a000000000000000000000000000000000000000000000000000000000815260040180806020018281038252601b8152602001807f4f3a2041646472657373206d757374206e6f74206265206e756c6c000000000081525060200191505060405180910390fd5b806000806101000a81548173ffffffffffffffffffffffffffffffffffffffff021916908373ffffffffffffffffffffffffffffffffffffffff1602179055508073ffffffffffffffffffffffffffffffffffffffff167fa2ea9883a321a3e97b8266c2b078bfeec6d50c711ed71f874a90d500ae2eaf3660405160405180910390a250565b6000809054906101000a900473ffffffffffffffffffffffffffffffffffffffff1673ffffffffffffffffffffffffffffffffffffffff163373ffffffffffffffffffffffffffffffffffffffff161461083c576040517f08c379a00000000000000000000000000000000000000000000000000000000081526004018080602001828103825260108152602001807f4f3a204d757374206265206f776e65720000000000000000000000000000000081525060200191505060405180910390fd5b6000828260405160200180838380828437808301925050509250505060405160208183030381529060405280519060200120905060006002548260405160200180838152602001828152602001925050506040516020818303038152906040528051906020012090506108ad6102ea565b73ffffffffffffffffffffffffffffffffffffffff166306ab592360025484306040518463ffffffff1660e01b8152600401808481526020018381526020018273ffffffffffffffffffffffffffffffffffffffff1673ffffffffffffffffffffffffffffffffffffffff1681526020019350505050600060405180830381600087803b15801561093d57600080fd5b505af1158015610951573d6000803e3d6000fd5b5050505061095d6102ea565b73ffffffffffffffffffffffffffffffffffffffff16631896f70a8260006040518363ffffffff1660e01b8152600401808381526020018273ffffffffffffffffffffffffffffffffffffffff1673ffffffffffffffffffffffffffffffffffffffff16815260200192505050600060405180830381600087803b1580156109e457600080fd5b505af11580156109f8573d6000803e3d6000fd5b50505050610a046102ea565b73ffffffffffffffffffffffffffffffffffffffff16635b0fc9c38260006040518363ffffffff1660e01b8152600401808381526020018273ffffffffffffffffffffffffffffffffffffffff1673ffffffffffffffffffffffffffffffffffffffff16815260200192505050600060405180830381600087803b158015610a8b57600080fd5b505af1158015610a9f573d6000803e3d6000fd5b50505050610aab6102ea565b73ffffffffffffffffffffffffffffffffffffffff166306ab59236002548460006040518463ffffffff1660e01b8152600401808481526020018381526020018273ffffffffffffffffffffffffffffffffffffffff1673ffffffffffffffffffffffffffffffffffffffff1681526020019350505050600060405180830381600087803b158015610b3c57600080fd5b505af1158015610b50573d6000803e3d6000fd5b5050505050505050565b6002548156fea265627a7a72315820c56d53791bf96f26d7c978bbbccb57d95617d769d4930fb630791ea67128442464736f6c63430005100032",
  "source": "pragma solidity 0.5.16;\n\nimport \"../ens/AuthereumEnsResolver.sol\";\nimport \"../base/Owned.sol\";\n\ncontract ResetManager is Owned {\n\n    address ensRegistry;\n    // The managed root node\n    bytes32 public rootNode;\n\n    event RootnodeOwnerChanged(bytes32 indexed rootnode, address indexed newOwner);\n\n    /// @dev Constructor that sets the ENS root name and root node to manage\n    /// @param _rootNode The node of the root name (e.g. namehash(authereum.eth))\n    /// @param _ensRegistry Custom ENS Registry address\n    constructor(\n        bytes32 _rootNode,\n        address _ensRegistry\n    )\n        public\n    {\n        rootNode = _rootNode;\n        ensRegistry = _ensRegistry;\n    }\n\n    /// @dev This function is used when the rootnode owner is updated\n    /// @param _newOwner The address of the new ENS manager that will manage the root node\n    function changeRootnodeOwner(address _newOwner) external onlyOwner {\n        require(_newOwner != address(0), \"AEM: Address must not be null\");\n        getEnsRegistry().setOwner(rootNode, _newOwner);\n        emit RootnodeOwnerChanged(rootNode, _newOwner);\n    }\n\n    /// @dev Gets the official ENS registry\n    /// @return The official ENS registry address\n    function getEnsRegistry() public view returns (EnsRegistry) {\n        return EnsRegistry(ensRegistry);\n    }\n\n    function reset(\n        string calldata _label\n    )\n        external\n        onlyOwner\n    {\n        bytes32 labelNode = keccak256(abi.encodePacked(_label));\n        bytes32 node = keccak256(abi.encodePacked(rootNode, labelNode));\n\n        // Reset Official ENS Registry\n        getEnsRegistry().setSubnodeOwner(rootNode, labelNode, address(this));\n        getEnsRegistry().setResolver(node, address(0));  // TODO: Technically I think this doesn't matter\n        getEnsRegistry().setOwner(node, address(0));\n        getEnsRegistry().setSubnodeOwner(rootNode, labelNode, address(0));\n    }\n}",
  "sourcePath": "/Users/smitrajput/Projects/batchoo/contracts/test/ResetManager.sol",
  "compiler": {
    "name": "solc",
    "version": "0.5.16+commit.9c3226ce.Emscripten.clang"
  },
  "schemaVersion": "3.1.0",
  "updatedAt": "2020-05-20T12:48:23.556Z",
  "devdoc": {
    "methods": {
      "changeOwner(address)": {
        "details": "Lets the owner transfer ownership of the contract to a new owner",
        "params": {
          "_newOwner": "The new owner"
        }
      },
      "changeRootnodeOwner(address)": {
        "details": "This function is used when the rootnode owner is updated",
        "params": {
          "_newOwner": "The address of the new ENS manager that will manage the root node"
        }
      },
      "constructor": {
        "details": "Constructor that sets the ENS root name and root node to manage",
        "params": {
          "_ensRegistry": "Custom ENS Registry address",
          "_rootNode": "The node of the root name (e.g. namehash(authereum.eth))"
        }
      },
      "getEnsRegistry()": {
        "details": "Gets the official ENS registry",
        "return": "The official ENS registry address"
      },
      "isOwner(address)": {
        "details": "Return the ownership status of an address",
        "params": {
          "_potentialOwner": "Address being checked"
        },
        "return": "True if the _potentialOwner is the owner"
      }
    }
  },
  "userdoc": {
    "methods": {}
  }
}