{
  "contractName": "ReturnTransaction",
  "abi": [
    {
      "anonymous": false,
      "inputs": [
        {
          "indexed": false,
          "internalType": "uint256",
          "name": "_data",
          "type": "uint256"
        }
      ],
      "name": "UintEvent",
      "type": "event"
    },
    {
      "constant": false,
      "inputs": [],
      "name": "returnTest",
      "outputs": [
        {
          "internalType": "uint256",
          "name": "",
          "type": "uint256"
        }
      ],
      "payable": true,
      "stateMutability": "payable",
      "type": "function"
    }
  ],
  "bytecode": "0x6080604052348015600f57600080fd5b5060b38061001e6000396000f3fe608060405260043610601c5760003560e01c806357ecc147146021575b600080fd5b6027603d565b6040518082815260200191505060405180910390f35b60007f79c88ed496a053a2df96a8e257d4e63901d9ed34e140a179f61fdff732b8db65607b6040518082815260200191505060405180910390a1607b90509056fea265627a7a723158205c9944bedf21894929715ab47e6cf6c23a4761453d1ceab27c6fc7a455665e2a64736f6c63430005100032",
  "source": "pragma solidity 0.5.16;\n\n/**\n * @title Authereum Return Transaction\n * @author Authereum Labs, Inc.\n * @dev A contract that has a transaction that will return 123.\n */\n\ncontract ReturnTransaction {\n    event UintEvent(uint256 _data);\n\n    function returnTest() external payable returns (uint256) {\n        emit UintEvent(123);\n        return 123;\n    }\n}\n",
  "sourcePath": "/Users/smitrajput/Projects/batchoo/contracts/test/ReturnTransaction.sol",
  "compiler": {
    "name": "solc",
    "version": "0.5.16+commit.9c3226ce.Emscripten.clang"
  },
  "schemaVersion": "3.1.0",
  "updatedAt": "2020-05-20T12:48:23.558Z",
  "devdoc": {
    "author": "Authereum Labs, Inc.",
    "details": "A contract that has a transaction that will return 123.",
    "methods": {},
    "title": "Authereum Return Transaction"
  },
  "userdoc": {
    "methods": {}
  }
}