{
  "contractName": "Timelock",
  "abi": [
    {
      "inputs": [
        {
          "internalType": "uint256",
          "name": "_timelock",
          "type": "uint256"
        },
        {
          "internalType": "uint256",
          "name": "_timelockExpire",
          "type": "uint256"
        }
      ],
      "payable": false,
      "stateMutability": "nonpayable",
      "type": "constructor"
    },
    {
      "anonymous": false,
      "inputs": [
        {
          "indexed": false,
          "internalType": "bytes",
          "name": "data",
          "type": "bytes"
        },
        {
          "indexed": true,
          "internalType": "address",
          "name": "changeAddress",
          "type": "address"
        },
        {
          "indexed": false,
          "internalType": "uint256",
          "name": "changeTime",
          "type": "uint256"
        }
      ],
      "name": "ChangeCancelled",
      "type": "event"
    },
    {
      "anonymous": false,
      "inputs": [
        {
          "indexed": false,
          "internalType": "bytes",
          "name": "data",
          "type": "bytes"
        },
        {
          "indexed": true,
          "internalType": "address",
          "name": "changeAddress",
          "type": "address"
        },
        {
          "indexed": false,
          "internalType": "uint256",
          "name": "changeTime",
          "type": "uint256"
        }
      ],
      "name": "ChangeExecuted",
      "type": "event"
    },
    {
      "anonymous": false,
      "inputs": [
        {
          "indexed": false,
          "internalType": "bytes",
          "name": "data",
          "type": "bytes"
        },
        {
          "indexed": true,
          "internalType": "address",
          "name": "changeAddress",
          "type": "address"
        },
        {
          "indexed": false,
          "internalType": "uint256",
          "name": "changeTime",
          "type": "uint256"
        }
      ],
      "name": "ChangeInitiated",
      "type": "event"
    },
    {
      "anonymous": false,
      "inputs": [
        {
          "indexed": true,
          "internalType": "address",
          "name": "_newOwner",
          "type": "address"
        }
      ],
      "name": "OwnerChanged",
      "type": "event"
    },
    {
      "anonymous": false,
      "inputs": [
        {
          "indexed": true,
          "internalType": "uint256",
          "name": "newTimelockExpire",
          "type": "uint256"
        }
      ],
      "name": "TimelockExpireUpdated",
      "type": "event"
    },
    {
      "anonymous": false,
      "inputs": [
        {
          "indexed": true,
          "internalType": "uint256",
          "name": "newTimelock",
          "type": "uint256"
        }
      ],
      "name": "TimelockUpdated",
      "type": "event"
    },
    {
      "constant": false,
      "inputs": [
        {
          "internalType": "address",
          "name": "_newOwner",
          "type": "address"
        }
      ],
      "name": "changeOwner",
      "outputs": [],
      "payable": false,
      "stateMutability": "nonpayable",
      "type": "function"
    },
    {
      "constant": true,
      "inputs": [
        {
          "internalType": "bytes",
          "name": "",
          "type": "bytes"
        },
        {
          "internalType": "address",
          "name": "",
          "type": "address"
        }
      ],
      "name": "changes",
      "outputs": [
        {
          "internalType": "uint256",
          "name": "unlockTime",
          "type": "uint256"
        },
        {
          "internalType": "uint256",
          "name": "unlockExpireTime",
          "type": "uint256"
        }
      ],
      "payable": false,
      "stateMutability": "view",
      "type": "function"
    },
    {
      "constant": true,
      "inputs": [
        {
          "internalType": "address",
          "name": "_potentialOwner",
          "type": "address"
        }
      ],
      "name": "isOwner",
      "outputs": [
        {
          "internalType": "bool",
          "name": "",
          "type": "bool"
        }
      ],
      "payable": false,
      "stateMutability": "view",
      "type": "function"
    },
    {
      "constant": true,
      "inputs": [],
      "name": "owner",
      "outputs": [
        {
          "internalType": "address",
          "name": "",
          "type": "address"
        }
      ],
      "payable": false,
      "stateMutability": "view",
      "type": "function"
    },
    {
      "constant": true,
      "inputs": [],
      "name": "timelock",
      "outputs": [
        {
          "internalType": "uint256",
          "name": "",
          "type": "uint256"
        }
      ],
      "payable": false,
      "stateMutability": "view",
      "type": "function"
    },
    {
      "constant": true,
      "inputs": [],
      "name": "timelockExpire",
      "outputs": [
        {
          "internalType": "uint256",
          "name": "",
          "type": "uint256"
        }
      ],
      "payable": false,
      "stateMutability": "view",
      "type": "function"
    },
    {
      "constant": true,
      "inputs": [
        {
          "internalType": "bytes",
          "name": "_data",
          "type": "bytes"
        },
        {
          "internalType": "address",
          "name": "_changeAddress",
          "type": "address"
        }
      ],
      "name": "getUnlockTime",
      "outputs": [
        {
          "internalType": "uint256",
          "name": "",
          "type": "uint256"
        }
      ],
      "payable": false,
      "stateMutability": "view",
      "type": "function"
    },
    {
      "constant": true,
      "inputs": [
        {
          "internalType": "bytes",
          "name": "_data",
          "type": "bytes"
        },
        {
          "internalType": "address",
          "name": "_changeAddress",
          "type": "address"
        }
      ],
      "name": "getUnlockExpireTime",
      "outputs": [
        {
          "internalType": "uint256",
          "name": "",
          "type": "uint256"
        }
      ],
      "payable": false,
      "stateMutability": "view",
      "type": "function"
    },
    {
      "constant": true,
      "inputs": [
        {
          "internalType": "bytes",
          "name": "_data",
          "type": "bytes"
        },
        {
          "internalType": "address",
          "name": "_changeAddress",
          "type": "address"
        }
      ],
      "name": "getRemainingUnlockTime",
      "outputs": [
        {
          "internalType": "uint256",
          "name": "",
          "type": "uint256"
        }
      ],
      "payable": false,
      "stateMutability": "view",
      "type": "function"
    },
    {
      "constant": true,
      "inputs": [
        {
          "internalType": "bytes",
          "name": "_data",
          "type": "bytes"
        },
        {
          "internalType": "address",
          "name": "_changeAddress",
          "type": "address"
        }
      ],
      "name": "getRemainingUnlockExpireTime",
      "outputs": [
        {
          "internalType": "uint256",
          "name": "",
          "type": "uint256"
        }
      ],
      "payable": false,
      "stateMutability": "view",
      "type": "function"
    },
    {
      "constant": true,
      "inputs": [
        {
          "internalType": "bytes",
          "name": "_data",
          "type": "bytes"
        },
        {
          "internalType": "address",
          "name": "_changeAddress",
          "type": "address"
        }
      ],
      "name": "getCurrentChangeState",
      "outputs": [
        {
          "internalType": "enum Timelock.ChangeState",
          "name": "",
          "type": "uint8"
        }
      ],
      "payable": false,
      "stateMutability": "view",
      "type": "function"
    },
    {
      "constant": false,
      "inputs": [
        {
          "internalType": "uint256",
          "name": "_timelock",
          "type": "uint256"
        }
      ],
      "name": "setTimelock",
      "outputs": [],
      "payable": false,
      "stateMutability": "nonpayable",
      "type": "function"
    },
    {
      "constant": false,
      "inputs": [
        {
          "internalType": "uint256",
          "name": "_timelockExpire",
          "type": "uint256"
        }
      ],
      "name": "setTimelockExpire",
      "outputs": [],
      "payable": false,
      "stateMutability": "nonpayable",
      "type": "function"
    },
    {
      "constant": false,
      "inputs": [
        {
          "internalType": "bytes",
          "name": "_data",
          "type": "bytes"
        },
        {
          "internalType": "address",
          "name": "_changeAddress",
          "type": "address"
        }
      ],
      "name": "initiateChange",
      "outputs": [],
      "payable": false,
      "stateMutability": "nonpayable",
      "type": "function"
    },
    {
      "constant": false,
      "inputs": [
        {
          "internalType": "bytes",
          "name": "_data",
          "type": "bytes"
        },
        {
          "internalType": "address",
          "name": "_changeAddress",
          "type": "address"
        }
      ],
      "name": "executeChange",
      "outputs": [],
      "payable": true,
      "stateMutability": "payable",
      "type": "function"
    },
    {
      "constant": false,
      "inputs": [
        {
          "internalType": "bytes",
          "name": "_data",
          "type": "bytes"
        },
        {
          "internalType": "address",
          "name": "_changeAddress",
          "type": "address"
        }
      ],
      "name": "cancelChange",
      "outputs": [],
      "payable": false,
      "stateMutability": "nonpayable",
      "type": "function"
    }
  ],
  "bytecode": "0x608060405234801561001057600080fd5b50604051611fc6380380611fc68339818101604052604081101561003357600080fd5b810190808051906020019092919080519060200190929190505050336000806101000a81548173ffffffffffffffffffffffffffffffffffffffff021916908373ffffffffffffffffffffffffffffffffffffffff16021790555081600181905550806002819055506001547f23db4e72aa833f6e2e83af944353bc76dc2be79a8786e5e4a7592d313b769d4c60405160405180910390a26002547f09ec590cc9744d5ba5d1f10e7f43fe7c032d0282b6d6914f0337a28460ef34f860405160405180910390a25050611ebb8061010b6000396000f3fe6080604052600436106100f35760003560e01c80638da5cb5b1161008a578063baee46a311610059578063baee46a314610893578063c43bbdfc1461096e578063d33219b414610a6a578063d77a536c14610a95576100f3565b80638da5cb5b146105ec5780638fc8970a146106435780639a89b87f14610746578063a6f9dae114610842576100f3565b806344bdc131116100c657806344bdc131146102c35780634b2d3bc4146103bf578063733663a1146104a75780637790cb36146105b1576100f3565b80630ab16b3d146100f85780631caf6834146101f45780631e891c0a1461021f5780632f54bf6e1461025a575b600080fd5b34801561010457600080fd5b506101de6004803603604081101561011b57600080fd5b810190808035906020019064010000000081111561013857600080fd5b82018360208201111561014a57600080fd5b8035906020019184600183028401116401000000008311171561016c57600080fd5b91908080601f016020809104026020016040519081016040528093929190818152602001838380828437600081840152601f19601f820116905080830192505050505050509192919290803573ffffffffffffffffffffffffffffffffffffffff169060200190929190505050610b7d565b6040518082815260200191505060405180910390f35b34801561020057600080fd5b50610209610c4a565b6040518082815260200191505060405180910390f35b34801561022b57600080fd5b506102586004803603602081101561024257600080fd5b8101908080359060200190929190505050610c50565b005b34801561026657600080fd5b506102a96004803603602081101561027d57600080fd5b81019080803573ffffffffffffffffffffffffffffffffffffffff169060200190929190505050610d0d565b604051808215151515815260200191505060405180910390f35b3480156102cf57600080fd5b506103a9600480360360408110156102e657600080fd5b810190808035906020019064010000000081111561030357600080fd5b82018360208201111561031557600080fd5b8035906020019184600183028401116401000000008311171561033757600080fd5b91908080601f016020809104026020016040519081016040528093929190818152602001838380828437600081840152601f19601f820116905080830192505050505050509192919290803573ffffffffffffffffffffffffffffffffffffffff169060200190929190505050610d66565b6040518082815260200191505060405180910390f35b3480156103cb57600080fd5b506104a5600480360360408110156103e257600080fd5b81019080803590602001906401000000008111156103ff57600080fd5b82018360208201111561041157600080fd5b8035906020019184600183028401116401000000008311171561043357600080fd5b91908080601f016020809104026020016040519081016040528093929190818152602001838380828437600081840152601f19601f820116905080830192505050505050509192919290803573ffffffffffffffffffffffffffffffffffffffff169060200190929190505050610e33565b005b3480156104b357600080fd5b5061058d600480360360408110156104ca57600080fd5b81019080803590602001906401000000008111156104e757600080fd5b8201836020820111156104f957600080fd5b8035906020019184600183028401116401000000008311171561051b57600080fd5b91908080601f016020809104026020016040519081016040528093929190818152602001838380828437600081840152601f19601f820116905080830192505050505050509192919290803573ffffffffffffffffffffffffffffffffffffffff169060200190929190505050611239565b6040518082600381111561059d57fe5b60ff16815260200191505060405180910390f35b3480156105bd57600080fd5b506105ea600480360360208110156105d457600080fd5b81019080803590602001909291905050506113f7565b005b3480156105f857600080fd5b506106016114b4565b604051808273ffffffffffffffffffffffffffffffffffffffff1673ffffffffffffffffffffffffffffffffffffffff16815260200191505060405180910390f35b34801561064f57600080fd5b506107296004803603604081101561066657600080fd5b810190808035906020019064010000000081111561068357600080fd5b82018360208201111561069557600080fd5b803590602001918460018302840111640100000000831117156106b757600080fd5b91908080601f016020809104026020016040519081016040528093929190818152602001838380828437600081840152601f19601f820116905080830192505050505050509192919290803573ffffffffffffffffffffffffffffffffffffffff1690602001909291905050506114d9565b604051808381526020018281526020019250505060405180910390f35b34801561075257600080fd5b5061082c6004803603604081101561076957600080fd5b810190808035906020019064010000000081111561078657600080fd5b82018360208201111561079857600080fd5b803590602001918460018302840111640100000000831117156107ba57600080fd5b91908080601f016020809104026020016040519081016040528093929190818152602001838380828437600081840152601f19601f820116905080830192505050505050509192919290803573ffffffffffffffffffffffffffffffffffffffff169060200190929190505050611520565b6040518082815260200191505060405180910390f35b34801561084e57600080fd5b506108916004803603602081101561086557600080fd5b81019080803573ffffffffffffffffffffffffffffffffffffffff1690602001909291905050506115d4565b005b61096c600480360360408110156108a957600080fd5b81019080803590602001906401000000008111156108c657600080fd5b8201836020820111156108d857600080fd5b803590602001918460018302840111640100000000831117156108fa57600080fd5b91908080601f016020809104026020016040519081016040528093929190818152602001838380828437600081840152601f19601f820116905080830192505050505050509192919290803573ffffffffffffffffffffffffffffffffffffffff1690602001909291905050506117bf565b005b34801561097a57600080fd5b50610a546004803603604081101561099157600080fd5b81019080803590602001906401000000008111156109ae57600080fd5b8201836020820111156109c057600080fd5b803590602001918460018302840111640100000000831117156109e257600080fd5b91908080601f016020809104026020016040519081016040528093929190818152602001838380828437600081840152601f19601f820116905080830192505050505050509192919290803573ffffffffffffffffffffffffffffffffffffffff169060200190929190505050611b44565b6040518082815260200191505060405180910390f35b348015610a7657600080fd5b50610a7f611bf8565b6040518082815260200191505060405180910390f35b348015610aa157600080fd5b50610b7b60048036036040811015610ab857600080fd5b8101908080359060200190640100000000811115610ad557600080fd5b820183602082011115610ae757600080fd5b80359060200191846001830284011164010000000083111715610b0957600080fd5b91908080601f016020809104026020016040519081016040528093929190818152602001838380828437600081840152601f19601f820116905080830192505050505050509192919290803573ffffffffffffffffffffffffffffffffffffffff169060200190929190505050611bfe565b005b6000806003846040518082805190602001908083835b60208310610bb65780518252602082019150602081019050602083039250610b93565b6001836020036101000a038019825116818451168082178552505050505050905001915050908152602001604051809103902060008473ffffffffffffffffffffffffffffffffffffffff1673ffffffffffffffffffffffffffffffffffffffff168152602001908152602001600020600001549050428111610c3d576000915050610c44565b4281039150505b92915050565b60025481565b3073ffffffffffffffffffffffffffffffffffffffff163373ffffffffffffffffffffffffffffffffffffffff1614610cd4576040517f08c379a000000000000000000000000000000000000000000000000000000000815260040180806020018281038252602c815260200180611e5b602c913960400191505060405180910390fd5b806001819055506001547f23db4e72aa833f6e2e83af944353bc76dc2be79a8786e5e4a7592d313b769d4c60405160405180910390a250565b60008173ffffffffffffffffffffffffffffffffffffffff166000809054906101000a900473ffffffffffffffffffffffffffffffffffffffff1673ffffffffffffffffffffffffffffffffffffffff16149050919050565b6000806003846040518082805190602001908083835b60208310610d9f5780518252602082019150602081019050602083039250610d7c565b6001836020036101000a038019825116818451168082178552505050505050905001915050908152602001604051809103902060008473ffffffffffffffffffffffffffffffffffffffff1673ffffffffffffffffffffffffffffffffffffffff168152602001908152602001600020600001549050428111610e26576000915050610e2d565b4281039150505b92915050565b6000809054906101000a900473ffffffffffffffffffffffffffffffffffffffff1673ffffffffffffffffffffffffffffffffffffffff163373ffffffffffffffffffffffffffffffffffffffff1614610ef5576040517f08c379a00000000000000000000000000000000000000000000000000000000081526004018080602001828103825260108152602001807f4f3a204d757374206265206f776e65720000000000000000000000000000000081525060200191505060405180910390fd5b60006003811115610f0257fe5b610f0c8383611239565b6003811115610f1757fe5b14610f6d576040517f08c379a0000000000000000000000000000000000000000000000000000000008152600401808060200182810382526022815260200180611e396022913960400191505060405180910390fd5b42600154016003836040518082805190602001908083835b60208310610fa85780518252602082019150602081019050602083039250610f85565b6001836020036101000a038019825116818451168082178552505050505050905001915050908152602001604051809103902060008373ffffffffffffffffffffffffffffffffffffffff1673ffffffffffffffffffffffffffffffffffffffff168152602001908152602001600020600001819055506002546003836040518082805190602001908083835b602083106110585780518252602082019150602081019050602083039250611035565b6001836020036101000a038019825116818451168082178552505050505050905001915050908152602001604051809103902060008373ffffffffffffffffffffffffffffffffffffffff1673ffffffffffffffffffffffffffffffffffffffff16815260200190815260200160002060000154016003836040518082805190602001908083835b6020831061110357805182526020820191506020810190506020830392506110e0565b6001836020036101000a038019825116818451168082178552505050505050905001915050908152602001604051809103902060008373ffffffffffffffffffffffffffffffffffffffff1673ffffffffffffffffffffffffffffffffffffffff168152602001908152602001600020600101819055508073ffffffffffffffffffffffffffffffffffffffff167f4b1218e63f4e1dcaab07e1789461f964faba865ccf37067d12f7f95d1dd48f9183426040518080602001838152602001828103825284818151815260200191508051906020019080838360005b838110156111fa5780820151818401526020810190506111df565b50505050905090810190601f1680156112275780820380516001836020036101000a031916815260200191505b50935050505060405180910390a25050565b6000806003846040518082805190602001908083835b60208310611272578051825260208201915060208101905060208303925061124f565b6001836020036101000a038019825116818451168082178552505050505050905001915050908152602001604051809103902060008473ffffffffffffffffffffffffffffffffffffffff1673ffffffffffffffffffffffffffffffffffffffff16815260200190815260200160002060000154905060006003856040518082805190602001908083835b6020831061132057805182526020820191506020810190506020830392506112fd565b6001836020036101000a038019825116818451168082178552505050505050905001915050908152602001604051809103902060008573ffffffffffffffffffffffffffffffffffffffff1673ffffffffffffffffffffffffffffffffffffffff16815260200190815260200160002060010154905060008214156113aa576000925050506113f1565b814210156113bd576001925050506113f1565b4282111580156113cc57508042105b156113dc576002925050506113f1565b4281116113ee576003925050506113f1565b50505b92915050565b3073ffffffffffffffffffffffffffffffffffffffff163373ffffffffffffffffffffffffffffffffffffffff161461147b576040517f08c379a000000000000000000000000000000000000000000000000000000000815260040180806020018281038252602c815260200180611e5b602c913960400191505060405180910390fd5b806002819055506002547f09ec590cc9744d5ba5d1f10e7f43fe7c032d0282b6d6914f0337a28460ef34f860405160405180910390a250565b6000809054906101000a900473ffffffffffffffffffffffffffffffffffffffff1681565b600382805160208101820180518482526020830160208501208183528095505050505050602052806000526040600020600091509150508060000154908060010154905082565b60006003836040518082805190602001908083835b602083106115585780518252602082019150602081019050602083039250611535565b6001836020036101000a038019825116818451168082178552505050505050905001915050908152602001604051809103902060008373ffffffffffffffffffffffffffffffffffffffff1673ffffffffffffffffffffffffffffffffffffffff16815260200190815260200160002060010154905092915050565b6000809054906101000a900473ffffffffffffffffffffffffffffffffffffffff1673ffffffffffffffffffffffffffffffffffffffff163373ffffffffffffffffffffffffffffffffffffffff1614611696576040517f08c379a00000000000000000000000000000000000000000000000000000000081526004018080602001828103825260108152602001807f4f3a204d757374206265206f776e65720000000000000000000000000000000081525060200191505060405180910390fd5b600073ffffffffffffffffffffffffffffffffffffffff168173ffffffffffffffffffffffffffffffffffffffff161415611739576040517f08c379a000000000000000000000000000000000000000000000000000000000815260040180806020018281038252601b8152602001807f4f3a2041646472657373206d757374206e6f74206265206e756c6c000000000081525060200191505060405180910390fd5b806000806101000a81548173ffffffffffffffffffffffffffffffffffffffff021916908373ffffffffffffffffffffffffffffffffffffffff1602179055508073ffffffffffffffffffffffffffffffffffffffff167fa2ea9883a321a3e97b8266c2b078bfeec6d50c711ed71f874a90d500ae2eaf3660405160405180910390a250565b6000809054906101000a900473ffffffffffffffffffffffffffffffffffffffff1673ffffffffffffffffffffffffffffffffffffffff163373ffffffffffffffffffffffffffffffffffffffff1614611881576040517f08c379a00000000000000000000000000000000000000000000000000000000081526004018080602001828103825260108152602001807f4f3a204d757374206265206f776e65720000000000000000000000000000000081525060200191505060405180910390fd5b6002600381111561188e57fe5b6118988383611239565b60038111156118a357fe5b14611916576040517f08c379a000000000000000000000000000000000000000000000000000000000815260040180806020018281038252601d8152602001807f543a204368616e6765206e6f742061626c6520746f206265206d61646500000081525060200191505060405180910390fd5b6003826040518082805190602001908083835b6020831061194c5780518252602082019150602081019050602083039250611929565b6001836020036101000a038019825116818451168082178552505050505050905001915050908152602001604051809103902060008273ffffffffffffffffffffffffffffffffffffffff1673ffffffffffffffffffffffffffffffffffffffff168152602001908152602001600020600080820160009055600182016000905550508073ffffffffffffffffffffffffffffffffffffffff1634836040518082805190602001908083835b60208310611a1b57805182526020820191506020810190506020830392506119f8565b6001836020036101000a03801982511681845116808217855250505050505090500191505060006040518083038185875af1925050503d8060008114611a7d576040519150601f19603f3d011682016040523d82523d6000602084013e611a82565b606091505b5050508073ffffffffffffffffffffffffffffffffffffffff167f6000a03b6d900e96edc9c1d487fd93501da476c710c7f8ede164a7cc7a6d97a683426040518080602001838152602001828103825284818151815260200191508051906020019080838360005b83811015611b05578082015181840152602081019050611aea565b50505050905090810190601f168015611b325780820380516001836020036101000a031916815260200191505b50935050505060405180910390a25050565b60006003836040518082805190602001908083835b60208310611b7c5780518252602082019150602081019050602083039250611b59565b6001836020036101000a038019825116818451168082178552505050505050905001915050908152602001604051809103902060008373ffffffffffffffffffffffffffffffffffffffff1673ffffffffffffffffffffffffffffffffffffffff16815260200190815260200160002060000154905092915050565b60015481565b6000809054906101000a900473ffffffffffffffffffffffffffffffffffffffff1673ffffffffffffffffffffffffffffffffffffffff163373ffffffffffffffffffffffffffffffffffffffff1614611cc0576040517f08c379a00000000000000000000000000000000000000000000000000000000081526004018080602001828103825260108152602001807f4f3a204d757374206265206f776e65720000000000000000000000000000000081525060200191505060405180910390fd5b6003826040518082805190602001908083835b60208310611cf65780518252602082019150602081019050602083039250611cd3565b6001836020036101000a038019825116818451168082178552505050505050905001915050908152602001604051809103902060008273ffffffffffffffffffffffffffffffffffffffff1673ffffffffffffffffffffffffffffffffffffffff168152602001908152602001600020600080820160009055600182016000905550508073ffffffffffffffffffffffffffffffffffffffff167f3079fb3a5cc5b63fa9e441f6b451385af06d933a2af0adb48a476e9146dd44a383426040518080602001838152602001828103825284818151815260200191508051906020019080838360005b83811015611df9578082015181840152602081019050611dde565b50505050905090810190601f168015611e265780820380516001836020036101000a031916815260200191505b50935050505060405180910390a2505056fe543a204368616e6765206e6f742061626c6520746f20626520696e69746961746564543a204f6e6c79207468697320636f6e74726163742063616e2063616c6c20746869732066756e6374696f6ea265627a7a72315820d0c2ad7c90e9621ddf0ea99046f80147cc64efb50316deb52c288e10fbe6dd8964736f6c63430005100032",
  "source": "pragma solidity 0.5.16;\n\nimport \"../base/Owned.sol\";\n\n/**\n * @title Timelock\n * @author Authereum Labs, Inc.\n * @dev Used to make changes to contracts with a known time lock.\n * @dev The goal of this contract is to make the public aware of contract changes made\n * @dev by the contract owners. This will keep the owners honest and will allow the\n * @dev users of the contracts to remove any funds if they suspect any foul play.\n */\n\ncontract Timelock is Owned {\n\n    uint256 public timelock;\n    uint256 public timelockExpire;\n    enum ChangeState {Uninitialized, Pending, Changeable, Expired}\n\n    struct ContractChangeTime{\n        uint256 unlockTime;\n        uint256 unlockExpireTime;\n    }\n\n    event TimelockUpdated(uint256 indexed newTimelock);\n    event TimelockExpireUpdated(uint256 indexed newTimelockExpire);\n    event ChangeInitiated(bytes data, address indexed changeAddress, uint256 changeTime);\n    event ChangeExecuted(bytes data, address indexed changeAddress, uint256 changeTime);\n    event ChangeCancelled(bytes data, address indexed changeAddress, uint256 changeTime);\n\n    mapping(bytes => mapping(address => ContractChangeTime)) public changes;\n\n    modifier onlyThisContract {\n        require(msg.sender == address(this), \"T: Only this contract can call this function\");\n        _;\n    }\n\n    /// @param _timelock Amount of time that a pending change is locked for\n    /// @param _timelockExpire Amoutn of time AFTER timelock that data is changeable before expiring\n    constructor(uint256 _timelock, uint256 _timelockExpire) public {\n        timelock = _timelock;\n        timelockExpire = _timelockExpire;\n        emit TimelockUpdated(timelock);\n        emit TimelockExpireUpdated(timelockExpire);\n    }\n\n    /**\n     * Getters\n     */\n\n    /// @dev Get unlock time of change\n    /// @param _data Data that will be the change\n    /// @param _changeAddress Address that will receive the data\n    /// @return The unlock time of the transaction\n    function getUnlockTime(bytes memory _data, address _changeAddress) public view returns (uint256) {\n        return changes[_data][_changeAddress].unlockTime;\n    }\n\n    /// @dev Get the expiration time of change\n    /// @param _data Data that will be the change\n    /// @param _changeAddress Address that will receive the data\n    /// @return The unlock expire time of the transaction\n    function getUnlockExpireTime(bytes memory _data, address _changeAddress) public view returns (uint256) {\n        return changes[_data][_changeAddress].unlockExpireTime;\n    }\n\n    /// @dev Get remaining time until change can be made\n    /// @param _data Data that will be the change\n    /// @param _changeAddress Address that will receive the data\n    /// @return The remaining unlock time of the transaction\n    function getRemainingUnlockTime(bytes memory _data, address _changeAddress) public view returns (uint256) {\n        uint256 unlockTime = changes[_data][_changeAddress].unlockTime;\n        if (unlockTime <= block.timestamp) {\n            return 0;\n        }\n\n        return unlockTime - block.timestamp;\n    }\n\n    /// @dev Get remaining time until change will expire\n    /// @param _data Data that will be the change\n    /// @param _changeAddress Address that will receive the data\n    /// @return The remaining unlock expire time of the transaction\n    function getRemainingUnlockExpireTime(bytes memory _data, address _changeAddress) public view returns (uint256) {\n        uint256 unlockTime = changes[_data][_changeAddress].unlockTime;\n        if (unlockTime <= block.timestamp) {\n            return 0;\n        }\n\n        return unlockTime - block.timestamp;\n    }\n\n    /// @dev Get the current state of some data\n    /// @param _data Data that will be the change\n    /// @param _changeAddress Address that will receive the data\n    /// @return The change state of the transaction\n    function getCurrentChangeState(bytes memory _data, address _changeAddress) public view returns (ChangeState) {\n        uint256 unlockTime = changes[_data][_changeAddress].unlockTime;\n        uint256 unlockExpireTime = changes[_data][_changeAddress].unlockExpireTime;\n        if (unlockTime == 0) {\n            return ChangeState.Uninitialized;\n        } else if (block.timestamp < unlockTime) {\n            return ChangeState.Pending;\n        } else if (unlockTime <= block.timestamp && block.timestamp < unlockExpireTime) {\n            return ChangeState.Changeable;\n        } else if (unlockExpireTime <= block.timestamp) {\n            return ChangeState.Expired;\n        }\n    }\n\n    /**\n     * Setters\n     */\n\n    /// @dev Sets a new timelock\n    /// @notice Can only be called by self\n    /// @param _timelock New timelock time\n    function setTimelock(uint256 _timelock) public onlyThisContract {\n        timelock = _timelock;\n        emit TimelockUpdated(timelock);\n    }\n\n    /// @dev Sets a new timelock exipration\n    /// @notice Can only be called by self\n    /// @param _timelockExpire New timelock time\n    function setTimelockExpire(uint256 _timelockExpire) public onlyThisContract {\n        timelockExpire = _timelockExpire;\n        emit TimelockExpireUpdated(timelockExpire);\n    }\n\n    /**\n     * Public functions\n     */\n\n    /// @dev Initiate change\n    /// @param _data Data that will be the change\n    /// @param _changeAddress Address that will receive the data\n    function initiateChange(bytes memory _data, address _changeAddress) public onlyOwner {\n        require(getCurrentChangeState(_data, _changeAddress) == ChangeState.Uninitialized, \"T: Change not able to be initiated\");\n        changes[_data][_changeAddress].unlockTime = timelock + block.timestamp;\n        changes[_data][_changeAddress].unlockExpireTime = changes[_data][_changeAddress].unlockTime + timelockExpire;\n\n        emit ChangeInitiated(_data, _changeAddress, block.timestamp);\n    }\n\n    /// @dev Execute change\n    /// @param _data Data that will be the change\n    /// @param _changeAddress Address that will receive the data\n    function executeChange(bytes memory _data, address _changeAddress) public payable onlyOwner {\n        require(getCurrentChangeState(_data, _changeAddress) == ChangeState.Changeable, \"T: Change not able to be made\");\n        delete changes[_data][_changeAddress];\n        _changeAddress.call.value(msg.value)(_data);\n        emit ChangeExecuted(_data, _changeAddress, block.timestamp);\n    }\n\n    /// @dev Cancel change\n    /// @param _data Data that will be cancelled\n    /// @param _changeAddress Address that will receive the data\n    function cancelChange(bytes memory _data, address _changeAddress) public onlyOwner {\n        delete changes[_data][_changeAddress];\n        emit ChangeCancelled(_data, _changeAddress, block.timestamp);\n    }\n}\n",
  "sourcePath": "/Users/smitrajput/Projects/batchoo/contracts/admin/Timelock.sol",
  "compiler": {
    "name": "solc",
    "version": "0.5.16+commit.9c3226ce.Emscripten.clang"
  },
  "schemaVersion": "3.1.0",
  "updatedAt": "2020-05-20T12:48:22.916Z",
  "devdoc": {
    "author": "Authereum Labs, Inc.",
    "details": "Used to make changes to contracts with a known time lock.The goal of this contract is to make the public aware of contract changes madeby the contract owners. This will keep the owners honest and will allow theusers of the contracts to remove any funds if they suspect any foul play.",
    "methods": {
      "cancelChange(bytes,address)": {
        "details": "Cancel change",
        "params": {
          "_changeAddress": "Address that will receive the data",
          "_data": "Data that will be cancelled"
        }
      },
      "changeOwner(address)": {
        "details": "Lets the owner transfer ownership of the contract to a new owner",
        "params": {
          "_newOwner": "The new owner"
        }
      },
      "constructor": {
        "params": {
          "_timelock": "Amount of time that a pending change is locked for",
          "_timelockExpire": "Amoutn of time AFTER timelock that data is changeable before expiring"
        }
      },
      "executeChange(bytes,address)": {
        "details": "Execute change",
        "params": {
          "_changeAddress": "Address that will receive the data",
          "_data": "Data that will be the change"
        }
      },
      "getCurrentChangeState(bytes,address)": {
        "details": "Get the current state of some data",
        "params": {
          "_changeAddress": "Address that will receive the data",
          "_data": "Data that will be the change"
        },
        "return": "The change state of the transaction"
      },
      "getRemainingUnlockExpireTime(bytes,address)": {
        "details": "Get remaining time until change will expire",
        "params": {
          "_changeAddress": "Address that will receive the data",
          "_data": "Data that will be the change"
        },
        "return": "The remaining unlock expire time of the transaction"
      },
      "getRemainingUnlockTime(bytes,address)": {
        "details": "Get remaining time until change can be made",
        "params": {
          "_changeAddress": "Address that will receive the data",
          "_data": "Data that will be the change"
        },
        "return": "The remaining unlock time of the transaction"
      },
      "getUnlockExpireTime(bytes,address)": {
        "details": "Get the expiration time of change",
        "params": {
          "_changeAddress": "Address that will receive the data",
          "_data": "Data that will be the change"
        },
        "return": "The unlock expire time of the transaction"
      },
      "getUnlockTime(bytes,address)": {
        "details": "Get unlock time of change",
        "params": {
          "_changeAddress": "Address that will receive the data",
          "_data": "Data that will be the change"
        },
        "return": "The unlock time of the transaction"
      },
      "initiateChange(bytes,address)": {
        "details": "Initiate change",
        "params": {
          "_changeAddress": "Address that will receive the data",
          "_data": "Data that will be the change"
        }
      },
      "isOwner(address)": {
        "details": "Return the ownership status of an address",
        "params": {
          "_potentialOwner": "Address being checked"
        },
        "return": "True if the _potentialOwner is the owner"
      },
      "setTimelock(uint256)": {
        "details": "Sets a new timelock",
        "params": {
          "_timelock": "New timelock time"
        }
      },
      "setTimelockExpire(uint256)": {
        "details": "Sets a new timelock exipration",
        "params": {
          "_timelockExpire": "New timelock time"
        }
      }
    },
    "title": "Timelock"
  },
  "userdoc": {
    "methods": {
      "setTimelock(uint256)": {
        "notice": "Can only be called by self"
      },
      "setTimelockExpire(uint256)": {
        "notice": "Can only be called by self"
      }
    }
  }
}