{
  "contractName": "TransactionLimit",
  "abi": [
    {
      "anonymous": false,
      "inputs": [
        {
          "indexed": true,
          "internalType": "address",
          "name": "authKey",
          "type": "address"
        }
      ],
      "name": "AuthKeyAdded",
      "type": "event"
    },
    {
      "anonymous": false,
      "inputs": [
        {
          "indexed": true,
          "internalType": "address",
          "name": "authKey",
          "type": "address"
        }
      ],
      "name": "AuthKeyRemoved",
      "type": "event"
    },
    {
      "anonymous": false,
      "inputs": [
        {
          "indexed": false,
          "internalType": "string",
          "name": "reason",
          "type": "string"
        }
      ],
      "name": "CallFailed",
      "type": "event"
    },
    {
      "anonymous": false,
      "inputs": [
        {
          "indexed": true,
          "internalType": "address",
          "name": "authKey",
          "type": "address"
        },
        {
          "indexed": true,
          "internalType": "uint256",
          "name": "newDailyLimit",
          "type": "uint256"
        }
      ],
      "name": "DailyLimitChanged",
      "type": "event"
    },
    {
      "anonymous": false,
      "inputs": [
        {
          "indexed": true,
          "internalType": "uint256",
          "name": "day",
          "type": "uint256"
        },
        {
          "indexed": true,
          "internalType": "uint256",
          "name": "spendIncrease",
          "type": "uint256"
        }
      ],
      "name": "DailySpendIncreased",
      "type": "event"
    },
    {
      "anonymous": false,
      "inputs": [
        {
          "indexed": true,
          "internalType": "address",
          "name": "implementation",
          "type": "address"
        }
      ],
      "name": "Upgraded",
      "type": "event"
    },
    {
      "payable": true,
      "stateMutability": "payable",
      "type": "fallback"
    },
    {
      "constant": false,
      "inputs": [
        {
          "internalType": "address",
          "name": "_authKey",
          "type": "address"
        }
      ],
      "name": "addAuthKey",
      "outputs": [],
      "payable": false,
      "stateMutability": "nonpayable",
      "type": "function"
    },
    {
      "constant": true,
      "inputs": [
        {
          "internalType": "address",
          "name": "",
          "type": "address"
        }
      ],
      "name": "authKeys",
      "outputs": [
        {
          "internalType": "bool",
          "name": "",
          "type": "bool"
        }
      ],
      "payable": false,
      "stateMutability": "view",
      "type": "function"
    },
    {
      "constant": true,
      "inputs": [],
      "name": "dailyLimit",
      "outputs": [
        {
          "internalType": "uint256",
          "name": "",
          "type": "uint256"
        }
      ],
      "payable": false,
      "stateMutability": "view",
      "type": "function"
    },
    {
      "constant": true,
      "inputs": [
        {
          "internalType": "uint256",
          "name": "",
          "type": "uint256"
        }
      ],
      "name": "dailyLimitTracker",
      "outputs": [
        {
          "internalType": "uint256",
          "name": "",
          "type": "uint256"
        }
      ],
      "payable": false,
      "stateMutability": "view",
      "type": "function"
    },
    {
      "constant": true,
      "inputs": [],
      "name": "getChainId",
      "outputs": [
        {
          "internalType": "uint256",
          "name": "",
          "type": "uint256"
        }
      ],
      "payable": false,
      "stateMutability": "pure",
      "type": "function"
    },
    {
      "constant": false,
      "inputs": [
        {
          "internalType": "address",
          "name": "_authKey",
          "type": "address"
        }
      ],
      "name": "initializeV1",
      "outputs": [],
      "payable": false,
      "stateMutability": "nonpayable",
      "type": "function"
    },
    {
      "constant": true,
      "inputs": [],
      "name": "lastInitializedVersion",
      "outputs": [
        {
          "internalType": "uint256",
          "name": "",
          "type": "uint256"
        }
      ],
      "payable": false,
      "stateMutability": "view",
      "type": "function"
    },
    {
      "constant": true,
      "inputs": [],
      "name": "nonce",
      "outputs": [
        {
          "internalType": "uint256",
          "name": "",
          "type": "uint256"
        }
      ],
      "payable": false,
      "stateMutability": "view",
      "type": "function"
    },
    {
      "constant": true,
      "inputs": [],
      "name": "numAuthKeys",
      "outputs": [
        {
          "internalType": "uint256",
          "name": "",
          "type": "uint256"
        }
      ],
      "payable": false,
      "stateMutability": "view",
      "type": "function"
    },
    {
      "constant": false,
      "inputs": [
        {
          "internalType": "address",
          "name": "",
          "type": "address"
        },
        {
          "internalType": "address",
          "name": "",
          "type": "address"
        },
        {
          "internalType": "uint256[]",
          "name": "",
          "type": "uint256[]"
        },
        {
          "internalType": "uint256[]",
          "name": "",
          "type": "uint256[]"
        },
        {
          "internalType": "bytes",
          "name": "",
          "type": "bytes"
        }
      ],
      "name": "onERC1155BatchReceived",
      "outputs": [
        {
          "internalType": "bytes4",
          "name": "",
          "type": "bytes4"
        }
      ],
      "payable": false,
      "stateMutability": "nonpayable",
      "type": "function"
    },
    {
      "constant": false,
      "inputs": [
        {
          "internalType": "address",
          "name": "",
          "type": "address"
        },
        {
          "internalType": "address",
          "name": "",
          "type": "address"
        },
        {
          "internalType": "uint256",
          "name": "",
          "type": "uint256"
        },
        {
          "internalType": "uint256",
          "name": "",
          "type": "uint256"
        },
        {
          "internalType": "bytes",
          "name": "",
          "type": "bytes"
        }
      ],
      "name": "onERC1155Received",
      "outputs": [
        {
          "internalType": "bytes4",
          "name": "",
          "type": "bytes4"
        }
      ],
      "payable": false,
      "stateMutability": "nonpayable",
      "type": "function"
    },
    {
      "constant": false,
      "inputs": [
        {
          "internalType": "address",
          "name": "",
          "type": "address"
        },
        {
          "internalType": "address",
          "name": "",
          "type": "address"
        },
        {
          "internalType": "uint256",
          "name": "",
          "type": "uint256"
        },
        {
          "internalType": "bytes",
          "name": "",
          "type": "bytes"
        }
      ],
      "name": "onERC721Received",
      "outputs": [
        {
          "internalType": "bytes4",
          "name": "",
          "type": "bytes4"
        }
      ],
      "payable": false,
      "stateMutability": "nonpayable",
      "type": "function"
    },
    {
      "constant": false,
      "inputs": [
        {
          "internalType": "address",
          "name": "_authKey",
          "type": "address"
        }
      ],
      "name": "removeAuthKey",
      "outputs": [],
      "payable": false,
      "stateMutability": "nonpayable",
      "type": "function"
    },
    {
      "constant": true,
      "inputs": [],
      "name": "getCurrentDay",
      "outputs": [
        {
          "internalType": "uint256",
          "name": "",
          "type": "uint256"
        }
      ],
      "payable": false,
      "stateMutability": "view",
      "type": "function"
    },
    {
      "constant": true,
      "inputs": [],
      "name": "getIsWithinEthDailyTransactionLimit",
      "outputs": [
        {
          "internalType": "bool",
          "name": "",
          "type": "bool"
        }
      ],
      "payable": false,
      "stateMutability": "view",
      "type": "function"
    },
    {
      "constant": true,
      "inputs": [
        {
          "internalType": "uint256",
          "name": "_value",
          "type": "uint256"
        }
      ],
      "name": "getWillBeWithinEthDailyTransactionLimit",
      "outputs": [
        {
          "internalType": "bool",
          "name": "",
          "type": "bool"
        }
      ],
      "payable": false,
      "stateMutability": "view",
      "type": "function"
    },
    {
      "constant": false,
      "inputs": [
        {
          "internalType": "uint256",
          "name": "_newDailyLimit",
          "type": "uint256"
        }
      ],
      "name": "changeDailyLimit",
      "outputs": [],
      "payable": false,
      "stateMutability": "nonpayable",
      "type": "function"
    }
  ],
  "bytecode": "0x608060405234801561001057600080fd5b50611247806100206000396000f3fe6080604052600436106100fe5760003560e01c80637e7fd66c11610095578063affed0e011610064578063affed0e014610346578063bc197c8114610371578063cea08621146103ae578063ec5e319e146103d7578063f23a6e6114610402576100fe565b80637e7fd66c1461028a5780639565389e146102b55780639657b809146102de578063a30e9b181461031b576100fe565b80633408e470116100d15780633408e470146101cc5780633e6968b6146101f75780635175ca5e1461022257806367eeba0c1461025f576100fe565b806313f8c57814610100578063150b7a02146101295780631b9a9f9e146101665780632016be1c1461018f575b005b34801561010c57600080fd5b5061012760048036036101229190810190610c3a565b61043f565b005b34801561013557600080fd5b50610150600480360361014b9190810190610d2f565b6105fe565b60405161015d9190611013565b60405180910390f35b34801561017257600080fd5b5061018d60048036036101889190810190610c3a565b610612565b005b34801561019b57600080fd5b506101b660048036036101b19190810190610e3c565b61070c565b6040516101c39190610ff8565b60405180910390f35b3480156101d857600080fd5b506101e1610753565b6040516101ee91906110ce565b60405180910390f35b34801561020357600080fd5b5061020c61075c565b60405161021991906110ce565b60405180910390f35b34801561022e57600080fd5b5061024960048036036102449190810190610c3a565b610770565b6040516102569190610ff8565b60405180910390f35b34801561026b57600080fd5b50610274610790565b60405161028191906110ce565b60405180910390f35b34801561029657600080fd5b5061029f610796565b6040516102ac91906110ce565b60405180910390f35b3480156102c157600080fd5b506102dc60048036036102d79190810190610c3a565b61079c565b005b3480156102ea57600080fd5b5061030560048036036103009190810190610e3c565b6109a1565b60405161031291906110ce565b60405180910390f35b34801561032757600080fd5b506103306109b9565b60405161033d9190610ff8565b60405180910390f35b34801561035257600080fd5b5061035b6109ca565b60405161036891906110ce565b60405180910390f35b34801561037d57600080fd5b5061039860048036036103939190810190610c63565b6109d0565b6040516103a59190611013565b60405180910390f35b3480156103ba57600080fd5b506103d560048036036103d09190810190610e3c565b6109e8565b005b3480156103e357600080fd5b506103ec610ab6565b6040516103f991906110ce565b60405180910390f35b34801561040e57600080fd5b5061042960048036036104249190810190610daa565b610abc565b6040516104369190611013565b60405180910390f35b61044833610ad2565b8061047e57503073ffffffffffffffffffffffffffffffffffffffff163373ffffffffffffffffffffffffffffffffffffffff16145b6104bd576040517f08c379a00000000000000000000000000000000000000000000000000000000081526004016104b49061106e565b60405180910390fd5b60001515600160008373ffffffffffffffffffffffffffffffffffffffff1673ffffffffffffffffffffffffffffffffffffffff16815260200190815260200160002060009054906101000a900460ff16151514610550576040517f08c379a00000000000000000000000000000000000000000000000000000000081526004016105479061108e565b60405180910390fd5b60018060008373ffffffffffffffffffffffffffffffffffffffff1673ffffffffffffffffffffffffffffffffffffffff16815260200190815260200160002060006101000a81548160ff02191690831515021790555060016003600082825401925050819055508073ffffffffffffffffffffffffffffffffffffffff167fb020719d16d3c4de45a91f9c329aa61d5bad3f44f760840c8d5d82d4cd3bcc3360405160405180910390a250565b600063150b7a0260e01b9050949350505050565b6000805414610656576040517f08c379a000000000000000000000000000000000000000000000000000000000815260040161064d9061104e565b60405180910390fd5b600160008190555060018060008373ffffffffffffffffffffffffffffffffffffffff1673ffffffffffffffffffffffffffffffffffffffff16815260200190815260200160002060006101000a81548160ff02191690831515021790555060016003600082825401925050819055508073ffffffffffffffffffffffffffffffffffffffff167fb020719d16d3c4de45a91f9c329aa61d5bad3f44f760840c8d5d82d4cd3bcc3360405160405180910390a250565b60008061071761075c565b9050600083600560008481526020019081526020016000205401905060045481116107475760019250505061074e565b6000925050505b919050565b60006001905090565b600062015180428161076a57fe5b04905090565b60016020528060005260406000206000915054906101000a900460ff1681565b60045481565b60005481565b6107a533610ad2565b806107db57503073ffffffffffffffffffffffffffffffffffffffff163373ffffffffffffffffffffffffffffffffffffffff16145b61081a576040517f08c379a00000000000000000000000000000000000000000000000000000000081526004016108119061106e565b60405180910390fd5b60011515600160008373ffffffffffffffffffffffffffffffffffffffff1673ffffffffffffffffffffffffffffffffffffffff16815260200190815260200160002060009054906101000a900460ff161515146108ad576040517f08c379a00000000000000000000000000000000000000000000000000000000081526004016108a4906110ae565b60405180910390fd5b6001600354116108f2576040517f08c379a00000000000000000000000000000000000000000000000000000000081526004016108e99061102e565b60405180910390fd5b6000600160008373ffffffffffffffffffffffffffffffffffffffff1673ffffffffffffffffffffffffffffffffffffffff16815260200190815260200160002060006101000a81548160ff02191690831515021790555060016003600082825403925050819055508073ffffffffffffffffffffffffffffffffffffffff167fbe55f9add9abe657e689a4a84a31854310f260c7e2610bcd22440e3ec3a836a460405160405180910390a250565b60056020528060005260406000206000915090505481565b60006109c5600061070c565b905090565b60025481565b600063bc197c8160e01b905098975050505050505050565b6109f133610ad2565b80610a2757503073ffffffffffffffffffffffffffffffffffffffff163373ffffffffffffffffffffffffffffffffffffffff16145b610a66576040517f08c379a0000000000000000000000000000000000000000000000000000000008152600401610a5d9061106e565b60405180910390fd5b806004819055506004543373ffffffffffffffffffffffffffffffffffffffff167fca0b3dabefdbd8c72c0a9cf4a6e9d107da897abf036ef3f3f3b010cdd259415960405160405180910390a350565b60035481565b600063f23a6e6160e01b90509695505050505050565b6000600160008373ffffffffffffffffffffffffffffffffffffffff1673ffffffffffffffffffffffffffffffffffffffff16815260200190815260200160002060009054906101000a900460ff169050919050565b600081359050610b37816111d6565b92915050565b60008083601f840112610b4f57600080fd5b8235905067ffffffffffffffff811115610b6857600080fd5b602083019150836020820283011115610b8057600080fd5b9250929050565b60008083601f840112610b9957600080fd5b8235905067ffffffffffffffff811115610bb257600080fd5b602083019150836001820283011115610bca57600080fd5b9250929050565b600082601f830112610be257600080fd5b8135610bf5610bf082611116565b6110e9565b91508082526020830160208301858383011115610c1157600080fd5b610c1c8382846111c7565b50505092915050565b600081359050610c34816111ed565b92915050565b600060208284031215610c4c57600080fd5b6000610c5a84828501610b28565b91505092915050565b60008060008060008060008060a0898b031215610c7f57600080fd5b6000610c8d8b828c01610b28565b9850506020610c9e8b828c01610b28565b975050604089013567ffffffffffffffff811115610cbb57600080fd5b610cc78b828c01610b3d565b9650965050606089013567ffffffffffffffff811115610ce657600080fd5b610cf28b828c01610b3d565b9450945050608089013567ffffffffffffffff811115610d1157600080fd5b610d1d8b828c01610b87565b92509250509295985092959890939650565b60008060008060808587031215610d4557600080fd5b6000610d5387828801610b28565b9450506020610d6487828801610b28565b9350506040610d7587828801610c25565b925050606085013567ffffffffffffffff811115610d9257600080fd5b610d9e87828801610bd1565b91505092959194509250565b60008060008060008060a08789031215610dc357600080fd5b6000610dd189828a01610b28565b9650506020610de289828a01610b28565b9550506040610df389828a01610c25565b9450506060610e0489828a01610c25565b935050608087013567ffffffffffffffff811115610e2157600080fd5b610e2d89828a01610b87565b92509250509295509295509295565b600060208284031215610e4e57600080fd5b6000610e5c84828501610c25565b91505092915050565b610e6e81611165565b82525050565b610e7d81611171565b82525050565b6000610e90601f83611142565b91507f42413a2043616e6e6f742072656d6f7665206c6173742061757468206b6579006000830152602082019050919050565b6000610ed0602183611142565b91507f41493a20496d70726f70657220696e697469616c697a6174696f6e206f72646560008301527f72000000000000000000000000000000000000000000000000000000000000006020830152604082019050919050565b6000610f36601f83611142565b91507f42413a2041757468206b6579206f722073656c6620697320696e76616c6964006000830152602082019050919050565b6000610f76601a83611142565b91507f42413a2041757468206b657920616c72656164792061646465640000000000006000830152602082019050919050565b6000610fb6601a83611142565b91507f42413a2041757468206b6579206e6f74207965742061646465640000000000006000830152602082019050919050565b610ff2816111bd565b82525050565b600060208201905061100d6000830184610e65565b92915050565b60006020820190506110286000830184610e74565b92915050565b6000602082019050818103600083015261104781610e83565b9050919050565b6000602082019050818103600083015261106781610ec3565b9050919050565b6000602082019050818103600083015261108781610f29565b9050919050565b600060208201905081810360008301526110a781610f69565b9050919050565b600060208201905081810360008301526110c781610fa9565b9050919050565b60006020820190506110e36000830184610fe9565b92915050565b6000604051905081810181811067ffffffffffffffff8211171561110c57600080fd5b8060405250919050565b600067ffffffffffffffff82111561112d57600080fd5b601f19601f8301169050602081019050919050565b600082825260208201905092915050565b600061115e8261119d565b9050919050565b60008115159050919050565b60007fffffffff0000000000000000000000000000000000000000000000000000000082169050919050565b600073ffffffffffffffffffffffffffffffffffffffff82169050919050565b6000819050919050565b82818337600083830152505050565b6111df81611153565b81146111ea57600080fd5b50565b6111f6816111bd565b811461120157600080fd5b5056fea365627a7a72315820aafcc38fa776fcab139108c7e122a3c653a19a9d9bbecadfeb560a787fa267e56c6578706572696d656e74616cf564736f6c63430005100040",
  "source": "pragma solidity 0.5.16;\npragma experimental ABIEncoderV2;\n\nimport \"../account/BaseAccount.sol\";\n\n/**\n * @title TransactionLimit\n * @author Authereum Labs, Inc.\n * @dev Used to limit login key's transaction limits. This contract handles all\n * @dev functionality related to daily limits for login keys.\n */\n\ncontract TransactionLimit is BaseAccount {\n\n    uint256 constant defaultDailyLimit = 10 ether;\n\n\n    // NOTE: This state and events will be included in the state and event\n    // NOTE: account files if they are ever included in an upgrade\n    uint256 public dailyLimit;\n    mapping(uint256 => uint256) public dailyLimitTracker;\n\n    event DailySpendIncreased(uint256 indexed day, uint256 indexed spendIncrease);\n    event DailyLimitChanged(address indexed authKey, uint256 indexed newDailyLimit);\n\n\n    /**\n     * Getters\n     */\n\n    /// @dev Gets the current day for the contract\n    /// @return Current day\n    function getCurrentDay() public view returns (uint256) {\n        return block.timestamp / 86400;\n    }\n\n    /// @dev Check if a user is within their daily limit\n    /// @return True if transaction will be within the daily limit\n    function getIsWithinEthDailyTransactionLimit() public view returns (bool) {\n        return getWillBeWithinEthDailyTransactionLimit(0);\n    }\n\n    /// @dev Check if a user will be within their daily limit after a transaction\n    /// @param _value Value being sent with the current transaction\n    /// @return True if transaction will be within the daily limit\n    function getWillBeWithinEthDailyTransactionLimit(uint256 _value) public view returns (bool) {\n        uint256 currentDay = getCurrentDay();\n        uint256 dailySpend = dailyLimitTracker[currentDay] + _value;\n        if (dailySpend <= dailyLimit) {\n            return true;\n        }\n        return false;\n    }\n\n    /**\n     * Setters\n     */\n\n    /// @dev Change the daily limit for a user\n    /// @param _newDailyLimit New daily limit to set\n    function changeDailyLimit(uint256 _newDailyLimit) public onlyAuthKeySenderOrSelf {\n        dailyLimit = _newDailyLimit;\n        emit DailyLimitChanged(msg.sender, dailyLimit);\n    }\n\n    /**\n     * Internal functions\n     */\n\n    /// @dev Update the tracked balance for daily limit for a user\n    /// @param _value Value being sent with the current transaction\n    function updateEthDailyTransactionLimit(uint256 _value) internal {\n        // Do not update anything if there is no value associated with the transaction\n        if (_value == 0) return;\n\n        dailyLimitTracker[getCurrentDay()] += _value;\n        emit DailySpendIncreased(getCurrentDay(), _value);\n    }\n}",
  "sourcePath": "/Users/smitrajput/Projects/batchoo/contracts/firewall/TransactionLimit.sol",
  "compiler": {
    "name": "solc",
    "version": "0.5.16+commit.9c3226ce.Emscripten.clang"
  },
  "schemaVersion": "3.1.0",
  "updatedAt": "2020-05-20T12:48:46.080Z",
  "devdoc": {
    "author": "Authereum Labs, Inc.",
    "details": "Used to limit login key's transaction limits. This contract handles allfunctionality related to daily limits for login keys.",
    "methods": {
      "addAuthKey(address)": {
        "details": "Add an auth key to the list of auth keys",
        "params": {
          "_authKey": "Address of the auth key to add"
        }
      },
      "changeDailyLimit(uint256)": {
        "details": "Change the daily limit for a user",
        "params": {
          "_newDailyLimit": "New daily limit to set"
        }
      },
      "getChainId()": {
        "details": "Get the chain ID constant",
        "return": "The chain id"
      },
      "getCurrentDay()": {
        "details": "Gets the current day for the contract",
        "return": "Current day"
      },
      "getIsWithinEthDailyTransactionLimit()": {
        "details": "Check if a user is within their daily limit",
        "return": "True if transaction will be within the daily limit"
      },
      "getWillBeWithinEthDailyTransactionLimit(uint256)": {
        "details": "Check if a user will be within their daily limit after a transaction",
        "params": {
          "_value": "Value being sent with the current transaction"
        },
        "return": "True if transaction will be within the daily limit"
      },
      "initializeV1(address)": {
        "details": "Initialize the Authereum Account",
        "params": {
          "_authKey": "authKey that will own this account"
        }
      },
      "onERC1155BatchReceived(address,address,uint256[],uint256[],bytes)": {
        "details": "An ERC1155-compliant smart contract MUST call this function on the token recipient contract, at the end of a `safeBatchTransferFrom` after the balances have been updated. This function MUST return `bytes4(keccak256(\"onERC1155BatchReceived(address,address,uint256[],uint256[],bytes)\"))` (i.e. 0xbc197c81) if it accepts the transfer(s). This function MUST revert if it rejects the transfer(s). Return of any other value than the prescribed keccak256 generated value MUST result in the transaction being reverted by the caller. param _operator  The address which initiated the batch transfer (i.e. msg.sender) param _from      The address which previously owned the token param _ids       An array containing ids of each token being transferred (order and length must match _values array) param _values    An array containing amounts of each token being transferred (order and length must match _ids array) param _data      Additional data with no specified format",
        "return": "`bytes4(keccak256(\"onERC1155BatchReceived(address,address,uint256[],uint256[],bytes)\"))`"
      },
      "onERC721Received(address,address,uint256,bytes)": {
        "details": "The ERC721 smart contract calls this function on the recipient after a {IERC721-safeTransferFrom}. This function MUST return the function selector, otherwise the caller will revert the transaction. The selector to be returned can be obtained as `this.onERC721Received.selector`. This function MAY throw to revert and reject the transfer. Note: the ERC721 contract address is always the message sender. param operator The address which called `safeTransferFrom` function param from The address which previously owned the token param tokenId The NFT identifier which is being transferred param data Additional data with no specified format",
        "return": "bytes4 `bytes4(keccak256(\"onERC721Received(address,address,uint256,bytes)\"))`"
      },
      "removeAuthKey(address)": {
        "details": "Remove an auth key from the list of auth keys",
        "params": {
          "_authKey": "Address of the auth key to remove"
        }
      }
    },
    "title": "TransactionLimit"
  },
  "userdoc": {
    "methods": {
      "onERC1155BatchReceived(address,address,uint256[],uint256[],bytes)": {
        "notice": "Handle the receipt of multiple ERC1155 token types."
      },
      "onERC1155Received(address,address,uint256,uint256,bytes)": {
        "notice": "ERC1155"
      },
      "onERC721Received(address,address,uint256,bytes)": {
        "notice": "Handle the receipt of an NFT"
      }
    }
  }
}