{
  "contractName": "UpgradeAccount",
  "abi": [
    {
      "anonymous": false,
      "inputs": [
        {
          "indexed": true,
          "internalType": "address",
          "name": "authKey",
          "type": "address"
        }
      ],
      "name": "AuthKeyAdded",
      "type": "event"
    },
    {
      "anonymous": false,
      "inputs": [
        {
          "indexed": true,
          "internalType": "address",
          "name": "authKey",
          "type": "address"
        }
      ],
      "name": "AuthKeyRemoved",
      "type": "event"
    },
    {
      "anonymous": false,
      "inputs": [
        {
          "indexed": false,
          "internalType": "string",
          "name": "reason",
          "type": "string"
        }
      ],
      "name": "CallFailed",
      "type": "event"
    },
    {
      "anonymous": false,
      "inputs": [
        {
          "indexed": true,
          "internalType": "address",
          "name": "implementation",
          "type": "address"
        }
      ],
      "name": "Upgraded",
      "type": "event"
    },
    {
      "payable": true,
      "stateMutability": "payable",
      "type": "fallback"
    },
    {
      "constant": false,
      "inputs": [
        {
          "internalType": "address",
          "name": "_authKey",
          "type": "address"
        }
      ],
      "name": "addAuthKey",
      "outputs": [],
      "payable": false,
      "stateMutability": "nonpayable",
      "type": "function"
    },
    {
      "constant": true,
      "inputs": [
        {
          "internalType": "address",
          "name": "",
          "type": "address"
        }
      ],
      "name": "authKeys",
      "outputs": [
        {
          "internalType": "bool",
          "name": "",
          "type": "bool"
        }
      ],
      "payable": false,
      "stateMutability": "view",
      "type": "function"
    },
    {
      "constant": true,
      "inputs": [],
      "name": "authereumVersion",
      "outputs": [
        {
          "internalType": "string",
          "name": "",
          "type": "string"
        }
      ],
      "payable": false,
      "stateMutability": "view",
      "type": "function"
    },
    {
      "constant": false,
      "inputs": [
        {
          "internalType": "bytes[]",
          "name": "_transactions",
          "type": "bytes[]"
        },
        {
          "internalType": "uint256",
          "name": "_gasPrice",
          "type": "uint256"
        },
        {
          "internalType": "uint256",
          "name": "_gasOverhead",
          "type": "uint256"
        },
        {
          "internalType": "address",
          "name": "_feeTokenAddress",
          "type": "address"
        },
        {
          "internalType": "uint256",
          "name": "_feeTokenRate",
          "type": "uint256"
        },
        {
          "internalType": "bytes",
          "name": "_transactionMessageHashSignature",
          "type": "bytes"
        }
      ],
      "name": "executeMultipleAuthKeyMetaTransactions",
      "outputs": [
        {
          "internalType": "bytes[]",
          "name": "",
          "type": "bytes[]"
        }
      ],
      "payable": false,
      "stateMutability": "nonpayable",
      "type": "function"
    },
    {
      "constant": false,
      "inputs": [
        {
          "internalType": "bytes[]",
          "name": "_transactions",
          "type": "bytes[]"
        },
        {
          "internalType": "uint256",
          "name": "_gasPrice",
          "type": "uint256"
        },
        {
          "internalType": "uint256",
          "name": "_gasOverhead",
          "type": "uint256"
        },
        {
          "internalType": "bytes",
          "name": "_loginKeyRestrictionsData",
          "type": "bytes"
        },
        {
          "internalType": "address",
          "name": "_feeTokenAddress",
          "type": "address"
        },
        {
          "internalType": "uint256",
          "name": "_feeTokenRate",
          "type": "uint256"
        },
        {
          "internalType": "bytes",
          "name": "_transactionMessageHashSignature",
          "type": "bytes"
        },
        {
          "internalType": "bytes",
          "name": "_loginKeyAttestationSignature",
          "type": "bytes"
        }
      ],
      "name": "executeMultipleLoginKeyMetaTransactions",
      "outputs": [
        {
          "internalType": "bytes[]",
          "name": "",
          "type": "bytes[]"
        }
      ],
      "payable": false,
      "stateMutability": "nonpayable",
      "type": "function"
    },
    {
      "constant": false,
      "inputs": [
        {
          "internalType": "bytes[]",
          "name": "_transactions",
          "type": "bytes[]"
        }
      ],
      "name": "executeMultipleMetaTransactions",
      "outputs": [
        {
          "internalType": "bytes[]",
          "name": "",
          "type": "bytes[]"
        }
      ],
      "payable": false,
      "stateMutability": "nonpayable",
      "type": "function"
    },
    {
      "constant": true,
      "inputs": [],
      "name": "getChainId",
      "outputs": [
        {
          "internalType": "uint256",
          "name": "",
          "type": "uint256"
        }
      ],
      "payable": false,
      "stateMutability": "pure",
      "type": "function"
    },
    {
      "constant": false,
      "inputs": [
        {
          "internalType": "address",
          "name": "_authKey",
          "type": "address"
        }
      ],
      "name": "initializeV1",
      "outputs": [],
      "payable": false,
      "stateMutability": "nonpayable",
      "type": "function"
    },
    {
      "constant": true,
      "inputs": [
        {
          "internalType": "bytes",
          "name": "_data",
          "type": "bytes"
        },
        {
          "internalType": "bytes",
          "name": "_signature",
          "type": "bytes"
        }
      ],
      "name": "isValidAuthKeySignature",
      "outputs": [
        {
          "internalType": "bytes4",
          "name": "",
          "type": "bytes4"
        }
      ],
      "payable": false,
      "stateMutability": "view",
      "type": "function"
    },
    {
      "constant": true,
      "inputs": [
        {
          "internalType": "bytes",
          "name": "_data",
          "type": "bytes"
        },
        {
          "internalType": "bytes",
          "name": "_signature",
          "type": "bytes"
        }
      ],
      "name": "isValidLoginKeySignature",
      "outputs": [
        {
          "internalType": "bytes4",
          "name": "",
          "type": "bytes4"
        }
      ],
      "payable": false,
      "stateMutability": "view",
      "type": "function"
    },
    {
      "constant": true,
      "inputs": [
        {
          "internalType": "bytes",
          "name": "_data",
          "type": "bytes"
        },
        {
          "internalType": "bytes",
          "name": "_signature",
          "type": "bytes"
        }
      ],
      "name": "isValidSignature",
      "outputs": [
        {
          "internalType": "bytes4",
          "name": "",
          "type": "bytes4"
        }
      ],
      "payable": false,
      "stateMutability": "view",
      "type": "function"
    },
    {
      "constant": true,
      "inputs": [],
      "name": "lastInitializedVersion",
      "outputs": [
        {
          "internalType": "uint256",
          "name": "",
          "type": "uint256"
        }
      ],
      "payable": false,
      "stateMutability": "view",
      "type": "function"
    },
    {
      "constant": true,
      "inputs": [],
      "name": "nonce",
      "outputs": [
        {
          "internalType": "uint256",
          "name": "",
          "type": "uint256"
        }
      ],
      "payable": false,
      "stateMutability": "view",
      "type": "function"
    },
    {
      "constant": true,
      "inputs": [],
      "name": "numAuthKeys",
      "outputs": [
        {
          "internalType": "uint256",
          "name": "",
          "type": "uint256"
        }
      ],
      "payable": false,
      "stateMutability": "view",
      "type": "function"
    },
    {
      "constant": false,
      "inputs": [
        {
          "internalType": "address",
          "name": "",
          "type": "address"
        },
        {
          "internalType": "address",
          "name": "",
          "type": "address"
        },
        {
          "internalType": "uint256[]",
          "name": "",
          "type": "uint256[]"
        },
        {
          "internalType": "uint256[]",
          "name": "",
          "type": "uint256[]"
        },
        {
          "internalType": "bytes",
          "name": "",
          "type": "bytes"
        }
      ],
      "name": "onERC1155BatchReceived",
      "outputs": [
        {
          "internalType": "bytes4",
          "name": "",
          "type": "bytes4"
        }
      ],
      "payable": false,
      "stateMutability": "nonpayable",
      "type": "function"
    },
    {
      "constant": false,
      "inputs": [
        {
          "internalType": "address",
          "name": "",
          "type": "address"
        },
        {
          "internalType": "address",
          "name": "",
          "type": "address"
        },
        {
          "internalType": "uint256",
          "name": "",
          "type": "uint256"
        },
        {
          "internalType": "uint256",
          "name": "",
          "type": "uint256"
        },
        {
          "internalType": "bytes",
          "name": "",
          "type": "bytes"
        }
      ],
      "name": "onERC1155Received",
      "outputs": [
        {
          "internalType": "bytes4",
          "name": "",
          "type": "bytes4"
        }
      ],
      "payable": false,
      "stateMutability": "nonpayable",
      "type": "function"
    },
    {
      "constant": false,
      "inputs": [
        {
          "internalType": "address",
          "name": "",
          "type": "address"
        },
        {
          "internalType": "address",
          "name": "",
          "type": "address"
        },
        {
          "internalType": "uint256",
          "name": "",
          "type": "uint256"
        },
        {
          "internalType": "bytes",
          "name": "",
          "type": "bytes"
        }
      ],
      "name": "onERC721Received",
      "outputs": [
        {
          "internalType": "bytes4",
          "name": "",
          "type": "bytes4"
        }
      ],
      "payable": false,
      "stateMutability": "nonpayable",
      "type": "function"
    },
    {
      "constant": false,
      "inputs": [
        {
          "internalType": "address",
          "name": "_authKey",
          "type": "address"
        }
      ],
      "name": "removeAuthKey",
      "outputs": [],
      "payable": false,
      "stateMutability": "nonpayable",
      "type": "function"
    },
    {
      "constant": false,
      "inputs": [
        {
          "internalType": "address",
          "name": "_newImplementation",
          "type": "address"
        },
        {
          "internalType": "bytes",
          "name": "_data",
          "type": "bytes"
        }
      ],
      "name": "upgradeToAndCall",
      "outputs": [],
      "payable": false,
      "stateMutability": "nonpayable",
      "type": "function"
    },
    {
      "constant": true,
      "inputs": [],
      "name": "upgradeTest",
      "outputs": [
        {
          "internalType": "uint256",
          "name": "",
          "type": "uint256"
        }
      ],
      "payable": false,
      "stateMutability": "pure",
      "type": "function"
    },
    {
      "constant": true,
      "inputs": [],
      "name": "getChainIdValue",
      "outputs": [
        {
          "internalType": "uint256",
          "name": "",
          "type": "uint256"
        }
      ],
      "payable": false,
      "stateMutability": "pure",
      "type": "function"
    }
  ],
  "bytecode": "0x608060405234801561001057600080fd5b50613b0e806100206000396000f3fe60806040526004361061012a5760003560e01c80635175ca5e116100ab578063bc197c811161006f578063bc197c8114610415578063d5553b8814610452578063d59e3e981461048f578063ec5e319e146104cc578063f23a6e61146104f7578063f563ad3c146105345761012a565b80635175ca5e1461031c578063792c891f146103595780637e7fd66c146103965780639565389e146103c1578063affed0e0146103ea5761012a565b806326aa4655116100f257806326aa4655146102235780633408e470146102605780633d20b15c1461028b57806340914b06146102b65780634f1ef286146102f35761012a565b806313f8c5781461012c578063150b7a02146101555780631b9a9f9e146101925780631f602092146101bb57806320c13b0b146101e6575b005b34801561013857600080fd5b50610153600480360361014e9190810190612339565b61055f565b005b34801561016157600080fd5b5061017c600480360361017791908101906124a9565b61071e565b6040516101899190613495565b60405180910390f35b34801561019e57600080fd5b506101b960048036036101b49190810190612339565b610732565b005b3480156101c757600080fd5b506101d061082c565b6040516101dd91906134b0565b60405180910390f35b3480156101f257600080fd5b5061020d60048036036102089190810190612880565b610865565b60405161021a9190613495565b60405180910390f35b34801561022f57600080fd5b5061024a6004803603610245919081019061268c565b6108dd565b6040516102579190613413565b60405180910390f35b34801561026c57600080fd5b5061027561099c565b6040516102829190613754565b60405180910390f35b34801561029757600080fd5b506102a06109a5565b6040516102ad9190613754565b60405180910390f35b3480156102c257600080fd5b506102dd60048036036102d89190810190612880565b6109ae565b6040516102ea9190613495565b60405180910390f35b3480156102ff57600080fd5b5061031a600480360361031591908101906125b6565b610a45565b005b34801561032857600080fd5b50610343600480360361033e9190810190612339565b610bc5565b6040516103509190613435565b60405180910390f35b34801561036557600080fd5b50610380600480360361037b919081019061264b565b610be5565b60405161038d9190613413565b60405180910390f35b3480156103a257600080fd5b506103ab610c75565b6040516103b89190613754565b60405180910390f35b3480156103cd57600080fd5b506103e860048036036103e39190810190612339565b610c7b565b005b3480156103f657600080fd5b506103ff610e80565b60405161040c9190613754565b60405180910390f35b34801561042157600080fd5b5061043c600480360361043791908101906123dd565b610e86565b6040516104499190613495565b60405180910390f35b34801561045e57600080fd5b5061047960048036036104749190810190612745565b610e9e565b6040516104869190613413565b60405180910390f35b34801561049b57600080fd5b506104b660048036036104b19190810190612880565b610f5c565b6040516104c39190613495565b60405180910390f35b3480156104d857600080fd5b506104e16110ae565b6040516104ee9190613754565b60405180910390f35b34801561050357600080fd5b5061051e60048036036105199190810190612524565b6110b4565b60405161052b9190613495565b60405180910390f35b34801561054057600080fd5b506105496110ca565b6040516105569190613754565b60405180910390f35b610568336110d9565b8061059e57503073ffffffffffffffffffffffffffffffffffffffff163373ffffffffffffffffffffffffffffffffffffffff16145b6105dd576040517f08c379a00000000000000000000000000000000000000000000000000000000081526004016105d4906136b4565b60405180910390fd5b60001515600160008373ffffffffffffffffffffffffffffffffffffffff1673ffffffffffffffffffffffffffffffffffffffff16815260200190815260200160002060009054906101000a900460ff16151514610670576040517f08c379a0000000000000000000000000000000000000000000000000000000008152600401610667906136d4565b60405180910390fd5b60018060008373ffffffffffffffffffffffffffffffffffffffff1673ffffffffffffffffffffffffffffffffffffffff16815260200190815260200160002060006101000a81548160ff02191690831515021790555060016003600082825401925050819055508073ffffffffffffffffffffffffffffffffffffffff167fb020719d16d3c4de45a91f9c329aa61d5bad3f44f760840c8d5d82d4cd3bcc3360405160405180910390a250565b600063150b7a0260e01b9050949350505050565b6000805414610776576040517f08c379a000000000000000000000000000000000000000000000000000000000815260040161076d90613634565b60405180910390fd5b600160008190555060018060008373ffffffffffffffffffffffffffffffffffffffff1673ffffffffffffffffffffffffffffffffffffffff16815260200190815260200160002060006101000a81548160ff02191690831515021790555060016003600082825401925050819055508073ffffffffffffffffffffffffffffffffffffffff167fb020719d16d3c4de45a91f9c329aa61d5bad3f44f760840c8d5d82d4cd3bcc3360405160405180910390a250565b6040518060400160405280600a81526020017f323032303032313730300000000000000000000000000000000000000000000081525081565b60006041825114156108825761087b83836109ae565b90506108d7565b608282511061089c576108958383610f5c565b90506108d7565b6040517f08c379a00000000000000000000000000000000000000000000000000000000081526004016108ce90613654565b60405180910390fd5b92915050565b606060005a90506000610952306000357fffffffff000000000000000000000000000000000000000000000000000000001661091761099c565b6002548d8d8d8d8d60405160200161093799989796959493929190613326565b6040516020818303038152906040528051906020012061112f565b905061095e818561115f565b606061096d8a8a8a8a8a6111c3565b9150506109798a6113f2565b1561098c5761098b838a8a8a8a611481565b5b8093505050509695505050505050565b60006001905090565b6000602a905090565b600060418251146109f4576040517f08c379a00000000000000000000000000000000000000000000000000000000081526004016109eb90613594565b60405180910390fd5b6000610a1183610a0386611736565b61177190919063ffffffff16565b90506000610a1e826110d9565b610a2f5763ffffffff60e01b610a38565b6320c13b0b60e01b5b9050809250505092915050565b3073ffffffffffffffffffffffffffffffffffffffff163373ffffffffffffffffffffffffffffffffffffffff1614610ab3576040517f08c379a0000000000000000000000000000000000000000000000000000000008152600401610aaa90613554565b60405180910390fd5b610abc8261185d565b600060608373ffffffffffffffffffffffffffffffffffffffff1683604051610ae5919061328a565b600060405180830381855af49150503d8060008114610b20576040519150601f19603f3d011682016040523d82523d6000602084013e610b25565b606091505b50915091506060610b35826118d4565b9050828190610b7a576040517f08c379a0000000000000000000000000000000000000000000000000000000008152600401610b7191906134d2565b60405180910390fd5b508473ffffffffffffffffffffffffffffffffffffffff167fbc7cd75a20ee27fd9adebab32041f755214dbc6bffa90cc0225b39da2e5c2d3b60405160405180910390a25050505050565b60016020528060005260406000206000915054906101000a900460ff1681565b6060610bf0336110d9565b80610c2657503073ffffffffffffffffffffffffffffffffffffffff163373ffffffffffffffffffffffffffffffffffffffff16145b610c65576040517f08c379a0000000000000000000000000000000000000000000000000000000008152600401610c5c906136b4565b60405180910390fd5b610c6e8261193a565b9050919050565b60005481565b610c84336110d9565b80610cba57503073ffffffffffffffffffffffffffffffffffffffff163373ffffffffffffffffffffffffffffffffffffffff16145b610cf9576040517f08c379a0000000000000000000000000000000000000000000000000000000008152600401610cf0906136b4565b60405180910390fd5b60011515600160008373ffffffffffffffffffffffffffffffffffffffff1673ffffffffffffffffffffffffffffffffffffffff16815260200190815260200160002060009054906101000a900460ff16151514610d8c576040517f08c379a0000000000000000000000000000000000000000000000000000000008152600401610d83906136f4565b60405180910390fd5b600160035411610dd1576040517f08c379a0000000000000000000000000000000000000000000000000000000008152600401610dc8906135f4565b60405180910390fd5b6000600160008373ffffffffffffffffffffffffffffffffffffffff1673ffffffffffffffffffffffffffffffffffffffff16815260200190815260200160002060006101000a81548160ff02191690831515021790555060016003600082825403925050819055508073ffffffffffffffffffffffffffffffffffffffff167fbe55f9add9abe657e689a4a84a31854310f260c7e2610bcd22440e3ec3a836a460405160405180910390a250565b60025481565b600063bc197c8160e01b905098975050505050505050565b606060005a9050610eaf8a886119ce565b6000610f1d306000357fffffffff0000000000000000000000000000000000000000000000000000000016610ee261099c565b6002548f8f8f8e8e604051602001610f0299989796959493929190613326565b6040516020818303038152906040528051906020012061112f565b9050610f2b81868a87611ae2565b6060610f3a8c8c8c8b8b6111c3565b915050610f4a838c8c8b8b611481565b80935050505098975050505050505050565b6000608282511015610fa3576040517f08c379a0000000000000000000000000000000000000000000000000000000008152600401610f9a90613734565b60405180910390fd5b6060610fbc6000604185611b969092919063ffffffff16565b90506060610fd660418086611b969092919063ffffffff16565b90506000610fef60828651611c2290919063ffffffff16565b9050606061100960828388611b969092919063ffffffff16565b905060006110288561101a8a611736565b61177190919063ffffffff16565b9050600061105d82846040516020016110429291906133e3565b6040516020818303038152906040528051906020012061112f565b90506000611074868361177190919063ffffffff16565b90506000611081826110d9565b6110925763ffffffff60e01b61109b565b6320c13b0b60e01b5b9050809850505050505050505092915050565b60035481565b600063f23a6e6160e01b90509695505050505050565b60006110d461099c565b905090565b6000600160008373ffffffffffffffffffffffffffffffffffffffff1673ffffffffffffffffffffffffffffffffffffffff16815260200190815260200160002060009054906101000a900460ff169050919050565b60008160405160200161114291906132a1565b604051602081830303815290604052805190602001209050919050565b6000611174828461177190919063ffffffff16565b905061117f816110d9565b6111be576040517f08c379a00000000000000000000000000000000000000000000000000000000081526004016111b5906135d4565b60405180910390fd5b505050565b600060603a86111561120a576040517f08c379a0000000000000000000000000000000000000000000000000000000008152600401611201906134f4565b60405180910390fd5b6000611278306000357fffffffff000000000000000000000000000000000000000000000000000000001661123d61099c565b6002548c8c8c8c8c60405160200161125d99989796959493929190613326565b6040516020818303038152906040528051906020012061112f565b90508751600260008282540192505081905550606063792c891f60e01b896040516024016112a69190613413565b604051602081830303815290604052907bffffffffffffffffffffffffffffffffffffffffffffffffffffffff19166020820180517bffffffffffffffffffffffffffffffffffffffffffffffffffffffff83818316178352505050509050600060603073ffffffffffffffffffffffffffffffffffffffff168360405161132e919061328a565b6000604051808303816000865af19150503d806000811461136b576040519150601f19603f3d011682016040523d82523d6000602084013e611370565b606091505b50915091506060826113c6576060611387836118d4565b90507fb5e1dc2ddc0e1a0221e00b3c0446f36b707001d3ac7cfb494259863fdef7ccd7816040516113b891906134d2565b60405180910390a1506113dd565b818060200190516113da919081019061260a565b90505b84819650965050505050509550959350505050565b60008060008090505b83518110156114755761142084828151811061141357fe5b6020026020010151611c6c565b909150905050809250503073ffffffffffffffffffffffffffffffffffffffff168273ffffffffffffffffffffffffffffffffffffffff16146114685760019250505061147c565b80806001019150506113fb565b5060009150505b919050565b60006114a88461149a5a89611c2290919063ffffffff16565b611c9c90919063ffffffff16565b9050600073ffffffffffffffffffffffffffffffffffffffff168373ffffffffffffffffffffffffffffffffffffffff1614156115b457476114f38683611cf190919063ffffffff16565b1115611534576040517f08c379a000000000000000000000000000000000000000000000000000000000815260040161152b90613534565b60405180910390fd5b3373ffffffffffffffffffffffffffffffffffffffff1661155e8683611cf190919063ffffffff16565b60405161156a906132f6565b60006040518083038185875af1925050503d80600081146115a7576040519150601f19603f3d011682016040523d82523d6000602084013e6115ac565b606091505b50505061172e565b600083905060006115ce8484611cf190919063ffffffff16565b90508173ffffffffffffffffffffffffffffffffffffffff166370a08231306040518263ffffffff1660e01b8152600401611609919061330b565b602060405180830381600087803b15801561162357600080fd5b505af1158015611637573d6000803e3d6000fd5b505050506040513d601f19601f8201168201806040525061165b919081019061292d565b81111561169d576040517f08c379a000000000000000000000000000000000000000000000000000000000815260040161169490613714565b60405180910390fd5b8173ffffffffffffffffffffffffffffffffffffffff1663a9059cbb33836040518363ffffffff1660e01b81526004016116d89291906133ba565b602060405180830381600087803b1580156116f257600080fd5b505af1158015611706573d6000803e3d6000fd5b505050506040513d601f19601f8201168201806040525061172a9190810190612857565b5050505b505050505050565b60006117428251611d61565b826040516020016117549291906132c7565b604051602081830303815290604052805190602001209050919050565b600060418251146117855760009050611857565b60008060006020850151925060408501519150606085015160001a90507f7fffffffffffffffffffffffffffffff5d576e7357a4501ddfe92f46681b20a08260001c11156117d95760009350505050611857565b601b8160ff16141580156117f15750601c8160ff1614155b156118025760009350505050611857565b600186828585604051600081526020016040526040516118259493929190613450565b6020604051602081039080840390855afa158015611847573d6000803e3d6000fd5b5050506020604051035193505050505b92915050565b61186681611e94565b6118a5576040517f08c379a000000000000000000000000000000000000000000000000000000000815260040161189c90613614565b60405180910390fd5b60007f360894a13ba1a3210667c828492db98dca3e2076cc3735a920a3ca505d382bbc60001b90508181555050565b606060448251101561190057604051806060016040528060218152602001613aab602191399050611935565b606061191b60048085510385611b969092919063ffffffff16565b90508080602001905161193191908101906128ec565b9150505b919050565b606080825160405190808252806020026020018201604052801561197257816020015b606081526020019060019003908161195d5790505b50905060008090505b83518110156119c4576119a084828151811061199357fe5b6020026020010151611ea7565b8282815181106119ac57fe5b6020026020010181905250808060010191505061197b565b5080915050919050565b600080600090505b8351811015611a81576119fb8482815181106119ee57fe5b6020026020010151611c6c565b909150905050809250503073ffffffffffffffffffffffffffffffffffffffff168273ffffffffffffffffffffffffffffffffffffffff161415611a74576040517f08c379a0000000000000000000000000000000000000000000000000000000008152600401611a6b90613674565b60405180910390fd5b80806001019150506119d6565b50600082806020019051611a98919081019061292d565b9050428111611adc576040517f08c379a0000000000000000000000000000000000000000000000000000000008152600401611ad3906135b4565b60405180910390fd5b50505050565b6000611af7848661177190919063ffffffff16565b90506000611b2c8285604051602001611b119291906133e3565b6040516020818303038152906040528051906020012061112f565b90506000611b43848361177190919063ffffffff16565b9050611b4e816110d9565b611b8d576040517f08c379a0000000000000000000000000000000000000000000000000000000008152600401611b8490613514565b60405180910390fd5b50505050505050565b606081830184511015611ba857600080fd5b6060821560008114611bc557604051915060208201604052611c16565b6040519150601f8416801560200281840101858101878315602002848b0101015b81831015611c035780518352602083019250602081019050611be6565b50868552601f19601f8301166040525050505b50809150509392505050565b6000611c6483836040518060400160405280601e81526020017f536166654d6174683a207375627472616374696f6e206f766572666c6f770000815250611ed8565b905092915050565b6000806000606084806020019051611c879190810190612362565b83935080905093509350935093509193509193565b600080828401905083811015611ce7576040517f08c379a0000000000000000000000000000000000000000000000000000000008152600401611cde90613574565b60405180910390fd5b8091505092915050565b600080831415611d045760009050611d5b565b6000828402905082848281611d1557fe5b0414611d56576040517f08c379a0000000000000000000000000000000000000000000000000000000008152600401611d4d90613694565b60405180910390fd5b809150505b92915050565b60606000821415611da9576040518060400160405280600181526020017f30000000000000000000000000000000000000000000000000000000000000008152509050611e8f565b6000829050600083905060005b60008214611dd8578080600101915050600a8281611dd057fe5b049150611db6565b6060816040519080825280601f01601f191660200182016040528015611e0d5781602001600182028038833980820191505090505b50905060006001830390505b60008514611e8657600a8581611e2b57fe5b0660300160f81b82828060019003935081518110611e4557fe5b60200101907effffffffffffffffffffffffffffffffffffffffffffffffffffffffffffff1916908160001a905350600a8581611e7e57fe5b049450611e19565b81955050505050505b919050565b600080823b905060008111915050919050565b606060008060006060611eb986611c6c565b9350935093509350611ecd84848484611f33565b945050505050919050565b6000838311158290611f20576040517f08c379a0000000000000000000000000000000000000000000000000000000008152600401611f1791906134d2565b60405180910390fd5b5060008385039050809150509392505050565b6060600060608673ffffffffffffffffffffffffffffffffffffffff16858786604051611f60919061328a565b600060405180830381858888f193505050503d8060008114611f9e576040519150601f19603f3d011682016040523d82523d6000602084013e611fa3565b606091505b509150915081611ff7576060611fb8826118d4565b9050806040517f08c379a0000000000000000000000000000000000000000000000000000000008152600401611fee91906134d2565b60405180910390fd5b8092505050949350505050565b60008135905061201381613a4e565b92915050565b60008151905061202881613a65565b92915050565b600082601f83011261203f57600080fd5b815161205261204d8261379c565b61376f565b9150818183526020840193506020810190508360005b83811015612098578151860161207e8882612213565b845260208401935060208301925050600181019050612068565b5050505092915050565b600082601f8301126120b357600080fd5b81356120c66120c1826137c4565b61376f565b9150818183526020840193506020810190508360005b8381101561210c57813586016120f288826121bf565b8452602084019350602083019250506001810190506120dc565b5050505092915050565b60008083601f84011261212857600080fd5b8235905067ffffffffffffffff81111561214157600080fd5b60208301915083602082028301111561215957600080fd5b9250929050565b60008151905061216f81613a7c565b92915050565b60008083601f84011261218757600080fd5b8235905067ffffffffffffffff8111156121a057600080fd5b6020830191508360018202830111156121b857600080fd5b9250929050565b600082601f8301126121d057600080fd5b81356121e36121de826137ec565b61376f565b915080825260208301602083018583830111156121ff57600080fd5b61220a8382846139f1565b50505092915050565b600082601f83011261222457600080fd5b8151612237612232826137ec565b61376f565b9150808252602083016020830185838301111561225357600080fd5b61225e838284613a00565b50505092915050565b600082601f83011261227857600080fd5b813561228b61228682613818565b61376f565b915080825260208301602083018583830111156122a757600080fd5b6122b28382846139f1565b50505092915050565b600082601f8301126122cc57600080fd5b81516122df6122da82613844565b61376f565b915080825260208301602083018583830111156122fb57600080fd5b612306838284613a00565b50505092915050565b60008135905061231e81613a93565b92915050565b60008151905061233381613a93565b92915050565b60006020828403121561234b57600080fd5b600061235984828501612004565b91505092915050565b6000806000806080858703121561237857600080fd5b600061238687828801612019565b945050602061239787828801612324565b93505060406123a887828801612324565b925050606085015167ffffffffffffffff8111156123c557600080fd5b6123d187828801612213565b91505092959194509250565b60008060008060008060008060a0898b0312156123f957600080fd5b60006124078b828c01612004565b98505060206124188b828c01612004565b975050604089013567ffffffffffffffff81111561243557600080fd5b6124418b828c01612116565b9650965050606089013567ffffffffffffffff81111561246057600080fd5b61246c8b828c01612116565b9450945050608089013567ffffffffffffffff81111561248b57600080fd5b6124978b828c01612175565b92509250509295985092959890939650565b600080600080608085870312156124bf57600080fd5b60006124cd87828801612004565b94505060206124de87828801612004565b93505060406124ef8782880161230f565b925050606085013567ffffffffffffffff81111561250c57600080fd5b61251887828801612267565b91505092959194509250565b60008060008060008060a0878903121561253d57600080fd5b600061254b89828a01612004565b965050602061255c89828a01612004565b955050604061256d89828a0161230f565b945050606061257e89828a0161230f565b935050608087013567ffffffffffffffff81111561259b57600080fd5b6125a789828a01612175565b92509250509295509295509295565b600080604083850312156125c957600080fd5b60006125d785828601612004565b925050602083013567ffffffffffffffff8111156125f457600080fd5b61260085828601612267565b9150509250929050565b60006020828403121561261c57600080fd5b600082015167ffffffffffffffff81111561263657600080fd5b6126428482850161202e565b91505092915050565b60006020828403121561265d57600080fd5b600082013567ffffffffffffffff81111561267757600080fd5b612683848285016120a2565b91505092915050565b60008060008060008060c087890312156126a557600080fd5b600087013567ffffffffffffffff8111156126bf57600080fd5b6126cb89828a016120a2565b96505060206126dc89828a0161230f565b95505060406126ed89828a0161230f565b94505060606126fe89828a01612004565b935050608061270f89828a0161230f565b92505060a087013567ffffffffffffffff81111561272c57600080fd5b61273889828a01612267565b9150509295509295509295565b600080600080600080600080610100898b03121561276257600080fd5b600089013567ffffffffffffffff81111561277c57600080fd5b6127888b828c016120a2565b98505060206127998b828c0161230f565b97505060406127aa8b828c0161230f565b965050606089013567ffffffffffffffff8111156127c757600080fd5b6127d38b828c01612267565b95505060806127e48b828c01612004565b94505060a06127f58b828c0161230f565b93505060c089013567ffffffffffffffff81111561281257600080fd5b61281e8b828c01612267565b92505060e089013567ffffffffffffffff81111561283b57600080fd5b6128478b828c01612267565b9150509295985092959890939650565b60006020828403121561286957600080fd5b600061287784828501612160565b91505092915050565b6000806040838503121561289357600080fd5b600083013567ffffffffffffffff8111156128ad57600080fd5b6128b985828601612267565b925050602083013567ffffffffffffffff8111156128d657600080fd5b6128e285828601612267565b9150509250929050565b6000602082840312156128fe57600080fd5b600082015167ffffffffffffffff81111561291857600080fd5b612924848285016122bb565b91505092915050565b60006020828403121561293f57600080fd5b600061294d84828501612324565b91505092915050565b60006129628383612aba565b905092915050565b612973816139bb565b82525050565b61298281613930565b82525050565b6129918161391e565b82525050565b60006129a282613880565b6129ac81856138c4565b9350836020820285016129be85613870565b8060005b858110156129fa57848403895281516129db8582612956565b94506129e6836138b7565b925060208a019950506001810190506129c2565b50829750879550505050505092915050565b612a1581613942565b82525050565b612a248161394e565b82525050565b612a3b612a368261394e565b613a33565b82525050565b612a4a81613958565b82525050565b6000612a5b82613896565b612a6581856138e6565b9350612a75818560208601613a00565b612a7e81613a3d565b840191505092915050565b6000612a9482613896565b612a9e81856138f7565b9350612aae818560208601613a00565b80840191505092915050565b6000612ac58261388b565b612acf81856138d5565b9350612adf818560208601613a00565b612ae881613a3d565b840191505092915050565b6000612afe826138ac565b612b088185613902565b9350612b18818560208601613a00565b612b2181613a3d565b840191505092915050565b6000612b37826138ac565b612b418185613913565b9350612b51818560208601613a00565b80840191505092915050565b6000612b68826138a1565b612b728185613902565b9350612b82818560208601613a00565b612b8b81613a3d565b840191505092915050565b6000612ba3602483613902565b91507f424d54413a204e6f742061206c6172676520656e6f7567682074782e6761737060008301527f72696365000000000000000000000000000000000000000000000000000000006020830152604082019050919050565b6000612c09601a83613902565b91507f4c4b4d54413a2041757468206b657920697320696e76616c69640000000000006000830152602082019050919050565b6000612c49601c83613913565b91507f19457468657265756d205369676e6564204d6573736167653a0a3332000000006000830152601c82019050919050565b6000612c89602583613902565b91507f42413a20496e73756666696369656e742067617320284554482920666f72207260008301527f6566756e640000000000000000000000000000000000000000000000000000006020830152604082019050919050565b6000612cef601583613902565b91507f42413a204f6e6c792073656c6620616c6c6f77656400000000000000000000006000830152602082019050919050565b6000612d2f601b83613902565b91507f536166654d6174683a206164646974696f6e206f766572666c6f7700000000006000830152602082019050919050565b6000612d6f603a83613902565b91507f455243313237313a20496e76616c696420697356616c6964417574684b65795360008301527f69676e6174757265205f7369676e6174757265206c656e6774680000000000006020830152604082019050919050565b6000612dd5601b83613902565b91507f4c4b4d54413a204c6f67696e206b6579206973206578706972656400000000006000830152602082019050919050565b6000612e15601a83613902565b91507f414b4d54413a2041757468206b657920697320696e76616c69640000000000006000830152602082019050919050565b6000612e55601f83613902565b91507f42413a2043616e6e6f742072656d6f7665206c6173742061757468206b6579006000830152602082019050919050565b6000612e95603f83613902565b91507f41553a2043616e6e6f742073657420612070726f787920696d706c656d656e7460008301527f6174696f6e20746f2061206e6f6e2d636f6e74726163742061646472657373006020830152604082019050919050565b6000612efb602183613902565b91507f41493a20496d70726f70657220696e697469616c697a6174696f6e206f72646560008301527f72000000000000000000000000000000000000000000000000000000000000006020830152604082019050919050565b6000612f61603383613902565b91507f455243313237313a20496e76616c696420697356616c69645369676e6174757260008301527f65205f7369676e6174757265206c656e677468000000000000000000000000006020830152604082019050919050565b6000612fc7602983613902565b91507f4c4b4d54413a204c6f67696e206b6579206973206e6f742061626c6520746f2060008301527f63616c6c2073656c6600000000000000000000000000000000000000000000006020830152604082019050919050565b600061302d602183613902565b91507f536166654d6174683a206d756c7469706c69636174696f6e206f766572666c6f60008301527f77000000000000000000000000000000000000000000000000000000000000006020830152604082019050919050565b6000613093601a83613913565b91507f19457468657265756d205369676e6564204d6573736167653a0a0000000000006000830152601a82019050919050565b60006130d3601f83613902565b91507f42413a2041757468206b6579206f722073656c6620697320696e76616c6964006000830152602082019050919050565b60006131136000836138f7565b9150600082019050919050565b600061312d601a83613902565b91507f42413a2041757468206b657920616c72656164792061646465640000000000006000830152602082019050919050565b600061316d601a83613902565b91507f42413a2041757468206b6579206e6f74207965742061646465640000000000006000830152602082019050919050565b60006131ad602783613902565b91507f42413a20496e73756666696369656e74206761732028746f6b656e2920666f7260008301527f20726566756e64000000000000000000000000000000000000000000000000006020830152604082019050919050565b6000613213603b83613902565b91507f455243313237313a20496e76616c696420697356616c69644c6f67696e4b657960008301527f5369676e6174757265205f7369676e6174757265206c656e67746800000000006020830152604082019050919050565b613275816139a4565b82525050565b613284816139ae565b82525050565b60006132968284612a89565b915081905092915050565b60006132ac82612c3c565b91506132b88284612a2a565b60208201915081905092915050565b60006132d282613086565b91506132de8285612b2c565b91506132ea8284612a89565b91508190509392505050565b600061330182613106565b9150819050919050565b6000602082019050613320600083018461296a565b92915050565b60006101208201905061333c600083018c612979565b613349602083018b612a41565b613356604083018a61326c565b613363606083018961326c565b81810360808301526133758188612997565b905061338460a083018761326c565b61339160c083018661326c565b61339e60e0830185612988565b6133ac61010083018461326c565b9a9950505050505050505050565b60006040820190506133cf600083018561296a565b6133dc602083018461326c565b9392505050565b60006040820190506133f86000830185612988565b818103602083015261340a8184612a50565b90509392505050565b6000602082019050818103600083015261342d8184612997565b905092915050565b600060208201905061344a6000830184612a0c565b92915050565b60006080820190506134656000830187612a1b565b613472602083018661327b565b61347f6040830185612a1b565b61348c6060830184612a1b565b95945050505050565b60006020820190506134aa6000830184612a41565b92915050565b600060208201905081810360008301526134ca8184612b5d565b905092915050565b600060208201905081810360008301526134ec8184612af3565b905092915050565b6000602082019050818103600083015261350d81612b96565b9050919050565b6000602082019050818103600083015261352d81612bfc565b9050919050565b6000602082019050818103600083015261354d81612c7c565b9050919050565b6000602082019050818103600083015261356d81612ce2565b9050919050565b6000602082019050818103600083015261358d81612d22565b9050919050565b600060208201905081810360008301526135ad81612d62565b9050919050565b600060208201905081810360008301526135cd81612dc8565b9050919050565b600060208201905081810360008301526135ed81612e08565b9050919050565b6000602082019050818103600083015261360d81612e48565b9050919050565b6000602082019050818103600083015261362d81612e88565b9050919050565b6000602082019050818103600083015261364d81612eee565b9050919050565b6000602082019050818103600083015261366d81612f54565b9050919050565b6000602082019050818103600083015261368d81612fba565b9050919050565b600060208201905081810360008301526136ad81613020565b9050919050565b600060208201905081810360008301526136cd816130c6565b9050919050565b600060208201905081810360008301526136ed81613120565b9050919050565b6000602082019050818103600083015261370d81613160565b9050919050565b6000602082019050818103600083015261372d816131a0565b9050919050565b6000602082019050818103600083015261374d81613206565b9050919050565b6000602082019050613769600083018461326c565b92915050565b6000604051905081810181811067ffffffffffffffff8211171561379257600080fd5b8060405250919050565b600067ffffffffffffffff8211156137b357600080fd5b602082029050602081019050919050565b600067ffffffffffffffff8211156137db57600080fd5b602082029050602081019050919050565b600067ffffffffffffffff82111561380357600080fd5b601f19601f8301169050602081019050919050565b600067ffffffffffffffff82111561382f57600080fd5b601f19601f8301169050602081019050919050565b600067ffffffffffffffff82111561385b57600080fd5b601f19601f8301169050602081019050919050565b6000819050602082019050919050565b600081519050919050565b600081519050919050565b600081519050919050565b600081519050919050565b600081519050919050565b6000602082019050919050565b600082825260208201905092915050565b600082825260208201905092915050565b600082825260208201905092915050565b600081905092915050565b600082825260208201905092915050565b600081905092915050565b600061392982613984565b9050919050565b600061393b82613984565b9050919050565b60008115159050919050565b6000819050919050565b60007fffffffff0000000000000000000000000000000000000000000000000000000082169050919050565b600073ffffffffffffffffffffffffffffffffffffffff82169050919050565b6000819050919050565b600060ff82169050919050565b60006139c6826139cd565b9050919050565b60006139d8826139df565b9050919050565b60006139ea82613984565b9050919050565b82818337600083830152505050565b60005b83811015613a1e578082015181840152602081019050613a03565b83811115613a2d576000848401525b50505050565b6000819050919050565b6000601f19601f8301169050919050565b613a578161391e565b8114613a6257600080fd5b50565b613a6e81613930565b8114613a7957600080fd5b50565b613a8581613942565b8114613a9057600080fd5b50565b613a9c816139a4565b8114613aa757600080fd5b5056fe42413a205472616e73616374696f6e2072657665727465642073696c656e746c79a365627a7a723158202d855fcb6d6ab8a6f3802605508e2b263389cffa0ada9e4fc20ab5cd8e26b3c86c6578706572696d656e74616cf564736f6c63430005100040",
  "source": "pragma solidity 0.5.16;\npragma experimental ABIEncoderV2;\n\nimport \"../account/AuthereumAccount.sol\";\n\n/**\n * @title UpgradeAccount\n * @author Authereum Labs, Inc.\n * @dev A contract used to test upgrades. This contract does not have an init function.\n */\n\ncontract UpgradeAccount is AuthereumAccount {\n\n    /// @dev Function to call to test an upgrade with a new function\n    /// @return A constant\n    function upgradeTest() public pure returns (uint256) {\n        return 42;\n    }\n\n    /// @dev Function to call to test an upgrade with a new function reading an old state\n    /// @return The chain ID\n    function getChainIdValue() public pure returns (uint256) {\n        return getChainId();\n    }\n}\n",
  "sourcePath": "/Users/smitrajput/Projects/batchoo/contracts/test/UpgradeAccount.sol",
  "compiler": {
    "name": "solc",
    "version": "0.5.16+commit.9c3226ce.Emscripten.clang"
  },
  "schemaVersion": "3.1.0",
  "updatedAt": "2020-05-20T12:48:46.157Z",
  "devdoc": {
    "author": "Authereum Labs, Inc.",
    "details": "A contract used to test upgrades. This contract does not have an init function.",
    "methods": {
      "addAuthKey(address)": {
        "details": "Add an auth key to the list of auth keys",
        "params": {
          "_authKey": "Address of the auth key to add"
        }
      },
      "executeMultipleAuthKeyMetaTransactions(bytes[],uint256,uint256,address,uint256,bytes)": {
        "details": "Execute multiple authKey meta transactions",
        "params": {
          "_feeTokenAddress": "Address of the token used to pay a fee",
          "_feeTokenRate": "Rate of the token (in tokenGasPrice/ethGasPrice) used to pay a fee",
          "_gasOverhead": "Gas overhead of the transaction calculated offchain",
          "_gasPrice": "Gas price set by the user",
          "_transactionMessageHashSignature": "Signed transaction data",
          "_transactions": "Arrays of transaction data ([destination, value, gasLimit, data][...]...)"
        }
      },
      "executeMultipleLoginKeyMetaTransactions(bytes[],uint256,uint256,bytes,address,uint256,bytes,bytes)": {
        "details": "Execute an loginKey meta transaction",
        "params": {
          "_feeTokenAddress": "Address of the token used to pay a fee",
          "_feeTokenRate": "Rate of the token (in tokenGasPrice/ethGasPrice) used to pay a fee",
          "_gasOverhead": "Gas overhead of the transaction calculated offchain",
          "_gasPrice": "Gas price set by the user",
          "_loginKeyAttestationSignature": "Signed loginKey",
          "_loginKeyRestrictionsData": "Contains restrictions to the loginKey's functionality",
          "_transactionMessageHashSignature": "Signed transaction data",
          "_transactions": "Arrays of transaction data ([destination, value, gasLimit, data][...]...)"
        },
        "return": "Response of the call"
      },
      "executeMultipleMetaTransactions(bytes[])": {
        "details": "Execute multiple meta transactions",
        "params": {
          "_transactions": "Arrays of transaction data ([destination, value, gasLimit, data][...]...)"
        },
        "return": "The responses of the calls"
      },
      "getChainId()": {
        "details": "Get the chain ID constant",
        "return": "The chain id"
      },
      "getChainIdValue()": {
        "details": "Function to call to test an upgrade with a new function reading an old state",
        "return": "The chain ID"
      },
      "initializeV1(address)": {
        "details": "Initialize the Authereum Account",
        "params": {
          "_authKey": "authKey that will own this account"
        }
      },
      "isValidAuthKeySignature(bytes,bytes)": {
        "details": "Check if a message and auth key signature pair is valid",
        "params": {
          "_data": "Data that was signed",
          "_signature": "Signature of the data signed by the authkey"
        },
        "return": "VALID_SIG or INVALID_SIG hex data"
      },
      "isValidLoginKeySignature(bytes,bytes)": {
        "details": "Check if a message and login key signature pair is valid, as well as a signed login key by an auth key",
        "params": {
          "_data": "Message that was signed",
          "_signature": "Signature of the data. Signed msg data by the login key and signed login key by auth key"
        },
        "return": "VALID_SIG or INVALID_SIG hex data"
      },
      "isValidSignature(bytes,bytes)": {
        "details": "Check if a message and signature pair is valid",
        "params": {
          "_data": "Data that was signed",
          "_signature": "Signature(s) of the data. Either a single signature (login) or two (login and auth)"
        },
        "return": "VALID_SIG or INVALID_SIG hex data"
      },
      "onERC1155BatchReceived(address,address,uint256[],uint256[],bytes)": {
        "details": "An ERC1155-compliant smart contract MUST call this function on the token recipient contract, at the end of a `safeBatchTransferFrom` after the balances have been updated. This function MUST return `bytes4(keccak256(\"onERC1155BatchReceived(address,address,uint256[],uint256[],bytes)\"))` (i.e. 0xbc197c81) if it accepts the transfer(s). This function MUST revert if it rejects the transfer(s). Return of any other value than the prescribed keccak256 generated value MUST result in the transaction being reverted by the caller. param _operator  The address which initiated the batch transfer (i.e. msg.sender) param _from      The address which previously owned the token param _ids       An array containing ids of each token being transferred (order and length must match _values array) param _values    An array containing amounts of each token being transferred (order and length must match _ids array) param _data      Additional data with no specified format",
        "return": "`bytes4(keccak256(\"onERC1155BatchReceived(address,address,uint256[],uint256[],bytes)\"))`"
      },
      "onERC721Received(address,address,uint256,bytes)": {
        "details": "The ERC721 smart contract calls this function on the recipient after a {IERC721-safeTransferFrom}. This function MUST return the function selector, otherwise the caller will revert the transaction. The selector to be returned can be obtained as `this.onERC721Received.selector`. This function MAY throw to revert and reject the transfer. Note: the ERC721 contract address is always the message sender. param operator The address which called `safeTransferFrom` function param from The address which previously owned the token param tokenId The NFT identifier which is being transferred param data Additional data with no specified format",
        "return": "bytes4 `bytes4(keccak256(\"onERC721Received(address,address,uint256,bytes)\"))`"
      },
      "removeAuthKey(address)": {
        "details": "Remove an auth key from the list of auth keys",
        "params": {
          "_authKey": "Address of the auth key to remove"
        }
      },
      "upgradeTest()": {
        "details": "Function to call to test an upgrade with a new function",
        "return": "A constant"
      },
      "upgradeToAndCall(address,bytes)": {
        "details": "Upgrades the proxy to the newest implementation of a contract and forwards a function call to it",
        "params": {
          "_data": "Array of initialize data",
          "_newImplementation": "Address of the new implementation"
        }
      }
    },
    "title": "UpgradeAccount"
  },
  "userdoc": {
    "methods": {
      "executeMultipleMetaTransactions(bytes[])": {
        "notice": "This can only be called by self as a part of the atomic meta transaction"
      },
      "isValidSignature(bytes,bytes)": {
        "notice": "The _signature parameter can either be one auth key signature or it canbe a login key signature and an auth key signature (signed login key)"
      },
      "onERC1155BatchReceived(address,address,uint256[],uint256[],bytes)": {
        "notice": "Handle the receipt of multiple ERC1155 token types."
      },
      "onERC1155Received(address,address,uint256,uint256,bytes)": {
        "notice": "ERC1155"
      },
      "onERC721Received(address,address,uint256,bytes)": {
        "notice": "Handle the receipt of an NFT"
      },
      "upgradeToAndCall(address,bytes)": {
        "notice": "This is useful to initialize the proxied contract"
      }
    }
  }
}