{
  "contractName": "UpgradeAccountBadInit",
  "abi": [
    {
      "anonymous": false,
      "inputs": [
        {
          "indexed": true,
          "internalType": "address",
          "name": "authKey",
          "type": "address"
        }
      ],
      "name": "AuthKeyAdded",
      "type": "event"
    },
    {
      "anonymous": false,
      "inputs": [
        {
          "indexed": true,
          "internalType": "address",
          "name": "authKey",
          "type": "address"
        }
      ],
      "name": "AuthKeyRemoved",
      "type": "event"
    },
    {
      "anonymous": false,
      "inputs": [
        {
          "indexed": false,
          "internalType": "string",
          "name": "reason",
          "type": "string"
        }
      ],
      "name": "CallFailed",
      "type": "event"
    },
    {
      "anonymous": false,
      "inputs": [
        {
          "indexed": true,
          "internalType": "address",
          "name": "implementation",
          "type": "address"
        }
      ],
      "name": "Upgraded",
      "type": "event"
    },
    {
      "payable": true,
      "stateMutability": "payable",
      "type": "fallback"
    },
    {
      "constant": false,
      "inputs": [
        {
          "internalType": "address",
          "name": "_authKey",
          "type": "address"
        }
      ],
      "name": "addAuthKey",
      "outputs": [],
      "payable": false,
      "stateMutability": "nonpayable",
      "type": "function"
    },
    {
      "constant": true,
      "inputs": [
        {
          "internalType": "address",
          "name": "",
          "type": "address"
        }
      ],
      "name": "authKeys",
      "outputs": [
        {
          "internalType": "bool",
          "name": "",
          "type": "bool"
        }
      ],
      "payable": false,
      "stateMutability": "view",
      "type": "function"
    },
    {
      "constant": true,
      "inputs": [],
      "name": "authereumVersion",
      "outputs": [
        {
          "internalType": "string",
          "name": "",
          "type": "string"
        }
      ],
      "payable": false,
      "stateMutability": "view",
      "type": "function"
    },
    {
      "constant": false,
      "inputs": [
        {
          "internalType": "bytes[]",
          "name": "_transactions",
          "type": "bytes[]"
        },
        {
          "internalType": "uint256",
          "name": "_gasPrice",
          "type": "uint256"
        },
        {
          "internalType": "uint256",
          "name": "_gasOverhead",
          "type": "uint256"
        },
        {
          "internalType": "address",
          "name": "_feeTokenAddress",
          "type": "address"
        },
        {
          "internalType": "uint256",
          "name": "_feeTokenRate",
          "type": "uint256"
        },
        {
          "internalType": "bytes",
          "name": "_transactionMessageHashSignature",
          "type": "bytes"
        }
      ],
      "name": "executeMultipleAuthKeyMetaTransactions",
      "outputs": [
        {
          "internalType": "bytes[]",
          "name": "",
          "type": "bytes[]"
        }
      ],
      "payable": false,
      "stateMutability": "nonpayable",
      "type": "function"
    },
    {
      "constant": false,
      "inputs": [
        {
          "internalType": "bytes[]",
          "name": "_transactions",
          "type": "bytes[]"
        },
        {
          "internalType": "uint256",
          "name": "_gasPrice",
          "type": "uint256"
        },
        {
          "internalType": "uint256",
          "name": "_gasOverhead",
          "type": "uint256"
        },
        {
          "internalType": "bytes",
          "name": "_loginKeyRestrictionsData",
          "type": "bytes"
        },
        {
          "internalType": "address",
          "name": "_feeTokenAddress",
          "type": "address"
        },
        {
          "internalType": "uint256",
          "name": "_feeTokenRate",
          "type": "uint256"
        },
        {
          "internalType": "bytes",
          "name": "_transactionMessageHashSignature",
          "type": "bytes"
        },
        {
          "internalType": "bytes",
          "name": "_loginKeyAttestationSignature",
          "type": "bytes"
        }
      ],
      "name": "executeMultipleLoginKeyMetaTransactions",
      "outputs": [
        {
          "internalType": "bytes[]",
          "name": "",
          "type": "bytes[]"
        }
      ],
      "payable": false,
      "stateMutability": "nonpayable",
      "type": "function"
    },
    {
      "constant": false,
      "inputs": [
        {
          "internalType": "bytes[]",
          "name": "_transactions",
          "type": "bytes[]"
        }
      ],
      "name": "executeMultipleMetaTransactions",
      "outputs": [
        {
          "internalType": "bytes[]",
          "name": "",
          "type": "bytes[]"
        }
      ],
      "payable": false,
      "stateMutability": "nonpayable",
      "type": "function"
    },
    {
      "constant": true,
      "inputs": [],
      "name": "getChainId",
      "outputs": [
        {
          "internalType": "uint256",
          "name": "",
          "type": "uint256"
        }
      ],
      "payable": false,
      "stateMutability": "pure",
      "type": "function"
    },
    {
      "constant": false,
      "inputs": [
        {
          "internalType": "address",
          "name": "_authKey",
          "type": "address"
        }
      ],
      "name": "initializeV1",
      "outputs": [],
      "payable": false,
      "stateMutability": "nonpayable",
      "type": "function"
    },
    {
      "constant": true,
      "inputs": [
        {
          "internalType": "bytes",
          "name": "_data",
          "type": "bytes"
        },
        {
          "internalType": "bytes",
          "name": "_signature",
          "type": "bytes"
        }
      ],
      "name": "isValidAuthKeySignature",
      "outputs": [
        {
          "internalType": "bytes4",
          "name": "",
          "type": "bytes4"
        }
      ],
      "payable": false,
      "stateMutability": "view",
      "type": "function"
    },
    {
      "constant": true,
      "inputs": [
        {
          "internalType": "bytes",
          "name": "_data",
          "type": "bytes"
        },
        {
          "internalType": "bytes",
          "name": "_signature",
          "type": "bytes"
        }
      ],
      "name": "isValidLoginKeySignature",
      "outputs": [
        {
          "internalType": "bytes4",
          "name": "",
          "type": "bytes4"
        }
      ],
      "payable": false,
      "stateMutability": "view",
      "type": "function"
    },
    {
      "constant": true,
      "inputs": [
        {
          "internalType": "bytes",
          "name": "_data",
          "type": "bytes"
        },
        {
          "internalType": "bytes",
          "name": "_signature",
          "type": "bytes"
        }
      ],
      "name": "isValidSignature",
      "outputs": [
        {
          "internalType": "bytes4",
          "name": "",
          "type": "bytes4"
        }
      ],
      "payable": false,
      "stateMutability": "view",
      "type": "function"
    },
    {
      "constant": true,
      "inputs": [],
      "name": "lastInitializedVersion",
      "outputs": [
        {
          "internalType": "uint256",
          "name": "",
          "type": "uint256"
        }
      ],
      "payable": false,
      "stateMutability": "view",
      "type": "function"
    },
    {
      "constant": true,
      "inputs": [],
      "name": "nonce",
      "outputs": [
        {
          "internalType": "uint256",
          "name": "",
          "type": "uint256"
        }
      ],
      "payable": false,
      "stateMutability": "view",
      "type": "function"
    },
    {
      "constant": true,
      "inputs": [],
      "name": "numAuthKeys",
      "outputs": [
        {
          "internalType": "uint256",
          "name": "",
          "type": "uint256"
        }
      ],
      "payable": false,
      "stateMutability": "view",
      "type": "function"
    },
    {
      "constant": false,
      "inputs": [
        {
          "internalType": "address",
          "name": "",
          "type": "address"
        },
        {
          "internalType": "address",
          "name": "",
          "type": "address"
        },
        {
          "internalType": "uint256[]",
          "name": "",
          "type": "uint256[]"
        },
        {
          "internalType": "uint256[]",
          "name": "",
          "type": "uint256[]"
        },
        {
          "internalType": "bytes",
          "name": "",
          "type": "bytes"
        }
      ],
      "name": "onERC1155BatchReceived",
      "outputs": [
        {
          "internalType": "bytes4",
          "name": "",
          "type": "bytes4"
        }
      ],
      "payable": false,
      "stateMutability": "nonpayable",
      "type": "function"
    },
    {
      "constant": false,
      "inputs": [
        {
          "internalType": "address",
          "name": "",
          "type": "address"
        },
        {
          "internalType": "address",
          "name": "",
          "type": "address"
        },
        {
          "internalType": "uint256",
          "name": "",
          "type": "uint256"
        },
        {
          "internalType": "uint256",
          "name": "",
          "type": "uint256"
        },
        {
          "internalType": "bytes",
          "name": "",
          "type": "bytes"
        }
      ],
      "name": "onERC1155Received",
      "outputs": [
        {
          "internalType": "bytes4",
          "name": "",
          "type": "bytes4"
        }
      ],
      "payable": false,
      "stateMutability": "nonpayable",
      "type": "function"
    },
    {
      "constant": false,
      "inputs": [
        {
          "internalType": "address",
          "name": "",
          "type": "address"
        },
        {
          "internalType": "address",
          "name": "",
          "type": "address"
        },
        {
          "internalType": "uint256",
          "name": "",
          "type": "uint256"
        },
        {
          "internalType": "bytes",
          "name": "",
          "type": "bytes"
        }
      ],
      "name": "onERC721Received",
      "outputs": [
        {
          "internalType": "bytes4",
          "name": "",
          "type": "bytes4"
        }
      ],
      "payable": false,
      "stateMutability": "nonpayable",
      "type": "function"
    },
    {
      "constant": false,
      "inputs": [
        {
          "internalType": "address",
          "name": "_authKey",
          "type": "address"
        }
      ],
      "name": "removeAuthKey",
      "outputs": [],
      "payable": false,
      "stateMutability": "nonpayable",
      "type": "function"
    },
    {
      "constant": false,
      "inputs": [
        {
          "internalType": "address",
          "name": "_newImplementation",
          "type": "address"
        },
        {
          "internalType": "bytes",
          "name": "_data",
          "type": "bytes"
        }
      ],
      "name": "upgradeToAndCall",
      "outputs": [],
      "payable": false,
      "stateMutability": "nonpayable",
      "type": "function"
    },
    {
      "constant": true,
      "inputs": [],
      "name": "upgradeTest",
      "outputs": [],
      "payable": false,
      "stateMutability": "pure",
      "type": "function"
    }
  ],
  "bytecode": "0x608060405234801561001057600080fd5b50613b4f806100206000396000f3fe60806040526004361061011f5760003560e01c80635175ca5e116100a0578063bc197c8111610064578063bc197c81146103f6578063d5553b8814610433578063d59e3e9814610470578063ec5e319e146104ad578063f23a6e61146104d85761011f565b80635175ca5e146102fd578063792c891f1461033a5780637e7fd66c146103775780639565389e146103a2578063affed0e0146103cb5761011f565b806326aa4655116100e757806326aa4655146102185780633408e470146102555780633d20b15c1461028057806340914b06146102975780634f1ef286146102d45761011f565b806313f8c57814610121578063150b7a021461014a5780631b9a9f9e146101875780631f602092146101b057806320c13b0b146101db575b005b34801561012d57600080fd5b506101486004803603610143919081019061231a565b610515565b005b34801561015657600080fd5b50610171600480360361016c919081019061248a565b6106d4565b60405161017e91906134b6565b60405180910390f35b34801561019357600080fd5b506101ae60048036036101a9919081019061231a565b6106e8565b005b3480156101bc57600080fd5b506101c56107e2565b6040516101d291906134d1565b60405180910390f35b3480156101e757600080fd5b5061020260048036036101fd9190810190612861565b61081b565b60405161020f91906134b6565b60405180910390f35b34801561022457600080fd5b5061023f600480360361023a919081019061266d565b610893565b60405161024c9190613434565b60405180910390f35b34801561026157600080fd5b5061026a610952565b6040516102779190613795565b60405180910390f35b34801561028c57600080fd5b5061029561095b565b005b3480156102a357600080fd5b506102be60048036036102b99190810190612861565b61099e565b6040516102cb91906134b6565b60405180910390f35b3480156102e057600080fd5b506102fb60048036036102f69190810190612597565b610a35565b005b34801561030957600080fd5b50610324600480360361031f919081019061231a565b610bb5565b6040516103319190613456565b60405180910390f35b34801561034657600080fd5b50610361600480360361035c919081019061262c565b610bd5565b60405161036e9190613434565b60405180910390f35b34801561038357600080fd5b5061038c610c65565b6040516103999190613795565b60405180910390f35b3480156103ae57600080fd5b506103c960048036036103c4919081019061231a565b610c6b565b005b3480156103d757600080fd5b506103e0610e70565b6040516103ed9190613795565b60405180910390f35b34801561040257600080fd5b5061041d600480360361041891908101906123be565b610e76565b60405161042a91906134b6565b60405180910390f35b34801561043f57600080fd5b5061045a60048036036104559190810190612726565b610e8e565b6040516104679190613434565b60405180910390f35b34801561047c57600080fd5b5061049760048036036104929190810190612861565b610f4c565b6040516104a491906134b6565b60405180910390f35b3480156104b957600080fd5b506104c261109e565b6040516104cf9190613795565b60405180910390f35b3480156104e457600080fd5b506104ff60048036036104fa9190810190612505565b6110a4565b60405161050c91906134b6565b60405180910390f35b61051e336110ba565b8061055457503073ffffffffffffffffffffffffffffffffffffffff163373ffffffffffffffffffffffffffffffffffffffff16145b610593576040517f08c379a000000000000000000000000000000000000000000000000000000000815260040161058a906136d5565b60405180910390fd5b60001515600160008373ffffffffffffffffffffffffffffffffffffffff1673ffffffffffffffffffffffffffffffffffffffff16815260200190815260200160002060009054906101000a900460ff16151514610626576040517f08c379a000000000000000000000000000000000000000000000000000000000815260040161061d90613715565b60405180910390fd5b60018060008373ffffffffffffffffffffffffffffffffffffffff1673ffffffffffffffffffffffffffffffffffffffff16815260200190815260200160002060006101000a81548160ff02191690831515021790555060016003600082825401925050819055508073ffffffffffffffffffffffffffffffffffffffff167fb020719d16d3c4de45a91f9c329aa61d5bad3f44f760840c8d5d82d4cd3bcc3360405160405180910390a250565b600063150b7a0260e01b9050949350505050565b600080541461072c576040517f08c379a000000000000000000000000000000000000000000000000000000000815260040161072390613655565b60405180910390fd5b600160008190555060018060008373ffffffffffffffffffffffffffffffffffffffff1673ffffffffffffffffffffffffffffffffffffffff16815260200190815260200160002060006101000a81548160ff02191690831515021790555060016003600082825401925050819055508073ffffffffffffffffffffffffffffffffffffffff167fb020719d16d3c4de45a91f9c329aa61d5bad3f44f760840c8d5d82d4cd3bcc3360405160405180910390a250565b6040518060400160405280600a81526020017f323032303032313730300000000000000000000000000000000000000000000081525081565b600060418251141561083857610831838361099e565b905061088d565b60828251106108525761084b8383610f4c565b905061088d565b6040517f08c379a000000000000000000000000000000000000000000000000000000000815260040161088490613675565b60405180910390fd5b92915050565b606060005a90506000610908306000357fffffffff00000000000000000000000000000000000000000000000000000000166108cd610952565b6002548d8d8d8d8d6040516020016108ed99989796959493929190613347565b60405160208183030381529060405280519060200120611110565b90506109148185611140565b60606109238a8a8a8a8a6111a4565b91505061092f8a6113d3565b1561094257610941838a8a8a8a611462565b5b8093505050509695505050505050565b60006001905090565b600061099c576040517f08c379a0000000000000000000000000000000000000000000000000000000008152600401610993906136f5565b60405180910390fd5b565b600060418251146109e4576040517f08c379a00000000000000000000000000000000000000000000000000000000081526004016109db906135b5565b60405180910390fd5b6000610a01836109f386611717565b61175290919063ffffffff16565b90506000610a0e826110ba565b610a1f5763ffffffff60e01b610a28565b6320c13b0b60e01b5b9050809250505092915050565b3073ffffffffffffffffffffffffffffffffffffffff163373ffffffffffffffffffffffffffffffffffffffff1614610aa3576040517f08c379a0000000000000000000000000000000000000000000000000000000008152600401610a9a90613575565b60405180910390fd5b610aac8261183e565b600060608373ffffffffffffffffffffffffffffffffffffffff1683604051610ad591906132ab565b600060405180830381855af49150503d8060008114610b10576040519150601f19603f3d011682016040523d82523d6000602084013e610b15565b606091505b50915091506060610b25826118b5565b9050828190610b6a576040517f08c379a0000000000000000000000000000000000000000000000000000000008152600401610b6191906134f3565b60405180910390fd5b508473ffffffffffffffffffffffffffffffffffffffff167fbc7cd75a20ee27fd9adebab32041f755214dbc6bffa90cc0225b39da2e5c2d3b60405160405180910390a25050505050565b60016020528060005260406000206000915054906101000a900460ff1681565b6060610be0336110ba565b80610c1657503073ffffffffffffffffffffffffffffffffffffffff163373ffffffffffffffffffffffffffffffffffffffff16145b610c55576040517f08c379a0000000000000000000000000000000000000000000000000000000008152600401610c4c906136d5565b60405180910390fd5b610c5e8261191b565b9050919050565b60005481565b610c74336110ba565b80610caa57503073ffffffffffffffffffffffffffffffffffffffff163373ffffffffffffffffffffffffffffffffffffffff16145b610ce9576040517f08c379a0000000000000000000000000000000000000000000000000000000008152600401610ce0906136d5565b60405180910390fd5b60011515600160008373ffffffffffffffffffffffffffffffffffffffff1673ffffffffffffffffffffffffffffffffffffffff16815260200190815260200160002060009054906101000a900460ff16151514610d7c576040517f08c379a0000000000000000000000000000000000000000000000000000000008152600401610d7390613735565b60405180910390fd5b600160035411610dc1576040517f08c379a0000000000000000000000000000000000000000000000000000000008152600401610db890613615565b60405180910390fd5b6000600160008373ffffffffffffffffffffffffffffffffffffffff1673ffffffffffffffffffffffffffffffffffffffff16815260200190815260200160002060006101000a81548160ff02191690831515021790555060016003600082825403925050819055508073ffffffffffffffffffffffffffffffffffffffff167fbe55f9add9abe657e689a4a84a31854310f260c7e2610bcd22440e3ec3a836a460405160405180910390a250565b60025481565b600063bc197c8160e01b905098975050505050505050565b606060005a9050610e9f8a886119af565b6000610f0d306000357fffffffff0000000000000000000000000000000000000000000000000000000016610ed2610952565b6002548f8f8f8e8e604051602001610ef299989796959493929190613347565b60405160208183030381529060405280519060200120611110565b9050610f1b81868a87611ac3565b6060610f2a8c8c8c8b8b6111a4565b915050610f3a838c8c8b8b611462565b80935050505098975050505050505050565b6000608282511015610f93576040517f08c379a0000000000000000000000000000000000000000000000000000000008152600401610f8a90613775565b60405180910390fd5b6060610fac6000604185611b779092919063ffffffff16565b90506060610fc660418086611b779092919063ffffffff16565b90506000610fdf60828651611c0390919063ffffffff16565b90506060610ff960828388611b779092919063ffffffff16565b905060006110188561100a8a611717565b61175290919063ffffffff16565b9050600061104d8284604051602001611032929190613404565b60405160208183030381529060405280519060200120611110565b90506000611064868361175290919063ffffffff16565b90506000611071826110ba565b6110825763ffffffff60e01b61108b565b6320c13b0b60e01b5b9050809850505050505050505092915050565b60035481565b600063f23a6e6160e01b90509695505050505050565b6000600160008373ffffffffffffffffffffffffffffffffffffffff1673ffffffffffffffffffffffffffffffffffffffff16815260200190815260200160002060009054906101000a900460ff169050919050565b60008160405160200161112391906132c2565b604051602081830303815290604052805190602001209050919050565b6000611155828461175290919063ffffffff16565b9050611160816110ba565b61119f576040517f08c379a0000000000000000000000000000000000000000000000000000000008152600401611196906135f5565b60405180910390fd5b505050565b600060603a8611156111eb576040517f08c379a00000000000000000000000000000000000000000000000000000000081526004016111e290613515565b60405180910390fd5b6000611259306000357fffffffff000000000000000000000000000000000000000000000000000000001661121e610952565b6002548c8c8c8c8c60405160200161123e99989796959493929190613347565b60405160208183030381529060405280519060200120611110565b90508751600260008282540192505081905550606063792c891f60e01b896040516024016112879190613434565b604051602081830303815290604052907bffffffffffffffffffffffffffffffffffffffffffffffffffffffff19166020820180517bffffffffffffffffffffffffffffffffffffffffffffffffffffffff83818316178352505050509050600060603073ffffffffffffffffffffffffffffffffffffffff168360405161130f91906132ab565b6000604051808303816000865af19150503d806000811461134c576040519150601f19603f3d011682016040523d82523d6000602084013e611351565b606091505b50915091506060826113a7576060611368836118b5565b90507fb5e1dc2ddc0e1a0221e00b3c0446f36b707001d3ac7cfb494259863fdef7ccd78160405161139991906134f3565b60405180910390a1506113be565b818060200190516113bb91908101906125eb565b90505b84819650965050505050509550959350505050565b60008060008090505b8351811015611456576114018482815181106113f457fe5b6020026020010151611c4d565b909150905050809250503073ffffffffffffffffffffffffffffffffffffffff168273ffffffffffffffffffffffffffffffffffffffff16146114495760019250505061145d565b80806001019150506113dc565b5060009150505b919050565b60006114898461147b5a89611c0390919063ffffffff16565b611c7d90919063ffffffff16565b9050600073ffffffffffffffffffffffffffffffffffffffff168373ffffffffffffffffffffffffffffffffffffffff16141561159557476114d48683611cd290919063ffffffff16565b1115611515576040517f08c379a000000000000000000000000000000000000000000000000000000000815260040161150c90613555565b60405180910390fd5b3373ffffffffffffffffffffffffffffffffffffffff1661153f8683611cd290919063ffffffff16565b60405161154b90613317565b60006040518083038185875af1925050503d8060008114611588576040519150601f19603f3d011682016040523d82523d6000602084013e61158d565b606091505b50505061170f565b600083905060006115af8484611cd290919063ffffffff16565b90508173ffffffffffffffffffffffffffffffffffffffff166370a08231306040518263ffffffff1660e01b81526004016115ea919061332c565b602060405180830381600087803b15801561160457600080fd5b505af1158015611618573d6000803e3d6000fd5b505050506040513d601f19601f8201168201806040525061163c919081019061290e565b81111561167e576040517f08c379a000000000000000000000000000000000000000000000000000000000815260040161167590613755565b60405180910390fd5b8173ffffffffffffffffffffffffffffffffffffffff1663a9059cbb33836040518363ffffffff1660e01b81526004016116b99291906133db565b602060405180830381600087803b1580156116d357600080fd5b505af11580156116e7573d6000803e3d6000fd5b505050506040513d601f19601f8201168201806040525061170b9190810190612838565b5050505b505050505050565b60006117238251611d42565b826040516020016117359291906132e8565b604051602081830303815290604052805190602001209050919050565b600060418251146117665760009050611838565b60008060006020850151925060408501519150606085015160001a90507f7fffffffffffffffffffffffffffffff5d576e7357a4501ddfe92f46681b20a08260001c11156117ba5760009350505050611838565b601b8160ff16141580156117d25750601c8160ff1614155b156117e35760009350505050611838565b600186828585604051600081526020016040526040516118069493929190613471565b6020604051602081039080840390855afa158015611828573d6000803e3d6000fd5b5050506020604051035193505050505b92915050565b61184781611e75565b611886576040517f08c379a000000000000000000000000000000000000000000000000000000000815260040161187d90613635565b60405180910390fd5b60007f360894a13ba1a3210667c828492db98dca3e2076cc3735a920a3ca505d382bbc60001b90508181555050565b60606044825110156118e157604051806060016040528060218152602001613aec602191399050611916565b60606118fc60048085510385611b779092919063ffffffff16565b90508080602001905161191291908101906128cd565b9150505b919050565b606080825160405190808252806020026020018201604052801561195357816020015b606081526020019060019003908161193e5790505b50905060008090505b83518110156119a55761198184828151811061197457fe5b6020026020010151611e88565b82828151811061198d57fe5b6020026020010181905250808060010191505061195c565b5080915050919050565b600080600090505b8351811015611a62576119dc8482815181106119cf57fe5b6020026020010151611c4d565b909150905050809250503073ffffffffffffffffffffffffffffffffffffffff168273ffffffffffffffffffffffffffffffffffffffff161415611a55576040517f08c379a0000000000000000000000000000000000000000000000000000000008152600401611a4c90613695565b60405180910390fd5b80806001019150506119b7565b50600082806020019051611a79919081019061290e565b9050428111611abd576040517f08c379a0000000000000000000000000000000000000000000000000000000008152600401611ab4906135d5565b60405180910390fd5b50505050565b6000611ad8848661175290919063ffffffff16565b90506000611b0d8285604051602001611af2929190613404565b60405160208183030381529060405280519060200120611110565b90506000611b24848361175290919063ffffffff16565b9050611b2f816110ba565b611b6e576040517f08c379a0000000000000000000000000000000000000000000000000000000008152600401611b6590613535565b60405180910390fd5b50505050505050565b606081830184511015611b8957600080fd5b6060821560008114611ba657604051915060208201604052611bf7565b6040519150601f8416801560200281840101858101878315602002848b0101015b81831015611be45780518352602083019250602081019050611bc7565b50868552601f19601f8301166040525050505b50809150509392505050565b6000611c4583836040518060400160405280601e81526020017f536166654d6174683a207375627472616374696f6e206f766572666c6f770000815250611eb9565b905092915050565b6000806000606084806020019051611c689190810190612343565b83935080905093509350935093509193509193565b600080828401905083811015611cc8576040517f08c379a0000000000000000000000000000000000000000000000000000000008152600401611cbf90613595565b60405180910390fd5b8091505092915050565b600080831415611ce55760009050611d3c565b6000828402905082848281611cf657fe5b0414611d37576040517f08c379a0000000000000000000000000000000000000000000000000000000008152600401611d2e906136b5565b60405180910390fd5b809150505b92915050565b60606000821415611d8a576040518060400160405280600181526020017f30000000000000000000000000000000000000000000000000000000000000008152509050611e70565b6000829050600083905060005b60008214611db9578080600101915050600a8281611db157fe5b049150611d97565b6060816040519080825280601f01601f191660200182016040528015611dee5781602001600182028038833980820191505090505b50905060006001830390505b60008514611e6757600a8581611e0c57fe5b0660300160f81b82828060019003935081518110611e2657fe5b60200101907effffffffffffffffffffffffffffffffffffffffffffffffffffffffffffff1916908160001a905350600a8581611e5f57fe5b049450611dfa565b81955050505050505b919050565b600080823b905060008111915050919050565b606060008060006060611e9a86611c4d565b9350935093509350611eae84848484611f14565b945050505050919050565b6000838311158290611f01576040517f08c379a0000000000000000000000000000000000000000000000000000000008152600401611ef891906134f3565b60405180910390fd5b5060008385039050809150509392505050565b6060600060608673ffffffffffffffffffffffffffffffffffffffff16858786604051611f4191906132ab565b600060405180830381858888f193505050503d8060008114611f7f576040519150601f19603f3d011682016040523d82523d6000602084013e611f84565b606091505b509150915081611fd8576060611f99826118b5565b9050806040517f08c379a0000000000000000000000000000000000000000000000000000000008152600401611fcf91906134f3565b60405180910390fd5b8092505050949350505050565b600081359050611ff481613a8f565b92915050565b60008151905061200981613aa6565b92915050565b600082601f83011261202057600080fd5b815161203361202e826137dd565b6137b0565b9150818183526020840193506020810190508360005b83811015612079578151860161205f88826121f4565b845260208401935060208301925050600181019050612049565b5050505092915050565b600082601f83011261209457600080fd5b81356120a76120a282613805565b6137b0565b9150818183526020840193506020810190508360005b838110156120ed57813586016120d388826121a0565b8452602084019350602083019250506001810190506120bd565b5050505092915050565b60008083601f84011261210957600080fd5b8235905067ffffffffffffffff81111561212257600080fd5b60208301915083602082028301111561213a57600080fd5b9250929050565b60008151905061215081613abd565b92915050565b60008083601f84011261216857600080fd5b8235905067ffffffffffffffff81111561218157600080fd5b60208301915083600182028301111561219957600080fd5b9250929050565b600082601f8301126121b157600080fd5b81356121c46121bf8261382d565b6137b0565b915080825260208301602083018583830111156121e057600080fd5b6121eb838284613a32565b50505092915050565b600082601f83011261220557600080fd5b81516122186122138261382d565b6137b0565b9150808252602083016020830185838301111561223457600080fd5b61223f838284613a41565b50505092915050565b600082601f83011261225957600080fd5b813561226c61226782613859565b6137b0565b9150808252602083016020830185838301111561228857600080fd5b612293838284613a32565b50505092915050565b600082601f8301126122ad57600080fd5b81516122c06122bb82613885565b6137b0565b915080825260208301602083018583830111156122dc57600080fd5b6122e7838284613a41565b50505092915050565b6000813590506122ff81613ad4565b92915050565b60008151905061231481613ad4565b92915050565b60006020828403121561232c57600080fd5b600061233a84828501611fe5565b91505092915050565b6000806000806080858703121561235957600080fd5b600061236787828801611ffa565b945050602061237887828801612305565b935050604061238987828801612305565b925050606085015167ffffffffffffffff8111156123a657600080fd5b6123b2878288016121f4565b91505092959194509250565b60008060008060008060008060a0898b0312156123da57600080fd5b60006123e88b828c01611fe5565b98505060206123f98b828c01611fe5565b975050604089013567ffffffffffffffff81111561241657600080fd5b6124228b828c016120f7565b9650965050606089013567ffffffffffffffff81111561244157600080fd5b61244d8b828c016120f7565b9450945050608089013567ffffffffffffffff81111561246c57600080fd5b6124788b828c01612156565b92509250509295985092959890939650565b600080600080608085870312156124a057600080fd5b60006124ae87828801611fe5565b94505060206124bf87828801611fe5565b93505060406124d0878288016122f0565b925050606085013567ffffffffffffffff8111156124ed57600080fd5b6124f987828801612248565b91505092959194509250565b60008060008060008060a0878903121561251e57600080fd5b600061252c89828a01611fe5565b965050602061253d89828a01611fe5565b955050604061254e89828a016122f0565b945050606061255f89828a016122f0565b935050608087013567ffffffffffffffff81111561257c57600080fd5b61258889828a01612156565b92509250509295509295509295565b600080604083850312156125aa57600080fd5b60006125b885828601611fe5565b925050602083013567ffffffffffffffff8111156125d557600080fd5b6125e185828601612248565b9150509250929050565b6000602082840312156125fd57600080fd5b600082015167ffffffffffffffff81111561261757600080fd5b6126238482850161200f565b91505092915050565b60006020828403121561263e57600080fd5b600082013567ffffffffffffffff81111561265857600080fd5b61266484828501612083565b91505092915050565b60008060008060008060c0878903121561268657600080fd5b600087013567ffffffffffffffff8111156126a057600080fd5b6126ac89828a01612083565b96505060206126bd89828a016122f0565b95505060406126ce89828a016122f0565b94505060606126df89828a01611fe5565b93505060806126f089828a016122f0565b92505060a087013567ffffffffffffffff81111561270d57600080fd5b61271989828a01612248565b9150509295509295509295565b600080600080600080600080610100898b03121561274357600080fd5b600089013567ffffffffffffffff81111561275d57600080fd5b6127698b828c01612083565b985050602061277a8b828c016122f0565b975050604061278b8b828c016122f0565b965050606089013567ffffffffffffffff8111156127a857600080fd5b6127b48b828c01612248565b95505060806127c58b828c01611fe5565b94505060a06127d68b828c016122f0565b93505060c089013567ffffffffffffffff8111156127f357600080fd5b6127ff8b828c01612248565b92505060e089013567ffffffffffffffff81111561281c57600080fd5b6128288b828c01612248565b9150509295985092959890939650565b60006020828403121561284a57600080fd5b600061285884828501612141565b91505092915050565b6000806040838503121561287457600080fd5b600083013567ffffffffffffffff81111561288e57600080fd5b61289a85828601612248565b925050602083013567ffffffffffffffff8111156128b757600080fd5b6128c385828601612248565b9150509250929050565b6000602082840312156128df57600080fd5b600082015167ffffffffffffffff8111156128f957600080fd5b6129058482850161229c565b91505092915050565b60006020828403121561292057600080fd5b600061292e84828501612305565b91505092915050565b60006129438383612a9b565b905092915050565b612954816139fc565b82525050565b61296381613971565b82525050565b6129728161395f565b82525050565b6000612983826138c1565b61298d8185613905565b93508360208202850161299f856138b1565b8060005b858110156129db57848403895281516129bc8582612937565b94506129c7836138f8565b925060208a019950506001810190506129a3565b50829750879550505050505092915050565b6129f681613983565b82525050565b612a058161398f565b82525050565b612a1c612a178261398f565b613a74565b82525050565b612a2b81613999565b82525050565b6000612a3c826138d7565b612a468185613927565b9350612a56818560208601613a41565b612a5f81613a7e565b840191505092915050565b6000612a75826138d7565b612a7f8185613938565b9350612a8f818560208601613a41565b80840191505092915050565b6000612aa6826138cc565b612ab08185613916565b9350612ac0818560208601613a41565b612ac981613a7e565b840191505092915050565b6000612adf826138ed565b612ae98185613943565b9350612af9818560208601613a41565b612b0281613a7e565b840191505092915050565b6000612b18826138ed565b612b228185613954565b9350612b32818560208601613a41565b80840191505092915050565b6000612b49826138e2565b612b538185613943565b9350612b63818560208601613a41565b612b6c81613a7e565b840191505092915050565b6000612b84602483613943565b91507f424d54413a204e6f742061206c6172676520656e6f7567682074782e6761737060008301527f72696365000000000000000000000000000000000000000000000000000000006020830152604082019050919050565b6000612bea601a83613943565b91507f4c4b4d54413a2041757468206b657920697320696e76616c69640000000000006000830152602082019050919050565b6000612c2a601c83613954565b91507f19457468657265756d205369676e6564204d6573736167653a0a3332000000006000830152601c82019050919050565b6000612c6a602583613943565b91507f42413a20496e73756666696369656e742067617320284554482920666f72207260008301527f6566756e640000000000000000000000000000000000000000000000000000006020830152604082019050919050565b6000612cd0601583613943565b91507f42413a204f6e6c792073656c6620616c6c6f77656400000000000000000000006000830152602082019050919050565b6000612d10601b83613943565b91507f536166654d6174683a206164646974696f6e206f766572666c6f7700000000006000830152602082019050919050565b6000612d50603a83613943565b91507f455243313237313a20496e76616c696420697356616c6964417574684b65795360008301527f69676e6174757265205f7369676e6174757265206c656e6774680000000000006020830152604082019050919050565b6000612db6601b83613943565b91507f4c4b4d54413a204c6f67696e206b6579206973206578706972656400000000006000830152602082019050919050565b6000612df6601a83613943565b91507f414b4d54413a2041757468206b657920697320696e76616c69640000000000006000830152602082019050919050565b6000612e36601f83613943565b91507f42413a2043616e6e6f742072656d6f7665206c6173742061757468206b6579006000830152602082019050919050565b6000612e76603f83613943565b91507f41553a2043616e6e6f742073657420612070726f787920696d706c656d656e7460008301527f6174696f6e20746f2061206e6f6e2d636f6e74726163742061646472657373006020830152604082019050919050565b6000612edc602183613943565b91507f41493a20496d70726f70657220696e697469616c697a6174696f6e206f72646560008301527f72000000000000000000000000000000000000000000000000000000000000006020830152604082019050919050565b6000612f42603383613943565b91507f455243313237313a20496e76616c696420697356616c69645369676e6174757260008301527f65205f7369676e6174757265206c656e677468000000000000000000000000006020830152604082019050919050565b6000612fa8602983613943565b91507f4c4b4d54413a204c6f67696e206b6579206973206e6f742061626c6520746f2060008301527f63616c6c2073656c6600000000000000000000000000000000000000000000006020830152604082019050919050565b600061300e602183613943565b91507f536166654d6174683a206d756c7469706c69636174696f6e206f766572666c6f60008301527f77000000000000000000000000000000000000000000000000000000000000006020830152604082019050919050565b6000613074601a83613954565b91507f19457468657265756d205369676e6564204d6573736167653a0a0000000000006000830152601a82019050919050565b60006130b4601f83613943565b91507f42413a2041757468206b6579206f722073656c6620697320696e76616c6964006000830152602082019050919050565b60006130f4600083613938565b9150600082019050919050565b600061310e600e83613943565b91507f55706772616465206661696c65640000000000000000000000000000000000006000830152602082019050919050565b600061314e601a83613943565b91507f42413a2041757468206b657920616c72656164792061646465640000000000006000830152602082019050919050565b600061318e601a83613943565b91507f42413a2041757468206b6579206e6f74207965742061646465640000000000006000830152602082019050919050565b60006131ce602783613943565b91507f42413a20496e73756666696369656e74206761732028746f6b656e2920666f7260008301527f20726566756e64000000000000000000000000000000000000000000000000006020830152604082019050919050565b6000613234603b83613943565b91507f455243313237313a20496e76616c696420697356616c69644c6f67696e4b657960008301527f5369676e6174757265205f7369676e6174757265206c656e67746800000000006020830152604082019050919050565b613296816139e5565b82525050565b6132a5816139ef565b82525050565b60006132b78284612a6a565b915081905092915050565b60006132cd82612c1d565b91506132d98284612a0b565b60208201915081905092915050565b60006132f382613067565b91506132ff8285612b0d565b915061330b8284612a6a565b91508190509392505050565b6000613322826130e7565b9150819050919050565b6000602082019050613341600083018461294b565b92915050565b60006101208201905061335d600083018c61295a565b61336a602083018b612a22565b613377604083018a61328d565b613384606083018961328d565b81810360808301526133968188612978565b90506133a560a083018761328d565b6133b260c083018661328d565b6133bf60e0830185612969565b6133cd61010083018461328d565b9a9950505050505050505050565b60006040820190506133f0600083018561294b565b6133fd602083018461328d565b9392505050565b60006040820190506134196000830185612969565b818103602083015261342b8184612a31565b90509392505050565b6000602082019050818103600083015261344e8184612978565b905092915050565b600060208201905061346b60008301846129ed565b92915050565b600060808201905061348660008301876129fc565b613493602083018661329c565b6134a060408301856129fc565b6134ad60608301846129fc565b95945050505050565b60006020820190506134cb6000830184612a22565b92915050565b600060208201905081810360008301526134eb8184612b3e565b905092915050565b6000602082019050818103600083015261350d8184612ad4565b905092915050565b6000602082019050818103600083015261352e81612b77565b9050919050565b6000602082019050818103600083015261354e81612bdd565b9050919050565b6000602082019050818103600083015261356e81612c5d565b9050919050565b6000602082019050818103600083015261358e81612cc3565b9050919050565b600060208201905081810360008301526135ae81612d03565b9050919050565b600060208201905081810360008301526135ce81612d43565b9050919050565b600060208201905081810360008301526135ee81612da9565b9050919050565b6000602082019050818103600083015261360e81612de9565b9050919050565b6000602082019050818103600083015261362e81612e29565b9050919050565b6000602082019050818103600083015261364e81612e69565b9050919050565b6000602082019050818103600083015261366e81612ecf565b9050919050565b6000602082019050818103600083015261368e81612f35565b9050919050565b600060208201905081810360008301526136ae81612f9b565b9050919050565b600060208201905081810360008301526136ce81613001565b9050919050565b600060208201905081810360008301526136ee816130a7565b9050919050565b6000602082019050818103600083015261370e81613101565b9050919050565b6000602082019050818103600083015261372e81613141565b9050919050565b6000602082019050818103600083015261374e81613181565b9050919050565b6000602082019050818103600083015261376e816131c1565b9050919050565b6000602082019050818103600083015261378e81613227565b9050919050565b60006020820190506137aa600083018461328d565b92915050565b6000604051905081810181811067ffffffffffffffff821117156137d357600080fd5b8060405250919050565b600067ffffffffffffffff8211156137f457600080fd5b602082029050602081019050919050565b600067ffffffffffffffff82111561381c57600080fd5b602082029050602081019050919050565b600067ffffffffffffffff82111561384457600080fd5b601f19601f8301169050602081019050919050565b600067ffffffffffffffff82111561387057600080fd5b601f19601f8301169050602081019050919050565b600067ffffffffffffffff82111561389c57600080fd5b601f19601f8301169050602081019050919050565b6000819050602082019050919050565b600081519050919050565b600081519050919050565b600081519050919050565b600081519050919050565b600081519050919050565b6000602082019050919050565b600082825260208201905092915050565b600082825260208201905092915050565b600082825260208201905092915050565b600081905092915050565b600082825260208201905092915050565b600081905092915050565b600061396a826139c5565b9050919050565b600061397c826139c5565b9050919050565b60008115159050919050565b6000819050919050565b60007fffffffff0000000000000000000000000000000000000000000000000000000082169050919050565b600073ffffffffffffffffffffffffffffffffffffffff82169050919050565b6000819050919050565b600060ff82169050919050565b6000613a0782613a0e565b9050919050565b6000613a1982613a20565b9050919050565b6000613a2b826139c5565b9050919050565b82818337600083830152505050565b60005b83811015613a5f578082015181840152602081019050613a44565b83811115613a6e576000848401525b50505050565b6000819050919050565b6000601f19601f8301169050919050565b613a988161395f565b8114613aa357600080fd5b50565b613aaf81613971565b8114613aba57600080fd5b50565b613ac681613983565b8114613ad157600080fd5b50565b613add816139e5565b8114613ae857600080fd5b5056fe42413a205472616e73616374696f6e2072657665727465642073696c656e746c79a365627a7a72315820dc1a4b1983dc20fdc0e229309df96370eda9453802d6c2a1a433a819830f09706c6578706572696d656e74616cf564736f6c63430005100040",
  "source": "pragma solidity 0.5.16;\npragma experimental ABIEncoderV2;\n\nimport \"../account/AuthereumAccount.sol\";\n\n/**\n * @title UpgradeAccountBadInit\n * @author Authereum Labs, Inc.\n * @dev A contract used to test failing initializations.\n */\n\ncontract UpgradeAccountBadInit is AuthereumAccount {\n\n    /// @dev Function to call to test an upgrade with a new function\n    function upgradeTest() public pure {\n        require(false, 'Upgrade failed');\n    }\n}\n",
  "sourcePath": "/Users/smitrajput/Projects/batchoo/contracts/test/UpgradeAccountBadInit.sol",
  "compiler": {
    "name": "solc",
    "version": "0.5.16+commit.9c3226ce.Emscripten.clang"
  },
  "schemaVersion": "3.1.0",
  "updatedAt": "2020-05-20T12:48:46.160Z",
  "devdoc": {
    "author": "Authereum Labs, Inc.",
    "details": "A contract used to test failing initializations.",
    "methods": {
      "addAuthKey(address)": {
        "details": "Add an auth key to the list of auth keys",
        "params": {
          "_authKey": "Address of the auth key to add"
        }
      },
      "executeMultipleAuthKeyMetaTransactions(bytes[],uint256,uint256,address,uint256,bytes)": {
        "details": "Execute multiple authKey meta transactions",
        "params": {
          "_feeTokenAddress": "Address of the token used to pay a fee",
          "_feeTokenRate": "Rate of the token (in tokenGasPrice/ethGasPrice) used to pay a fee",
          "_gasOverhead": "Gas overhead of the transaction calculated offchain",
          "_gasPrice": "Gas price set by the user",
          "_transactionMessageHashSignature": "Signed transaction data",
          "_transactions": "Arrays of transaction data ([destination, value, gasLimit, data][...]...)"
        }
      },
      "executeMultipleLoginKeyMetaTransactions(bytes[],uint256,uint256,bytes,address,uint256,bytes,bytes)": {
        "details": "Execute an loginKey meta transaction",
        "params": {
          "_feeTokenAddress": "Address of the token used to pay a fee",
          "_feeTokenRate": "Rate of the token (in tokenGasPrice/ethGasPrice) used to pay a fee",
          "_gasOverhead": "Gas overhead of the transaction calculated offchain",
          "_gasPrice": "Gas price set by the user",
          "_loginKeyAttestationSignature": "Signed loginKey",
          "_loginKeyRestrictionsData": "Contains restrictions to the loginKey's functionality",
          "_transactionMessageHashSignature": "Signed transaction data",
          "_transactions": "Arrays of transaction data ([destination, value, gasLimit, data][...]...)"
        },
        "return": "Response of the call"
      },
      "executeMultipleMetaTransactions(bytes[])": {
        "details": "Execute multiple meta transactions",
        "params": {
          "_transactions": "Arrays of transaction data ([destination, value, gasLimit, data][...]...)"
        },
        "return": "The responses of the calls"
      },
      "getChainId()": {
        "details": "Get the chain ID constant",
        "return": "The chain id"
      },
      "initializeV1(address)": {
        "details": "Initialize the Authereum Account",
        "params": {
          "_authKey": "authKey that will own this account"
        }
      },
      "isValidAuthKeySignature(bytes,bytes)": {
        "details": "Check if a message and auth key signature pair is valid",
        "params": {
          "_data": "Data that was signed",
          "_signature": "Signature of the data signed by the authkey"
        },
        "return": "VALID_SIG or INVALID_SIG hex data"
      },
      "isValidLoginKeySignature(bytes,bytes)": {
        "details": "Check if a message and login key signature pair is valid, as well as a signed login key by an auth key",
        "params": {
          "_data": "Message that was signed",
          "_signature": "Signature of the data. Signed msg data by the login key and signed login key by auth key"
        },
        "return": "VALID_SIG or INVALID_SIG hex data"
      },
      "isValidSignature(bytes,bytes)": {
        "details": "Check if a message and signature pair is valid",
        "params": {
          "_data": "Data that was signed",
          "_signature": "Signature(s) of the data. Either a single signature (login) or two (login and auth)"
        },
        "return": "VALID_SIG or INVALID_SIG hex data"
      },
      "onERC1155BatchReceived(address,address,uint256[],uint256[],bytes)": {
        "details": "An ERC1155-compliant smart contract MUST call this function on the token recipient contract, at the end of a `safeBatchTransferFrom` after the balances have been updated. This function MUST return `bytes4(keccak256(\"onERC1155BatchReceived(address,address,uint256[],uint256[],bytes)\"))` (i.e. 0xbc197c81) if it accepts the transfer(s). This function MUST revert if it rejects the transfer(s). Return of any other value than the prescribed keccak256 generated value MUST result in the transaction being reverted by the caller. param _operator  The address which initiated the batch transfer (i.e. msg.sender) param _from      The address which previously owned the token param _ids       An array containing ids of each token being transferred (order and length must match _values array) param _values    An array containing amounts of each token being transferred (order and length must match _ids array) param _data      Additional data with no specified format",
        "return": "`bytes4(keccak256(\"onERC1155BatchReceived(address,address,uint256[],uint256[],bytes)\"))`"
      },
      "onERC721Received(address,address,uint256,bytes)": {
        "details": "The ERC721 smart contract calls this function on the recipient after a {IERC721-safeTransferFrom}. This function MUST return the function selector, otherwise the caller will revert the transaction. The selector to be returned can be obtained as `this.onERC721Received.selector`. This function MAY throw to revert and reject the transfer. Note: the ERC721 contract address is always the message sender. param operator The address which called `safeTransferFrom` function param from The address which previously owned the token param tokenId The NFT identifier which is being transferred param data Additional data with no specified format",
        "return": "bytes4 `bytes4(keccak256(\"onERC721Received(address,address,uint256,bytes)\"))`"
      },
      "removeAuthKey(address)": {
        "details": "Remove an auth key from the list of auth keys",
        "params": {
          "_authKey": "Address of the auth key to remove"
        }
      },
      "upgradeTest()": {
        "details": "Function to call to test an upgrade with a new function"
      },
      "upgradeToAndCall(address,bytes)": {
        "details": "Upgrades the proxy to the newest implementation of a contract and forwards a function call to it",
        "params": {
          "_data": "Array of initialize data",
          "_newImplementation": "Address of the new implementation"
        }
      }
    },
    "title": "UpgradeAccountBadInit"
  },
  "userdoc": {
    "methods": {
      "executeMultipleMetaTransactions(bytes[])": {
        "notice": "This can only be called by self as a part of the atomic meta transaction"
      },
      "isValidSignature(bytes,bytes)": {
        "notice": "The _signature parameter can either be one auth key signature or it canbe a login key signature and an auth key signature (signed login key)"
      },
      "onERC1155BatchReceived(address,address,uint256[],uint256[],bytes)": {
        "notice": "Handle the receipt of multiple ERC1155 token types."
      },
      "onERC1155Received(address,address,uint256,uint256,bytes)": {
        "notice": "ERC1155"
      },
      "onERC721Received(address,address,uint256,bytes)": {
        "notice": "Handle the receipt of an NFT"
      },
      "upgradeToAndCall(address,bytes)": {
        "notice": "This is useful to initialize the proxied contract"
      }
    }
  }
}