{
  "contractName": "UpgradeAccountWithInit",
  "abi": [
    {
      "anonymous": false,
      "inputs": [
        {
          "indexed": true,
          "internalType": "address",
          "name": "authKey",
          "type": "address"
        }
      ],
      "name": "AuthKeyAdded",
      "type": "event"
    },
    {
      "anonymous": false,
      "inputs": [
        {
          "indexed": true,
          "internalType": "address",
          "name": "authKey",
          "type": "address"
        }
      ],
      "name": "AuthKeyRemoved",
      "type": "event"
    },
    {
      "anonymous": false,
      "inputs": [
        {
          "indexed": false,
          "internalType": "string",
          "name": "reason",
          "type": "string"
        }
      ],
      "name": "CallFailed",
      "type": "event"
    },
    {
      "anonymous": false,
      "inputs": [
        {
          "indexed": true,
          "internalType": "address",
          "name": "implementation",
          "type": "address"
        }
      ],
      "name": "Upgraded",
      "type": "event"
    },
    {
      "payable": true,
      "stateMutability": "payable",
      "type": "fallback"
    },
    {
      "constant": false,
      "inputs": [
        {
          "internalType": "address",
          "name": "_authKey",
          "type": "address"
        }
      ],
      "name": "addAuthKey",
      "outputs": [],
      "payable": false,
      "stateMutability": "nonpayable",
      "type": "function"
    },
    {
      "constant": true,
      "inputs": [
        {
          "internalType": "address",
          "name": "",
          "type": "address"
        }
      ],
      "name": "authKeys",
      "outputs": [
        {
          "internalType": "bool",
          "name": "",
          "type": "bool"
        }
      ],
      "payable": false,
      "stateMutability": "view",
      "type": "function"
    },
    {
      "constant": true,
      "inputs": [],
      "name": "authereumVersion",
      "outputs": [
        {
          "internalType": "string",
          "name": "",
          "type": "string"
        }
      ],
      "payable": false,
      "stateMutability": "view",
      "type": "function"
    },
    {
      "constant": false,
      "inputs": [
        {
          "internalType": "bytes[]",
          "name": "_transactions",
          "type": "bytes[]"
        },
        {
          "internalType": "uint256",
          "name": "_gasPrice",
          "type": "uint256"
        },
        {
          "internalType": "uint256",
          "name": "_gasOverhead",
          "type": "uint256"
        },
        {
          "internalType": "address",
          "name": "_feeTokenAddress",
          "type": "address"
        },
        {
          "internalType": "uint256",
          "name": "_feeTokenRate",
          "type": "uint256"
        },
        {
          "internalType": "bytes",
          "name": "_transactionMessageHashSignature",
          "type": "bytes"
        }
      ],
      "name": "executeMultipleAuthKeyMetaTransactions",
      "outputs": [
        {
          "internalType": "bytes[]",
          "name": "",
          "type": "bytes[]"
        }
      ],
      "payable": false,
      "stateMutability": "nonpayable",
      "type": "function"
    },
    {
      "constant": false,
      "inputs": [
        {
          "internalType": "bytes[]",
          "name": "_transactions",
          "type": "bytes[]"
        },
        {
          "internalType": "uint256",
          "name": "_gasPrice",
          "type": "uint256"
        },
        {
          "internalType": "uint256",
          "name": "_gasOverhead",
          "type": "uint256"
        },
        {
          "internalType": "bytes",
          "name": "_loginKeyRestrictionsData",
          "type": "bytes"
        },
        {
          "internalType": "address",
          "name": "_feeTokenAddress",
          "type": "address"
        },
        {
          "internalType": "uint256",
          "name": "_feeTokenRate",
          "type": "uint256"
        },
        {
          "internalType": "bytes",
          "name": "_transactionMessageHashSignature",
          "type": "bytes"
        },
        {
          "internalType": "bytes",
          "name": "_loginKeyAttestationSignature",
          "type": "bytes"
        }
      ],
      "name": "executeMultipleLoginKeyMetaTransactions",
      "outputs": [
        {
          "internalType": "bytes[]",
          "name": "",
          "type": "bytes[]"
        }
      ],
      "payable": false,
      "stateMutability": "nonpayable",
      "type": "function"
    },
    {
      "constant": false,
      "inputs": [
        {
          "internalType": "bytes[]",
          "name": "_transactions",
          "type": "bytes[]"
        }
      ],
      "name": "executeMultipleMetaTransactions",
      "outputs": [
        {
          "internalType": "bytes[]",
          "name": "",
          "type": "bytes[]"
        }
      ],
      "payable": false,
      "stateMutability": "nonpayable",
      "type": "function"
    },
    {
      "constant": true,
      "inputs": [],
      "name": "getChainId",
      "outputs": [
        {
          "internalType": "uint256",
          "name": "",
          "type": "uint256"
        }
      ],
      "payable": false,
      "stateMutability": "pure",
      "type": "function"
    },
    {
      "constant": false,
      "inputs": [
        {
          "internalType": "address",
          "name": "_authKey",
          "type": "address"
        }
      ],
      "name": "initializeV1",
      "outputs": [],
      "payable": false,
      "stateMutability": "nonpayable",
      "type": "function"
    },
    {
      "constant": true,
      "inputs": [
        {
          "internalType": "bytes",
          "name": "_data",
          "type": "bytes"
        },
        {
          "internalType": "bytes",
          "name": "_signature",
          "type": "bytes"
        }
      ],
      "name": "isValidAuthKeySignature",
      "outputs": [
        {
          "internalType": "bytes4",
          "name": "",
          "type": "bytes4"
        }
      ],
      "payable": false,
      "stateMutability": "view",
      "type": "function"
    },
    {
      "constant": true,
      "inputs": [
        {
          "internalType": "bytes",
          "name": "_data",
          "type": "bytes"
        },
        {
          "internalType": "bytes",
          "name": "_signature",
          "type": "bytes"
        }
      ],
      "name": "isValidLoginKeySignature",
      "outputs": [
        {
          "internalType": "bytes4",
          "name": "",
          "type": "bytes4"
        }
      ],
      "payable": false,
      "stateMutability": "view",
      "type": "function"
    },
    {
      "constant": true,
      "inputs": [
        {
          "internalType": "bytes",
          "name": "_data",
          "type": "bytes"
        },
        {
          "internalType": "bytes",
          "name": "_signature",
          "type": "bytes"
        }
      ],
      "name": "isValidSignature",
      "outputs": [
        {
          "internalType": "bytes4",
          "name": "",
          "type": "bytes4"
        }
      ],
      "payable": false,
      "stateMutability": "view",
      "type": "function"
    },
    {
      "constant": true,
      "inputs": [],
      "name": "lastInitializedVersion",
      "outputs": [
        {
          "internalType": "uint256",
          "name": "",
          "type": "uint256"
        }
      ],
      "payable": false,
      "stateMutability": "view",
      "type": "function"
    },
    {
      "constant": true,
      "inputs": [],
      "name": "nonce",
      "outputs": [
        {
          "internalType": "uint256",
          "name": "",
          "type": "uint256"
        }
      ],
      "payable": false,
      "stateMutability": "view",
      "type": "function"
    },
    {
      "constant": true,
      "inputs": [],
      "name": "numAuthKeys",
      "outputs": [
        {
          "internalType": "uint256",
          "name": "",
          "type": "uint256"
        }
      ],
      "payable": false,
      "stateMutability": "view",
      "type": "function"
    },
    {
      "constant": false,
      "inputs": [
        {
          "internalType": "address",
          "name": "",
          "type": "address"
        },
        {
          "internalType": "address",
          "name": "",
          "type": "address"
        },
        {
          "internalType": "uint256[]",
          "name": "",
          "type": "uint256[]"
        },
        {
          "internalType": "uint256[]",
          "name": "",
          "type": "uint256[]"
        },
        {
          "internalType": "bytes",
          "name": "",
          "type": "bytes"
        }
      ],
      "name": "onERC1155BatchReceived",
      "outputs": [
        {
          "internalType": "bytes4",
          "name": "",
          "type": "bytes4"
        }
      ],
      "payable": false,
      "stateMutability": "nonpayable",
      "type": "function"
    },
    {
      "constant": false,
      "inputs": [
        {
          "internalType": "address",
          "name": "",
          "type": "address"
        },
        {
          "internalType": "address",
          "name": "",
          "type": "address"
        },
        {
          "internalType": "uint256",
          "name": "",
          "type": "uint256"
        },
        {
          "internalType": "uint256",
          "name": "",
          "type": "uint256"
        },
        {
          "internalType": "bytes",
          "name": "",
          "type": "bytes"
        }
      ],
      "name": "onERC1155Received",
      "outputs": [
        {
          "internalType": "bytes4",
          "name": "",
          "type": "bytes4"
        }
      ],
      "payable": false,
      "stateMutability": "nonpayable",
      "type": "function"
    },
    {
      "constant": false,
      "inputs": [
        {
          "internalType": "address",
          "name": "",
          "type": "address"
        },
        {
          "internalType": "address",
          "name": "",
          "type": "address"
        },
        {
          "internalType": "uint256",
          "name": "",
          "type": "uint256"
        },
        {
          "internalType": "bytes",
          "name": "",
          "type": "bytes"
        }
      ],
      "name": "onERC721Received",
      "outputs": [
        {
          "internalType": "bytes4",
          "name": "",
          "type": "bytes4"
        }
      ],
      "payable": false,
      "stateMutability": "nonpayable",
      "type": "function"
    },
    {
      "constant": false,
      "inputs": [
        {
          "internalType": "address",
          "name": "_authKey",
          "type": "address"
        }
      ],
      "name": "removeAuthKey",
      "outputs": [],
      "payable": false,
      "stateMutability": "nonpayable",
      "type": "function"
    },
    {
      "constant": true,
      "inputs": [],
      "name": "upgradeTestVal",
      "outputs": [
        {
          "internalType": "uint256",
          "name": "",
          "type": "uint256"
        }
      ],
      "payable": false,
      "stateMutability": "view",
      "type": "function"
    },
    {
      "constant": false,
      "inputs": [
        {
          "internalType": "address",
          "name": "_newImplementation",
          "type": "address"
        },
        {
          "internalType": "bytes",
          "name": "_data",
          "type": "bytes"
        }
      ],
      "name": "upgradeToAndCall",
      "outputs": [],
      "payable": false,
      "stateMutability": "nonpayable",
      "type": "function"
    },
    {
      "constant": false,
      "inputs": [],
      "name": "upgradeTestInit",
      "outputs": [],
      "payable": false,
      "stateMutability": "nonpayable",
      "type": "function"
    },
    {
      "constant": true,
      "inputs": [],
      "name": "upgradeTest",
      "outputs": [
        {
          "internalType": "uint256",
          "name": "",
          "type": "uint256"
        }
      ],
      "payable": false,
      "stateMutability": "view",
      "type": "function"
    },
    {
      "constant": true,
      "inputs": [],
      "name": "getChainIdValue",
      "outputs": [
        {
          "internalType": "uint256",
          "name": "",
          "type": "uint256"
        }
      ],
      "payable": false,
      "stateMutability": "pure",
      "type": "function"
    }
  ],
  "bytecode": "0x608060405234801561001057600080fd5b50613b77806100206000396000f3fe6080604052600436106101405760003560e01c8063792c891f116100b6578063d3e90b011161006f578063d3e90b0114610493578063d5553b88146104aa578063d59e3e98146104e7578063ec5e319e14610524578063f23a6e611461054f578063f563ad3c1461058c57610140565b8063792c891f1461036f5780637e7fd66c146103ac5780639565389e146103d75780639d0016fe14610400578063affed0e01461042b578063bc197c811461045657610140565b806326aa46551161010857806326aa4655146102395780633408e470146102765780633d20b15c146102a157806340914b06146102cc5780634f1ef286146103095780635175ca5e1461033257610140565b806313f8c57814610142578063150b7a021461016b5780631b9a9f9e146101a85780631f602092146101d157806320c13b0b146101fc575b005b34801561014e57600080fd5b50610169600480360361016491908101906123a2565b6105b7565b005b34801561017757600080fd5b50610192600480360361018d9190810190612512565b610776565b60405161019f91906134fe565b60405180910390f35b3480156101b457600080fd5b506101cf60048036036101ca91908101906123a2565b61078a565b005b3480156101dd57600080fd5b506101e6610884565b6040516101f39190613519565b60405180910390f35b34801561020857600080fd5b50610223600480360361021e91908101906128e9565b6108bd565b60405161023091906134fe565b60405180910390f35b34801561024557600080fd5b50610260600480360361025b91908101906126f5565b610935565b60405161026d919061347c565b60405180910390f35b34801561028257600080fd5b5061028b6109f4565b60405161029891906137bd565b60405180910390f35b3480156102ad57600080fd5b506102b66109fd565b6040516102c391906137bd565b60405180910390f35b3480156102d857600080fd5b506102f360048036036102ee91908101906128e9565b610a07565b60405161030091906134fe565b60405180910390f35b34801561031557600080fd5b50610330600480360361032b919081019061261f565b610a9e565b005b34801561033e57600080fd5b50610359600480360361035491908101906123a2565b610c1e565b604051610366919061349e565b60405180910390f35b34801561037b57600080fd5b50610396600480360361039191908101906126b4565b610c3e565b6040516103a3919061347c565b60405180910390f35b3480156103b857600080fd5b506103c1610cce565b6040516103ce91906137bd565b60405180910390f35b3480156103e357600080fd5b506103fe60048036036103f991908101906123a2565b610cd4565b005b34801561040c57600080fd5b50610415610ed9565b60405161042291906137bd565b60405180910390f35b34801561043757600080fd5b50610440610edf565b60405161044d91906137bd565b60405180910390f35b34801561046257600080fd5b5061047d60048036036104789190810190612446565b610ee5565b60405161048a91906134fe565b60405180910390f35b34801561049f57600080fd5b506104a8610efd565b005b3480156104b657600080fd5b506104d160048036036104cc91908101906127ae565b610f07565b6040516104de919061347c565b60405180910390f35b3480156104f357600080fd5b5061050e600480360361050991908101906128e9565b610fc5565b60405161051b91906134fe565b60405180910390f35b34801561053057600080fd5b50610539611117565b60405161054691906137bd565b60405180910390f35b34801561055b57600080fd5b506105766004803603610571919081019061258d565b61111d565b60405161058391906134fe565b60405180910390f35b34801561059857600080fd5b506105a1611133565b6040516105ae91906137bd565b60405180910390f35b6105c033611142565b806105f657503073ffffffffffffffffffffffffffffffffffffffff163373ffffffffffffffffffffffffffffffffffffffff16145b610635576040517f08c379a000000000000000000000000000000000000000000000000000000000815260040161062c9061371d565b60405180910390fd5b60001515600160008373ffffffffffffffffffffffffffffffffffffffff1673ffffffffffffffffffffffffffffffffffffffff16815260200190815260200160002060009054906101000a900460ff161515146106c8576040517f08c379a00000000000000000000000000000000000000000000000000000000081526004016106bf9061373d565b60405180910390fd5b60018060008373ffffffffffffffffffffffffffffffffffffffff1673ffffffffffffffffffffffffffffffffffffffff16815260200190815260200160002060006101000a81548160ff02191690831515021790555060016003600082825401925050819055508073ffffffffffffffffffffffffffffffffffffffff167fb020719d16d3c4de45a91f9c329aa61d5bad3f44f760840c8d5d82d4cd3bcc3360405160405180910390a250565b600063150b7a0260e01b9050949350505050565b60008054146107ce576040517f08c379a00000000000000000000000000000000000000000000000000000000081526004016107c59061369d565b60405180910390fd5b600160008190555060018060008373ffffffffffffffffffffffffffffffffffffffff1673ffffffffffffffffffffffffffffffffffffffff16815260200190815260200160002060006101000a81548160ff02191690831515021790555060016003600082825401925050819055508073ffffffffffffffffffffffffffffffffffffffff167fb020719d16d3c4de45a91f9c329aa61d5bad3f44f760840c8d5d82d4cd3bcc3360405160405180910390a250565b6040518060400160405280600a81526020017f323032303032313730300000000000000000000000000000000000000000000081525081565b60006041825114156108da576108d38383610a07565b905061092f565b60828251106108f4576108ed8383610fc5565b905061092f565b6040517f08c379a0000000000000000000000000000000000000000000000000000000008152600401610926906136bd565b60405180910390fd5b92915050565b606060005a905060006109aa306000357fffffffff000000000000000000000000000000000000000000000000000000001661096f6109f4565b6002548d8d8d8d8d60405160200161098f9998979695949392919061338f565b60405160208183030381529060405280519060200120611198565b90506109b681856111c8565b60606109c58a8a8a8a8a61122c565b9150506109d18a61145b565b156109e4576109e3838a8a8a8a6114ea565b5b8093505050509695505050505050565b60006001905090565b6000600454905090565b60006041825114610a4d576040517f08c379a0000000000000000000000000000000000000000000000000000000008152600401610a44906135fd565b60405180910390fd5b6000610a6a83610a5c8661179f565b6117da90919063ffffffff16565b90506000610a7782611142565b610a885763ffffffff60e01b610a91565b6320c13b0b60e01b5b9050809250505092915050565b3073ffffffffffffffffffffffffffffffffffffffff163373ffffffffffffffffffffffffffffffffffffffff1614610b0c576040517f08c379a0000000000000000000000000000000000000000000000000000000008152600401610b03906135bd565b60405180910390fd5b610b15826118c6565b600060608373ffffffffffffffffffffffffffffffffffffffff1683604051610b3e91906132f3565b600060405180830381855af49150503d8060008114610b79576040519150601f19603f3d011682016040523d82523d6000602084013e610b7e565b606091505b50915091506060610b8e8261193d565b9050828190610bd3576040517f08c379a0000000000000000000000000000000000000000000000000000000008152600401610bca919061353b565b60405180910390fd5b508473ffffffffffffffffffffffffffffffffffffffff167fbc7cd75a20ee27fd9adebab32041f755214dbc6bffa90cc0225b39da2e5c2d3b60405160405180910390a25050505050565b60016020528060005260406000206000915054906101000a900460ff1681565b6060610c4933611142565b80610c7f57503073ffffffffffffffffffffffffffffffffffffffff163373ffffffffffffffffffffffffffffffffffffffff16145b610cbe576040517f08c379a0000000000000000000000000000000000000000000000000000000008152600401610cb59061371d565b60405180910390fd5b610cc7826119a3565b9050919050565b60005481565b610cdd33611142565b80610d1357503073ffffffffffffffffffffffffffffffffffffffff163373ffffffffffffffffffffffffffffffffffffffff16145b610d52576040517f08c379a0000000000000000000000000000000000000000000000000000000008152600401610d499061371d565b60405180910390fd5b60011515600160008373ffffffffffffffffffffffffffffffffffffffff1673ffffffffffffffffffffffffffffffffffffffff16815260200190815260200160002060009054906101000a900460ff16151514610de5576040517f08c379a0000000000000000000000000000000000000000000000000000000008152600401610ddc9061375d565b60405180910390fd5b600160035411610e2a576040517f08c379a0000000000000000000000000000000000000000000000000000000008152600401610e219061365d565b60405180910390fd5b6000600160008373ffffffffffffffffffffffffffffffffffffffff1673ffffffffffffffffffffffffffffffffffffffff16815260200190815260200160002060006101000a81548160ff02191690831515021790555060016003600082825403925050819055508073ffffffffffffffffffffffffffffffffffffffff167fbe55f9add9abe657e689a4a84a31854310f260c7e2610bcd22440e3ec3a836a460405160405180910390a250565b60045481565b60025481565b600063bc197c8160e01b905098975050505050505050565b602a600481905550565b606060005a9050610f188a88611a37565b6000610f86306000357fffffffff0000000000000000000000000000000000000000000000000000000016610f4b6109f4565b6002548f8f8f8e8e604051602001610f6b9998979695949392919061338f565b60405160208183030381529060405280519060200120611198565b9050610f9481868a87611b4b565b6060610fa38c8c8c8b8b61122c565b915050610fb3838c8c8b8b6114ea565b80935050505098975050505050505050565b600060828251101561100c576040517f08c379a00000000000000000000000000000000000000000000000000000000081526004016110039061379d565b60405180910390fd5b60606110256000604185611bff9092919063ffffffff16565b9050606061103f60418086611bff9092919063ffffffff16565b9050600061105860828651611c8b90919063ffffffff16565b9050606061107260828388611bff9092919063ffffffff16565b90506000611091856110838a61179f565b6117da90919063ffffffff16565b905060006110c682846040516020016110ab92919061344c565b60405160208183030381529060405280519060200120611198565b905060006110dd86836117da90919063ffffffff16565b905060006110ea82611142565b6110fb5763ffffffff60e01b611104565b6320c13b0b60e01b5b9050809850505050505050505092915050565b60035481565b600063f23a6e6160e01b90509695505050505050565b600061113d6109f4565b905090565b6000600160008373ffffffffffffffffffffffffffffffffffffffff1673ffffffffffffffffffffffffffffffffffffffff16815260200190815260200160002060009054906101000a900460ff169050919050565b6000816040516020016111ab919061330a565b604051602081830303815290604052805190602001209050919050565b60006111dd82846117da90919063ffffffff16565b90506111e881611142565b611227576040517f08c379a000000000000000000000000000000000000000000000000000000000815260040161121e9061363d565b60405180910390fd5b505050565b600060603a861115611273576040517f08c379a000000000000000000000000000000000000000000000000000000000815260040161126a9061355d565b60405180910390fd5b60006112e1306000357fffffffff00000000000000000000000000000000000000000000000000000000166112a66109f4565b6002548c8c8c8c8c6040516020016112c69998979695949392919061338f565b60405160208183030381529060405280519060200120611198565b90508751600260008282540192505081905550606063792c891f60e01b8960405160240161130f919061347c565b604051602081830303815290604052907bffffffffffffffffffffffffffffffffffffffffffffffffffffffff19166020820180517bffffffffffffffffffffffffffffffffffffffffffffffffffffffff83818316178352505050509050600060603073ffffffffffffffffffffffffffffffffffffffff168360405161139791906132f3565b6000604051808303816000865af19150503d80600081146113d4576040519150601f19603f3d011682016040523d82523d6000602084013e6113d9565b606091505b509150915060608261142f5760606113f08361193d565b90507fb5e1dc2ddc0e1a0221e00b3c0446f36b707001d3ac7cfb494259863fdef7ccd781604051611421919061353b565b60405180910390a150611446565b818060200190516114439190810190612673565b90505b84819650965050505050509550959350505050565b60008060008090505b83518110156114de5761148984828151811061147c57fe5b6020026020010151611cd5565b909150905050809250503073ffffffffffffffffffffffffffffffffffffffff168273ffffffffffffffffffffffffffffffffffffffff16146114d1576001925050506114e5565b8080600101915050611464565b5060009150505b919050565b6000611511846115035a89611c8b90919063ffffffff16565b611d0590919063ffffffff16565b9050600073ffffffffffffffffffffffffffffffffffffffff168373ffffffffffffffffffffffffffffffffffffffff16141561161d574761155c8683611d5a90919063ffffffff16565b111561159d576040517f08c379a00000000000000000000000000000000000000000000000000000000081526004016115949061359d565b60405180910390fd5b3373ffffffffffffffffffffffffffffffffffffffff166115c78683611d5a90919063ffffffff16565b6040516115d39061335f565b60006040518083038185875af1925050503d8060008114611610576040519150601f19603f3d011682016040523d82523d6000602084013e611615565b606091505b505050611797565b600083905060006116378484611d5a90919063ffffffff16565b90508173ffffffffffffffffffffffffffffffffffffffff166370a08231306040518263ffffffff1660e01b81526004016116729190613374565b602060405180830381600087803b15801561168c57600080fd5b505af11580156116a0573d6000803e3d6000fd5b505050506040513d601f19601f820116820180604052506116c49190810190612996565b811115611706576040517f08c379a00000000000000000000000000000000000000000000000000000000081526004016116fd9061377d565b60405180910390fd5b8173ffffffffffffffffffffffffffffffffffffffff1663a9059cbb33836040518363ffffffff1660e01b8152600401611741929190613423565b602060405180830381600087803b15801561175b57600080fd5b505af115801561176f573d6000803e3d6000fd5b505050506040513d601f19601f8201168201806040525061179391908101906128c0565b5050505b505050505050565b60006117ab8251611dca565b826040516020016117bd929190613330565b604051602081830303815290604052805190602001209050919050565b600060418251146117ee57600090506118c0565b60008060006020850151925060408501519150606085015160001a90507f7fffffffffffffffffffffffffffffff5d576e7357a4501ddfe92f46681b20a08260001c111561184257600093505050506118c0565b601b8160ff161415801561185a5750601c8160ff1614155b1561186b57600093505050506118c0565b6001868285856040516000815260200160405260405161188e94939291906134b9565b6020604051602081039080840390855afa1580156118b0573d6000803e3d6000fd5b5050506020604051035193505050505b92915050565b6118cf81611efd565b61190e576040517f08c379a00000000000000000000000000000000000000000000000000000000081526004016119059061367d565b60405180910390fd5b60007f360894a13ba1a3210667c828492db98dca3e2076cc3735a920a3ca505d382bbc60001b90508181555050565b606060448251101561196957604051806060016040528060218152602001613b1460219139905061199e565b606061198460048085510385611bff9092919063ffffffff16565b90508080602001905161199a9190810190612955565b9150505b919050565b60608082516040519080825280602002602001820160405280156119db57816020015b60608152602001906001900390816119c65790505b50905060008090505b8351811015611a2d57611a098482815181106119fc57fe5b6020026020010151611f10565b828281518110611a1557fe5b602002602001018190525080806001019150506119e4565b5080915050919050565b600080600090505b8351811015611aea57611a64848281518110611a5757fe5b6020026020010151611cd5565b909150905050809250503073ffffffffffffffffffffffffffffffffffffffff168273ffffffffffffffffffffffffffffffffffffffff161415611add576040517f08c379a0000000000000000000000000000000000000000000000000000000008152600401611ad4906136dd565b60405180910390fd5b8080600101915050611a3f565b50600082806020019051611b019190810190612996565b9050428111611b45576040517f08c379a0000000000000000000000000000000000000000000000000000000008152600401611b3c9061361d565b60405180910390fd5b50505050565b6000611b6084866117da90919063ffffffff16565b90506000611b958285604051602001611b7a92919061344c565b60405160208183030381529060405280519060200120611198565b90506000611bac84836117da90919063ffffffff16565b9050611bb781611142565b611bf6576040517f08c379a0000000000000000000000000000000000000000000000000000000008152600401611bed9061357d565b60405180910390fd5b50505050505050565b606081830184511015611c1157600080fd5b6060821560008114611c2e57604051915060208201604052611c7f565b6040519150601f8416801560200281840101858101878315602002848b0101015b81831015611c6c5780518352602083019250602081019050611c4f565b50868552601f19601f8301166040525050505b50809150509392505050565b6000611ccd83836040518060400160405280601e81526020017f536166654d6174683a207375627472616374696f6e206f766572666c6f770000815250611f41565b905092915050565b6000806000606084806020019051611cf091908101906123cb565b83935080905093509350935093509193509193565b600080828401905083811015611d50576040517f08c379a0000000000000000000000000000000000000000000000000000000008152600401611d47906135dd565b60405180910390fd5b8091505092915050565b600080831415611d6d5760009050611dc4565b6000828402905082848281611d7e57fe5b0414611dbf576040517f08c379a0000000000000000000000000000000000000000000000000000000008152600401611db6906136fd565b60405180910390fd5b809150505b92915050565b60606000821415611e12576040518060400160405280600181526020017f30000000000000000000000000000000000000000000000000000000000000008152509050611ef8565b6000829050600083905060005b60008214611e41578080600101915050600a8281611e3957fe5b049150611e1f565b6060816040519080825280601f01601f191660200182016040528015611e765781602001600182028038833980820191505090505b50905060006001830390505b60008514611eef57600a8581611e9457fe5b0660300160f81b82828060019003935081518110611eae57fe5b60200101907effffffffffffffffffffffffffffffffffffffffffffffffffffffffffffff1916908160001a905350600a8581611ee757fe5b049450611e82565b81955050505050505b919050565b600080823b905060008111915050919050565b606060008060006060611f2286611cd5565b9350935093509350611f3684848484611f9c565b945050505050919050565b6000838311158290611f89576040517f08c379a0000000000000000000000000000000000000000000000000000000008152600401611f80919061353b565b60405180910390fd5b5060008385039050809150509392505050565b6060600060608673ffffffffffffffffffffffffffffffffffffffff16858786604051611fc991906132f3565b600060405180830381858888f193505050503d8060008114612007576040519150601f19603f3d011682016040523d82523d6000602084013e61200c565b606091505b5091509150816120605760606120218261193d565b9050806040517f08c379a0000000000000000000000000000000000000000000000000000000008152600401612057919061353b565b60405180910390fd5b8092505050949350505050565b60008135905061207c81613ab7565b92915050565b60008151905061209181613ace565b92915050565b600082601f8301126120a857600080fd5b81516120bb6120b682613805565b6137d8565b9150818183526020840193506020810190508360005b8381101561210157815186016120e7888261227c565b8452602084019350602083019250506001810190506120d1565b5050505092915050565b600082601f83011261211c57600080fd5b813561212f61212a8261382d565b6137d8565b9150818183526020840193506020810190508360005b83811015612175578135860161215b8882612228565b845260208401935060208301925050600181019050612145565b5050505092915050565b60008083601f84011261219157600080fd5b8235905067ffffffffffffffff8111156121aa57600080fd5b6020830191508360208202830111156121c257600080fd5b9250929050565b6000815190506121d881613ae5565b92915050565b60008083601f8401126121f057600080fd5b8235905067ffffffffffffffff81111561220957600080fd5b60208301915083600182028301111561222157600080fd5b9250929050565b600082601f83011261223957600080fd5b813561224c61224782613855565b6137d8565b9150808252602083016020830185838301111561226857600080fd5b612273838284613a5a565b50505092915050565b600082601f83011261228d57600080fd5b81516122a061229b82613855565b6137d8565b915080825260208301602083018583830111156122bc57600080fd5b6122c7838284613a69565b50505092915050565b600082601f8301126122e157600080fd5b81356122f46122ef82613881565b6137d8565b9150808252602083016020830185838301111561231057600080fd5b61231b838284613a5a565b50505092915050565b600082601f83011261233557600080fd5b8151612348612343826138ad565b6137d8565b9150808252602083016020830185838301111561236457600080fd5b61236f838284613a69565b50505092915050565b60008135905061238781613afc565b92915050565b60008151905061239c81613afc565b92915050565b6000602082840312156123b457600080fd5b60006123c28482850161206d565b91505092915050565b600080600080608085870312156123e157600080fd5b60006123ef87828801612082565b94505060206124008782880161238d565b93505060406124118782880161238d565b925050606085015167ffffffffffffffff81111561242e57600080fd5b61243a8782880161227c565b91505092959194509250565b60008060008060008060008060a0898b03121561246257600080fd5b60006124708b828c0161206d565b98505060206124818b828c0161206d565b975050604089013567ffffffffffffffff81111561249e57600080fd5b6124aa8b828c0161217f565b9650965050606089013567ffffffffffffffff8111156124c957600080fd5b6124d58b828c0161217f565b9450945050608089013567ffffffffffffffff8111156124f457600080fd5b6125008b828c016121de565b92509250509295985092959890939650565b6000806000806080858703121561252857600080fd5b60006125368782880161206d565b94505060206125478782880161206d565b935050604061255887828801612378565b925050606085013567ffffffffffffffff81111561257557600080fd5b612581878288016122d0565b91505092959194509250565b60008060008060008060a087890312156125a657600080fd5b60006125b489828a0161206d565b96505060206125c589828a0161206d565b95505060406125d689828a01612378565b94505060606125e789828a01612378565b935050608087013567ffffffffffffffff81111561260457600080fd5b61261089828a016121de565b92509250509295509295509295565b6000806040838503121561263257600080fd5b60006126408582860161206d565b925050602083013567ffffffffffffffff81111561265d57600080fd5b612669858286016122d0565b9150509250929050565b60006020828403121561268557600080fd5b600082015167ffffffffffffffff81111561269f57600080fd5b6126ab84828501612097565b91505092915050565b6000602082840312156126c657600080fd5b600082013567ffffffffffffffff8111156126e057600080fd5b6126ec8482850161210b565b91505092915050565b60008060008060008060c0878903121561270e57600080fd5b600087013567ffffffffffffffff81111561272857600080fd5b61273489828a0161210b565b965050602061274589828a01612378565b955050604061275689828a01612378565b945050606061276789828a0161206d565b935050608061277889828a01612378565b92505060a087013567ffffffffffffffff81111561279557600080fd5b6127a189828a016122d0565b9150509295509295509295565b600080600080600080600080610100898b0312156127cb57600080fd5b600089013567ffffffffffffffff8111156127e557600080fd5b6127f18b828c0161210b565b98505060206128028b828c01612378565b97505060406128138b828c01612378565b965050606089013567ffffffffffffffff81111561283057600080fd5b61283c8b828c016122d0565b955050608061284d8b828c0161206d565b94505060a061285e8b828c01612378565b93505060c089013567ffffffffffffffff81111561287b57600080fd5b6128878b828c016122d0565b92505060e089013567ffffffffffffffff8111156128a457600080fd5b6128b08b828c016122d0565b9150509295985092959890939650565b6000602082840312156128d257600080fd5b60006128e0848285016121c9565b91505092915050565b600080604083850312156128fc57600080fd5b600083013567ffffffffffffffff81111561291657600080fd5b612922858286016122d0565b925050602083013567ffffffffffffffff81111561293f57600080fd5b61294b858286016122d0565b9150509250929050565b60006020828403121561296757600080fd5b600082015167ffffffffffffffff81111561298157600080fd5b61298d84828501612324565b91505092915050565b6000602082840312156129a857600080fd5b60006129b68482850161238d565b91505092915050565b60006129cb8383612b23565b905092915050565b6129dc81613a24565b82525050565b6129eb81613999565b82525050565b6129fa81613987565b82525050565b6000612a0b826138e9565b612a15818561392d565b935083602082028501612a27856138d9565b8060005b85811015612a635784840389528151612a4485826129bf565b9450612a4f83613920565b925060208a01995050600181019050612a2b565b50829750879550505050505092915050565b612a7e816139ab565b82525050565b612a8d816139b7565b82525050565b612aa4612a9f826139b7565b613a9c565b82525050565b612ab3816139c1565b82525050565b6000612ac4826138ff565b612ace818561394f565b9350612ade818560208601613a69565b612ae781613aa6565b840191505092915050565b6000612afd826138ff565b612b078185613960565b9350612b17818560208601613a69565b80840191505092915050565b6000612b2e826138f4565b612b38818561393e565b9350612b48818560208601613a69565b612b5181613aa6565b840191505092915050565b6000612b6782613915565b612b71818561396b565b9350612b81818560208601613a69565b612b8a81613aa6565b840191505092915050565b6000612ba082613915565b612baa818561397c565b9350612bba818560208601613a69565b80840191505092915050565b6000612bd18261390a565b612bdb818561396b565b9350612beb818560208601613a69565b612bf481613aa6565b840191505092915050565b6000612c0c60248361396b565b91507f424d54413a204e6f742061206c6172676520656e6f7567682074782e6761737060008301527f72696365000000000000000000000000000000000000000000000000000000006020830152604082019050919050565b6000612c72601a8361396b565b91507f4c4b4d54413a2041757468206b657920697320696e76616c69640000000000006000830152602082019050919050565b6000612cb2601c8361397c565b91507f19457468657265756d205369676e6564204d6573736167653a0a3332000000006000830152601c82019050919050565b6000612cf260258361396b565b91507f42413a20496e73756666696369656e742067617320284554482920666f72207260008301527f6566756e640000000000000000000000000000000000000000000000000000006020830152604082019050919050565b6000612d5860158361396b565b91507f42413a204f6e6c792073656c6620616c6c6f77656400000000000000000000006000830152602082019050919050565b6000612d98601b8361396b565b91507f536166654d6174683a206164646974696f6e206f766572666c6f7700000000006000830152602082019050919050565b6000612dd8603a8361396b565b91507f455243313237313a20496e76616c696420697356616c6964417574684b65795360008301527f69676e6174757265205f7369676e6174757265206c656e6774680000000000006020830152604082019050919050565b6000612e3e601b8361396b565b91507f4c4b4d54413a204c6f67696e206b6579206973206578706972656400000000006000830152602082019050919050565b6000612e7e601a8361396b565b91507f414b4d54413a2041757468206b657920697320696e76616c69640000000000006000830152602082019050919050565b6000612ebe601f8361396b565b91507f42413a2043616e6e6f742072656d6f7665206c6173742061757468206b6579006000830152602082019050919050565b6000612efe603f8361396b565b91507f41553a2043616e6e6f742073657420612070726f787920696d706c656d656e7460008301527f6174696f6e20746f2061206e6f6e2d636f6e74726163742061646472657373006020830152604082019050919050565b6000612f6460218361396b565b91507f41493a20496d70726f70657220696e697469616c697a6174696f6e206f72646560008301527f72000000000000000000000000000000000000000000000000000000000000006020830152604082019050919050565b6000612fca60338361396b565b91507f455243313237313a20496e76616c696420697356616c69645369676e6174757260008301527f65205f7369676e6174757265206c656e677468000000000000000000000000006020830152604082019050919050565b600061303060298361396b565b91507f4c4b4d54413a204c6f67696e206b6579206973206e6f742061626c6520746f2060008301527f63616c6c2073656c6600000000000000000000000000000000000000000000006020830152604082019050919050565b600061309660218361396b565b91507f536166654d6174683a206d756c7469706c69636174696f6e206f766572666c6f60008301527f77000000000000000000000000000000000000000000000000000000000000006020830152604082019050919050565b60006130fc601a8361397c565b91507f19457468657265756d205369676e6564204d6573736167653a0a0000000000006000830152601a82019050919050565b600061313c601f8361396b565b91507f42413a2041757468206b6579206f722073656c6620697320696e76616c6964006000830152602082019050919050565b600061317c600083613960565b9150600082019050919050565b6000613196601a8361396b565b91507f42413a2041757468206b657920616c72656164792061646465640000000000006000830152602082019050919050565b60006131d6601a8361396b565b91507f42413a2041757468206b6579206e6f74207965742061646465640000000000006000830152602082019050919050565b600061321660278361396b565b91507f42413a20496e73756666696369656e74206761732028746f6b656e2920666f7260008301527f20726566756e64000000000000000000000000000000000000000000000000006020830152604082019050919050565b600061327c603b8361396b565b91507f455243313237313a20496e76616c696420697356616c69644c6f67696e4b657960008301527f5369676e6174757265205f7369676e6174757265206c656e67746800000000006020830152604082019050919050565b6132de81613a0d565b82525050565b6132ed81613a17565b82525050565b60006132ff8284612af2565b915081905092915050565b600061331582612ca5565b91506133218284612a93565b60208201915081905092915050565b600061333b826130ef565b91506133478285612b95565b91506133538284612af2565b91508190509392505050565b600061336a8261316f565b9150819050919050565b600060208201905061338960008301846129d3565b92915050565b6000610120820190506133a5600083018c6129e2565b6133b2602083018b612aaa565b6133bf604083018a6132d5565b6133cc60608301896132d5565b81810360808301526133de8188612a00565b90506133ed60a08301876132d5565b6133fa60c08301866132d5565b61340760e08301856129f1565b6134156101008301846132d5565b9a9950505050505050505050565b600060408201905061343860008301856129d3565b61344560208301846132d5565b9392505050565b600060408201905061346160008301856129f1565b81810360208301526134738184612ab9565b90509392505050565b600060208201905081810360008301526134968184612a00565b905092915050565b60006020820190506134b36000830184612a75565b92915050565b60006080820190506134ce6000830187612a84565b6134db60208301866132e4565b6134e86040830185612a84565b6134f56060830184612a84565b95945050505050565b60006020820190506135136000830184612aaa565b92915050565b600060208201905081810360008301526135338184612bc6565b905092915050565b600060208201905081810360008301526135558184612b5c565b905092915050565b6000602082019050818103600083015261357681612bff565b9050919050565b6000602082019050818103600083015261359681612c65565b9050919050565b600060208201905081810360008301526135b681612ce5565b9050919050565b600060208201905081810360008301526135d681612d4b565b9050919050565b600060208201905081810360008301526135f681612d8b565b9050919050565b6000602082019050818103600083015261361681612dcb565b9050919050565b6000602082019050818103600083015261363681612e31565b9050919050565b6000602082019050818103600083015261365681612e71565b9050919050565b6000602082019050818103600083015261367681612eb1565b9050919050565b6000602082019050818103600083015261369681612ef1565b9050919050565b600060208201905081810360008301526136b681612f57565b9050919050565b600060208201905081810360008301526136d681612fbd565b9050919050565b600060208201905081810360008301526136f681613023565b9050919050565b6000602082019050818103600083015261371681613089565b9050919050565b600060208201905081810360008301526137368161312f565b9050919050565b6000602082019050818103600083015261375681613189565b9050919050565b60006020820190508181036000830152613776816131c9565b9050919050565b6000602082019050818103600083015261379681613209565b9050919050565b600060208201905081810360008301526137b68161326f565b9050919050565b60006020820190506137d260008301846132d5565b92915050565b6000604051905081810181811067ffffffffffffffff821117156137fb57600080fd5b8060405250919050565b600067ffffffffffffffff82111561381c57600080fd5b602082029050602081019050919050565b600067ffffffffffffffff82111561384457600080fd5b602082029050602081019050919050565b600067ffffffffffffffff82111561386c57600080fd5b601f19601f8301169050602081019050919050565b600067ffffffffffffffff82111561389857600080fd5b601f19601f8301169050602081019050919050565b600067ffffffffffffffff8211156138c457600080fd5b601f19601f8301169050602081019050919050565b6000819050602082019050919050565b600081519050919050565b600081519050919050565b600081519050919050565b600081519050919050565b600081519050919050565b6000602082019050919050565b600082825260208201905092915050565b600082825260208201905092915050565b600082825260208201905092915050565b600081905092915050565b600082825260208201905092915050565b600081905092915050565b6000613992826139ed565b9050919050565b60006139a4826139ed565b9050919050565b60008115159050919050565b6000819050919050565b60007fffffffff0000000000000000000000000000000000000000000000000000000082169050919050565b600073ffffffffffffffffffffffffffffffffffffffff82169050919050565b6000819050919050565b600060ff82169050919050565b6000613a2f82613a36565b9050919050565b6000613a4182613a48565b9050919050565b6000613a53826139ed565b9050919050565b82818337600083830152505050565b60005b83811015613a87578082015181840152602081019050613a6c565b83811115613a96576000848401525b50505050565b6000819050919050565b6000601f19601f8301169050919050565b613ac081613987565b8114613acb57600080fd5b50565b613ad781613999565b8114613ae257600080fd5b50565b613aee816139ab565b8114613af957600080fd5b50565b613b0581613a0d565b8114613b1057600080fd5b5056fe42413a205472616e73616374696f6e2072657665727465642073696c656e746c79a365627a7a72315820ae3d0d7dfdbc9aa656bfe800a2a91a9a8ad8f9bc7a2f75a4d2ffb8ce3d7f39026c6578706572696d656e74616cf564736f6c63430005100040",
  "source": "pragma solidity 0.5.16;\npragma experimental ABIEncoderV2;\n\nimport \"../account/AuthereumAccount.sol\";\n\n/**\n * @title UpgradeAccountWithInit\n * @author Authereum Labs, Inc.\n * @dev A contract used to test upgrades. This contract does have an init function.\n */\n\ncontract UpgradeAccountWithInit is AuthereumAccount {\n\n    uint256 public upgradeTestVal;\n\n    /// @dev Function to call to test an upgrade with a new function\n    /// @return A constant\n    function upgradeTestInit() public {\n        upgradeTestVal = 42;\n    }\n\n    /// @dev Function to call to test an upgrade with a new function\n    /// @return An initialized constant\n    function upgradeTest() public view returns (uint256) {\n        return upgradeTestVal;\n    }\n\n    /// @dev Function to call to test an upgrade with a new function reading an old state\n    /// @return The chain ID\n    function getChainIdValue() public pure returns (uint256) {\n        return getChainId();\n    }\n}\n",
  "sourcePath": "/Users/smitrajput/Projects/batchoo/contracts/test/UpgradeAccountWithInit.sol",
  "compiler": {
    "name": "solc",
    "version": "0.5.16+commit.9c3226ce.Emscripten.clang"
  },
  "schemaVersion": "3.1.0",
  "updatedAt": "2020-05-20T12:48:46.163Z",
  "devdoc": {
    "author": "Authereum Labs, Inc.",
    "details": "A contract used to test upgrades. This contract does have an init function.",
    "methods": {
      "addAuthKey(address)": {
        "details": "Add an auth key to the list of auth keys",
        "params": {
          "_authKey": "Address of the auth key to add"
        }
      },
      "executeMultipleAuthKeyMetaTransactions(bytes[],uint256,uint256,address,uint256,bytes)": {
        "details": "Execute multiple authKey meta transactions",
        "params": {
          "_feeTokenAddress": "Address of the token used to pay a fee",
          "_feeTokenRate": "Rate of the token (in tokenGasPrice/ethGasPrice) used to pay a fee",
          "_gasOverhead": "Gas overhead of the transaction calculated offchain",
          "_gasPrice": "Gas price set by the user",
          "_transactionMessageHashSignature": "Signed transaction data",
          "_transactions": "Arrays of transaction data ([destination, value, gasLimit, data][...]...)"
        }
      },
      "executeMultipleLoginKeyMetaTransactions(bytes[],uint256,uint256,bytes,address,uint256,bytes,bytes)": {
        "details": "Execute an loginKey meta transaction",
        "params": {
          "_feeTokenAddress": "Address of the token used to pay a fee",
          "_feeTokenRate": "Rate of the token (in tokenGasPrice/ethGasPrice) used to pay a fee",
          "_gasOverhead": "Gas overhead of the transaction calculated offchain",
          "_gasPrice": "Gas price set by the user",
          "_loginKeyAttestationSignature": "Signed loginKey",
          "_loginKeyRestrictionsData": "Contains restrictions to the loginKey's functionality",
          "_transactionMessageHashSignature": "Signed transaction data",
          "_transactions": "Arrays of transaction data ([destination, value, gasLimit, data][...]...)"
        },
        "return": "Response of the call"
      },
      "executeMultipleMetaTransactions(bytes[])": {
        "details": "Execute multiple meta transactions",
        "params": {
          "_transactions": "Arrays of transaction data ([destination, value, gasLimit, data][...]...)"
        },
        "return": "The responses of the calls"
      },
      "getChainId()": {
        "details": "Get the chain ID constant",
        "return": "The chain id"
      },
      "getChainIdValue()": {
        "details": "Function to call to test an upgrade with a new function reading an old state",
        "return": "The chain ID"
      },
      "initializeV1(address)": {
        "details": "Initialize the Authereum Account",
        "params": {
          "_authKey": "authKey that will own this account"
        }
      },
      "isValidAuthKeySignature(bytes,bytes)": {
        "details": "Check if a message and auth key signature pair is valid",
        "params": {
          "_data": "Data that was signed",
          "_signature": "Signature of the data signed by the authkey"
        },
        "return": "VALID_SIG or INVALID_SIG hex data"
      },
      "isValidLoginKeySignature(bytes,bytes)": {
        "details": "Check if a message and login key signature pair is valid, as well as a signed login key by an auth key",
        "params": {
          "_data": "Message that was signed",
          "_signature": "Signature of the data. Signed msg data by the login key and signed login key by auth key"
        },
        "return": "VALID_SIG or INVALID_SIG hex data"
      },
      "isValidSignature(bytes,bytes)": {
        "details": "Check if a message and signature pair is valid",
        "params": {
          "_data": "Data that was signed",
          "_signature": "Signature(s) of the data. Either a single signature (login) or two (login and auth)"
        },
        "return": "VALID_SIG or INVALID_SIG hex data"
      },
      "onERC1155BatchReceived(address,address,uint256[],uint256[],bytes)": {
        "details": "An ERC1155-compliant smart contract MUST call this function on the token recipient contract, at the end of a `safeBatchTransferFrom` after the balances have been updated. This function MUST return `bytes4(keccak256(\"onERC1155BatchReceived(address,address,uint256[],uint256[],bytes)\"))` (i.e. 0xbc197c81) if it accepts the transfer(s). This function MUST revert if it rejects the transfer(s). Return of any other value than the prescribed keccak256 generated value MUST result in the transaction being reverted by the caller. param _operator  The address which initiated the batch transfer (i.e. msg.sender) param _from      The address which previously owned the token param _ids       An array containing ids of each token being transferred (order and length must match _values array) param _values    An array containing amounts of each token being transferred (order and length must match _ids array) param _data      Additional data with no specified format",
        "return": "`bytes4(keccak256(\"onERC1155BatchReceived(address,address,uint256[],uint256[],bytes)\"))`"
      },
      "onERC721Received(address,address,uint256,bytes)": {
        "details": "The ERC721 smart contract calls this function on the recipient after a {IERC721-safeTransferFrom}. This function MUST return the function selector, otherwise the caller will revert the transaction. The selector to be returned can be obtained as `this.onERC721Received.selector`. This function MAY throw to revert and reject the transfer. Note: the ERC721 contract address is always the message sender. param operator The address which called `safeTransferFrom` function param from The address which previously owned the token param tokenId The NFT identifier which is being transferred param data Additional data with no specified format",
        "return": "bytes4 `bytes4(keccak256(\"onERC721Received(address,address,uint256,bytes)\"))`"
      },
      "removeAuthKey(address)": {
        "details": "Remove an auth key from the list of auth keys",
        "params": {
          "_authKey": "Address of the auth key to remove"
        }
      },
      "upgradeTest()": {
        "details": "Function to call to test an upgrade with a new function",
        "return": "An initialized constant"
      },
      "upgradeTestInit()": {
        "details": "Function to call to test an upgrade with a new function",
        "return": "A constant"
      },
      "upgradeToAndCall(address,bytes)": {
        "details": "Upgrades the proxy to the newest implementation of a contract and forwards a function call to it",
        "params": {
          "_data": "Array of initialize data",
          "_newImplementation": "Address of the new implementation"
        }
      }
    },
    "title": "UpgradeAccountWithInit"
  },
  "userdoc": {
    "methods": {
      "executeMultipleMetaTransactions(bytes[])": {
        "notice": "This can only be called by self as a part of the atomic meta transaction"
      },
      "isValidSignature(bytes,bytes)": {
        "notice": "The _signature parameter can either be one auth key signature or it canbe a login key signature and an auth key signature (signed login key)"
      },
      "onERC1155BatchReceived(address,address,uint256[],uint256[],bytes)": {
        "notice": "Handle the receipt of multiple ERC1155 token types."
      },
      "onERC1155Received(address,address,uint256,uint256,bytes)": {
        "notice": "ERC1155"
      },
      "onERC721Received(address,address,uint256,bytes)": {
        "notice": "Handle the receipt of an NFT"
      },
      "upgradeToAndCall(address,bytes)": {
        "notice": "This is useful to initialize the proxied contract"
      }
    }
  }
}